{
  "_format": "hh-sol-artifact-1",
  "contractName": "ContractMetadata",
  "sourceName": "contracts/libraries/ContractMetadata.sol",
  "abi": [
    {
      "inputs": [
        {
          "components": [
            {
              "internalType": "string",
              "name": "name",
              "type": "string"
            },
            {
              "internalType": "string",
              "name": "symbol",
              "type": "string"
            },
            {
              "internalType": "string",
              "name": "description",
              "type": "string"
            },
            {
              "internalType": "address[]",
              "name": "image",
              "type": "address[]"
            }
          ],
          "internalType": "struct ContractMetadata.Data",
          "name": "data",
          "type": "tuple"
        }
      ],
      "name": "uri",
      "outputs": [
        {
          "internalType": "string",
          "name": "",
          "type": "string"
        }
      ],
      "stateMutability": "view",
      "type": "function"
    }
  ],
  "bytecode": "0x6109e261003a600b82828239805160001a60731461002d57634e487b7160e01b600052600060045260246000fd5b30600052607381538281f3fe73000000000000000000000000000000000000000030146080604052600436106100355760003560e01c8063033918d31461003a575b600080fd5b61004d6100483660046104fa565b610063565b60405161005a91906105f7565b60405180910390f35b6060600082600001518360200151846040015161007f866100d3565b6040516020016100929493929190610664565b60405160208183030381529060405290506100ac8161014d565b6040516020016100bc9190610803565b604051602081830303815290604052915050919050565b606060005b8260600151518160ff161015610147578161011284606001518360ff168151811061010557610105610848565b60200260200101516102ad565b604051602001610123929190610877565b6040516020818303038152906040529150808061013f906108d5565b9150506100d8565b50919050565b6060815160000361016c57505060408051602081019091526000815290565b600060405180606001604052806040815260200161096d604091399050600060038451600261019b91906108f4565b6101a59190610907565b6101b0906004610942565b67ffffffffffffffff8111156101c8576101c8610322565b6040519080825280601f01601f1916602001820160405280156101f2576020820181803683370190505b50905060018201602082018586518701602081018051600082525b82841015610268576003840193508351603f8160121c168701518653600186019550603f81600c1c168701518653600186019550603f8160061c168701518653600186019550603f811687015186535060018501945061020d565b9052505085516003900660018114610287576002811461029a576102a2565b603d6001830353603d60028303536102a2565b603d60018303535b509195945050505050565b60606102db8260016102d68173ffffffffffffffffffffffffffffffffffffffff84163b610959565b6102e1565b92915050565b60408051603f83017fffffffffffffffffffffffffffffffffffffffffffffffffffffffffffffffe0168101909152818152818360208301863c9392505050565b7f4e487b7100000000000000000000000000000000000000000000000000000000600052604160045260246000fd5b6040516080810167ffffffffffffffff8111828210171561037457610374610322565b60405290565b604051601f82017fffffffffffffffffffffffffffffffffffffffffffffffffffffffffffffffe016810167ffffffffffffffff811182821017156103c1576103c1610322565b604052919050565b600082601f8301126103da57600080fd5b813567ffffffffffffffff8111156103f4576103f4610322565b61042560207fffffffffffffffffffffffffffffffffffffffffffffffffffffffffffffffe0601f8401160161037a565b81815284602083860101111561043a57600080fd5b816020850160208301376000918101602001919091529392505050565b600082601f83011261046857600080fd5b8135602067ffffffffffffffff82111561048457610484610322565b8160051b61049382820161037a565b92835284810182019282810190878511156104ad57600080fd5b83870192505b848310156104ef57823573ffffffffffffffffffffffffffffffffffffffff811681146104e05760008081fd5b825291830191908301906104b3565b979650505050505050565b60006020828403121561050c57600080fd5b813567ffffffffffffffff8082111561052457600080fd5b908301906080828603121561053857600080fd5b610540610351565b82358281111561054f57600080fd5b61055b878286016103c9565b82525060208301358281111561057057600080fd5b61057c878286016103c9565b60208301525060408301358281111561059457600080fd5b6105a0878286016103c9565b6040830152506060830135828111156105b857600080fd5b6105c487828601610457565b60608301525095945050505050565b60005b838110156105ee5781810151838201526020016105d6565b50506000910152565b60208152600082518060208401526106168160408501602087016105d3565b601f017fffffffffffffffffffffffffffffffffffffffffffffffffffffffffffffffe0169190910160400192915050565b6000815161065a8185602086016105d3565b9290920192915050565b7f7b0000000000000000000000000000000000000000000000000000000000000081527f226e616d65223a202200000000000000000000000000000000000000000000006001820152600085516106c281600a850160208a016105d3565b80830190507f222c00000000000000000000000000000000000000000000000000000000000080600a8301527f2273796d626f6c223a2022000000000000000000000000000000000000000000600c8301528651610727816017850160208b016105d3565b601792019182018190527f226465736372697074696f6e223a2022000000000000000000000000000000006019830152855161076a816029850160208a016105d3565b60299201918201526104ef6107da6107b16107ab602b85017f22696d616765223a2022000000000000000000000000000000000000000000008152600a0190565b87610648565b7f2200000000000000000000000000000000000000000000000000000000000000815260010190565b7f7d00000000000000000000000000000000000000000000000000000000000000815260010190565b7f646174613a6170706c69636174696f6e2f6a736f6e3b6261736536342c00000081526000825161083b81601d8501602087016105d3565b91909101601d0192915050565b7f4e487b7100000000000000000000000000000000000000000000000000000000600052603260045260246000fd5b600083516108898184602088016105d3565b83519083019061089d8183602088016105d3565b01949350505050565b7f4e487b7100000000000000000000000000000000000000000000000000000000600052601160045260246000fd5b600060ff821660ff81036108eb576108eb6108a6565b60010192915050565b808201808211156102db576102db6108a6565b60008261093d577f4e487b7100000000000000000000000000000000000000000000000000000000600052601260045260246000fd5b500490565b80820281158282048414176102db576102db6108a6565b818103818111156102db576102db6108a656fe4142434445464748494a4b4c4d4e4f505152535455565758595a6162636465666768696a6b6c6d6e6f707172737475767778797a303132333435363738392b2fa26469706673582212209fdcd9b655eb9d378f6e7c761c67f51ddd5b3a0e1ad3cbeb5ddf9a26abaf457064736f6c63430008180033",
  "linkReferences": {},
  "deployedLinkReferences": {}
}