{
  "_format": "hh-sol-artifact-1",
  "contractName": "FactoryERC20Mints",
  "sourceName": "contracts/factories/FactoryERC20Mints.sol",
  "abi": [
    {
      "inputs": [
        {
          "internalType": "address",
          "name": "renderer",
          "type": "address"
        }
      ],
      "stateMutability": "nonpayable",
      "type": "constructor"
    },
    {
      "anonymous": false,
      "inputs": [
        {
          "indexed": true,
          "internalType": "address",
          "name": "ownerAddress",
          "type": "address"
        },
        {
          "indexed": false,
          "internalType": "address",
          "name": "contractAddress",
          "type": "address"
        }
      ],
      "name": "Created",
      "type": "event"
    },
    {
      "inputs": [
        {
          "internalType": "string",
          "name": "name",
          "type": "string"
        },
        {
          "internalType": "string",
          "name": "symbol",
          "type": "string"
        },
        {
          "internalType": "string",
          "name": "description",
          "type": "string"
        },
        {
          "internalType": "bytes[]",
          "name": "image",
          "type": "bytes[]"
        }
      ],
      "name": "create",
      "outputs": [
        {
          "internalType": "address",
          "name": "",
          "type": "address"
        }
      ],
      "stateMutability": "nonpayable",
      "type": "function"
    },
    {
      "inputs": [
        {
          "internalType": "address",
          "name": "creator",
          "type": "address"
        }
      ],
      "name": "getCreatorCollections",
      "outputs": [
        {
          "internalType": "address[]",
          "name": "",
          "type": "address[]"
        }
      ],
      "stateMutability": "view",
      "type": "function"
    },
    {
      "inputs": [],
      "name": "version",
      "outputs": [
        {
          "internalType": "uint256",
          "name": "",
          "type": "uint256"
        }
      ],
      "stateMutability": "pure",
      "type": "function"
    }
  ],
  "bytecode": "0x60a03461006a57601f6148d638819003918201601f19168301916001600160401b0383118484101761006f5780849260209460405283398101031261006a57516001600160a01b038116810361006a57608052604051614850908161008682396080518161033b0152f35b600080fd5b634e487b7160e01b600052604160045260246000fdfe604060808152600436101561001357600080fd5b600090813560e01c806343215e0f1461015757806354fd4d501461011e576374311e121461004057600080fd5b34610116576020807ffffffffffffffffffffffffffffffffffffffffffffffffffffffffffffffffc36011261011a576004359273ffffffffffffffffffffffffffffffffffffffff9384811680910361011657815280825282812091835190818185549182815201908195855282852090855b81811061010057505050826100ca9103836105ec565b8451948186019282875251809352850193925b8281106100ea5785850386f35b83518716855293810193928101926001016100dd565b82548a16845292840192600192830192016100b4565b5080fd5b8280fd5b503461011657817ffffffffffffffffffffffffffffffffffffffffffffffffffffffffffffffffc360112610116576020905160018152f35b5034610116577ffffffffffffffffffffffffffffffffffffffffffffffffffffffffffffffffc9060808236011261011a5760043567ffffffffffffffff81116105e8576101a990369060040161065c565b60243567ffffffffffffffff81116105e4576101c990369060040161065c565b9260443567ffffffffffffffff81116105e0576101ea90369060040161065c565b9367ffffffffffffffff606435116105e0573660236064350112156105e05767ffffffffffffffff60643560040135116105e0576064356004013560051b90366024836064350101116105dc5784516140e68082019082821067ffffffffffffffff8311176105af579082916107358339039088f080156105a55773ffffffffffffffffffffffffffffffffffffffff1695863b156105a157926102eb88946102db6102cb97959489519889977f84252fb700000000000000000000000000000000000000000000000000000000895260c060048a015260c48901906106d6565b90858883030160248901526106d6565b90838683030160448701526106d6565b908382030160648401526064356004013581526020808201928201019160246064350191855b6064356004013581106104b25750505050819073ffffffffffffffffffffffffffffffffffffffff7f00000000000000000000000000000000000000000000000000000000000000001660848301523360a4830152038183875af180156104a857610460575b50338352826020528083208054906801000000000000000082101561043357600182018082558210156104065784602095918692522001827fffffffffffffffffffffffff000000000000000000000000000000000000000082541617905580518281527f587ece4cd19692c5be1a4184503d607d45542d2aca0698c0068f52e09ccb541c843392a251908152f35b6024857f4e487b710000000000000000000000000000000000000000000000000000000081526032600452fd5b6024857f4e487b710000000000000000000000000000000000000000000000000000000081526041600452fd5b67ffffffffffffffff819492941161047b5783529138610377565b6024827f4e487b710000000000000000000000000000000000000000000000000000000081526041600452fd5b82513d86823e3d90fd5b929550929093507fffffffffffffffffffffffffffffffffffffffffffffffffffffffffffffffe083820301845284357fffffffffffffffffffffffffffffffffffffffffffffffffffffffffffffffbd60643536030181121561059d57606435019067ffffffffffffffff60248301351161059d578960248301353603604484011361059a57602080927fffffffffffffffffffffffffffffffffffffffffffffffffffffffffffffffe0601f60248785968260019a0135865282820135604483018888013786838301358701015201350116010196019401910190889492869492610311565b80fd5b8980fd5b8780fd5b85513d89823e3d90fd5b60248a7f4e487b710000000000000000000000000000000000000000000000000000000081526041600452fd5b8680fd5b8580fd5b8480fd5b8380fd5b90601f7fffffffffffffffffffffffffffffffffffffffffffffffffffffffffffffffe0910116810190811067ffffffffffffffff82111761062d57604052565b7f4e487b7100000000000000000000000000000000000000000000000000000000600052604160045260246000fd5b81601f820112156106d15780359067ffffffffffffffff821161062d57604051926106af60207fffffffffffffffffffffffffffffffffffffffffffffffffffffffffffffffe0601f86011601856105ec565b828452602083830101116106d157816000926020809301838601378301015290565b600080fd5b919082519283825260005b8481106107205750507fffffffffffffffffffffffffffffffffffffffffffffffffffffffffffffffe0601f8460006020809697860101520116010190565b6020818301810151848301820152016106e156fe6080806040523461008257331561006c5760018060a01b0319806001541660015560005490339082161760005560405190339060018060a01b03167f8be0079c531659141344cd1fd0a4f28419497f9722a3daafe3b4186f6b6457e0600080a361405e9081620000888239f35b631e4fbdf760e01b815260006004820152602490fd5b600080fdfe6080604052600436101561001257600080fd5b60003560e01c8062fdd58e146101e657806301ffc9a7146101e15780630e89341c146101dc5780631b2ef1ca146101d75780631ffbee64146101d25780632eb2c2d6146101cd5780634e1273f4146101c857806351cff8d9146101c357806354fd4d50146101be5780635d05125b146101b9578063715018a6146101b457806379ba5097146101af57806384252fb7146101aa57806387d81789146101a55780638c0e8349146101a05780638da5cb5b1461019b5780639507d39a14610196578063a22cb46514610191578063a38d93491461018c578063b564434114610187578063b6cb8dfe14610182578063c4a0d4651461017d578063c622969814610178578063e30c397814610173578063e8a3d4851461016e578063e985e9c514610169578063f242432a14610164578063f2fde38b1461015f5763f5298aca1461015a57600080fd5b611c3d565b611b90565b6119d2565b611938565b6117ab565b611759565b6116c1565b6115ff565b6114e8565b61148e565b6113dd565b61128a565b6111d0565b6110bc565b611080565b610ff1565b610f3a565b610e54565b610dab565b610d6f565b610d30565b610ce9565b610c10565b610a00565b6107c6565b610612565b6104aa565b610340565b61029d565b6004359073ffffffffffffffffffffffffffffffffffffffff8216820361020e57565b600080fd5b6024359073ffffffffffffffffffffffffffffffffffffffff8216820361020e57565b6084359073ffffffffffffffffffffffffffffffffffffffff8216820361020e57565b60a4359073ffffffffffffffffffffffffffffffffffffffff8216820361020e57565b359073ffffffffffffffffffffffffffffffffffffffff8216820361020e57565b3461020e5760407ffffffffffffffffffffffffffffffffffffffffffffffffffffffffffffffffc36011261020e57602061030d6102d96101eb565b6024356000526002835260406000209073ffffffffffffffffffffffffffffffffffffffff16600052602052604060002090565b54604051908152f35b7fffffffff0000000000000000000000000000000000000000000000000000000081160361020e57565b3461020e5760207ffffffffffffffffffffffffffffffffffffffffffffffffffffffffffffffffc36011261020e5760207fffffffff0000000000000000000000000000000000000000000000000000000060043561039e81610316565b167fd9b67a26000000000000000000000000000000000000000000000000000000008114908115610406575b81156103dc575b506040519015158152f35b7f01ffc9a700000000000000000000000000000000000000000000000000000000915014386103d1565b7f0e89341c00000000000000000000000000000000000000000000000000000000811491506103ca565b60005b8381106104435750506000910152565b8181015183820152602001610433565b907fffffffffffffffffffffffffffffffffffffffffffffffffffffffffffffffe0601f60209361048f81518092818752878088019101610430565b0116010190565b9060206104a7928181520190610453565b90565b3461020e5760207ffffffffffffffffffffffffffffffffffffffffffffffffffffffffffffffffc36011261020e57600435600a5481116105e857600081610507610502610599946000526008602052604060002090565b61210d565b9061056361054a61054a61052a610525606087015163ffffffff1690565b61078a565b905473ffffffffffffffffffffffffffffffffffffffff9160031b1c1690565b73ffffffffffffffffffffffffffffffffffffffff1690565b906040518095819482937fa2f31bf300000000000000000000000000000000000000000000000000000000845260048401612242565b03915afa80156105e3576105bc916000916105c0575b5060405191829182610496565b0390f35b6105dd91503d806000833e6105d5818361089b565b8101906121e3565b386105af565b61230e565b60046040517f9430a17e000000000000000000000000000000000000000000000000000000008152fd5b3461020e5760407ffffffffffffffffffffffffffffffffffffffffffffffffffffffffffffffffc36011261020e57600435602435600a5482116105e85761068b61067e600361066c856000526008602052604060002090565b015460401c67ffffffffffffffff1690565b67ffffffffffffffff1690565b42116107315761054a7f160ecdf0b6c0a56992b4f6fad717f85f3b0bba236ec571bf26ca5cf4fe61101e916107046106cd85600052600c602052604060002090565b6106fb6106de846001840154612349565b9485925473ffffffffffffffffffffffffffffffffffffffff1690565b3090339061318f565b61071761070f61235c565b828633613257565b6040805192835260208301919091523390820152606090a2005b60046040517f589ed34b000000000000000000000000000000000000000000000000000000008152fd5b7f4e487b7100000000000000000000000000000000000000000000000000000000600052603260045260246000fd5b6009548110156107c15760096000527f6e1540171b6c0c960b71a7020d9f60077f6af931a8bbf590da0223dacf75c7af0190600090565b61075b565b3461020e5760207ffffffffffffffffffffffffffffffffffffffffffffffffffffffffffffffffc36011261020e5760043560095481101561020e5773ffffffffffffffffffffffffffffffffffffffff60209160096000527f6e1540171b6c0c960b71a7020d9f60077f6af931a8bbf590da0223dacf75c7af015416604051908152f35b7f4e487b7100000000000000000000000000000000000000000000000000000000600052604160045260246000fd5b6020810190811067ffffffffffffffff82111761089657604052565b61084b565b90601f7fffffffffffffffffffffffffffffffffffffffffffffffffffffffffffffffe0910116810190811067ffffffffffffffff82111761089657604052565b604051906040820182811067ffffffffffffffff82111761089657604052565b67ffffffffffffffff81116108965760051b60200190565b9080601f8301121561020e57602090823561092e816108fc565b9361093c604051958661089b565b81855260208086019260051b82010192831161020e57602001905b828210610965575050505090565b81358152908301908301610957565b67ffffffffffffffff811161089657601f017fffffffffffffffffffffffffffffffffffffffffffffffffffffffffffffffe01660200190565b9291926109ba82610974565b916109c8604051938461089b565b82948184528183011161020e578281602093846000960137010152565b9080601f8301121561020e578160206104a7933591016109ae565b3461020e5760a07ffffffffffffffffffffffffffffffffffffffffffffffffffffffffffffffffc36011261020e57610a376101eb565b610a3f610213565b906044359167ffffffffffffffff9081841161020e57610a6460049436908601610914565b9060643583811161020e57610a7c9036908701610914565b9260843590811161020e57610a9490369087016109e5565b9373ffffffffffffffffffffffffffffffffffffffff808216903382141580610b89575b610b3657831615610b055715610ad457610ad295506138ba565b005b6024866000604051917f01a83514000000000000000000000000000000000000000000000000000000008352820152fd5b6024876000604051917f57f447ce000000000000000000000000000000000000000000000000000000008352820152fd5b604080517fe237d92200000000000000000000000000000000000000000000000000000000815233818b0190815273ffffffffffffffffffffffffffffffffffffffff8616602082015290918291010390fd5b5081600052600360205260ff610bc33360406000209073ffffffffffffffffffffffffffffffffffffffff16600052602052604060002090565b541615610ab8565b90815180825260208080930193019160005b828110610beb575050505090565b835185529381019392810192600101610bdd565b9060206104a7928181520190610bcb565b3461020e5760407ffffffffffffffffffffffffffffffffffffffffffffffffffffffffffffffffc36011261020e5760043567ffffffffffffffff80821161020e573660238301121561020e578160040135610c6b816108fc565b92610c79604051948561089b565b8184526020916024602086019160051b8301019136831161020e57602401905b828210610cd2578560243586811161020e576105bc91610cc0610cc6923690600401610914565b90612383565b60405191829182610bff565b838091610cde8461027c565b815201910190610c99565b3461020e5760207ffffffffffffffffffffffffffffffffffffffffffffffffffffffffffffffffc36011261020e57610ad2610d236101eb565b610d2b6132a8565b61246f565b3461020e5760007ffffffffffffffffffffffffffffffffffffffffffffffffffffffffffffffffc36011261020e576020604051650a015eb427b08152f35b3461020e5760007ffffffffffffffffffffffffffffffffffffffffffffffffffffffffffffffffc36011261020e576020600b54604051908152f35b3461020e576000807ffffffffffffffffffffffffffffffffffffffffffffffffffffffffffffffffc360112610e5157610de36132a8565b8073ffffffffffffffffffffffffffffffffffffffff7fffffffffffffffffffffffff0000000000000000000000000000000000000000806001541660015582549081168355167f8be0079c531659141344cd1fd0a4f28419497f9722a3daafe3b4186f6b6457e08280a380f35b80fd5b3461020e5760007ffffffffffffffffffffffffffffffffffffffffffffffffffffffffffffffffc36011261020e573373ffffffffffffffffffffffffffffffffffffffff6001541603610eab57610ad233613330565b60246040517f118cdaa7000000000000000000000000000000000000000000000000000000008152336004820152fd5b9181601f8401121561020e5782359167ffffffffffffffff831161020e576020838186019501011161020e57565b9181601f8401121561020e5782359167ffffffffffffffff831161020e576020808501948460051b01011161020e57565b3461020e5760c07ffffffffffffffffffffffffffffffffffffffffffffffffffffffffffffffffc36011261020e5767ffffffffffffffff60043581811161020e57610f8a903690600401610edb565b60243583811161020e57610fa2903690600401610edb565b9060443585811161020e57610fbb903690600401610edb565b9060643596871161020e57610fd7610ad2973690600401610f09565b949093610fe2610236565b96610feb610259565b98612c67565b3461020e5760207ffffffffffffffffffffffffffffffffffffffffffffffffffffffffffffffffc36011261020e57600435600052600c6020526040600020600173ffffffffffffffffffffffffffffffffffffffff825416910154906105bc604051928392836020909392919373ffffffffffffffffffffffffffffffffffffffff60408201951681520152565b3461020e5760007ffffffffffffffffffffffffffffffffffffffffffffffffffffffffffffffffc36011261020e576020600a54604051908152f35b3461020e5760007ffffffffffffffffffffffffffffffffffffffffffffffffffffffffffffffffc36011261020e57602073ffffffffffffffffffffffffffffffffffffffff60005416604051908152f35b90815180825260208080930193019160005b82811061112e575050505090565b835173ffffffffffffffffffffffffffffffffffffffff1685529381019392810192600101611120565b9590936111b060c0969998946111a267ffffffffffffffff956111946fffffffffffffffffffffffffffffffff9960e08d5260e08d0190610453565b908b820360208d0152610453565b9089820360408b015261110e565b9863ffffffff80921660608901521660808701521660a085015216910152565b3461020e5760207ffffffffffffffffffffffffffffffffffffffffffffffffffffffffffffffffc36011261020e576004356000526008602052604060002060038101546105bc63ffffffff92604051936112368561122f8185611ff0565b038661089b565b6112566002604051936112508561122f8160018501611ff0565b016120a4565b936040519586958260801c9467ffffffffffffffff8460401c1694808560201c1694169288611158565b8015150361020e57565b3461020e5760407ffffffffffffffffffffffffffffffffffffffffffffffffffffffffffffffffc36011261020e576112c16101eb565b6024356112cd81611280565b73ffffffffffffffffffffffffffffffffffffffff821691821561138d576113229033600052600360205260406000209073ffffffffffffffffffffffffffffffffffffffff16600052602052604060002090565b7fffffffffffffffffffffffffffffffffffffffffffffffffffffffffffffff0081541660ff831515161790557f17307eab39ab6107e8899845ad3d59bd9653f200f220920489ca2b5937696c3160405180611388339482919091602081019215159052565b0390a3005b60246040517fced3e10000000000000000000000000000000000000000000000000000000000815260006004820152fd5b608435906fffffffffffffffffffffffffffffffff8216820361020e57565b3461020e5760e07ffffffffffffffffffffffffffffffffffffffffffffffffffffffffffffffffc36011261020e5767ffffffffffffffff60043581811161020e5761142d903690600401610edb565b60243583811161020e57611445903690600401610edb565b9360443590811161020e5761145e903690600401610f09565b6064359163ffffffff8316830361020e57610ad29661147b6113be565b94611484610259565b9660c43598612e41565b3461020e5760207ffffffffffffffffffffffffffffffffffffffffffffffffffffffffffffffffc36011261020e576004356000526008602052602067ffffffffffffffff60036040600020015460401c16604051908152f35b3461020e5760607ffffffffffffffffffffffffffffffffffffffffffffffffffffffffffffffffc36011261020e5760043560243567ffffffffffffffff811161020e5761153a903690600401610f09565b91906044359161154983611280565b6115516132a8565b600a548111156115d65760005260086020526002604060002001918254151590816115ce575b506115c0575b60005b60ff81169084821015610ad2576115b66115b06115ab6115a46115bb958988612a7e565b36916109ae565b6133a5565b85612bfc565b612a6d565b611580565b6115c98261316b565b61157d565b905038611577565b60046040517ea5a1f5000000000000000000000000000000000000000000000000000000008152fd5b3461020e5760207ffffffffffffffffffffffffffffffffffffffffffffffffffffffffffffffffc36011261020e576116366101eb565b61163e6132a8565b61164781612ade565b600954907fffffffffffffffffffffffffffffffffffffffffffffffffffffffffffffffff82019182116116bc578160209273ffffffffffffffffffffffffffffffffffffffff60405193167fbe12a6cdcfa8711b87484030475533b479a18855d1d39eb97f1f0f3fd6e111ff600080a38152f35b61231a565b3461020e5760207ffffffffffffffffffffffffffffffffffffffffffffffffffffffffffffffffc36011261020e57600435600a5481116105e857600052600c6020526040600020600173ffffffffffffffffffffffffffffffffffffffff825416910154906105bc604051928392836020909392919373ffffffffffffffffffffffffffffffffffffffff60408201951681520152565b3461020e5760007ffffffffffffffffffffffffffffffffffffffffffffffffffffffffffffffffc36011261020e57602073ffffffffffffffffffffffffffffffffffffffff60015416604051908152f35b3461020e576000807ffffffffffffffffffffffffffffffffffffffffffffffffffffffffffffffffc360112610e51576040517f033918d3000000000000000000000000000000000000000000000000000000008152818160208060048301526080602483015261181e60a48301611e01565b906118656118567fffffffffffffffffffffffffffffffffffffffffffffffffffffffffffffffdc9384868203016044870152611ed4565b83858203016064860152611f62565b918383030160848401526020600754928381520191600785527fa66cc928b5edb82af9bd49922954155ab7b0942694bea4ce44661d9a8736c6889185905b82821061190457505050508190038173__$fe36b6aafc30e06b7be5019ccbbd4b34d3$__5af49081156105e357826105bc93926118e9575b505060405191829182610496565b6118fd92503d8091833e6105d5818361089b565b38806118db565b835473ffffffffffffffffffffffffffffffffffffffff1685528896508795509384019360019384019391909101906118a3565b3461020e5760407ffffffffffffffffffffffffffffffffffffffffffffffffffffffffffffffffc36011261020e57602060ff6119c66119766101eb565b73ffffffffffffffffffffffffffffffffffffffff611993610213565b91166000526003845260406000209073ffffffffffffffffffffffffffffffffffffffff16600052602052604060002090565b54166040519015158152f35b3461020e5760a07ffffffffffffffffffffffffffffffffffffffffffffffffffffffffffffffffc36011261020e57611a096101eb565b611a11610213565b60843567ffffffffffffffff811161020e57611a319036906004016109e5565b9073ffffffffffffffffffffffffffffffffffffffff808416903382141580611b4e575b611b0157821615611ad05715611a9f57610ad292611a976064356044359160405192600184526020840152604083019160018352606084015260808301604052565b9290916138ba565b60246040517f01a8351400000000000000000000000000000000000000000000000000000000815260006004820152fd5b60246040517f57f447ce00000000000000000000000000000000000000000000000000000000815260006004820152fd5b6040517fe237d92200000000000000000000000000000000000000000000000000000000815233600482015273ffffffffffffffffffffffffffffffffffffffff86166024820152604490fd5b5081600052600360205260ff611b883360406000209073ffffffffffffffffffffffffffffffffffffffff16600052602052604060002090565b541615611a55565b3461020e5760207ffffffffffffffffffffffffffffffffffffffffffffffffffffffffffffffffc36011261020e57611bc76101eb565b611bcf6132a8565b73ffffffffffffffffffffffffffffffffffffffff80911690817fffffffffffffffffffffffff00000000000000000000000000000000000000006001541617600155600054167f38d16b8cac22d99fc7c124b9cd0de2d3fa1faef420bfe791d8c362d765e22700600080a3005b3461020e5760607ffffffffffffffffffffffffffffffffffffffffffffffffffffffffffffffffc36011261020e57611c746101eb565b73ffffffffffffffffffffffffffffffffffffffff81163381141580611d32575b611ce55715611a9f57610ad290611cd06044356024359160405192600184526020840152604083019160018352606084015260808301604052565b916000604051611cdf8161087a565b52613550565b6040517fe237d92200000000000000000000000000000000000000000000000000000000815233600482015273ffffffffffffffffffffffffffffffffffffffff83166024820152604490fd5b5080600052600360205260ff611d6c3360406000209073ffffffffffffffffffffffffffffffffffffffff16600052602052604060002090565b541615611c95565b611daa91600052600260205260406000209073ffffffffffffffffffffffffffffffffffffffff16600052602052604060002090565b5490565b90600182811c92168015611df7575b6020831014611dc857565b7f4e487b7100000000000000000000000000000000000000000000000000000000600052602260045260246000fd5b91607f1691611dbd565b60045460009291611e1182611dae565b80825291602090600190818116908115611e905750600114611e34575b50505050565b9293945060046000527f8a35acfbc15ff81a39ae7d344fd709f28e8600b4aa8c65c6b64bfe7fe36bd19b926000935b858510611e7d575050506020925001019038808080611e2e565b8054858501840152938201938101611e63565b91505060209495507fffffffffffffffffffffffffffffffffffffffffffffffffffffffffffffff0091509291921683830152151560051b01019038808080611e2e565b60055460009291611ee482611dae565b80825291602090600190818116908115611e905750600114611f065750505050565b9293945060056000527f036b6384b5eca791c62761152d0c79bb0604c104a5fb6f4eb0703f3154bb3db0926000935b858510611f4f575050506020925001019038808080611e2e565b8054858501840152938201938101611f35565b60065460009291611f7282611dae565b80825291602090600190818116908115611e905750600114611f945750505050565b9293945060066000527ff652222313e28459528d920b65115c16c04f3efc82aaedc97be59f3f377c0d3f926000935b858510611fdd575050506020925001019038808080611e2e565b8054858501840152938201938101611fc3565b805460009392611fff82611dae565b918282526020936001916001811690816000146120675750600114612026575b5050505050565b90939495506000929192528360002092846000945b8386106120535750505050010190388080808061201f565b80548587018301529401938590820161203b565b7fffffffffffffffffffffffffffffffffffffffffffffffffffffffffffffff00168685015250505090151560051b01019150388080808061201f565b90604051918281549182825260209260208301916000526020600020936000905b8282106120dd575050506120db9250038361089b565b565b855473ffffffffffffffffffffffffffffffffffffffff16845260019586019588955093810193909101906120c5565b906040519160e083019267ffffffffffffffff9181851083861117610896576120db926121db600360c0938860405285986121757fffffffffffffffffffffffffffffffffffffffffffffffffffffffffffffff208861216d8486611ff0565b03018261089b565b86526040516121928161218b8160018601611ff0565b038261089b565b60208701526121a3600282016120a4565b6040870152015463ffffffff8082166060870152602082901c166080860152918260401c1660a085019067ffffffffffffffff169052565b60801c910152565b60208183031261020e5780519067ffffffffffffffff821161020e570181601f8201121561020e57805161221681610974565b92612224604051948561089b565b8184526020828401011161020e576104a79160208085019101610430565b6104a79181526040602082015261010060c06122bd61226e865160e06040870152610120860190610453565b6122a86020880151917fffffffffffffffffffffffffffffffffffffffffffffffffffffffffffffffc09283888303016060890152610453565b9060408801519086830301608087015261110e565b94606081015163ffffffff80911660a0860152608082015116828501526122f560a082015160e086019067ffffffffffffffff169052565b01516fffffffffffffffffffffffffffffffff16910152565b6040513d6000823e3d90fd5b7f4e487b7100000000000000000000000000000000000000000000000000000000600052601160045260246000fd5b818102929181159184041417156116bc57565b604051906123698261087a565b60008252565b80518210156107c15760209160051b010190565b919091805183518082036124255750508051906123b86123a2836108fc565b926123b0604051948561089b565b8084526108fc565b907fffffffffffffffffffffffffffffffffffffffffffffffffffffffffffffffe06020920136602085013760005b815181101561241d578061240c60019260051b85808287010151918a01015190611d74565b612416828761236f565b52016123e7565b509193505050565b6040517f5b05999100000000000000000000000000000000000000000000000000000000815260048101919091526024810191909152604490fd5b9081602091031261020e575190565b73ffffffffffffffffffffffffffffffffffffffff809116908115612559576040517f70a0823100000000000000000000000000000000000000000000000000000000815230600482015290602082602481865afa9182156105e357600092612528575b508115612523578161250e7f7fcf532c15f0a6db0bd6d0e038bea71d30d808c7d98cb3bf7268a95bf5081b659361251e9360005416866132c9565b6040519081529081906020820190565b0390a2565b505050565b61254b91925060203d602011612552575b612543818361089b565b810190612460565b90386124d3565b503d612539565b60046040517f56e7ec5f000000000000000000000000000000000000000000000000000000008152fd5b81811061258e575050565b60008155600101612583565b90601f82116125a7575050565b6120db9160046000527f8a35acfbc15ff81a39ae7d344fd709f28e8600b4aa8c65c6b64bfe7fe36bd19b906020601f840160051c830193106125f1575b601f0160051c0190612583565b90915081906125e4565b90601f8211612608575050565b6120db9160056000527f036b6384b5eca791c62761152d0c79bb0604c104a5fb6f4eb0703f3154bb3db0906020601f840160051c830193106125f157601f0160051c0190612583565b90601f821161265e575050565b6120db9160066000527ff652222313e28459528d920b65115c16c04f3efc82aaedc97be59f3f377c0d3f906020601f840160051c830193106125f157601f0160051c0190612583565b9190601f81116126b657505050565b6120db926000526020600020906020601f840160051c830193106125f157601f0160051c0190612583565b919067ffffffffffffffff81116108965761270681612701600554611dae565b6125fb565b6000601f82116001146127645781906127549394600092612759575b50507fffffffffffffffffffffffffffffffffffffffffffffffffffffffffffffffff8260011b9260031b1c19161790565b600555565b013590503880612722565b60056000527fffffffffffffffffffffffffffffffffffffffffffffffffffffffffffffffe08216937f036b6384b5eca791c62761152d0c79bb0604c104a5fb6f4eb0703f3154bb3db091805b86811061280757508360019596106127cf575b505050811b01600555565b7fffffffffffffffffffffffffffffffffffffffffffffffffffffffffffffffff60f88560031b161c199101351690553880806127c4565b909260206001819286860135815501940191016127b1565b919067ffffffffffffffff8111610896576128448161283f600654611dae565b612651565b6000601f821160011461289657819061289193946000926127595750507fffffffffffffffffffffffffffffffffffffffffffffffffffffffffffffffff8260011b9260031b1c19161790565b600655565b60066000527fffffffffffffffffffffffffffffffffffffffffffffffffffffffffffffffe08216937ff652222313e28459528d920b65115c16c04f3efc82aaedc97be59f3f377c0d3f91805b8681106129395750836001959610612901575b505050811b01600655565b7fffffffffffffffffffffffffffffffffffffffffffffffffffffffffffffffff60f88560031b161c199101351690553880806128f6565b909260206001819286860135815501940191016128e3565b90929167ffffffffffffffff811161089657612977816129718454611dae565b846126a7565b6000601f82116001146129c95781906129c59394956000926127595750507fffffffffffffffffffffffffffffffffffffffffffffffffffffffffffffffff8260011b9260031b1c19161790565b9055565b7fffffffffffffffffffffffffffffffffffffffffffffffffffffffffffffffe08216946129fc84600052602060002090565b91805b878110612a55575083600195969710612a1d575b505050811b019055565b7fffffffffffffffffffffffffffffffffffffffffffffffffffffffffffffffff60f88560031b161c19910135169055388080612a13565b909260206001819286860135815501940191016129ff565b60ff1660ff81146116bc5760010190565b91908110156107c15760051b810135907fffffffffffffffffffffffffffffffffffffffffffffffffffffffffffffffe18136030182121561020e57019081359167ffffffffffffffff831161020e57602001823603811361020e579190565b60095490680100000000000000008210156108965760018201806009558210156107c1576120db9160096000527f6e1540171b6c0c960b71a7020d9f60077f6af931a8bbf590da0223dacf75c7af019073ffffffffffffffffffffffffffffffffffffffff167fffffffffffffffffffffffff0000000000000000000000000000000000000000825416179055565b60075490680100000000000000008210156108965760018201806007558210156107c1576120db9160076000527fa66cc928b5edb82af9bd49922954155ab7b0942694bea4ce44661d9a8736c688019073ffffffffffffffffffffffffffffffffffffffff167fffffffffffffffffffffffff0000000000000000000000000000000000000000825416179055565b80546801000000000000000081101561089657600181018083558110156107c15773ffffffffffffffffffffffffffffffffffffffff9160005260206000200191167fffffffffffffffffffffffff0000000000000000000000000000000000000000825416179055565b9995969799600b54612e175767ffffffffffffffff821161089657612c9682612c91600454611dae565b61259a565b600090601f8311600114612d4d5782612cfb97969593612cf69593612cee936000926127595750507fffffffffffffffffffffffffffffffffffffffffffffffffffffffffffffffff8260011b9260031b1c19161790565b6004556126e1565b61281f565b60005b60ff811684811015612d2c57906115b6612d226115ab6115a4612d27958989612a7e565b612b6d565b612cfe565b5050936120db939250612d3f9150612ade565b612d4843600b55565b613330565b60046000527f8a35acfbc15ff81a39ae7d344fd709f28e8600b4aa8c65c6b64bfe7fe36bd19b917fffffffffffffffffffffffffffffffffffffffffffffffffffffffffffffffe08416815b818110612dff5750926001928592612cfb9a999896612cf6989610612dc7575b505050811b016004556126e1565b7fffffffffffffffffffffffffffffffffffffffffffffffffffffffffffffffff60f88560031b161c19910135169055388080612db9565b91936020600181928787013581550195019201612d99565b60046040517f5daa87a0000000000000000000000000000000000000000000000000000000008152fd5b9598929197939896909496612e546132a8565b600954612e6c612e638361310c565b63ffffffff1690565b116130e25773ffffffffffffffffffffffffffffffffffffffff85161561255957612ed7612fd793612ecb61306598612eae612ea9600a54613121565b600a55565b612ec4600a546000526008602052604060002090565b9a8b612951565b60019a60018a01612951565b6003870180547fffffffffffffffffffffffffffffffffffffffffffffffff00000000ffffffff164360201b67ffffffff000000001617815590612f9690612f65612f2461067e4261314e565b84547fffffffffffffffffffffffffffffffff0000000000000000ffffffffffffffff1660409190911b6fffffffffffffffff000000000000000016178455565b829063ffffffff167fffffffffffffffffffffffffffffffffffffffffffffffffffffffff00000000825416179055565b906fffffffffffffffffffffffffffffffff7fffffffffffffffffffffffffffffffff0000000000000000000000000000000083549260801b169116179055565b612ffe612fe26108dc565b73ffffffffffffffffffffffffffffffffffffffff9093168352565b6020820152613019600a54600052600c602052604060002090565b90602060019173ffffffffffffffffffffffffffffffffffffffff8151167fffffffffffffffffffffffff00000000000000000000000000000000000000008554161784550151910155565b81613084575b505050506120db600a5461307d61235c565b903361320b565b6002019283546130d4575b6000835b61309e575b5061306b565b60ff811690838210156130ce576115b66130c26115ab6115a46130c8958888612a7e565b87612bfc565b83613093565b50613098565b6130dd8461316b565b61308f565b60046040517fa9a25f67000000000000000000000000000000000000000000000000000000008152fd5b90600163ffffffff809316019182116116bc57565b7fffffffffffffffffffffffffffffffffffffffffffffffffffffffffffffffff81146116bc5760010190565b906201518082018092116116bc57565b919082018092116116bc57565b8054600082558061317a575050565b6120db91600052602060002090810190612583565b9290604051927f23b872dd00000000000000000000000000000000000000000000000000000000602085015273ffffffffffffffffffffffffffffffffffffffff809216602485015216604483015260648201526064815260a081019181831067ffffffffffffffff841117610896576120db926040526134ae565b91909173ffffffffffffffffffffffffffffffffffffffff811615611ad0576120db92604051906001825260208201526040810191600183526001606083015260808201604052613728565b9092919273ffffffffffffffffffffffffffffffffffffffff821615611ad0576120db936132a260405192600184526020840152604083019160018352606084015260808301604052565b91613728565b73ffffffffffffffffffffffffffffffffffffffff600054163303610eab57565b6040517fa9059cbb00000000000000000000000000000000000000000000000000000000602082015273ffffffffffffffffffffffffffffffffffffffff9290921660248301526044808301939093529181526120db9161332b60648361089b565b6134ae565b7fffffffffffffffffffffffff000000000000000000000000000000000000000090816001541660015560005473ffffffffffffffffffffffffffffffffffffffff8092168093821617600055167f8be0079c531659141344cd1fd0a4f28419497f9722a3daafe3b4186f6b6457e0600080a3565b604051906133db6021836020810193600085526133cb8151809260208686019101610430565b810103600181018552018361089b565b61342c602b604051809361341c60208301967f600b5981380380925939f3000000000000000000000000000000000000000000885251809285850190610430565b810103600b81018452018261089b565b51906000f09073ffffffffffffffffffffffffffffffffffffffff82161561345057565b60646040517f08c379a000000000000000000000000000000000000000000000000000000000815260206004820152601160248201527f4445504c4f594d454e545f4641494c45440000000000000000000000000000006044820152fd5b60008073ffffffffffffffffffffffffffffffffffffffff6134e593169360208151910182865af16134de613bda565b9083613f88565b805190811515918261352c575b50506134fb5750565b602490604051907f5274afe70000000000000000000000000000000000000000000000000000000082526004820152fd5b819250906020918101031261020e576020015161354881611280565b1538806134f2565b929190805182519081810361242557505060005b815181101561366d578060051b6020808285010151918501015173ffffffffffffffffffffffffffffffffffffffff87166135a4575b5050600101613564565b6135e1876135bc846000526002602052604060002090565b9073ffffffffffffffffffffffffffffffffffffffff16600052602052604060002090565b5481811061361057876135bc60019594936136089303936000526002602052604060002090565b55903861359a565b6040517f03dee4c500000000000000000000000000000000000000000000000000000000815273ffffffffffffffffffffffffffffffffffffffff8916600482015260248101919091526044810182905260648101839052608490fd5b50906000929391600181511484146136dc5760209081015191810151604080519384529183015273ffffffffffffffffffffffffffffffffffffffff929092169133917fc3d58168c5ae7397731d063d5bbf3d657854427343f4c083240f7aacaa2d0f6291819081015b0390a4565b909173ffffffffffffffffffffffffffffffffffffffff7f4a39dc06d4c0dbc64b70af90fd698a233a518aa5d07e595d983b8c0526c8f7fb916136d76040519283921695339583613b07565b90805183519081810361242557505060005b81518110156137ab578060019160051b84602080838701015192880101519173ffffffffffffffffffffffffffffffffffffffff821661377e575b5050500161373a565b6137a1916135bc613799926000526002602052604060002090565b91825461315e565b9055388481613775565b508051919392916001036138665760208181015183820151604080519283529282015273ffffffffffffffffffffffffffffffffffffffff86169160009133917fc3d58168c5ae7397731d063d5bbf3d657854427343f4c083240f7aacaa2d0f6291a45b73ffffffffffffffffffffffffffffffffffffffff84166138305750505050565b8051600103613857579060208061384e959301519101519133613eea565b38808080611e2e565b6138619333613c0a565b61384e565b604051600073ffffffffffffffffffffffffffffffffffffffff8616917f4a39dc06d4c0dbc64b70af90fd698a233a518aa5d07e595d983b8c0526c8f7fb3391806138b2888883613b07565b0390a461380f565b94919091815184519081810361242557505060005b82518110156139ed578060051b90602080838601015192870101518573ffffffffffffffffffffffffffffffffffffffff93848b16613941575b600194821661391c575b505050016138cf565b613937916135bc613799926000526002602052604060002090565b9055388581613913565b919293905061395e8a6135bc846000526002602052604060002090565b5483811061399057918791846001969594036139888d6135bc856000526002602052604060002090565b559450613909565b6040517f03dee4c500000000000000000000000000000000000000000000000000000000815273ffffffffffffffffffffffffffffffffffffffff8c16600482015260248101919091526044810184905260648101839052608490fd5b509491939290936001855114600014613ab15760208581015183820151604080519283529282015273ffffffffffffffffffffffffffffffffffffffff838116929086169133917fc3d58168c5ae7397731d063d5bbf3d657854427343f4c083240f7aacaa2d0f6291a45b73ffffffffffffffffffffffffffffffffffffffff8116613a7a575050505050565b8451600103613aa057602080613a969601519201519233613f38565b388080808061201f565b613aac94919233613d8f565b613a96565b73ffffffffffffffffffffffffffffffffffffffff604051818316918516907f4a39dc06d4c0dbc64b70af90fd698a233a518aa5d07e595d983b8c0526c8f7fb339180613aff888c83613b07565b0390a4613a58565b9091613b1e6104a793604084526040840190610bcb565b916020818403910152610bcb565b9081602091031261020e57516104a781610316565b92613b7e6104a7959373ffffffffffffffffffffffffffffffffffffffff613b8c941686526000602087015260a0604087015260a0860190610bcb565b908482036060860152610bcb565b916080818403910152610453565b93906104a79593613b7e91613b8c9473ffffffffffffffffffffffffffffffffffffffff809216885216602087015260a0604087015260a0860190610bcb565b3d15613c05573d90613beb82610974565b91613bf9604051938461089b565b82523d6000602084013e565b606090565b9293919093843b613c1c575050505050565b602091613c5860405194859384937fbc197c81000000000000000000000000000000000000000000000000000000009889865260048601613b41565b0381600073ffffffffffffffffffffffffffffffffffffffff88165af160009181613d5e575b50613ce35782613c8c613bda565b8051919082613cdc576040517f57f447ce00000000000000000000000000000000000000000000000000000000815273ffffffffffffffffffffffffffffffffffffffff83166004820152602490fd5b9050602001fd5b7fffffffff000000000000000000000000000000000000000000000000000000001603613d155750388080808061201f565b6040517f57f447ce00000000000000000000000000000000000000000000000000000000815273ffffffffffffffffffffffffffffffffffffffff919091166004820152602490fd5b613d8191925060203d602011613d88575b613d79818361089b565b810190613b2c565b9038613c7e565b503d613d6f565b939290949194853b613da4575b505050505050565b613de060209360405195869485947fbc197c8100000000000000000000000000000000000000000000000000000000998a875260048701613b9a565b0381600073ffffffffffffffffffffffffffffffffffffffff88165af160009181613e47575b50613e145782613c8c613bda565b7fffffffff000000000000000000000000000000000000000000000000000000001603613d155750388080808080613d9c565b613e6191925060203d602011613d8857613d79818361089b565b9038613e06565b909260a09273ffffffffffffffffffffffffffffffffffffffff6104a7969516835260006020840152604083015260608201528160808201520190610453565b91926104a795949160a09473ffffffffffffffffffffffffffffffffffffffff8092168552166020840152604083015260608201528160808201520190610453565b9293919093843b613efc575050505050565b602091613c5860405194859384937ff23a6e61000000000000000000000000000000000000000000000000000000009889865260048601613e68565b939290949194853b613f4c57505050505050565b613de060209360405195869485947ff23a6e6100000000000000000000000000000000000000000000000000000000998a875260048701613ea8565b90613fc75750805115613f9d57805190602001fd5b60046040517f1425ea42000000000000000000000000000000000000000000000000000000008152fd5b8151158061401f575b613fd8575090565b60249073ffffffffffffffffffffffffffffffffffffffff604051917f9996b315000000000000000000000000000000000000000000000000000000008352166004820152fd5b50803b15613fd056fea26469706673582212205d4134c57528bf1900466c0c9311e70dd3071ca49cfc57c0f322cbd82b2e94e064736f6c63430008180033a2646970667358221220638fe38ee04256f3e5d816841ab4e786e39850600494eee192dd6438a2abe8d964736f6c63430008180033",
  "linkReferences": {
    "contracts/libraries/ContractMetadata.sol": {
      "ContractMetadata": [
        {
          "length": 20,
          "start": 8439
        }
      ]
    }
  },
  "deployedLinkReferences": {
    "contracts/libraries/ContractMetadata.sol": {
      "ContractMetadata": [
        {
          "length": 20,
          "start": 8305
        }
      ]
    }
  }
}