{
  "_format": "hh3-artifact-1",
  "contractName": "MarkdownRenderer",
  "sourceName": "contracts/renderers/MarkdownRenderer.sol",
  "abi": [
    {
      "inputs": [
        {
          "internalType": "uint256",
          "name": "",
          "type": "uint256"
        },
        {
          "components": [
            {
              "internalType": "string",
              "name": "name",
              "type": "string"
            },
            {
              "internalType": "string",
              "name": "description",
              "type": "string"
            },
            {
              "internalType": "address[]",
              "name": "artifact",
              "type": "address[]"
            },
            {
              "internalType": "uint32",
              "name": "renderer",
              "type": "uint32"
            },
            {
              "internalType": "uint32",
              "name": "mintedBlock",
              "type": "uint32"
            },
            {
              "internalType": "uint64",
              "name": "closeAt",
              "type": "uint64"
            },
            {
              "internalType": "uint128",
              "name": "data",
              "type": "uint128"
            }
          ],
          "internalType": "struct Token",
          "name": "token",
          "type": "tuple"
        }
      ],
      "name": "animationURI",
      "outputs": [
        {
          "internalType": "string",
          "name": "",
          "type": "string"
        }
      ],
      "stateMutability": "view",
      "type": "function"
    },
    {
      "inputs": [
        {
          "internalType": "uint256",
          "name": "",
          "type": "uint256"
        },
        {
          "components": [
            {
              "internalType": "string",
              "name": "name",
              "type": "string"
            },
            {
              "internalType": "string",
              "name": "description",
              "type": "string"
            },
            {
              "internalType": "address[]",
              "name": "artifact",
              "type": "address[]"
            },
            {
              "internalType": "uint32",
              "name": "renderer",
              "type": "uint32"
            },
            {
              "internalType": "uint32",
              "name": "mintedBlock",
              "type": "uint32"
            },
            {
              "internalType": "uint64",
              "name": "closeAt",
              "type": "uint64"
            },
            {
              "internalType": "uint128",
              "name": "data",
              "type": "uint128"
            }
          ],
          "internalType": "struct Token",
          "name": "token",
          "type": "tuple"
        }
      ],
      "name": "imageURI",
      "outputs": [
        {
          "internalType": "string",
          "name": "",
          "type": "string"
        }
      ],
      "stateMutability": "view",
      "type": "function"
    },
    {
      "inputs": [],
      "name": "name",
      "outputs": [
        {
          "internalType": "string",
          "name": "",
          "type": "string"
        }
      ],
      "stateMutability": "pure",
      "type": "function"
    },
    {
      "inputs": [
        {
          "internalType": "uint256",
          "name": "tokenId",
          "type": "uint256"
        },
        {
          "components": [
            {
              "internalType": "string",
              "name": "name",
              "type": "string"
            },
            {
              "internalType": "string",
              "name": "description",
              "type": "string"
            },
            {
              "internalType": "address[]",
              "name": "artifact",
              "type": "address[]"
            },
            {
              "internalType": "uint32",
              "name": "renderer",
              "type": "uint32"
            },
            {
              "internalType": "uint32",
              "name": "mintedBlock",
              "type": "uint32"
            },
            {
              "internalType": "uint64",
              "name": "closeAt",
              "type": "uint64"
            },
            {
              "internalType": "uint128",
              "name": "data",
              "type": "uint128"
            }
          ],
          "internalType": "struct Token",
          "name": "token",
          "type": "tuple"
        }
      ],
      "name": "uri",
      "outputs": [
        {
          "internalType": "string",
          "name": "",
          "type": "string"
        }
      ],
      "stateMutability": "view",
      "type": "function"
    },
    {
      "inputs": [],
      "name": "version",
      "outputs": [
        {
          "internalType": "uint256",
          "name": "",
          "type": "uint256"
        }
      ],
      "stateMutability": "pure",
      "type": "function"
    }
  ],
  "bytecode": "0x608060405234801561000f575f80fd5b5061218d8061001d5f395ff3fe608060405234801561000f575f80fd5b5060043610610064575f3560e01c8063a2f31bf31161004d578063a2f31bf3146100c2578063a6669e66146100d5578063cf9bc65e146100e8575f80fd5b806306fdde031461006857806354fd4d50146100b3575b5f80fd5b60408051808201909152601181527f4d61726b646f776e2052656e646572657200000000000000000000000000000060208201525b6040516100aa91906114ff565b60405180910390f35b604051600181526020016100aa565b61009d6100d036600461154f565b6100fb565b61009d6100e336600461154f565b610262565b61009d6100f636600461154f565b61034d565b60605f73__$a9284ae03d530611f9e1d5674f24ff2225$__631c6cf18f846040518263ffffffff1660e01b815260040161013591906116ed565b5f60405180830381865af415801561014f573d5f803e3d5ffd5b505050506040513d5f823e601f3d9081017fffffffffffffffffffffffffffffffffffffffffffffffffffffffffffffffe0168201604052610194919081019061187e565b90505f6101a0856103f1565b6101aa8580611944565b6101b76020880188611944565b6101ff6101c48a80611944565b8080601f0160208091040260200160405190810160405280939291908181526020018383808284375f920191909152508b92506104ae915050565b610208886104e9565b60405160200161021e97969594939291906119c0565b60405160208183030381529060405290506102388161051a565b6040516020016102489190611be3565b604051602081830303815290604052925050505b92915050565b60605f73__$a9284ae03d530611f9e1d5674f24ff2225$__631c6cf18f846040518263ffffffff1660e01b815260040161029c91906116ed565b5f60405180830381865af41580156102b6573d5f803e3d5ffd5b505050506040513d5f823e601f3d9081017fffffffffffffffffffffffffffffffffffffffffffffffffffffffffffffffe01682016040526102fb919081019061187e565b905061034561030a8480611944565b8080601f0160208091040260200160405190810160405280939291908181526020018383808284375f920191909152508592506104ae915050565b949350505050565b60605f73__$a9284ae03d530611f9e1d5674f24ff2225$__631c6cf18f846040518263ffffffff1660e01b815260040161038791906116ed565b5f60405180830381865af41580156103a1573d5f803e3d5ffd5b505050506040513d5f823e601f3d9081017fffffffffffffffffffffffffffffffffffffffffffffffffffffffffffffffe01682016040526103e6919081019061187e565b9050610345816104e9565b60605f6103fd83610675565b60010190505f8167ffffffffffffffff81111561041c5761041c611851565b6040519080825280601f01601f191660200182016040528015610446576020820181803683370190505b5090508181016020015b7fffffffffffffffffffffffffffffffffffffffffffffffffffffffffffffffff017f3031323334353637383961626364656600000000000000000000000000000000600a86061a8153600a8504945084610450575b509392505050565b60606104c26104bd8484610756565b61051a565b6040516020016104d29190611c27565b604051602081830303815290604052905092915050565b60606104f48261051a565b6040516020016105049190611c6b565b6040516020818303038152906040529050919050565b606081515f0361053757505060408051602081019091525f815290565b5f6040518060600160405280604081526020016121186040913990505f6003845160026105649190611ccf565b61056e9190611ce2565b610579906004611d1a565b67ffffffffffffffff81111561059157610591611851565b6040519080825280601f01601f1916602001820160405280156105bb576020820181803683370190505b509050600182016020820185865187016020810180515f82525b82841015610630576003840193508351603f8160121c168701518653600186019550603f81600c1c168701518653600186019550603f8160061c168701518653600186019550603f81168701518653506001850194506105d5565b905250508551600390066001811461064f57600281146106625761066a565b603d6001830353603d600283035361066a565b603d60018303535b509195945050505050565b5f807a184f03e93ff9f4daa797ed6e38ed64bf6a1f01000000000000000083106106bd577a184f03e93ff9f4daa797ed6e38ed64bf6a1f010000000000000000830492506040015b6d04ee2d6d415b85acef810000000083106106e9576d04ee2d6d415b85acef8100000000830492506020015b662386f26fc10000831061070757662386f26fc10000830492506010015b6305f5e100831061071f576305f5e100830492506008015b612710831061073357612710830492506004015b60648310610745576064830492506002015b600a831061025c5760010192915050565b60605f61076d6107688461032061078e565b61099e565b90505f6107798561099e565b90508082604051602001610248929190611d31565b60608183511161079f57508161025c565b5f6107ab836003611ccf565b67ffffffffffffffff8111156107c3576107c3611851565b6040519080825280601f01601f1916602001820160405280156107ed576020820181803683370190505b5090505f5b8381101561085f5784818151811061080c5761080c6120b3565b602001015160f81c60f81b828281518110610829576108296120b3565b60200101907effffffffffffffffffffffffffffffffffffffffffffffffffffffffffffff191690815f1a9053506001016107f2565b507f2e00000000000000000000000000000000000000000000000000000000000000818481518110610893576108936120b3565b60200101907effffffffffffffffffffffffffffffffffffffffffffffffffffffffffffff191690815f1a9053507f2e00000000000000000000000000000000000000000000000000000000000000816108ee856001611ccf565b815181106108fe576108fe6120b3565b60200101907effffffffffffffffffffffffffffffffffffffffffffffffffffffffffffff191690815f1a9053507f2e0000000000000000000000000000000000000000000000000000000000000081610959856002611ccf565b81518110610969576109696120b3565b60200101907effffffffffffffffffffffffffffffffffffffffffffffffffffffffffffff191690815f1a9053509392505050565b60605f805b8351811015610b7e575f8482815181106109bf576109bf6120b3565b01602001517fff000000000000000000000000000000000000000000000000000000000000001690507f2600000000000000000000000000000000000000000000000000000000000000819003610a2257610a1b600484611ccf565b9250610b75565b7fff0000000000000000000000000000000000000000000000000000000000000081167f3c0000000000000000000000000000000000000000000000000000000000000003610a7657610a1b600384611ccf565b7fff0000000000000000000000000000000000000000000000000000000000000081167f3e0000000000000000000000000000000000000000000000000000000000000003610aca57610a1b600384611ccf565b7fff0000000000000000000000000000000000000000000000000000000000000081167f220000000000000000000000000000000000000000000000000000000000000003610b1e57610a1b600584611ccf565b7fff0000000000000000000000000000000000000000000000000000000000000081167f270000000000000000000000000000000000000000000000000000000000000003610b7557610b72600584611ccf565b92505b506001016109a3565b50805f03610b8d575090919050565b5f818451610b9b9190611ccf565b67ffffffffffffffff811115610bb357610bb3611851565b6040519080825280601f01601f191660200182016040528015610bdd576020820181803683370190505b5090505f805b85518110156114d3575f868281518110610bff57610bff6120b3565b01602001517fff000000000000000000000000000000000000000000000000000000000000001690507f2600000000000000000000000000000000000000000000000000000000000000819003610e71577f26000000000000000000000000000000000000000000000000000000000000008484610c7c816120e0565b955081518110610c8e57610c8e6120b3565b60200101907effffffffffffffffffffffffffffffffffffffffffffffffffffffffffffff191690815f1a9053507f61000000000000000000000000000000000000000000000000000000000000008484610ce8816120e0565b955081518110610cfa57610cfa6120b3565b60200101907effffffffffffffffffffffffffffffffffffffffffffffffffffffffffffff191690815f1a9053507f6d000000000000000000000000000000000000000000000000000000000000008484610d54816120e0565b955081518110610d6657610d666120b3565b60200101907effffffffffffffffffffffffffffffffffffffffffffffffffffffffffffff191690815f1a9053507f70000000000000000000000000000000000000000000000000000000000000008484610dc0816120e0565b955081518110610dd257610dd26120b3565b60200101907effffffffffffffffffffffffffffffffffffffffffffffffffffffffffffff191690815f1a9053507f3b000000000000000000000000000000000000000000000000000000000000008484610e2c816120e0565b955081518110610e3e57610e3e6120b3565b60200101907effffffffffffffffffffffffffffffffffffffffffffffffffffffffffffff191690815f1a9053506114ca565b7fff0000000000000000000000000000000000000000000000000000000000000081167f3c0000000000000000000000000000000000000000000000000000000000000003610fbe577f26000000000000000000000000000000000000000000000000000000000000008484610ee6816120e0565b955081518110610ef857610ef86120b3565b60200101907effffffffffffffffffffffffffffffffffffffffffffffffffffffffffffff191690815f1a9053507f6c000000000000000000000000000000000000000000000000000000000000008484610f52816120e0565b955081518110610f6457610f646120b3565b60200101907effffffffffffffffffffffffffffffffffffffffffffffffffffffffffffff191690815f1a9053507f74000000000000000000000000000000000000000000000000000000000000008484610dc0816120e0565b7fff0000000000000000000000000000000000000000000000000000000000000081167f3e000000000000000000000000000000000000000000000000000000000000000361109f577f26000000000000000000000000000000000000000000000000000000000000008484611033816120e0565b955081518110611045576110456120b3565b60200101907effffffffffffffffffffffffffffffffffffffffffffffffffffffffffffff191690815f1a9053507f67000000000000000000000000000000000000000000000000000000000000008484610f52816120e0565b7fff0000000000000000000000000000000000000000000000000000000000000081167f220000000000000000000000000000000000000000000000000000000000000003611258577f26000000000000000000000000000000000000000000000000000000000000008484611114816120e0565b955081518110611126576111266120b3565b60200101907effffffffffffffffffffffffffffffffffffffffffffffffffffffffffffff191690815f1a9053507f71000000000000000000000000000000000000000000000000000000000000008484611180816120e0565b955081518110611192576111926120b3565b60200101907effffffffffffffffffffffffffffffffffffffffffffffffffffffffffffff191690815f1a9053507f750000000000000000000000000000000000000000000000000000000000000084846111ec816120e0565b9550815181106111fe576111fe6120b3565b60200101907effffffffffffffffffffffffffffffffffffffffffffffffffffffffffffff191690815f1a9053507f6f000000000000000000000000000000000000000000000000000000000000008484610f52816120e0565b7fff0000000000000000000000000000000000000000000000000000000000000081167f27000000000000000000000000000000000000000000000000000000000000000361147d577f260000000000000000000000000000000000000000000000000000000000000084846112cd816120e0565b9550815181106112df576112df6120b3565b60200101907effffffffffffffffffffffffffffffffffffffffffffffffffffffffffffff191690815f1a9053507f61000000000000000000000000000000000000000000000000000000000000008484611339816120e0565b95508151811061134b5761134b6120b3565b60200101907effffffffffffffffffffffffffffffffffffffffffffffffffffffffffffff191690815f1a9053507f700000000000000000000000000000000000000000000000000000000000000084846113a5816120e0565b9550815181106113b7576113b76120b3565b60200101907effffffffffffffffffffffffffffffffffffffffffffffffffffffffffffff191690815f1a9053507f6f000000000000000000000000000000000000000000000000000000000000008484611411816120e0565b955081518110611423576114236120b3565b60200101907effffffffffffffffffffffffffffffffffffffffffffffffffffffffffffff191690815f1a9053507f73000000000000000000000000000000000000000000000000000000000000008484610dc0816120e0565b808484611489816120e0565b95508151811061149b5761149b6120b3565b60200101907effffffffffffffffffffffffffffffffffffffffffffffffffffffffffffff191690815f1a9053505b50600101610be3565b5090949350505050565b5f5b838110156114f75781810151838201526020016114df565b50505f910152565b602081525f825180602084015261151d8160408501602087016114dd565b601f017fffffffffffffffffffffffffffffffffffffffffffffffffffffffffffffffe0169190910160400192915050565b5f8060408385031215611560575f80fd5b82359150602083013567ffffffffffffffff81111561157d575f80fd5b830160e0818603121561158e575f80fd5b809150509250929050565b5f8083357fffffffffffffffffffffffffffffffffffffffffffffffffffffffffffffffe18436030181126115cc575f80fd5b830160208101925035905067ffffffffffffffff8111156115eb575f80fd5b8036038213156115f9575f80fd5b9250929050565b81835281816020850137505f602082840101525f60207fffffffffffffffffffffffffffffffffffffffffffffffffffffffffffffffe0601f840116840101905092915050565b8183525f60208085019450825f5b8581101561169457813573ffffffffffffffffffffffffffffffffffffffff8116808214611681575f80fd5b8852509582019590820190600101611655565b509495945050505050565b803563ffffffff811681146116b2575f80fd5b919050565b803567ffffffffffffffff811681146116b2575f80fd5b80356fffffffffffffffffffffffffffffffff811681146116b2575f80fd5b602081525f6116fc8384611599565b60e0602085015261171261010085018284611600565b9150506117226020850185611599565b7fffffffffffffffffffffffffffffffffffffffffffffffffffffffffffffffe080868503016040870152611758848385611600565b9350604087013592507fffffffffffffffffffffffffffffffffffffffffffffffffffffffffffffffe1873603018312611790575f80fd5b60209287019283019235915067ffffffffffffffff8211156117b0575f80fd5b8160051b36038313156117c1575f80fd5b8584030160608601526117d5838284611647565b925050506117e56060850161169f565b63ffffffff81166080850152506117fe6080850161169f565b63ffffffff811660a08501525061181760a085016116b7565b67ffffffffffffffff811660c08501525061183460c085016116ce565b6fffffffffffffffffffffffffffffffff811660e08501526104a6565b7f4e487b71000000000000000000000000000000000000000000000000000000005f52604160045260245ffd5b5f6020828403121561188e575f80fd5b815167ffffffffffffffff808211156118a5575f80fd5b818401915084601f8301126118b8575f80fd5b8151818111156118ca576118ca611851565b604051601f82017fffffffffffffffffffffffffffffffffffffffffffffffffffffffffffffffe0908116603f0116810190838211818310171561191057611910611851565b81604052828152876020848701011115611928575f80fd5b6119398360208301602088016114dd565b979650505050505050565b5f8083357fffffffffffffffffffffffffffffffffffffffffffffffffffffffffffffffe1843603018112611977575f80fd5b83018035915067ffffffffffffffff821115611991575f80fd5b6020019150368190038213156115f9575f80fd5b5f81516119b68185602086016114dd565b9290920192915050565b7f7b0000000000000000000000000000000000000000000000000000000000000081527f226964223a20220000000000000000000000000000000000000000000000000060018201525f8851611a1d816008850160208d016114dd565b80830190507f222c0000000000000000000000000000000000000000000000000000000000008060088301527f226e616d65223a20220000000000000000000000000000000000000000000000600a830152888a601384013788820191508060138301527f226465736372697074696f6e223a202200000000000000000000000000000000601583015286886025840137602591870191820152611bd5611bac611b83611b7d611b54611b2b611b25611afc602789017f2274797065223a20226d61726b646f776e222c00000000000000000000000000815260130190565b7f22696d616765223a2022000000000000000000000000000000000000000000008152600a0190565b8b6119a5565b7f222c000000000000000000000000000000000000000000000000000000000000815260020190565b7f22616e696d6174696f6e5f75726c223a20220000000000000000000000000000815260120190565b876119a5565b7f2200000000000000000000000000000000000000000000000000000000000000815260010190565b7f7d00000000000000000000000000000000000000000000000000000000000000815260010190565b9a9950505050505050505050565b7f646174613a6170706c69636174696f6e2f6a736f6e3b6261736536342c00000081525f8251611c1a81601d8501602087016114dd565b91909101601d0192915050565b7f646174613a696d6167652f7376672b786d6c3b6261736536342c00000000000081525f8251611c5e81601a8501602087016114dd565b91909101601a0192915050565b7f646174613a746578742f6d61726b646f776e3b6261736536342c00000000000081525f8251611c5e81601a8501602087016114dd565b7f4e487b71000000000000000000000000000000000000000000000000000000005f52601160045260245ffd5b8082018082111561025c5761025c611ca2565b5f82611d15577f4e487b71000000000000000000000000000000000000000000000000000000005f52601260045260245ffd5b500490565b808202811582820484141761025c5761025c611ca2565b7f3c73766720786d6c6e733d22687474703a2f2f7777772e77332e6f72672f323081527f30302f737667222076696577426f783d223020302034303020343030223e3c7260208201527f6563742077696474683d2234303022206865696768743d22343030222066696c60408201527f6c3d2223313131222f3e3c7465787420783d2232302220793d2233362220666f60608201527f6e742d66616d696c793d226d6f6e6f73706163652220666f6e742d73697a653d60808201527f2231382220666f6e742d7765696768743d22626f6c64222066696c6c3d22776860a08201527f697465223e00000000000000000000000000000000000000000000000000000060c08201525f8351611e4c8160c58501602088016114dd565b7f3c2f746578743e3c6c696e652078313d223230222079313d223530222078323d60c5918401918201527f22333830222079323d22353022207374726f6b653d222333333322207374726f60e58201527f6b652d77696474683d2231222f3e3c666f726569676e4f626a65637420783d226101058201527f32302220793d223630222077696474683d2233363022206865696768743d22336101258201527f3230223e3c64697620786d6c6e733d22687474703a2f2f7777772e77332e6f726101458201527f672f313939392f7868746d6c22207374796c653d22666f6e742d66616d696c796101658201527f3a6d6f6e6f73706163653b666f6e742d73697a653a313270783b636f6c6f723a6101858201527f233939393b77686974652d73706163653a7072652d777261703b776f72642d626101a58201527f7265616b3a627265616b2d776f72643b6f766572666c6f773a68696464656e3b6101c58201527f6865696768743a33323070783b6d61736b2d696d6167653a6c696e6561722d676101e58201527f72616469656e7428746f20626f74746f6d2c626c61636b203630252c7472616e6102058201527f73706172656e742031303025293b2d7765626b69742d6d61736b2d696d6167656102258201527f3a6c696e6561722d6772616469656e7428746f20626f74746f6d2c626c61636b6102458201527f203630252c7472616e73706172656e74203130302529223e00000000000000006102658201526120aa61208161027d8301866119a5565b7f3c2f6469763e3c2f666f726569676e4f626a6563743e3c2f7376673e000000008152601c0190565b95945050505050565b7f4e487b71000000000000000000000000000000000000000000000000000000005f52603260045260245ffd5b5f7fffffffffffffffffffffffffffffffffffffffffffffffffffffffffffffffff820361211057612110611ca2565b506001019056fe4142434445464748494a4b4c4d4e4f505152535455565758595a6162636465666768696a6b6c6d6e6f707172737475767778797a303132333435363738392b2fa26469706673582212206eaa7c0268188d7f234615c1fda5dab28e8eb1ee18c0f36ccf0ee6bd0c2acb3e64736f6c63430008180033",
  "linkReferences": {
    "project/contracts/libraries/ArtifactReader.sol": {
      "ArtifactReader": [
        {
          "length": 20,
          "start": 285
        },
        {
          "length": 20,
          "start": 644
        },
        {
          "length": 20,
          "start": 879
        }
      ]
    }
  },
  "deployedLinkReferences": {
    "project/contracts/libraries/ArtifactReader.sol": {
      "ArtifactReader": [
        {
          "length": 20,
          "start": 256
        },
        {
          "length": 20,
          "start": 615
        },
        {
          "length": 20,
          "start": 850
        }
      ]
    }
  },
  "immutableReferences": {},
  "inputSourceName": "project/contracts/renderers/MarkdownRenderer.sol",
  "buildInfoId": "solc-0_8_24-8eefedcb394b91825843365cb8e34adbfae4a98c"
}