{
  "_format": "hh3-artifact-1",
  "contractName": "ArtifactReader",
  "sourceName": "contracts/libraries/ArtifactReader.sol",
  "abi": [
    {
      "inputs": [
        {
          "components": [
            {
              "internalType": "string",
              "name": "name",
              "type": "string"
            },
            {
              "internalType": "string",
              "name": "description",
              "type": "string"
            },
            {
              "internalType": "address[]",
              "name": "artifact",
              "type": "address[]"
            },
            {
              "internalType": "uint32",
              "name": "renderer",
              "type": "uint32"
            },
            {
              "internalType": "uint32",
              "name": "mintedBlock",
              "type": "uint32"
            },
            {
              "internalType": "uint64",
              "name": "closeAt",
              "type": "uint64"
            },
            {
              "internalType": "uint128",
              "name": "data",
              "type": "uint128"
            }
          ],
          "internalType": "struct Token",
          "name": "token",
          "type": "tuple"
        }
      ],
      "name": "get",
      "outputs": [
        {
          "internalType": "bytes",
          "name": "content",
          "type": "bytes"
        }
      ],
      "stateMutability": "view",
      "type": "function"
    }
  ],
  "bytecode": "0x6105bd610035600b8282823980515f1a60731461002957634e487b7160e01b5f525f60045260245ffd5b305f52607381538281f3fe7300000000000000000000000000000000000000003014608060405260043610610034575f3560e01c80631c6cf18f14610038575b5f80fd5b61004b61004636600461036a565b610061565b604051610058919061047e565b60405180910390f35b60605f5b8260400151518160ff1610156100d4578161009f84604001518360ff1681518110610092576100926104ce565b60200260200101516100da565b6040516020016100b09291906104fb565b604051602081830303815290604052915080806100cc90610556565b915050610065565b50919050565b60606101088260016101038173ffffffffffffffffffffffffffffffffffffffff84163b610574565b61010e565b92915050565b60408051603f83017fffffffffffffffffffffffffffffffffffffffffffffffffffffffffffffffe0168101909152818152818360208301863c9392505050565b7f4e487b71000000000000000000000000000000000000000000000000000000005f52604160045260245ffd5b60405160e0810167ffffffffffffffff8111828210171561019f5761019f61014f565b60405290565b604051601f82017fffffffffffffffffffffffffffffffffffffffffffffffffffffffffffffffe016810167ffffffffffffffff811182821017156101ec576101ec61014f565b604052919050565b5f82601f830112610203575f80fd5b813567ffffffffffffffff81111561021d5761021d61014f565b61024e60207fffffffffffffffffffffffffffffffffffffffffffffffffffffffffffffffe0601f840116016101a5565b818152846020838601011115610262575f80fd5b816020850160208301375f918101602001919091529392505050565b5f82601f83011261028d575f80fd5b8135602067ffffffffffffffff8211156102a9576102a961014f565b8160051b6102b88282016101a5565b92835284810182019282810190878511156102d1575f80fd5b83870192505b8483101561031157823573ffffffffffffffffffffffffffffffffffffffff81168114610302575f80fd5b825291830191908301906102d7565b979650505050505050565b803563ffffffff8116811461032f575f80fd5b919050565b803567ffffffffffffffff8116811461032f575f80fd5b80356fffffffffffffffffffffffffffffffff8116811461032f575f80fd5b5f6020828403121561037a575f80fd5b813567ffffffffffffffff80821115610391575f80fd5b9083019060e082860312156103a4575f80fd5b6103ac61017c565b8235828111156103ba575f80fd5b6103c6878286016101f4565b8252506020830135828111156103da575f80fd5b6103e6878286016101f4565b6020830152506040830135828111156103fd575f80fd5b6104098782860161027e565b60408301525061041b6060840161031c565b606082015261042c6080840161031c565b608082015261043d60a08401610334565b60a082015261044e60c0840161034b565b60c082015295945050505050565b5f5b8381101561047657818101518382015260200161045e565b50505f910152565b602081525f825180602084015261049c81604085016020870161045c565b601f017fffffffffffffffffffffffffffffffffffffffffffffffffffffffffffffffe0169190910160400192915050565b7f4e487b71000000000000000000000000000000000000000000000000000000005f52603260045260245ffd5b5f835161050c81846020880161045c565b83519083019061052081836020880161045c565b01949350505050565b7f4e487b71000000000000000000000000000000000000000000000000000000005f52601160045260245ffd5b5f60ff821660ff810361056b5761056b610529565b60010192915050565b818103818111156101085761010861052956fea2646970667358221220b4315fb51ac134ddd345855c481d86b4783a5d0c977e2a6cbed9a3e3be7669cd64736f6c63430008180033",
  "linkReferences": {},
  "deployedLinkReferences": {},
  "immutableReferences": {},
  "inputSourceName": "project/contracts/libraries/ArtifactReader.sol",
  "buildInfoId": "solc-0_8_24-b30c277e8db7a6942ab867a6d052262498f5e637"
}