{
  "_format": "hh-sol-artifact-1",
  "contractName": "P5Renderer",
  "sourceName": "contracts/renderers/P5Renderer.sol",
  "abi": [
    {
      "inputs": [
        {
          "internalType": "uint256",
          "name": "",
          "type": "uint256"
        },
        {
          "components": [
            {
              "internalType": "string",
              "name": "name",
              "type": "string"
            },
            {
              "internalType": "string",
              "name": "description",
              "type": "string"
            },
            {
              "internalType": "address[]",
              "name": "artifact",
              "type": "address[]"
            },
            {
              "internalType": "uint32",
              "name": "renderer",
              "type": "uint32"
            },
            {
              "internalType": "uint32",
              "name": "mintedBlock",
              "type": "uint32"
            },
            {
              "internalType": "uint64",
              "name": "closeAt",
              "type": "uint64"
            },
            {
              "internalType": "uint128",
              "name": "data",
              "type": "uint128"
            }
          ],
          "internalType": "struct Token",
          "name": "token",
          "type": "tuple"
        }
      ],
      "name": "animationURI",
      "outputs": [
        {
          "internalType": "string",
          "name": "",
          "type": "string"
        }
      ],
      "stateMutability": "view",
      "type": "function"
    },
    {
      "inputs": [
        {
          "internalType": "uint256",
          "name": "",
          "type": "uint256"
        },
        {
          "components": [
            {
              "internalType": "string",
              "name": "name",
              "type": "string"
            },
            {
              "internalType": "string",
              "name": "description",
              "type": "string"
            },
            {
              "internalType": "address[]",
              "name": "artifact",
              "type": "address[]"
            },
            {
              "internalType": "uint32",
              "name": "renderer",
              "type": "uint32"
            },
            {
              "internalType": "uint32",
              "name": "mintedBlock",
              "type": "uint32"
            },
            {
              "internalType": "uint64",
              "name": "closeAt",
              "type": "uint64"
            },
            {
              "internalType": "uint128",
              "name": "data",
              "type": "uint128"
            }
          ],
          "internalType": "struct Token",
          "name": "token",
          "type": "tuple"
        }
      ],
      "name": "imageURI",
      "outputs": [
        {
          "internalType": "string",
          "name": "",
          "type": "string"
        }
      ],
      "stateMutability": "view",
      "type": "function"
    },
    {
      "inputs": [],
      "name": "name",
      "outputs": [
        {
          "internalType": "string",
          "name": "",
          "type": "string"
        }
      ],
      "stateMutability": "pure",
      "type": "function"
    },
    {
      "inputs": [
        {
          "internalType": "uint256",
          "name": "tokenId",
          "type": "uint256"
        },
        {
          "components": [
            {
              "internalType": "string",
              "name": "name",
              "type": "string"
            },
            {
              "internalType": "string",
              "name": "description",
              "type": "string"
            },
            {
              "internalType": "address[]",
              "name": "artifact",
              "type": "address[]"
            },
            {
              "internalType": "uint32",
              "name": "renderer",
              "type": "uint32"
            },
            {
              "internalType": "uint32",
              "name": "mintedBlock",
              "type": "uint32"
            },
            {
              "internalType": "uint64",
              "name": "closeAt",
              "type": "uint64"
            },
            {
              "internalType": "uint128",
              "name": "data",
              "type": "uint128"
            }
          ],
          "internalType": "struct Token",
          "name": "token",
          "type": "tuple"
        }
      ],
      "name": "uri",
      "outputs": [
        {
          "internalType": "string",
          "name": "",
          "type": "string"
        }
      ],
      "stateMutability": "view",
      "type": "function"
    },
    {
      "inputs": [],
      "name": "version",
      "outputs": [
        {
          "internalType": "uint256",
          "name": "",
          "type": "uint256"
        }
      ],
      "stateMutability": "pure",
      "type": "function"
    }
  ],
  "bytecode": "0x608060405234801561001057600080fd5b50611935806100206000396000f3fe608060405234801561001057600080fd5b50600436106100675760003560e01c8063a2f31bf311610050578063a2f31bf3146100c6578063a6669e66146100d9578063cf9bc65e146100ec57600080fd5b806306fdde031461006c57806354fd4d50146100b7575b600080fd5b60408051808201909152600b81527f50352052656e646572657200000000000000000000000000000000000000000060208201525b6040516100ae9190610ddb565b60405180910390f35b604051600181526020016100ae565b6100a16100d4366004610df5565b6100ff565b6100a16100e7366004610df5565b610286565b6100a16100fa366004610df5565b610340565b606060008073__$e6323e164ca9fc3d326792c834c81a6dab$__631c6cf18f856040518263ffffffff1660e01b815260040161013b9190610fa4565b600060405180830381865af4158015610158573d6000803e3d6000fd5b505050506040513d6000823e601f3d9081017fffffffffffffffffffffffffffffffffffffffffffffffffffffffffffffffe016820160405261019e91908101906111cd565b8060200190518101906101b19190611236565b9150915060006101c086610446565b6101ca868061129a565b6101d7602089018961129a565b876101e188610505565b61022a6101ee8d8061129a565b8080601f0160208091040260200160405190810160405280939291908181526020018383808284376000920191909152508d9250610665915050565b60405160200161024198979695949392919061131b565b604051602081830303815290604052905061025b81610505565b60405160200161026b9190611599565b60405160208183030381529060405293505050505b92915050565b6060600073__$e6323e164ca9fc3d326792c834c81a6dab$__631c6cf18f846040518263ffffffff1660e01b81526004016102c19190610fa4565b600060405180830381865af41580156102de573d6000803e3d6000fd5b505050506040513d6000823e601f3d9081017fffffffffffffffffffffffffffffffffffffffffffffffffffffffffffffffe016820160405261032491908101906111cd565b8060200190518101906103379190611236565b50949350505050565b6060600073__$e6323e164ca9fc3d326792c834c81a6dab$__631c6cf18f846040518263ffffffff1660e01b815260040161037b9190610fa4565b600060405180830381865af4158015610398573d6000803e3d6000fd5b505050506040513d6000823e601f3d9081017fffffffffffffffffffffffffffffffffffffffffffffffffffffffffffffffe01682016040526103de91908101906111cd565b8060200190518101906103f19190611236565b915061043e9050610402848061129a565b8080601f016020809104026020016040519081016040528093929190818152602001838380828437600092019190915250859250610665915050565b949350505050565b6060600061045383610c27565b600101905060008167ffffffffffffffff8111156104735761047361110c565b6040519080825280601f01601f19166020018201604052801561049d576020820181803683370190505b5090508181016020015b7fffffffffffffffffffffffffffffffffffffffffffffffffffffffffffffffff017f3031323334353637383961626364656600000000000000000000000000000000600a86061a8153600a85049450846104a7575b509392505050565b6060815160000361052457505060408051602081019091526000815290565b60006040518060600160405280604081526020016118c06040913990506000600384516002610553919061160d565b61055d9190611620565b61056890600461165b565b67ffffffffffffffff8111156105805761058061110c565b6040519080825280601f01601f1916602001820160405280156105aa576020820181803683370190505b50905060018201602082018586518701602081018051600082525b82841015610620576003840193508351603f8160121c168701518653600186019550603f81600c1c168701518653600186019550603f8160061c168701518653600186019550603f81168701518653506001850194506105c5565b905250508551600390066001811461063f57600281146106525761065a565b603d6001830353603d600283035361065a565b603d60018303535b509195945050505050565b604080516002808252606082810190935260009190816020015b610687610d09565b81526020019060019003908161067f5790505090506040518060400160405280600781526020017f3c7469746c653e00000000000000000000000000000000000000000000000000815250816000815181106106e5576106e5611672565b602002602001015160800181905250838160008151811061070857610708611672565b602002602001015160c001819052506040518060400160405280600881526020017f3c2f7469746c653e0000000000000000000000000000000000000000000000008152508160008151811061076057610760611672565b602002602001015160a001819052506040518060400160405280601281526020017f66756c6c53697a6543616e7661732e6373730000000000000000000000000000815250816001815181106107b8576107b8611672565b60200260200101516000018190525060405180606001604052806032815260200161188e60329139816001815181106107f3576107f3611672565b6020026020010151608001819052506040518060400160405280600281526020017f223e0000000000000000000000000000000000000000000000000000000000008152508160018151811061084b5761084b611672565b602002602001015160a00181905250738faa1aab9da8c75917c43fb24fddb513eddc32458160018151811061088257610882611672565b60209081029190910181015173ffffffffffffffffffffffffffffffffffffffff9290921691015260408051600380825260808201909252600091816020015b6108ca610d09565b8152602001906001900390816108c25790505090506040518060400160405280601381526020017f70352d76312e352e302e6d696e2e6a732e677a000000000000000000000000008152508160008151811061092857610928611672565b60200260200101516000018190525060038160008151811061094c5761094c611672565b6020026020010151606001906004811115610969576109696116a1565b9081600481111561097c5761097c6116a1565b81525050738faa1aab9da8c75917c43fb24fddb513eddc3245816000815181106109a8576109a8611672565b60200260200101516020019073ffffffffffffffffffffffffffffffffffffffff16908173ffffffffffffffffffffffffffffffffffffffff16815250506040518060400160405280601681526020017f67756e7a6970536372697074732d302e302e312e6a730000000000000000000081525081600181518110610a2f57610a2f611672565b602002602001015160000181905250600281600181518110610a5357610a53611672565b6020026020010151606001906004811115610a7057610a706116a1565b90816004811115610a8357610a836116a1565b81525050738faa1aab9da8c75917c43fb24fddb513eddc324581600181518110610aaf57610aaf611672565b60200260200101516020019073ffffffffffffffffffffffffffffffffffffffff16908173ffffffffffffffffffffffffffffffffffffffff16815250508381600281518110610b0157610b01611672565b602002602001015160c00181905250600181600281518110610b2557610b25611672565b6020026020010151606001906004811115610b4257610b426116a1565b90816004811115610b5557610b556116a1565b9052506040805180820182528381526020810183905290517f2bee680700000000000000000000000000000000000000000000000000000000815273d7587f110e08f4d120a231ba97d3b577a81df02290632bee680790610bba90849060040161182d565b600060405180830381865afa158015610bd7573d6000803e3d6000fd5b505050506040513d6000823e601f3d9081017fffffffffffffffffffffffffffffffffffffffffffffffffffffffffffffffe0168201604052610c1d91908101906111cd565b9695505050505050565b6000807a184f03e93ff9f4daa797ed6e38ed64bf6a1f0100000000000000008310610c70577a184f03e93ff9f4daa797ed6e38ed64bf6a1f010000000000000000830492506040015b6d04ee2d6d415b85acef81000000008310610c9c576d04ee2d6d415b85acef8100000000830492506020015b662386f26fc100008310610cba57662386f26fc10000830492506010015b6305f5e1008310610cd2576305f5e100830492506008015b6127108310610ce657612710830492506004015b60648310610cf8576064830492506002015b600a83106102805760010192915050565b6040518060e0016040528060608152602001600073ffffffffffffffffffffffffffffffffffffffff1681526020016060815260200160006004811115610d5257610d526116a1565b81526020016060815260200160608152602001606081525090565b60005b83811015610d88578181015183820152602001610d70565b50506000910152565b60008151808452610da9816020860160208601610d6d565b601f017fffffffffffffffffffffffffffffffffffffffffffffffffffffffffffffffe0169290920160200192915050565b602081526000610dee6020830184610d91565b9392505050565b60008060408385031215610e0857600080fd5b82359150602083013567ffffffffffffffff811115610e2657600080fd5b830160e08186031215610e3857600080fd5b809150509250929050565b60008083357fffffffffffffffffffffffffffffffffffffffffffffffffffffffffffffffe1843603018112610e7857600080fd5b830160208101925035905067ffffffffffffffff811115610e9857600080fd5b803603821315610ea757600080fd5b9250929050565b8183528181602085013750600060208284010152600060207fffffffffffffffffffffffffffffffffffffffffffffffffffffffffffffffe0601f840116840101905092915050565b818352600060208085019450826000805b86811015610f4757823573ffffffffffffffffffffffffffffffffffffffff8116808214610f34578384fd5b8952509683019691830191600101610f08565b50959695505050505050565b803563ffffffff81168114610f6757600080fd5b919050565b803567ffffffffffffffff81168114610f6757600080fd5b80356fffffffffffffffffffffffffffffffff81168114610f6757600080fd5b602081526000610fb48384610e43565b60e06020850152610fca61010085018284610eae565b915050610fda6020850185610e43565b7fffffffffffffffffffffffffffffffffffffffffffffffffffffffffffffffe080868503016040870152611010848385610eae565b9350604087013592507fffffffffffffffffffffffffffffffffffffffffffffffffffffffffffffffe187360301831261104957600080fd5b60209287019283019235915067ffffffffffffffff82111561106a57600080fd5b8160051b360383131561107c57600080fd5b858403016060860152611090838284610ef7565b925050506110a060608501610f53565b63ffffffff81166080850152506110b960808501610f53565b63ffffffff811660a0850152506110d260a08501610f6c565b67ffffffffffffffff811660c0850152506110ef60c08501610f84565b6fffffffffffffffffffffffffffffffff811660e08501526104fd565b7f4e487b7100000000000000000000000000000000000000000000000000000000600052604160045260246000fd5b600067ffffffffffffffff808411156111565761115661110c565b604051601f85017fffffffffffffffffffffffffffffffffffffffffffffffffffffffffffffffe0908116603f0116810190828211818310171561119c5761119c61110c565b816040528093508581528686860111156111b557600080fd5b6111c3866020830187610d6d565b5050509392505050565b6000602082840312156111df57600080fd5b815167ffffffffffffffff8111156111f657600080fd5b8201601f8101841361120757600080fd5b61043e8482516020840161113b565b600082601f83011261122757600080fd5b610dee8383516020850161113b565b6000806040838503121561124957600080fd5b825167ffffffffffffffff8082111561126157600080fd5b61126d86838701611216565b9350602085015191508082111561128357600080fd5b5061129085828601611216565b9150509250929050565b60008083357fffffffffffffffffffffffffffffffffffffffffffffffffffffffffffffffe18436030181126112cf57600080fd5b83018035915067ffffffffffffffff8211156112ea57600080fd5b602001915036819003821315610ea757600080fd5b60008151611311818560208601610d6d565b9290920192915050565b7f7b0000000000000000000000000000000000000000000000000000000000000081527f226964223a202200000000000000000000000000000000000000000000000000600182015260008951611379816008850160208e01610d6d565b80830190507f222c0000000000000000000000000000000000000000000000000000000000008060088301527f226e616d65223a20220000000000000000000000000000000000000000000000600a830152898b60138401376013918a01918201527f226465736372697074696f6e223a202200000000000000000000000000000000601582015286886025830137600090870160250190815261158a61156161153861153261150961148b6115036114b48261148561145c8b7f222c000000000000000000000000000000000000000000000000000000000000815260020190565b7f22696d616765223a2022000000000000000000000000000000000000000000008152600a0190565b8f6112ff565b7f222c000000000000000000000000000000000000000000000000000000000000815260020190565b7f227363726970745f75726c223a2022646174613a746578742f6a61766173637281527f6970743b6261736536342c0000000000000000000000000000000000000000006020820152602b0190565b8b6112ff565b7f22616e696d6174696f6e5f75726c223a20220000000000000000000000000000815260120190565b876112ff565b7f2200000000000000000000000000000000000000000000000000000000000000815260010190565b7f7d00000000000000000000000000000000000000000000000000000000000000815260010190565b9b9a5050505050505050505050565b7f646174613a6170706c69636174696f6e2f6a736f6e3b6261736536342c0000008152600082516115d181601d850160208701610d6d565b91909101601d0192915050565b7f4e487b7100000000000000000000000000000000000000000000000000000000600052601160045260246000fd5b80820180821115610280576102806115de565b600082611656577f4e487b7100000000000000000000000000000000000000000000000000000000600052601260045260246000fd5b500490565b8082028115828204841417610280576102806115de565b7f4e487b7100000000000000000000000000000000000000000000000000000000600052603260045260246000fd5b7f4e487b7100000000000000000000000000000000000000000000000000000000600052602160045260246000fd5b60058110611707577f4e487b7100000000000000000000000000000000000000000000000000000000600052602160045260246000fd5b9052565b600082825180855260208086019550808260051b84010181860160005b84811015611820577fffffffffffffffffffffffffffffffffffffffffffffffffffffffffffffffe0868403018952815160e0815181865261176c82870182610d91565b91505073ffffffffffffffffffffffffffffffffffffffff868301511686860152604080830151868303828801526117a48382610d91565b925050506060808301516117ba828801826116d0565b5050608080830151868303828801526117d38382610d91565b9250505060a080830151868303828801526117ee8382610d91565b9250505060c0808301519250858203818701525061180c8183610d91565b9a86019a9450505090830190600101611728565b5090979650505050505050565b602081526000825160406020840152611849606084018261170b565b905060208401517fffffffffffffffffffffffffffffffffffffffffffffffffffffffffffffffe0848303016040850152611884828261170b565b9594505050505056fe3c6c696e6b2072656c3d227374796c6573686565742220687265663d22646174613a746578742f6373733b6261736536342c4142434445464748494a4b4c4d4e4f505152535455565758595a6162636465666768696a6b6c6d6e6f707172737475767778797a303132333435363738392b2fa2646970667358221220df9bf7ef01b221f7c951bf8ccf9c73b8696104d932aee306f08c8ed010c8919f64736f6c63430008180033",
  "linkReferences": {
    "contracts/libraries/ArtifactReader.sol": {
      "ArtifactReader": [
        {
          "length": 20,
          "start": 294
        },
        {
          "length": 20,
          "start": 684
        },
        {
          "length": 20,
          "start": 870
        }
      ]
    }
  },
  "deployedLinkReferences": {
    "contracts/libraries/ArtifactReader.sol": {
      "ArtifactReader": [
        {
          "length": 20,
          "start": 262
        },
        {
          "length": 20,
          "start": 652
        },
        {
          "length": 20,
          "start": 838
        }
      ]
    }
  }
}