{
  "_format": "hh-sol-artifact-1",
  "contractName": "Renderer",
  "sourceName": "contracts/renderers/Renderer.sol",
  "abi": [
    {
      "inputs": [
        {
          "internalType": "uint256",
          "name": "tokenId",
          "type": "uint256"
        },
        {
          "components": [
            {
              "internalType": "string",
              "name": "name",
              "type": "string"
            },
            {
              "internalType": "string",
              "name": "description",
              "type": "string"
            },
            {
              "internalType": "address[]",
              "name": "artifact",
              "type": "address[]"
            },
            {
              "internalType": "uint32",
              "name": "renderer",
              "type": "uint32"
            },
            {
              "internalType": "uint32",
              "name": "blocks",
              "type": "uint32"
            },
            {
              "internalType": "uint192",
              "name": "data",
              "type": "uint192"
            }
          ],
          "internalType": "struct Token",
          "name": "token",
          "type": "tuple"
        },
        {
          "internalType": "bytes",
          "name": "artifact",
          "type": "bytes"
        }
      ],
      "name": "uri",
      "outputs": [
        {
          "internalType": "string",
          "name": "",
          "type": "string"
        }
      ],
      "stateMutability": "pure",
      "type": "function"
    }
  ],
  "bytecode": "0x608060405234801561001057600080fd5b506108d8806100206000396000f3fe608060405234801561001057600080fd5b506004361061002b5760003560e01c8063ff78784614610030575b600080fd5b61004361003e366004610406565b610059565b604051610050919061052f565b60405180910390f35b60606000610066856100d6565b6100708580610580565b61007d6020880188610580565b87604051602001610093969594939291906105ec565b60405160208183030381529060405290506100ad81610194565b6040516020016100bd9190610789565b6040516020818303038152906040529150509392505050565b606060006100e3836102f4565b600101905060008167ffffffffffffffff811115610103576101036103d7565b6040519080825280601f01601f19166020018201604052801561012d576020820181803683370190505b5090508181016020015b7fffffffffffffffffffffffffffffffffffffffffffffffffffffffffffffffff017f3031323334353637383961626364656600000000000000000000000000000000600a86061a8153600a850494508461013757509392505050565b606081516000036101b357505060408051602081019091526000815290565b600060405180606001604052806040815260200161086360409139905060006003845160026101e291906107fd565b6101ec9190610810565b6101f790600461084b565b67ffffffffffffffff81111561020f5761020f6103d7565b6040519080825280601f01601f191660200182016040528015610239576020820181803683370190505b50905060018201602082018586518701602081018051600082525b828410156102af576003840193508351603f8160121c168701518653600186019550603f81600c1c168701518653600186019550603f8160061c168701518653600186019550603f8116870151865350600185019450610254565b90525050855160039006600181146102ce57600281146102e1576102e9565b603d6001830353603d60028303536102e9565b603d60018303535b509195945050505050565b6000807a184f03e93ff9f4daa797ed6e38ed64bf6a1f010000000000000000831061033d577a184f03e93ff9f4daa797ed6e38ed64bf6a1f010000000000000000830492506040015b6d04ee2d6d415b85acef81000000008310610369576d04ee2d6d415b85acef8100000000830492506020015b662386f26fc10000831061038757662386f26fc10000830492506010015b6305f5e100831061039f576305f5e100830492506008015b61271083106103b357612710830492506004015b606483106103c5576064830492506002015b600a83106103d1576001015b92915050565b7f4e487b7100000000000000000000000000000000000000000000000000000000600052604160045260246000fd5b60008060006060848603121561041b57600080fd5b83359250602084013567ffffffffffffffff8082111561043a57600080fd5b9085019060c0828803121561044e57600080fd5b9092506040850135908082111561046457600080fd5b818601915086601f83011261047857600080fd5b81358181111561048a5761048a6103d7565b604051601f82017fffffffffffffffffffffffffffffffffffffffffffffffffffffffffffffffe0908116603f011681019083821181831017156104d0576104d06103d7565b816040528281528960208487010111156104e957600080fd5b8260208601602083013760006020848301015280955050505050509250925092565b60005b8381101561052657818101518382015260200161050e565b50506000910152565b602081526000825180602084015261054e81604085016020870161050b565b601f017fffffffffffffffffffffffffffffffffffffffffffffffffffffffffffffffe0169190910160400192915050565b60008083357fffffffffffffffffffffffffffffffffffffffffffffffffffffffffffffffe18436030181126105b557600080fd5b83018035915067ffffffffffffffff8211156105d057600080fd5b6020019150368190038213156105e557600080fd5b9250929050565b7f7b0000000000000000000000000000000000000000000000000000000000000081527f226964223a20220000000000000000000000000000000000000000000000000060018201526000875161064a816008850160208c0161050b565b80830190507f222c0000000000000000000000000000000000000000000000000000000000008060088301527f226e616d65223a20220000000000000000000000000000000000000000000000600a8301528789601384013787820191508060138301527f226465736372697074696f6e223a2022000000000000000000000000000000006015830152858760258401376025918601918201527f22696d616765223a2022000000000000000000000000000000000000000000006027820152835161071d81603184016020880161050b565b61077b6107526031838501017f2200000000000000000000000000000000000000000000000000000000000000815260010190565b7f7d00000000000000000000000000000000000000000000000000000000000000815260010190565b9a9950505050505050505050565b7f646174613a6170706c69636174696f6e2f6a736f6e3b6261736536342c0000008152600082516107c181601d85016020870161050b565b91909101601d0192915050565b7f4e487b7100000000000000000000000000000000000000000000000000000000600052601160045260246000fd5b808201808211156103d1576103d16107ce565b600082610846577f4e487b7100000000000000000000000000000000000000000000000000000000600052601260045260246000fd5b500490565b80820281158282048414176103d1576103d16107ce56fe4142434445464748494a4b4c4d4e4f505152535455565758595a6162636465666768696a6b6c6d6e6f707172737475767778797a303132333435363738392b2fa2646970667358221220191fe9d0319cec0ced4a8d2aa3c63733a75c2bd88b434cbeb150054ba7230bdf64736f6c63430008180033",
  "linkReferences": {},
  "deployedLinkReferences": {}
}