{
  "_format": "hh-sol-artifact-1",
  "contractName": "Mint",
  "sourceName": "contracts/Mint.sol",
  "abi": [
    {
      "inputs": [
        {
          "internalType": "address",
          "name": "sender",
          "type": "address"
        },
        {
          "internalType": "uint256",
          "name": "balance",
          "type": "uint256"
        },
        {
          "internalType": "uint256",
          "name": "needed",
          "type": "uint256"
        },
        {
          "internalType": "uint256",
          "name": "tokenId",
          "type": "uint256"
        }
      ],
      "name": "ERC1155InsufficientBalance",
      "type": "error"
    },
    {
      "inputs": [
        {
          "internalType": "address",
          "name": "approver",
          "type": "address"
        }
      ],
      "name": "ERC1155InvalidApprover",
      "type": "error"
    },
    {
      "inputs": [
        {
          "internalType": "uint256",
          "name": "idsLength",
          "type": "uint256"
        },
        {
          "internalType": "uint256",
          "name": "valuesLength",
          "type": "uint256"
        }
      ],
      "name": "ERC1155InvalidArrayLength",
      "type": "error"
    },
    {
      "inputs": [
        {
          "internalType": "address",
          "name": "operator",
          "type": "address"
        }
      ],
      "name": "ERC1155InvalidOperator",
      "type": "error"
    },
    {
      "inputs": [
        {
          "internalType": "address",
          "name": "receiver",
          "type": "address"
        }
      ],
      "name": "ERC1155InvalidReceiver",
      "type": "error"
    },
    {
      "inputs": [
        {
          "internalType": "address",
          "name": "sender",
          "type": "address"
        }
      ],
      "name": "ERC1155InvalidSender",
      "type": "error"
    },
    {
      "inputs": [
        {
          "internalType": "address",
          "name": "operator",
          "type": "address"
        },
        {
          "internalType": "address",
          "name": "owner",
          "type": "address"
        }
      ],
      "name": "ERC1155MissingApprovalForAll",
      "type": "error"
    },
    {
      "inputs": [],
      "name": "Initialized",
      "type": "error"
    },
    {
      "inputs": [],
      "name": "MintClosed",
      "type": "error"
    },
    {
      "inputs": [],
      "name": "MintPriceNotMet",
      "type": "error"
    },
    {
      "inputs": [],
      "name": "NonExistentRenderer",
      "type": "error"
    },
    {
      "inputs": [],
      "name": "NonExistentToken",
      "type": "error"
    },
    {
      "inputs": [
        {
          "internalType": "address",
          "name": "owner",
          "type": "address"
        }
      ],
      "name": "OwnableInvalidOwner",
      "type": "error"
    },
    {
      "inputs": [
        {
          "internalType": "address",
          "name": "account",
          "type": "address"
        }
      ],
      "name": "OwnableUnauthorizedAccount",
      "type": "error"
    },
    {
      "inputs": [],
      "name": "TokenAlreadyMinted",
      "type": "error"
    },
    {
      "anonymous": false,
      "inputs": [
        {
          "indexed": true,
          "internalType": "address",
          "name": "account",
          "type": "address"
        },
        {
          "indexed": true,
          "internalType": "address",
          "name": "operator",
          "type": "address"
        },
        {
          "indexed": false,
          "internalType": "bool",
          "name": "approved",
          "type": "bool"
        }
      ],
      "name": "ApprovalForAll",
      "type": "event"
    },
    {
      "anonymous": false,
      "inputs": [
        {
          "indexed": true,
          "internalType": "uint256",
          "name": "tokenId",
          "type": "uint256"
        },
        {
          "indexed": false,
          "internalType": "uint256",
          "name": "unitPrice",
          "type": "uint256"
        },
        {
          "indexed": false,
          "internalType": "uint256",
          "name": "amount",
          "type": "uint256"
        },
        {
          "indexed": false,
          "internalType": "address",
          "name": "minter",
          "type": "address"
        }
      ],
      "name": "NewMint",
      "type": "event"
    },
    {
      "anonymous": false,
      "inputs": [
        {
          "indexed": true,
          "internalType": "address",
          "name": "renderer",
          "type": "address"
        },
        {
          "indexed": true,
          "internalType": "uint256",
          "name": "index",
          "type": "uint256"
        }
      ],
      "name": "NewRenderer",
      "type": "event"
    },
    {
      "anonymous": false,
      "inputs": [
        {
          "indexed": true,
          "internalType": "address",
          "name": "previousOwner",
          "type": "address"
        },
        {
          "indexed": true,
          "internalType": "address",
          "name": "newOwner",
          "type": "address"
        }
      ],
      "name": "OwnershipTransferStarted",
      "type": "event"
    },
    {
      "anonymous": false,
      "inputs": [
        {
          "indexed": true,
          "internalType": "address",
          "name": "previousOwner",
          "type": "address"
        },
        {
          "indexed": true,
          "internalType": "address",
          "name": "newOwner",
          "type": "address"
        }
      ],
      "name": "OwnershipTransferred",
      "type": "event"
    },
    {
      "anonymous": false,
      "inputs": [
        {
          "indexed": true,
          "internalType": "address",
          "name": "operator",
          "type": "address"
        },
        {
          "indexed": true,
          "internalType": "address",
          "name": "from",
          "type": "address"
        },
        {
          "indexed": true,
          "internalType": "address",
          "name": "to",
          "type": "address"
        },
        {
          "indexed": false,
          "internalType": "uint256[]",
          "name": "ids",
          "type": "uint256[]"
        },
        {
          "indexed": false,
          "internalType": "uint256[]",
          "name": "values",
          "type": "uint256[]"
        }
      ],
      "name": "TransferBatch",
      "type": "event"
    },
    {
      "anonymous": false,
      "inputs": [
        {
          "indexed": true,
          "internalType": "address",
          "name": "operator",
          "type": "address"
        },
        {
          "indexed": true,
          "internalType": "address",
          "name": "from",
          "type": "address"
        },
        {
          "indexed": true,
          "internalType": "address",
          "name": "to",
          "type": "address"
        },
        {
          "indexed": false,
          "internalType": "uint256",
          "name": "id",
          "type": "uint256"
        },
        {
          "indexed": false,
          "internalType": "uint256",
          "name": "value",
          "type": "uint256"
        }
      ],
      "name": "TransferSingle",
      "type": "event"
    },
    {
      "anonymous": false,
      "inputs": [
        {
          "indexed": false,
          "internalType": "string",
          "name": "value",
          "type": "string"
        },
        {
          "indexed": true,
          "internalType": "uint256",
          "name": "id",
          "type": "uint256"
        }
      ],
      "name": "URI",
      "type": "event"
    },
    {
      "anonymous": false,
      "inputs": [
        {
          "indexed": false,
          "internalType": "uint256",
          "name": "amount",
          "type": "uint256"
        }
      ],
      "name": "Withdrawal",
      "type": "event"
    },
    {
      "inputs": [],
      "name": "acceptOwnership",
      "outputs": [],
      "stateMutability": "nonpayable",
      "type": "function"
    },
    {
      "inputs": [
        {
          "internalType": "address",
          "name": "account",
          "type": "address"
        },
        {
          "internalType": "uint256",
          "name": "id",
          "type": "uint256"
        }
      ],
      "name": "balanceOf",
      "outputs": [
        {
          "internalType": "uint256",
          "name": "",
          "type": "uint256"
        }
      ],
      "stateMutability": "view",
      "type": "function"
    },
    {
      "inputs": [
        {
          "internalType": "address[]",
          "name": "accounts",
          "type": "address[]"
        },
        {
          "internalType": "uint256[]",
          "name": "ids",
          "type": "uint256[]"
        }
      ],
      "name": "balanceOfBatch",
      "outputs": [
        {
          "internalType": "uint256[]",
          "name": "",
          "type": "uint256[]"
        }
      ],
      "stateMutability": "view",
      "type": "function"
    },
    {
      "inputs": [
        {
          "internalType": "address",
          "name": "account",
          "type": "address"
        },
        {
          "internalType": "uint256",
          "name": "tokenId",
          "type": "uint256"
        },
        {
          "internalType": "uint256",
          "name": "amount",
          "type": "uint256"
        }
      ],
      "name": "burn",
      "outputs": [],
      "stateMutability": "nonpayable",
      "type": "function"
    },
    {
      "inputs": [],
      "name": "contractURI",
      "outputs": [
        {
          "internalType": "string",
          "name": "",
          "type": "string"
        }
      ],
      "stateMutability": "view",
      "type": "function"
    },
    {
      "inputs": [
        {
          "internalType": "string",
          "name": "tokenName",
          "type": "string"
        },
        {
          "internalType": "string",
          "name": "tokenDescription",
          "type": "string"
        },
        {
          "internalType": "bytes[]",
          "name": "tokenArtifact",
          "type": "bytes[]"
        },
        {
          "internalType": "uint32",
          "name": "tokenRenderer",
          "type": "uint32"
        },
        {
          "internalType": "uint128",
          "name": "tokenData",
          "type": "uint128"
        }
      ],
      "name": "create",
      "outputs": [],
      "stateMutability": "nonpayable",
      "type": "function"
    },
    {
      "inputs": [
        {
          "internalType": "uint256",
          "name": "tokenId",
          "type": "uint256"
        }
      ],
      "name": "get",
      "outputs": [
        {
          "internalType": "string",
          "name": "name",
          "type": "string"
        },
        {
          "internalType": "string",
          "name": "description",
          "type": "string"
        },
        {
          "internalType": "address[]",
          "name": "artifact",
          "type": "address[]"
        },
        {
          "internalType": "uint32",
          "name": "renderer",
          "type": "uint32"
        },
        {
          "internalType": "uint32",
          "name": "mintedBlock",
          "type": "uint32"
        },
        {
          "internalType": "uint64",
          "name": "closeAt",
          "type": "uint64"
        },
        {
          "internalType": "uint128",
          "name": "data",
          "type": "uint128"
        }
      ],
      "stateMutability": "view",
      "type": "function"
    },
    {
      "inputs": [
        {
          "internalType": "string",
          "name": "contractName",
          "type": "string"
        },
        {
          "internalType": "string",
          "name": "contractSymbol",
          "type": "string"
        },
        {
          "internalType": "string",
          "name": "contractDescription",
          "type": "string"
        },
        {
          "internalType": "bytes[]",
          "name": "contractImage",
          "type": "bytes[]"
        },
        {
          "internalType": "address",
          "name": "renderer",
          "type": "address"
        },
        {
          "internalType": "address",
          "name": "owner",
          "type": "address"
        }
      ],
      "name": "init",
      "outputs": [],
      "stateMutability": "nonpayable",
      "type": "function"
    },
    {
      "inputs": [],
      "name": "initBlock",
      "outputs": [
        {
          "internalType": "uint256",
          "name": "",
          "type": "uint256"
        }
      ],
      "stateMutability": "view",
      "type": "function"
    },
    {
      "inputs": [
        {
          "internalType": "address",
          "name": "account",
          "type": "address"
        },
        {
          "internalType": "address",
          "name": "operator",
          "type": "address"
        }
      ],
      "name": "isApprovedForAll",
      "outputs": [
        {
          "internalType": "bool",
          "name": "",
          "type": "bool"
        }
      ],
      "stateMutability": "view",
      "type": "function"
    },
    {
      "inputs": [],
      "name": "latestTokenId",
      "outputs": [
        {
          "internalType": "uint256",
          "name": "",
          "type": "uint256"
        }
      ],
      "stateMutability": "view",
      "type": "function"
    },
    {
      "inputs": [
        {
          "internalType": "uint256",
          "name": "tokenId",
          "type": "uint256"
        },
        {
          "internalType": "uint256",
          "name": "amount",
          "type": "uint256"
        }
      ],
      "name": "mint",
      "outputs": [],
      "stateMutability": "payable",
      "type": "function"
    },
    {
      "inputs": [
        {
          "internalType": "uint256",
          "name": "tokenId",
          "type": "uint256"
        }
      ],
      "name": "mintOpenUntil",
      "outputs": [
        {
          "internalType": "uint256",
          "name": "",
          "type": "uint256"
        }
      ],
      "stateMutability": "view",
      "type": "function"
    },
    {
      "inputs": [],
      "name": "owner",
      "outputs": [
        {
          "internalType": "address",
          "name": "",
          "type": "address"
        }
      ],
      "stateMutability": "view",
      "type": "function"
    },
    {
      "inputs": [],
      "name": "pendingOwner",
      "outputs": [
        {
          "internalType": "address",
          "name": "",
          "type": "address"
        }
      ],
      "stateMutability": "view",
      "type": "function"
    },
    {
      "inputs": [
        {
          "internalType": "uint256",
          "name": "tokenId",
          "type": "uint256"
        },
        {
          "internalType": "bytes[]",
          "name": "tokenArtifact",
          "type": "bytes[]"
        },
        {
          "internalType": "bool",
          "name": "clear",
          "type": "bool"
        }
      ],
      "name": "prepareArtifact",
      "outputs": [],
      "stateMutability": "nonpayable",
      "type": "function"
    },
    {
      "inputs": [
        {
          "internalType": "address",
          "name": "renderer",
          "type": "address"
        }
      ],
      "name": "registerRenderer",
      "outputs": [
        {
          "internalType": "uint256",
          "name": "",
          "type": "uint256"
        }
      ],
      "stateMutability": "nonpayable",
      "type": "function"
    },
    {
      "inputs": [
        {
          "internalType": "uint256",
          "name": "",
          "type": "uint256"
        }
      ],
      "name": "renderers",
      "outputs": [
        {
          "internalType": "address",
          "name": "",
          "type": "address"
        }
      ],
      "stateMutability": "view",
      "type": "function"
    },
    {
      "inputs": [],
      "name": "renounceOwnership",
      "outputs": [],
      "stateMutability": "nonpayable",
      "type": "function"
    },
    {
      "inputs": [
        {
          "internalType": "address",
          "name": "from",
          "type": "address"
        },
        {
          "internalType": "address",
          "name": "to",
          "type": "address"
        },
        {
          "internalType": "uint256[]",
          "name": "ids",
          "type": "uint256[]"
        },
        {
          "internalType": "uint256[]",
          "name": "values",
          "type": "uint256[]"
        },
        {
          "internalType": "bytes",
          "name": "data",
          "type": "bytes"
        }
      ],
      "name": "safeBatchTransferFrom",
      "outputs": [],
      "stateMutability": "nonpayable",
      "type": "function"
    },
    {
      "inputs": [
        {
          "internalType": "address",
          "name": "from",
          "type": "address"
        },
        {
          "internalType": "address",
          "name": "to",
          "type": "address"
        },
        {
          "internalType": "uint256",
          "name": "id",
          "type": "uint256"
        },
        {
          "internalType": "uint256",
          "name": "value",
          "type": "uint256"
        },
        {
          "internalType": "bytes",
          "name": "data",
          "type": "bytes"
        }
      ],
      "name": "safeTransferFrom",
      "outputs": [],
      "stateMutability": "nonpayable",
      "type": "function"
    },
    {
      "inputs": [
        {
          "internalType": "address",
          "name": "operator",
          "type": "address"
        },
        {
          "internalType": "bool",
          "name": "approved",
          "type": "bool"
        }
      ],
      "name": "setApprovalForAll",
      "outputs": [],
      "stateMutability": "nonpayable",
      "type": "function"
    },
    {
      "inputs": [
        {
          "internalType": "bytes4",
          "name": "interfaceId",
          "type": "bytes4"
        }
      ],
      "name": "supportsInterface",
      "outputs": [
        {
          "internalType": "bool",
          "name": "",
          "type": "bool"
        }
      ],
      "stateMutability": "view",
      "type": "function"
    },
    {
      "inputs": [
        {
          "internalType": "address",
          "name": "newOwner",
          "type": "address"
        }
      ],
      "name": "transferOwnership",
      "outputs": [],
      "stateMutability": "nonpayable",
      "type": "function"
    },
    {
      "inputs": [
        {
          "internalType": "uint256",
          "name": "tokenId",
          "type": "uint256"
        }
      ],
      "name": "uri",
      "outputs": [
        {
          "internalType": "string",
          "name": "",
          "type": "string"
        }
      ],
      "stateMutability": "view",
      "type": "function"
    },
    {
      "inputs": [],
      "name": "version",
      "outputs": [
        {
          "internalType": "uint256",
          "name": "",
          "type": "uint256"
        }
      ],
      "stateMutability": "view",
      "type": "function"
    },
    {
      "inputs": [],
      "name": "withdraw",
      "outputs": [],
      "stateMutability": "nonpayable",
      "type": "function"
    }
  ],
  "bytecode": "0x60806040523480156200001157600080fd5b5033806200003957604051631e4fbdf760e01b81526000600482015260240160405180910390fd5b62000044816200004b565b50620000b9565b600180546001600160a01b0319169055620000668162000069565b50565b600080546001600160a01b038381166001600160a01b0319831681178455604051919092169283917f8be0079c531659141344cd1fd0a4f28419497f9722a3daafe3b4186f6b6457e09190a35050565b61366c80620000c96000396000f3fe6080604052600436106101ab5760003560e01c806384252fb7116100ec578063c4a0d4651161008a578063e985e9c511610064578063e985e9c5146104eb578063f242432a14610541578063f2fde38b14610561578063f5298aca1461058157600080fd5b8063c4a0d4651461048b578063e30c3978146104ab578063e8a3d485146104d657600080fd5b80639507d39a116100c65780639507d39a146103d2578063a22cb46514610405578063b564434114610425578063b6cb8dfe1461046b57600080fd5b806384252fb7146103715780638c0e8349146103915780638da5cb5b146103a757600080fd5b80632eb2c2d61161015957806354fd4d501161013357806354fd4d501461031c5780635d05125b14610331578063715018a61461034757806379ba50971461035c57600080fd5b80632eb2c2d6146102ba5780633ccfd60b146102da5780634e1273f4146102ef57600080fd5b80630e89341c1161018a5780630e89341c146102355780631b2ef1ca146102625780631ffbee641461027557600080fd5b8062fdd58e146101b057806301ffc9a7146101e35780630bdbf6c214610213575b600080fd5b3480156101bc57600080fd5b506101d06101cb3660046125ac565b6105a1565b6040519081526020015b60405180910390f35b3480156101ef57600080fd5b506102036101fe366004612604565b6105d8565b60405190151581526020016101da565b34801561021f57600080fd5b5061023361022e3660046126af565b6106bb565b005b34801561024157600080fd5b5061025561025036600461278d565b610935565b6040516101da9190612814565b610233610270366004612827565b610c75565b34801561028157600080fd5b5061029561029036600461278d565b610dce565b60405173ffffffffffffffffffffffffffffffffffffffff90911681526020016101da565b3480156102c657600080fd5b506102336102d53660046129f1565b610e05565b3480156102e657600080fd5b50610233610ed0565b3480156102fb57600080fd5b5061030f61030a366004612a9b565b610f55565b6040516101da9190612b97565b34801561032857600080fd5b506101d0600181565b34801561033d57600080fd5b506101d0600b5481565b34801561035357600080fd5b5061023361103b565b34801561036857600080fd5b5061023361104f565b34801561037d57600080fd5b5061023361038c366004612baa565b6110c6565b34801561039d57600080fd5b506101d0600a5481565b3480156103b357600080fd5b5060005473ffffffffffffffffffffffffffffffffffffffff16610295565b3480156103de57600080fd5b506103f26103ed36600461278d565b611245565b6040516101da9796959493929190612cd6565b34801561041157600080fd5b50610233610420366004612d68565b611464565b34801561043157600080fd5b506101d061044036600461278d565b60009081526008602052604090206003015468010000000000000000900467ffffffffffffffff1690565b34801561047757600080fd5b50610233610486366004612d9b565b611473565b34801561049757600080fd5b506101d06104a6366004612df9565b611579565b3480156104b757600080fd5b5060015473ffffffffffffffffffffffffffffffffffffffff16610295565b3480156104e257600080fd5b50610255611650565b3480156104f757600080fd5b50610203610506366004612e14565b73ffffffffffffffffffffffffffffffffffffffff918216600090815260036020908152604080832093909416825291909152205460ff1690565b34801561054d57600080fd5b5061023361055c366004612e3e565b61170b565b34801561056d57600080fd5b5061023361057c366004612df9565b6117c9565b34801561058d57600080fd5b5061023361059c366004612ea3565b611879565b600081815260026020908152604080832073ffffffffffffffffffffffffffffffffffffffff861684529091529020545b92915050565b60007fffffffff0000000000000000000000000000000000000000000000000000000082167fd9b67a2600000000000000000000000000000000000000000000000000000000148061066b57507fffffffff0000000000000000000000000000000000000000000000000000000082167f0e89341c00000000000000000000000000000000000000000000000000000000145b806105d257507f01ffc9a7000000000000000000000000000000000000000000000000000000007fffffffff000000000000000000000000000000000000000000000000000000008316146105d2565b6106c3611935565b6106ce826001612f05565b63ffffffff166009805490501015610712576040517fa9a25f6700000000000000000000000000000000000000000000000000000000815260040160405180910390fd5b600a6000815461072190612f29565b90915550600a54600090815260086020526040902080610742898b83612ffc565b5060018101610752878983612ffc565b506003810180547fffffffffffffffffffffffffffffffffffffffffffffffff00000000ffffffff166401000000004363ffffffff16021790556107996201518042613116565b6003820180546fffffffffffffffffffffffffffffffff8516700100000000000000000000000000000000026fffffffffffffffffffffffff0000000067ffffffffffffffff9490941668010000000000000000029390931667ffffffff000000009091161763ffffffff861617919091179055831561090c5760028101541561082b5761082b600282016000612556565b60005b60ff811685111561090a57816002016108a187878460ff1681811061085557610855613129565b90506020028101906108679190613158565b8080601f01602080910402602001604051908101604052809392919081815260200183838082843760009201919091525061198892505050565b81546001810183556000928352602090922090910180547fffffffffffffffffffffffff00000000000000000000000000000000000000001673ffffffffffffffffffffffffffffffffffffffff90921691909117905580610902816131bd565b91505061082e565b505b61092a33600a54600160405180602001604052806000815250611a60565b505050505050505050565b6060600a54821115610973576040517f9430a17e00000000000000000000000000000000000000000000000000000000815260040160405180910390fd5b600082815260086020526040808220815160e0810190925280548290829061099a90612f61565b80601f01602080910402602001604051908101604052809291908181526020018280546109c690612f61565b8015610a135780601f106109e857610100808354040283529160200191610a13565b820191906000526020600020905b8154815290600101906020018083116109f657829003601f168201915b50505050508152602001600182018054610a2c90612f61565b80601f0160208091040260200160405190810160405280929190818152602001828054610a5890612f61565b8015610aa55780601f10610a7a57610100808354040283529160200191610aa5565b820191906000526020600020905b815481529060010190602001808311610a8857829003601f168201915b5050505050815260200160028201805480602002602001604051908101604052809291908181526020018280548015610b1457602002820191906000526020600020905b815473ffffffffffffffffffffffffffffffffffffffff168152600190910190602001808311610ae9575b50505091835250506003919091015463ffffffff808216602084015264010000000082048116604084015268010000000000000000820467ffffffffffffffff166060808501919091527001000000000000000000000000000000009092046fffffffffffffffffffffffffffffffff1660809093019290925282015160098054939450929116908110610baa57610baa613129565b6000918252602090912001546040517fa2f31bf300000000000000000000000000000000000000000000000000000000815273ffffffffffffffffffffffffffffffffffffffff9091169063a2f31bf390610c0b90869085906004016131dc565b600060405180830381865afa158015610c28573d6000803e3d6000fd5b505050506040513d6000823e601f3d9081017fffffffffffffffffffffffffffffffffffffffffffffffffffffffffffffffe0168201604052610c6e91908101906132bf565b9392505050565b600a54821115610cb1576040517f9430a17e00000000000000000000000000000000000000000000000000000000815260040160405180910390fd5b6000610cbf4861ea60613336565b90506000610ccd8383613336565b905034811115610d09576040517ff31a165400000000000000000000000000000000000000000000000000000000815260040160405180910390fd5b600084815260086020526040902060030154429068010000000000000000900467ffffffffffffffff161015610d6b576040517f589ed34b00000000000000000000000000000000000000000000000000000000815260040160405180910390fd5b610d8633858560405180602001604052806000815250611a60565b60408051838152602081018590523381830152905185917f160ecdf0b6c0a56992b4f6fad717f85f3b0bba236ec571bf26ca5cf4fe61101e919081900360600190a250505050565b60098181548110610dde57600080fd5b60009182526020909120015473ffffffffffffffffffffffffffffffffffffffff16905081565b3373ffffffffffffffffffffffffffffffffffffffff86168114801590610e5f575073ffffffffffffffffffffffffffffffffffffffff80871660009081526003602090815260408083209385168352929052205460ff16155b15610ebb576040517fe237d92200000000000000000000000000000000000000000000000000000000815273ffffffffffffffffffffffffffffffffffffffff8083166004830152871660248201526044015b60405180910390fd5b610ec88686868686611ae3565b505050505050565b610ed8611935565b6000805460405173ffffffffffffffffffffffffffffffffffffffff909116914780156108fc02929091818181858888f19350505050158015610f1f573d6000803e3d6000fd5b506040514781527f4e70a604b23a8edee2b1d0a656e9b9c00b73ad8bb1afc2c59381ee9f69197de79060200160405180910390a1565b60608151835114610f9f57815183516040517f5b05999100000000000000000000000000000000000000000000000000000000815260048101929092526024820152604401610eb2565b6000835167ffffffffffffffff811115610fbb57610fbb612849565b604051908082528060200260200182016040528015610fe4578160200160208202803683370190505b50905060005b84518110156110335760208082028601015161100e906020808402870101516105a1565b82828151811061102057611020613129565b6020908102919091010152600101610fea565b509392505050565b611043611935565b61104d6000611b97565b565b600154339073ffffffffffffffffffffffffffffffffffffffff1681146110ba576040517f118cdaa700000000000000000000000000000000000000000000000000000000815273ffffffffffffffffffffffffffffffffffffffff82166004820152602401610eb2565b6110c381611b97565b50565b600b5415611100576040517f5daa87a000000000000000000000000000000000000000000000000000000000815260040160405180910390fd5b600461110d8a8c83612ffc565b50600561111b888a83612ffc565b506006611129868883612ffc565b5060005b60ff81168411156111bb576007611152868660ff851681811061085557610855613129565b81546001810183556000928352602090922090910180547fffffffffffffffffffffffff00000000000000000000000000000000000000001673ffffffffffffffffffffffffffffffffffffffff909216919091179055806111b3816131bd565b91505061112d565b50600980546001810182556000919091527f6e1540171b6c0c960b71a7020d9f60077f6af931a8bbf590da0223dacf75c7af0180547fffffffffffffffffffffffff00000000000000000000000000000000000000001673ffffffffffffffffffffffffffffffffffffffff841617905543600b5561123981611b97565b50505050505050505050565b600081815260086020526040812060038101548154606093849384939192839283928392909182916001830191600284019163ffffffff8083169264010000000081049091169168010000000000000000820467ffffffffffffffff169170010000000000000000000000000000000090046fffffffffffffffffffffffffffffffff169087906112d590612f61565b80601f016020809104026020016040519081016040528092919081815260200182805461130190612f61565b801561134e5780601f106113235761010080835404028352916020019161134e565b820191906000526020600020905b81548152906001019060200180831161133157829003601f168201915b5050505050965085805461136190612f61565b80601f016020809104026020016040519081016040528092919081815260200182805461138d90612f61565b80156113da5780601f106113af576101008083540402835291602001916113da565b820191906000526020600020905b8154815290600101906020018083116113bd57829003601f168201915b505050505095508480548060200260200160405190810160405280929190818152602001828054801561144357602002820191906000526020600020905b815473ffffffffffffffffffffffffffffffffffffffff168152600190910190602001808311611418575b50505050509450975097509750975097509750975050919395979092949650565b61146f338383611bc8565b5050565b61147b611935565b600a5484116114b5576040517ea5a1f500000000000000000000000000000000000000000000000000000000815260040160405180910390fd5b60008481526008602052604090206002810154158015906114d35750815b156114e6576114e6600282016000612556565b60005b60ff8116841115610ec8578160020161151086868460ff1681811061085557610855613129565b81546001810183556000928352602090922090910180547fffffffffffffffffffffffff00000000000000000000000000000000000000001673ffffffffffffffffffffffffffffffffffffffff90921691909117905580611571816131bd565b9150506114e9565b6000611583611935565b600980546001808201835560008381527f6e1540171b6c0c960b71a7020d9f60077f6af931a8bbf590da0223dacf75c7af90920180547fffffffffffffffffffffffff00000000000000000000000000000000000000001673ffffffffffffffffffffffffffffffffffffffff8716179055915490916116029161334d565b9050808373ffffffffffffffffffffffffffffffffffffffff167fbe12a6cdcfa8711b87484030475533b479a18855d1d39eb97f1f0f3fd6e111ff60405160405180910390a390505b919050565b6040517f033918d300000000000000000000000000000000000000000000000000000000815260609073__$fe36b6aafc30e06b7be5019ccbbd4b34d3$__9063033918d3906116a39060049081016133fb565b600060405180830381865af41580156116c0573d6000803e3d6000fd5b505050506040513d6000823e601f3d9081017fffffffffffffffffffffffffffffffffffffffffffffffffffffffffffffffe016820160405261170691908101906132bf565b905090565b3373ffffffffffffffffffffffffffffffffffffffff86168114801590611765575073ffffffffffffffffffffffffffffffffffffffff80871660009081526003602090815260408083209385168352929052205460ff16155b156117bc576040517fe237d92200000000000000000000000000000000000000000000000000000000815273ffffffffffffffffffffffffffffffffffffffff808316600483015287166024820152604401610eb2565b610ec88686868686611cb0565b6117d1611935565b6001805473ffffffffffffffffffffffffffffffffffffffff83167fffffffffffffffffffffffff0000000000000000000000000000000000000000909116811790915561183460005473ffffffffffffffffffffffffffffffffffffffff1690565b73ffffffffffffffffffffffffffffffffffffffff167f38d16b8cac22d99fc7c124b9cd0de2d3fa1faef420bfe791d8c362d765e2270060405160405180910390a350565b73ffffffffffffffffffffffffffffffffffffffff831633148015906118d0575073ffffffffffffffffffffffffffffffffffffffff8316600090815260036020908152604080832033845290915290205460ff16155b15611925576040517fe237d92200000000000000000000000000000000000000000000000000000000815233600482015273ffffffffffffffffffffffffffffffffffffffff84166024820152604401610eb2565b611930838383611d8b565b505050565b60005473ffffffffffffffffffffffffffffffffffffffff16331461104d576040517f118cdaa7000000000000000000000000000000000000000000000000000000008152336004820152602401610eb2565b6000808260405160200161199c91906134ce565b60405160208183030381529060405290506000816040516020016119c091906134f4565b60405160208183030381529060405290508051602082016000f0925073ffffffffffffffffffffffffffffffffffffffff8316611a59576040517f08c379a000000000000000000000000000000000000000000000000000000000815260206004820152601160248201527f4445504c4f594d454e545f4641494c45440000000000000000000000000000006044820152606401610eb2565b5050919050565b73ffffffffffffffffffffffffffffffffffffffff8416611ab0576040517f57f447ce00000000000000000000000000000000000000000000000000000000815260006004820152602401610eb2565b60408051600180825260208201869052818301908152606082018590526080820190925290610ec8600087848487611e16565b73ffffffffffffffffffffffffffffffffffffffff8416611b33576040517f57f447ce00000000000000000000000000000000000000000000000000000000815260006004820152602401610eb2565b73ffffffffffffffffffffffffffffffffffffffff8516611b83576040517f01a8351400000000000000000000000000000000000000000000000000000000815260006004820152602401610eb2565b611b908585858585611e16565b5050505050565b600180547fffffffffffffffffffffffff00000000000000000000000000000000000000001690556110c381611e76565b73ffffffffffffffffffffffffffffffffffffffff8216611c18576040517fced3e10000000000000000000000000000000000000000000000000000000000815260006004820152602401610eb2565b73ffffffffffffffffffffffffffffffffffffffff83811660008181526003602090815260408083209487168084529482529182902080547fffffffffffffffffffffffffffffffffffffffffffffffffffffffffffffff001686151590811790915591519182527f17307eab39ab6107e8899845ad3d59bd9653f200f220920489ca2b5937696c31910160405180910390a3505050565b73ffffffffffffffffffffffffffffffffffffffff8416611d00576040517f57f447ce00000000000000000000000000000000000000000000000000000000815260006004820152602401610eb2565b73ffffffffffffffffffffffffffffffffffffffff8516611d50576040517f01a8351400000000000000000000000000000000000000000000000000000000815260006004820152602401610eb2565b60408051600180825260208201869052818301908152606082018590526080820190925290611d828787848487611e16565b50505050505050565b73ffffffffffffffffffffffffffffffffffffffff8316611ddb576040517f01a8351400000000000000000000000000000000000000000000000000000000815260006004820152602401610eb2565b604080516001808252602082018590528183019081526060820184905260a08201909252600060808201818152919291611b90918791859085905b611e2285858585611eeb565b73ffffffffffffffffffffffffffffffffffffffff841615611b905782513390600103611e685760208481015190840151611e618389898585896121d3565b5050610ec8565b610ec88187878787876123c5565b6000805473ffffffffffffffffffffffffffffffffffffffff8381167fffffffffffffffffffffffff0000000000000000000000000000000000000000831681178455604051919092169283917f8be0079c531659141344cd1fd0a4f28419497f9722a3daafe3b4186f6b6457e09190a35050565b8051825114611f3357815181516040517f5b05999100000000000000000000000000000000000000000000000000000000815260048101929092526024820152604401610eb2565b3360005b83518110156120a65760208181028581018201519085019091015173ffffffffffffffffffffffffffffffffffffffff88161561203b57600082815260026020908152604080832073ffffffffffffffffffffffffffffffffffffffff8c16845290915290205481811015612005576040517f03dee4c500000000000000000000000000000000000000000000000000000000815273ffffffffffffffffffffffffffffffffffffffff8a166004820152602481018290526044810183905260648101849052608401610eb2565b600083815260026020908152604080832073ffffffffffffffffffffffffffffffffffffffff8d16845290915290209082900390555b73ffffffffffffffffffffffffffffffffffffffff87161561209c57600082815260026020908152604080832073ffffffffffffffffffffffffffffffffffffffff8b16845290915281208054839290612096908490613116565b90915550505b5050600101611f37565b50825160010361214e57602083015160009060208401519091508573ffffffffffffffffffffffffffffffffffffffff168773ffffffffffffffffffffffffffffffffffffffff168473ffffffffffffffffffffffffffffffffffffffff167fc3d58168c5ae7397731d063d5bbf3d657854427343f4c083240f7aacaa2d0f62858560405161213f929190918252602082015260400190565b60405180910390a45050611b90565b8373ffffffffffffffffffffffffffffffffffffffff168573ffffffffffffffffffffffffffffffffffffffff168273ffffffffffffffffffffffffffffffffffffffff167f4a39dc06d4c0dbc64b70af90fd698a233a518aa5d07e595d983b8c0526c8f7fb86866040516121c4929190613539565b60405180910390a45050505050565b73ffffffffffffffffffffffffffffffffffffffff84163b15610ec8576040517ff23a6e6100000000000000000000000000000000000000000000000000000000815273ffffffffffffffffffffffffffffffffffffffff85169063f23a6e619061224a908990899088908890889060040161355e565b6020604051808303816000875af19250505080156122a3575060408051601f3d9081017fffffffffffffffffffffffffffffffffffffffffffffffffffffffffffffffe01682019092526122a0918101906135ae565b60015b612332573d8080156122d1576040519150601f19603f3d011682016040523d82523d6000602084013e6122d6565b606091505b50805160000361232a576040517f57f447ce00000000000000000000000000000000000000000000000000000000815273ffffffffffffffffffffffffffffffffffffffff86166004820152602401610eb2565b805181602001fd5b7fffffffff0000000000000000000000000000000000000000000000000000000081167ff23a6e610000000000000000000000000000000000000000000000000000000014611d82576040517f57f447ce00000000000000000000000000000000000000000000000000000000815273ffffffffffffffffffffffffffffffffffffffff86166004820152602401610eb2565b73ffffffffffffffffffffffffffffffffffffffff84163b15610ec8576040517fbc197c8100000000000000000000000000000000000000000000000000000000815273ffffffffffffffffffffffffffffffffffffffff85169063bc197c819061243c90899089908890889088906004016135cb565b6020604051808303816000875af1925050508015612495575060408051601f3d9081017fffffffffffffffffffffffffffffffffffffffffffffffffffffffffffffffe0168201909252612492918101906135ae565b60015b6124c3573d8080156122d1576040519150601f19603f3d011682016040523d82523d6000602084013e6122d6565b7fffffffff0000000000000000000000000000000000000000000000000000000081167fbc197c810000000000000000000000000000000000000000000000000000000014611d82576040517f57f447ce00000000000000000000000000000000000000000000000000000000815273ffffffffffffffffffffffffffffffffffffffff86166004820152602401610eb2565b50805460008255906000526020600020908101906110c391905b808211156125845760008155600101612570565b5090565b803573ffffffffffffffffffffffffffffffffffffffff8116811461164b57600080fd5b600080604083850312156125bf57600080fd5b6125c883612588565b946020939093013593505050565b7fffffffff00000000000000000000000000000000000000000000000000000000811681146110c357600080fd5b60006020828403121561261657600080fd5b8135610c6e816125d6565b60008083601f84011261263357600080fd5b50813567ffffffffffffffff81111561264b57600080fd5b60208301915083602082850101111561266357600080fd5b9250929050565b60008083601f84011261267c57600080fd5b50813567ffffffffffffffff81111561269457600080fd5b6020830191508360208260051b850101111561266357600080fd5b60008060008060008060008060a0898b0312156126cb57600080fd5b883567ffffffffffffffff808211156126e357600080fd5b6126ef8c838d01612621565b909a50985060208b013591508082111561270857600080fd5b6127148c838d01612621565b909850965060408b013591508082111561272d57600080fd5b5061273a8b828c0161266a565b909550935050606089013563ffffffff8116811461275757600080fd5b915060808901356fffffffffffffffffffffffffffffffff8116811461277c57600080fd5b809150509295985092959890939650565b60006020828403121561279f57600080fd5b5035919050565b60005b838110156127c15781810151838201526020016127a9565b50506000910152565b600081518084526127e28160208601602086016127a6565b601f017fffffffffffffffffffffffffffffffffffffffffffffffffffffffffffffffe0169290920160200192915050565b602081526000610c6e60208301846127ca565b6000806040838503121561283a57600080fd5b50508035926020909101359150565b7f4e487b7100000000000000000000000000000000000000000000000000000000600052604160045260246000fd5b604051601f82017fffffffffffffffffffffffffffffffffffffffffffffffffffffffffffffffe016810167ffffffffffffffff811182821017156128bf576128bf612849565b604052919050565b600067ffffffffffffffff8211156128e1576128e1612849565b5060051b60200190565b600082601f8301126128fc57600080fd5b8135602061291161290c836128c7565b612878565b8083825260208201915060208460051b87010193508684111561293357600080fd5b602086015b8481101561294f5780358352918301918301612938565b509695505050505050565b600067ffffffffffffffff82111561297457612974612849565b50601f017fffffffffffffffffffffffffffffffffffffffffffffffffffffffffffffffe01660200190565b600082601f8301126129b157600080fd5b81356129bf61290c8261295a565b8181528460208386010111156129d457600080fd5b816020850160208301376000918101602001919091529392505050565b600080600080600060a08688031215612a0957600080fd5b612a1286612588565b9450612a2060208701612588565b9350604086013567ffffffffffffffff80821115612a3d57600080fd5b612a4989838a016128eb565b94506060880135915080821115612a5f57600080fd5b612a6b89838a016128eb565b93506080880135915080821115612a8157600080fd5b50612a8e888289016129a0565b9150509295509295909350565b60008060408385031215612aae57600080fd5b823567ffffffffffffffff80821115612ac657600080fd5b818501915085601f830112612ada57600080fd5b81356020612aea61290c836128c7565b82815260059290921b84018101918181019089841115612b0957600080fd5b948201945b83861015612b2e57612b1f86612588565b82529482019490820190612b0e565b96505086013592505080821115612b4457600080fd5b50612b51858286016128eb565b9150509250929050565b60008151808452602080850194506020840160005b83811015612b8c57815187529582019590820190600101612b70565b509495945050505050565b602081526000610c6e6020830184612b5b565b60008060008060008060008060008060c08b8d031215612bc957600080fd5b8a3567ffffffffffffffff80821115612be157600080fd5b612bed8e838f01612621565b909c509a5060208d0135915080821115612c0657600080fd5b612c128e838f01612621565b909a50985060408d0135915080821115612c2b57600080fd5b612c378e838f01612621565b909850965060608d0135915080821115612c5057600080fd5b50612c5d8d828e0161266a565b9095509350612c70905060808c01612588565b9150612c7e60a08c01612588565b90509295989b9194979a5092959850565b60008151808452602080850194506020840160005b83811015612b8c57815173ffffffffffffffffffffffffffffffffffffffff1687529582019590820190600101612ca4565b60e081526000612ce960e083018a6127ca565b8281036020840152612cfb818a6127ca565b90508281036040840152612d0f8189612c8f565b63ffffffff97881660608501529590961660808301525067ffffffffffffffff9290921660a08301526fffffffffffffffffffffffffffffffff1660c090910152949350505050565b8035801515811461164b57600080fd5b60008060408385031215612d7b57600080fd5b612d8483612588565b9150612d9260208401612d58565b90509250929050565b60008060008060608587031215612db157600080fd5b84359350602085013567ffffffffffffffff811115612dcf57600080fd5b612ddb8782880161266a565b9094509250612dee905060408601612d58565b905092959194509250565b600060208284031215612e0b57600080fd5b610c6e82612588565b60008060408385031215612e2757600080fd5b612e3083612588565b9150612d9260208401612588565b600080600080600060a08688031215612e5657600080fd5b612e5f86612588565b9450612e6d60208701612588565b93506040860135925060608601359150608086013567ffffffffffffffff811115612e9757600080fd5b612a8e888289016129a0565b600080600060608486031215612eb857600080fd5b612ec184612588565b95602085013595506040909401359392505050565b7f4e487b7100000000000000000000000000000000000000000000000000000000600052601160045260246000fd5b63ffffffff818116838216019080821115612f2257612f22612ed6565b5092915050565b60007fffffffffffffffffffffffffffffffffffffffffffffffffffffffffffffffff8203612f5a57612f5a612ed6565b5060010190565b600181811c90821680612f7557607f821691505b602082108103612fae577f4e487b7100000000000000000000000000000000000000000000000000000000600052602260045260246000fd5b50919050565b601f821115611930576000816000526020600020601f850160051c81016020861015612fdd5750805b601f850160051c820191505b81811015610ec857828155600101612fe9565b67ffffffffffffffff83111561301457613014612849565b613028836130228354612f61565b83612fb4565b6000601f84116001811461307a57600085156130445750838201355b7fffffffffffffffffffffffffffffffffffffffffffffffffffffffffffffffff600387901b1c1916600186901b178355611b90565b6000838152602090207fffffffffffffffffffffffffffffffffffffffffffffffffffffffffffffffe0861690835b828110156130c957868501358255602094850194600190920191016130a9565b5086821015613104577fffffffffffffffffffffffffffffffffffffffffffffffffffffffffffffffff60f88860031b161c19848701351681555b505060018560011b0183555050505050565b808201808211156105d2576105d2612ed6565b7f4e487b7100000000000000000000000000000000000000000000000000000000600052603260045260246000fd5b60008083357fffffffffffffffffffffffffffffffffffffffffffffffffffffffffffffffe184360301811261318d57600080fd5b83018035915067ffffffffffffffff8211156131a857600080fd5b60200191503681900382131561266357600080fd5b600060ff821660ff81036131d3576131d3612ed6565b60010192915050565b828152604060208201526000825160e060408401526131ff6101208401826127ca565b905060208401517fffffffffffffffffffffffffffffffffffffffffffffffffffffffffffffffc08085840301606086015261323b83836127ca565b92506040860151915080858403016080860152506132598282612c8f565b915050606084015163ffffffff80821660a08601528060808701511660c0860152505060a084015161329760e085018267ffffffffffffffff169052565b5060c08401516fffffffffffffffffffffffffffffffff811661010085015250949350505050565b6000602082840312156132d157600080fd5b815167ffffffffffffffff8111156132e857600080fd5b8201601f810184136132f957600080fd5b805161330761290c8261295a565b81815285602083850101111561331c57600080fd5b61332d8260208301602086016127a6565b95945050505050565b80820281158282048414176105d2576105d2612ed6565b818103818111156105d2576105d2612ed6565b6000815461336d81612f61565b80855260206001838116801561338a57600181146133c2576133f0565b7fffffffffffffffffffffffffffffffffffffffffffffffffffffffffffffff008516838901528284151560051b89010195506133f0565b866000528260002060005b858110156133e85781548a82018601529083019084016133cd565b890184019650505b505050505092915050565b600060208083526080602084015261341660a0840185613360565b60017fffffffffffffffffffffffffffffffffffffffffffffffffffffffffffffffe0808684030160408701526134508360018901613360565b9250808684030160608701526134698360028901613360565b8681039091016080870152600387018054808352600091825260208083209550909201915b808210156134c157845473ffffffffffffffffffffffffffffffffffffffff16835293830193918501919083019061348e565b5090979650505050505050565b60008152600082516134e78160018501602087016127a6565b9190910160010192915050565b7f600b5981380380925939f300000000000000000000000000000000000000000081526000825161352c81600b8501602087016127a6565b91909101600b0192915050565b60408152600061354c6040830185612b5b565b828103602084015261332d8185612b5b565b600073ffffffffffffffffffffffffffffffffffffffff808816835280871660208401525084604083015283606083015260a060808301526135a360a08301846127ca565b979650505050505050565b6000602082840312156135c057600080fd5b8151610c6e816125d6565b600073ffffffffffffffffffffffffffffffffffffffff808816835280871660208401525060a0604083015261360460a0830186612b5b565b82810360608401526136168186612b5b565b9050828103608084015261362a81856127ca565b9897505050505050505056fea26469706673582212200a22c96e090e8cb508d322f7854626965c426b17b00bfddb45816d705e34b81664736f6c63430008180033",
  "linkReferences": {
    "contracts/libraries/ContractMetadata.sol": {
      "ContractMetadata": [
        {
          "length": 20,
          "start": 5956
        }
      ]
    }
  },
  "deployedLinkReferences": {
    "contracts/libraries/ContractMetadata.sol": {
      "ContractMetadata": [
        {
          "length": 20,
          "start": 5755
        }
      ]
    }
  }
}