{
  "_format": "hh-sol-artifact-1",
  "contractName": "ArtifactReader",
  "sourceName": "contracts/libraries/ArtifactReader.sol",
  "abi": [
    {
      "inputs": [
        {
          "components": [
            {
              "internalType": "string",
              "name": "name",
              "type": "string"
            },
            {
              "internalType": "string",
              "name": "description",
              "type": "string"
            },
            {
              "internalType": "address[]",
              "name": "artifact",
              "type": "address[]"
            },
            {
              "internalType": "uint32",
              "name": "renderer",
              "type": "uint32"
            },
            {
              "internalType": "uint32",
              "name": "mintedBlock",
              "type": "uint32"
            },
            {
              "internalType": "uint64",
              "name": "closeAt",
              "type": "uint64"
            },
            {
              "internalType": "uint128",
              "name": "data",
              "type": "uint128"
            }
          ],
          "internalType": "struct Token",
          "name": "token",
          "type": "tuple"
        }
      ],
      "name": "get",
      "outputs": [
        {
          "internalType": "bytes",
          "name": "content",
          "type": "bytes"
        }
      ],
      "stateMutability": "view",
      "type": "function"
    }
  ],
  "bytecode": "0x6105de61003a600b82828239805160001a60731461002d57634e487b7160e01b600052600060045260246000fd5b30600052607381538281f3fe73000000000000000000000000000000000000000030146080604052600436106100355760003560e01c80631c6cf18f1461003a575b600080fd5b61004d61004836600461037b565b610063565b60405161005a9190610498565b60405180910390f35b606060005b8260400151518160ff1610156100d757816100a284604001518360ff1681518110610095576100956104e9565b60200260200101516100dd565b6040516020016100b3929190610518565b604051602081830303815290604052915080806100cf90610576565b915050610068565b50919050565b606061010b8260016101068173ffffffffffffffffffffffffffffffffffffffff84163b610595565b610111565b92915050565b60408051603f83017fffffffffffffffffffffffffffffffffffffffffffffffffffffffffffffffe0168101909152818152818360208301863c9392505050565b7f4e487b7100000000000000000000000000000000000000000000000000000000600052604160045260246000fd5b60405160e0810167ffffffffffffffff811182821017156101a4576101a4610152565b60405290565b604051601f82017fffffffffffffffffffffffffffffffffffffffffffffffffffffffffffffffe016810167ffffffffffffffff811182821017156101f1576101f1610152565b604052919050565b600082601f83011261020a57600080fd5b813567ffffffffffffffff81111561022457610224610152565b61025560207fffffffffffffffffffffffffffffffffffffffffffffffffffffffffffffffe0601f840116016101aa565b81815284602083860101111561026a57600080fd5b816020850160208301376000918101602001919091529392505050565b600082601f83011261029857600080fd5b8135602067ffffffffffffffff8211156102b4576102b4610152565b8160051b6102c38282016101aa565b92835284810182019282810190878511156102dd57600080fd5b83870192505b8483101561031f57823573ffffffffffffffffffffffffffffffffffffffff811681146103105760008081fd5b825291830191908301906102e3565b979650505050505050565b803563ffffffff8116811461033e57600080fd5b919050565b803567ffffffffffffffff8116811461033e57600080fd5b80356fffffffffffffffffffffffffffffffff8116811461033e57600080fd5b60006020828403121561038d57600080fd5b813567ffffffffffffffff808211156103a557600080fd5b9083019060e082860312156103b957600080fd5b6103c1610181565b8235828111156103d057600080fd5b6103dc878286016101f9565b8252506020830135828111156103f157600080fd5b6103fd878286016101f9565b60208301525060408301358281111561041557600080fd5b61042187828601610287565b6040830152506104336060840161032a565b60608201526104446080840161032a565b608082015261045560a08401610343565b60a082015261046660c0840161035b565b60c082015295945050505050565b60005b8381101561048f578181015183820152602001610477565b50506000910152565b60208152600082518060208401526104b7816040850160208701610474565b601f017fffffffffffffffffffffffffffffffffffffffffffffffffffffffffffffffe0169190910160400192915050565b7f4e487b7100000000000000000000000000000000000000000000000000000000600052603260045260246000fd5b6000835161052a818460208801610474565b83519083019061053e818360208801610474565b01949350505050565b7f4e487b7100000000000000000000000000000000000000000000000000000000600052601160045260246000fd5b600060ff821660ff810361058c5761058c610547565b60010192915050565b8181038181111561010b5761010b61054756fea2646970667358221220105c4d971c90c712b3e48cea3d084e0404096bfd041ca7ff0c5c64bb77c4429b64736f6c63430008180033",
  "linkReferences": {},
  "deployedLinkReferences": {}
}