{
  "_format": "hh-sol-artifact-1",
  "contractName": "Mint",
  "sourceName": "contracts/Mint.sol",
  "abi": [
    {
      "inputs": [
        {
          "internalType": "address",
          "name": "sender",
          "type": "address"
        },
        {
          "internalType": "uint256",
          "name": "balance",
          "type": "uint256"
        },
        {
          "internalType": "uint256",
          "name": "needed",
          "type": "uint256"
        },
        {
          "internalType": "uint256",
          "name": "tokenId",
          "type": "uint256"
        }
      ],
      "name": "ERC1155InsufficientBalance",
      "type": "error"
    },
    {
      "inputs": [
        {
          "internalType": "address",
          "name": "approver",
          "type": "address"
        }
      ],
      "name": "ERC1155InvalidApprover",
      "type": "error"
    },
    {
      "inputs": [
        {
          "internalType": "uint256",
          "name": "idsLength",
          "type": "uint256"
        },
        {
          "internalType": "uint256",
          "name": "valuesLength",
          "type": "uint256"
        }
      ],
      "name": "ERC1155InvalidArrayLength",
      "type": "error"
    },
    {
      "inputs": [
        {
          "internalType": "address",
          "name": "operator",
          "type": "address"
        }
      ],
      "name": "ERC1155InvalidOperator",
      "type": "error"
    },
    {
      "inputs": [
        {
          "internalType": "address",
          "name": "receiver",
          "type": "address"
        }
      ],
      "name": "ERC1155InvalidReceiver",
      "type": "error"
    },
    {
      "inputs": [
        {
          "internalType": "address",
          "name": "sender",
          "type": "address"
        }
      ],
      "name": "ERC1155InvalidSender",
      "type": "error"
    },
    {
      "inputs": [
        {
          "internalType": "address",
          "name": "operator",
          "type": "address"
        },
        {
          "internalType": "address",
          "name": "owner",
          "type": "address"
        }
      ],
      "name": "ERC1155MissingApprovalForAll",
      "type": "error"
    },
    {
      "inputs": [],
      "name": "Initialized",
      "type": "error"
    },
    {
      "inputs": [],
      "name": "MintClosed",
      "type": "error"
    },
    {
      "inputs": [],
      "name": "MintPriceNotMet",
      "type": "error"
    },
    {
      "inputs": [],
      "name": "NonExistentRenderer",
      "type": "error"
    },
    {
      "inputs": [],
      "name": "NonExistentToken",
      "type": "error"
    },
    {
      "inputs": [
        {
          "internalType": "address",
          "name": "owner",
          "type": "address"
        }
      ],
      "name": "OwnableInvalidOwner",
      "type": "error"
    },
    {
      "inputs": [
        {
          "internalType": "address",
          "name": "account",
          "type": "address"
        }
      ],
      "name": "OwnableUnauthorizedAccount",
      "type": "error"
    },
    {
      "inputs": [],
      "name": "TokenAlreadyMinted",
      "type": "error"
    },
    {
      "anonymous": false,
      "inputs": [
        {
          "indexed": true,
          "internalType": "address",
          "name": "account",
          "type": "address"
        },
        {
          "indexed": true,
          "internalType": "address",
          "name": "operator",
          "type": "address"
        },
        {
          "indexed": false,
          "internalType": "bool",
          "name": "approved",
          "type": "bool"
        }
      ],
      "name": "ApprovalForAll",
      "type": "event"
    },
    {
      "anonymous": false,
      "inputs": [
        {
          "indexed": true,
          "internalType": "uint256",
          "name": "tokenId",
          "type": "uint256"
        },
        {
          "indexed": false,
          "internalType": "uint256",
          "name": "unitPrice",
          "type": "uint256"
        },
        {
          "indexed": false,
          "internalType": "uint256",
          "name": "amount",
          "type": "uint256"
        }
      ],
      "name": "NewMint",
      "type": "event"
    },
    {
      "anonymous": false,
      "inputs": [
        {
          "indexed": true,
          "internalType": "address",
          "name": "renderer",
          "type": "address"
        },
        {
          "indexed": true,
          "internalType": "uint256",
          "name": "index",
          "type": "uint256"
        }
      ],
      "name": "NewRenderer",
      "type": "event"
    },
    {
      "anonymous": false,
      "inputs": [
        {
          "indexed": true,
          "internalType": "address",
          "name": "previousOwner",
          "type": "address"
        },
        {
          "indexed": true,
          "internalType": "address",
          "name": "newOwner",
          "type": "address"
        }
      ],
      "name": "OwnershipTransferStarted",
      "type": "event"
    },
    {
      "anonymous": false,
      "inputs": [
        {
          "indexed": true,
          "internalType": "address",
          "name": "previousOwner",
          "type": "address"
        },
        {
          "indexed": true,
          "internalType": "address",
          "name": "newOwner",
          "type": "address"
        }
      ],
      "name": "OwnershipTransferred",
      "type": "event"
    },
    {
      "anonymous": false,
      "inputs": [
        {
          "indexed": true,
          "internalType": "address",
          "name": "operator",
          "type": "address"
        },
        {
          "indexed": true,
          "internalType": "address",
          "name": "from",
          "type": "address"
        },
        {
          "indexed": true,
          "internalType": "address",
          "name": "to",
          "type": "address"
        },
        {
          "indexed": false,
          "internalType": "uint256[]",
          "name": "ids",
          "type": "uint256[]"
        },
        {
          "indexed": false,
          "internalType": "uint256[]",
          "name": "values",
          "type": "uint256[]"
        }
      ],
      "name": "TransferBatch",
      "type": "event"
    },
    {
      "anonymous": false,
      "inputs": [
        {
          "indexed": true,
          "internalType": "address",
          "name": "operator",
          "type": "address"
        },
        {
          "indexed": true,
          "internalType": "address",
          "name": "from",
          "type": "address"
        },
        {
          "indexed": true,
          "internalType": "address",
          "name": "to",
          "type": "address"
        },
        {
          "indexed": false,
          "internalType": "uint256",
          "name": "id",
          "type": "uint256"
        },
        {
          "indexed": false,
          "internalType": "uint256",
          "name": "value",
          "type": "uint256"
        }
      ],
      "name": "TransferSingle",
      "type": "event"
    },
    {
      "anonymous": false,
      "inputs": [
        {
          "indexed": false,
          "internalType": "string",
          "name": "value",
          "type": "string"
        },
        {
          "indexed": true,
          "internalType": "uint256",
          "name": "id",
          "type": "uint256"
        }
      ],
      "name": "URI",
      "type": "event"
    },
    {
      "anonymous": false,
      "inputs": [
        {
          "indexed": false,
          "internalType": "uint256",
          "name": "amount",
          "type": "uint256"
        }
      ],
      "name": "Withdrawal",
      "type": "event"
    },
    {
      "inputs": [],
      "name": "acceptOwnership",
      "outputs": [],
      "stateMutability": "nonpayable",
      "type": "function"
    },
    {
      "inputs": [
        {
          "internalType": "uint256",
          "name": "tokenId",
          "type": "uint256"
        }
      ],
      "name": "artifact",
      "outputs": [
        {
          "internalType": "bytes",
          "name": "content",
          "type": "bytes"
        }
      ],
      "stateMutability": "view",
      "type": "function"
    },
    {
      "inputs": [
        {
          "internalType": "address",
          "name": "account",
          "type": "address"
        },
        {
          "internalType": "uint256",
          "name": "id",
          "type": "uint256"
        }
      ],
      "name": "balanceOf",
      "outputs": [
        {
          "internalType": "uint256",
          "name": "",
          "type": "uint256"
        }
      ],
      "stateMutability": "view",
      "type": "function"
    },
    {
      "inputs": [
        {
          "internalType": "address[]",
          "name": "accounts",
          "type": "address[]"
        },
        {
          "internalType": "uint256[]",
          "name": "ids",
          "type": "uint256[]"
        }
      ],
      "name": "balanceOfBatch",
      "outputs": [
        {
          "internalType": "uint256[]",
          "name": "",
          "type": "uint256[]"
        }
      ],
      "stateMutability": "view",
      "type": "function"
    },
    {
      "inputs": [
        {
          "internalType": "address",
          "name": "account",
          "type": "address"
        },
        {
          "internalType": "uint256",
          "name": "tokenId",
          "type": "uint256"
        },
        {
          "internalType": "uint256",
          "name": "amount",
          "type": "uint256"
        }
      ],
      "name": "burn",
      "outputs": [],
      "stateMutability": "nonpayable",
      "type": "function"
    },
    {
      "inputs": [],
      "name": "contractURI",
      "outputs": [
        {
          "internalType": "string",
          "name": "",
          "type": "string"
        }
      ],
      "stateMutability": "view",
      "type": "function"
    },
    {
      "inputs": [
        {
          "internalType": "string",
          "name": "tokenName",
          "type": "string"
        },
        {
          "internalType": "string",
          "name": "tokenDescription",
          "type": "string"
        },
        {
          "internalType": "bytes[]",
          "name": "tokenArtifact",
          "type": "bytes[]"
        },
        {
          "internalType": "uint32",
          "name": "tokenRenderer",
          "type": "uint32"
        },
        {
          "internalType": "uint192",
          "name": "tokenData",
          "type": "uint192"
        }
      ],
      "name": "create",
      "outputs": [],
      "stateMutability": "nonpayable",
      "type": "function"
    },
    {
      "inputs": [
        {
          "internalType": "string",
          "name": "contractName",
          "type": "string"
        },
        {
          "internalType": "string",
          "name": "contractSymbol",
          "type": "string"
        },
        {
          "internalType": "string",
          "name": "contractDescription",
          "type": "string"
        },
        {
          "internalType": "bytes[]",
          "name": "contractImage",
          "type": "bytes[]"
        },
        {
          "internalType": "address",
          "name": "renderer",
          "type": "address"
        },
        {
          "internalType": "address",
          "name": "owner",
          "type": "address"
        }
      ],
      "name": "init",
      "outputs": [],
      "stateMutability": "nonpayable",
      "type": "function"
    },
    {
      "inputs": [],
      "name": "initBlock",
      "outputs": [
        {
          "internalType": "uint256",
          "name": "",
          "type": "uint256"
        }
      ],
      "stateMutability": "view",
      "type": "function"
    },
    {
      "inputs": [
        {
          "internalType": "address",
          "name": "account",
          "type": "address"
        },
        {
          "internalType": "address",
          "name": "operator",
          "type": "address"
        }
      ],
      "name": "isApprovedForAll",
      "outputs": [
        {
          "internalType": "bool",
          "name": "",
          "type": "bool"
        }
      ],
      "stateMutability": "view",
      "type": "function"
    },
    {
      "inputs": [],
      "name": "latestTokenId",
      "outputs": [
        {
          "internalType": "uint256",
          "name": "",
          "type": "uint256"
        }
      ],
      "stateMutability": "view",
      "type": "function"
    },
    {
      "inputs": [],
      "name": "metadata",
      "outputs": [
        {
          "internalType": "string",
          "name": "name",
          "type": "string"
        },
        {
          "internalType": "string",
          "name": "symbol",
          "type": "string"
        },
        {
          "internalType": "string",
          "name": "description",
          "type": "string"
        }
      ],
      "stateMutability": "view",
      "type": "function"
    },
    {
      "inputs": [
        {
          "internalType": "uint256",
          "name": "tokenId",
          "type": "uint256"
        },
        {
          "internalType": "uint256",
          "name": "amount",
          "type": "uint256"
        }
      ],
      "name": "mint",
      "outputs": [],
      "stateMutability": "payable",
      "type": "function"
    },
    {
      "inputs": [
        {
          "internalType": "uint256",
          "name": "tokenId",
          "type": "uint256"
        }
      ],
      "name": "mintOpenUntil",
      "outputs": [
        {
          "internalType": "uint256",
          "name": "",
          "type": "uint256"
        }
      ],
      "stateMutability": "view",
      "type": "function"
    },
    {
      "inputs": [],
      "name": "owner",
      "outputs": [
        {
          "internalType": "address",
          "name": "",
          "type": "address"
        }
      ],
      "stateMutability": "view",
      "type": "function"
    },
    {
      "inputs": [],
      "name": "pendingOwner",
      "outputs": [
        {
          "internalType": "address",
          "name": "",
          "type": "address"
        }
      ],
      "stateMutability": "view",
      "type": "function"
    },
    {
      "inputs": [
        {
          "internalType": "uint256",
          "name": "tokenId",
          "type": "uint256"
        },
        {
          "internalType": "bytes[]",
          "name": "tokenArtifact",
          "type": "bytes[]"
        },
        {
          "internalType": "bool",
          "name": "clear",
          "type": "bool"
        }
      ],
      "name": "prepareArtifact",
      "outputs": [],
      "stateMutability": "nonpayable",
      "type": "function"
    },
    {
      "inputs": [
        {
          "internalType": "address",
          "name": "renderer",
          "type": "address"
        }
      ],
      "name": "registerRenderer",
      "outputs": [
        {
          "internalType": "uint256",
          "name": "",
          "type": "uint256"
        }
      ],
      "stateMutability": "nonpayable",
      "type": "function"
    },
    {
      "inputs": [
        {
          "internalType": "uint256",
          "name": "",
          "type": "uint256"
        }
      ],
      "name": "renderers",
      "outputs": [
        {
          "internalType": "address",
          "name": "",
          "type": "address"
        }
      ],
      "stateMutability": "view",
      "type": "function"
    },
    {
      "inputs": [],
      "name": "renounceOwnership",
      "outputs": [],
      "stateMutability": "nonpayable",
      "type": "function"
    },
    {
      "inputs": [
        {
          "internalType": "address",
          "name": "from",
          "type": "address"
        },
        {
          "internalType": "address",
          "name": "to",
          "type": "address"
        },
        {
          "internalType": "uint256[]",
          "name": "ids",
          "type": "uint256[]"
        },
        {
          "internalType": "uint256[]",
          "name": "values",
          "type": "uint256[]"
        },
        {
          "internalType": "bytes",
          "name": "data",
          "type": "bytes"
        }
      ],
      "name": "safeBatchTransferFrom",
      "outputs": [],
      "stateMutability": "nonpayable",
      "type": "function"
    },
    {
      "inputs": [
        {
          "internalType": "address",
          "name": "from",
          "type": "address"
        },
        {
          "internalType": "address",
          "name": "to",
          "type": "address"
        },
        {
          "internalType": "uint256",
          "name": "id",
          "type": "uint256"
        },
        {
          "internalType": "uint256",
          "name": "value",
          "type": "uint256"
        },
        {
          "internalType": "bytes",
          "name": "data",
          "type": "bytes"
        }
      ],
      "name": "safeTransferFrom",
      "outputs": [],
      "stateMutability": "nonpayable",
      "type": "function"
    },
    {
      "inputs": [
        {
          "internalType": "address",
          "name": "operator",
          "type": "address"
        },
        {
          "internalType": "bool",
          "name": "approved",
          "type": "bool"
        }
      ],
      "name": "setApprovalForAll",
      "outputs": [],
      "stateMutability": "nonpayable",
      "type": "function"
    },
    {
      "inputs": [
        {
          "internalType": "bytes4",
          "name": "interfaceId",
          "type": "bytes4"
        }
      ],
      "name": "supportsInterface",
      "outputs": [
        {
          "internalType": "bool",
          "name": "",
          "type": "bool"
        }
      ],
      "stateMutability": "view",
      "type": "function"
    },
    {
      "inputs": [
        {
          "internalType": "uint256",
          "name": "",
          "type": "uint256"
        }
      ],
      "name": "tokens",
      "outputs": [
        {
          "internalType": "string",
          "name": "name",
          "type": "string"
        },
        {
          "internalType": "string",
          "name": "description",
          "type": "string"
        },
        {
          "internalType": "uint32",
          "name": "renderer",
          "type": "uint32"
        },
        {
          "internalType": "uint32",
          "name": "blocks",
          "type": "uint32"
        },
        {
          "internalType": "uint192",
          "name": "data",
          "type": "uint192"
        }
      ],
      "stateMutability": "view",
      "type": "function"
    },
    {
      "inputs": [
        {
          "internalType": "address",
          "name": "newOwner",
          "type": "address"
        }
      ],
      "name": "transferOwnership",
      "outputs": [],
      "stateMutability": "nonpayable",
      "type": "function"
    },
    {
      "inputs": [
        {
          "internalType": "uint256",
          "name": "tokenId",
          "type": "uint256"
        }
      ],
      "name": "uri",
      "outputs": [
        {
          "internalType": "string",
          "name": "",
          "type": "string"
        }
      ],
      "stateMutability": "view",
      "type": "function"
    },
    {
      "inputs": [],
      "name": "version",
      "outputs": [
        {
          "internalType": "uint256",
          "name": "",
          "type": "uint256"
        }
      ],
      "stateMutability": "view",
      "type": "function"
    },
    {
      "inputs": [],
      "name": "withdraw",
      "outputs": [],
      "stateMutability": "nonpayable",
      "type": "function"
    }
  ],
  "bytecode": "0x60806040523480156200001157600080fd5b5033806200003957604051631e4fbdf760e01b81526000600482015260240160405180910390fd5b62000044816200004b565b50620000b9565b600180546001600160a01b0319169055620000668162000069565b50565b600080546001600160a01b038381166001600160a01b0319831681178455604051919092169283917f8be0079c531659141344cd1fd0a4f28419497f9722a3daafe3b4186f6b6457e09190a35050565b613a2380620000c96000396000f3fe6080604052600436106101c15760003560e01c806379ba5097116100f7578063b6cb8dfe11610095578063e985e9c511610064578063e985e9c51461051d578063f242432a14610573578063f2fde38b14610593578063f5298aca146105b357600080fd5b8063b6cb8dfe1461049d578063c4a0d465146104bd578063e30c3978146104dd578063e8a3d4851461050857600080fd5b80638da5cb5b116100d15780638da5cb5b14610412578063a22cb4651461043d578063a7da716d1461045d578063b56443411461047d57600080fd5b806379ba5097146103c757806384252fb7146103dc5780638c0e8349146103fc57600080fd5b8063392f37e9116101645780634f64b2be1161013e5780634f64b2be1461035657806354fd4d50146103875780635d05125b1461039c578063715018a6146103b257600080fd5b8063392f37e9146102f05780633ccfd60b146103145780634e1273f41461032957600080fd5b80631379ac1a116101a05780631379ac1a146102565780631b2ef1ca146102765780631ffbee641461028b5780632eb2c2d6146102d057600080fd5b8062fdd58e146101c657806301ffc9a7146101f95780630e89341c14610229575b600080fd5b3480156101d257600080fd5b506101e66101e1366004612913565b6105d3565b6040519081526020015b60405180910390f35b34801561020557600080fd5b5061021961021436600461296b565b61060a565b60405190151581526020016101f0565b34801561023557600080fd5b50610249610244366004612988565b6106ed565b6040516101f09190612a0f565b34801561026257600080fd5b50610249610271366004612988565b6109c8565b610289610284366004612a22565b610c45565b005b34801561029757600080fd5b506102ab6102a6366004612988565b610d77565b60405173ffffffffffffffffffffffffffffffffffffffff90911681526020016101f0565b3480156102dc57600080fd5b506102896102eb366004612bec565b610dae565b3480156102fc57600080fd5b50610305610e79565b6040516101f093929190612c96565b34801561032057600080fd5b50610289611027565b34801561033557600080fd5b50610349610344366004612cd9565b6110ac565b6040516101f09190612dd5565b34801561036257600080fd5b50610376610371366004612988565b611192565b6040516101f0959493929190612de8565b34801561039357600080fd5b506101e6600181565b3480156103a857600080fd5b506101e6600b5481565b3480156103be57600080fd5b50610289611300565b3480156103d357600080fd5b50610289611314565b3480156103e857600080fd5b506102896103f7366004612edc565b61138b565b34801561040857600080fd5b506101e6600a5481565b34801561041e57600080fd5b5060005473ffffffffffffffffffffffffffffffffffffffff166102ab565b34801561044957600080fd5b50610289610458366004612fd1565b611556565b34801561046957600080fd5b50610289610478366004613004565b611565565b34801561048957600080fd5b506101e6610498366004612988565b611732565b3480156104a957600080fd5b506102896104b83660046130ea565b61176e565b3480156104c957600080fd5b506101e66104d8366004613148565b611874565b3480156104e957600080fd5b5060015473ffffffffffffffffffffffffffffffffffffffff166102ab565b34801561051457600080fd5b5061024961194b565b34801561052957600080fd5b50610219610538366004613163565b73ffffffffffffffffffffffffffffffffffffffff918216600090815260036020908152604080832093909416825291909152205460ff1690565b34801561057f57600080fd5b5061028961058e36600461318d565b611a06565b34801561059f57600080fd5b506102896105ae366004613148565b611ac4565b3480156105bf57600080fd5b506102896105ce3660046131f2565b611b74565b600081815260026020908152604080832073ffffffffffffffffffffffffffffffffffffffff861684529091529020545b92915050565b60007fffffffff0000000000000000000000000000000000000000000000000000000082167fd9b67a2600000000000000000000000000000000000000000000000000000000148061069d57507fffffffff0000000000000000000000000000000000000000000000000000000082167f0e89341c00000000000000000000000000000000000000000000000000000000145b8061060457507f01ffc9a7000000000000000000000000000000000000000000000000000000007fffffffff00000000000000000000000000000000000000000000000000000000831614610604565b60606000600860008481526020019081526020016000206040518060c001604052908160008201805461071f90613225565b80601f016020809104026020016040519081016040528092919081815260200182805461074b90613225565b80156107985780601f1061076d57610100808354040283529160200191610798565b820191906000526020600020905b81548152906001019060200180831161077b57829003601f168201915b505050505081526020016001820180546107b190613225565b80601f01602080910402602001604051908101604052809291908181526020018280546107dd90613225565b801561082a5780601f106107ff5761010080835404028352916020019161082a565b820191906000526020600020905b81548152906001019060200180831161080d57829003601f168201915b505050505081526020016002820180548060200260200160405190810160405280929190818152602001828054801561089957602002820191906000526020600020905b815473ffffffffffffffffffffffffffffffffffffffff16815260019091019060200180831161086e575b50505091835250506003919091015463ffffffff80821660208401526401000000008204811660408401526801000000000000000090910477ffffffffffffffffffffffffffffffffffffffffffffffff16606092830152908201516009805493945092911690811061090e5761090e613278565b60009182526020909120015473ffffffffffffffffffffffffffffffffffffffff1663ff7878468483610940826109c8565b6040518463ffffffff1660e01b815260040161095e939291906132a7565b600060405180830381865afa15801561097b573d6000803e3d6000fd5b505050506040513d6000823e601f3d9081017fffffffffffffffffffffffffffffffffffffffffffffffffffffffffffffffe01682016040526109c191908101906133c3565b9392505050565b60606000600860008481526020019081526020016000206040518060c00160405290816000820180546109fa90613225565b80601f0160208091040260200160405190810160405280929190818152602001828054610a2690613225565b8015610a735780601f10610a4857610100808354040283529160200191610a73565b820191906000526020600020905b815481529060010190602001808311610a5657829003601f168201915b50505050508152602001600182018054610a8c90613225565b80601f0160208091040260200160405190810160405280929190818152602001828054610ab890613225565b8015610b055780601f10610ada57610100808354040283529160200191610b05565b820191906000526020600020905b815481529060010190602001808311610ae857829003601f168201915b5050505050815260200160028201805480602002602001604051908101604052809291908181526020018280548015610b7457602002820191906000526020600020905b815473ffffffffffffffffffffffffffffffffffffffff168152600190910190602001808311610b49575b50505091835250506003919091015463ffffffff8082166020840152640100000000820416604083015268010000000000000000900477ffffffffffffffffffffffffffffffffffffffffffffffff16606090910152905060005b8160400151518160ff161015610c3e5782610c0983604001518360ff1681518110610bfc57610bfc613278565b6020026020010151611c30565b604051602001610c1a92919061343a565b60405160208183030381529060405292508080610c3690613498565b915050610bcf565b5050919050565b600a54821115610c81576040517f9430a17e00000000000000000000000000000000000000000000000000000000815260040160405180910390fd5b6000610c8f4861ea606134b7565b90506000610c9d83836134b7565b905034811115610cd9576040517ff31a165400000000000000000000000000000000000000000000000000000000815260040160405180910390fd5b43610ce385611732565b1015610d1b576040517f589ed34b00000000000000000000000000000000000000000000000000000000815260040160405180910390fd5b610d3633858560405180602001604052806000815250611c5e565b604080518381526020810185905285917fce941df5850919f0613cec974b33d17502ac3aa3bf49dea99f90ee10b597e7bb910160405180910390a250505050565b60098181548110610d8757600080fd5b60009182526020909120015473ffffffffffffffffffffffffffffffffffffffff16905081565b3373ffffffffffffffffffffffffffffffffffffffff86168114801590610e08575073ffffffffffffffffffffffffffffffffffffffff80871660009081526003602090815260408083209385168352929052205460ff16155b15610e64576040517fe237d92200000000000000000000000000000000000000000000000000000000815273ffffffffffffffffffffffffffffffffffffffff8083166004830152871660248201526044015b60405180910390fd5b610e718686868686611ce1565b505050505050565b600480548190610e8890613225565b80601f0160208091040260200160405190810160405280929190818152602001828054610eb490613225565b8015610f015780601f10610ed657610100808354040283529160200191610f01565b820191906000526020600020905b815481529060010190602001808311610ee457829003601f168201915b505050505090806001018054610f1690613225565b80601f0160208091040260200160405190810160405280929190818152602001828054610f4290613225565b8015610f8f5780601f10610f6457610100808354040283529160200191610f8f565b820191906000526020600020905b815481529060010190602001808311610f7257829003601f168201915b505050505090806002018054610fa490613225565b80601f0160208091040260200160405190810160405280929190818152602001828054610fd090613225565b801561101d5780601f10610ff25761010080835404028352916020019161101d565b820191906000526020600020905b81548152906001019060200180831161100057829003601f168201915b5050505050905083565b61102f611d95565b6000805460405173ffffffffffffffffffffffffffffffffffffffff909116914780156108fc02929091818181858888f19350505050158015611076573d6000803e3d6000fd5b506040514781527f4e70a604b23a8edee2b1d0a656e9b9c00b73ad8bb1afc2c59381ee9f69197de79060200160405180910390a1565b606081518351146110f657815183516040517f5b05999100000000000000000000000000000000000000000000000000000000815260048101929092526024820152604401610e5b565b6000835167ffffffffffffffff81111561111257611112612a44565b60405190808252806020026020018201604052801561113b578160200160208202803683370190505b50905060005b845181101561118a57602080820286010151611165906020808402870101516105d3565b82828151811061117757611177613278565b6020908102919091010152600101611141565b509392505050565b6008602052600090815260409020805481906111ad90613225565b80601f01602080910402602001604051908101604052809291908181526020018280546111d990613225565b80156112265780601f106111fb57610100808354040283529160200191611226565b820191906000526020600020905b81548152906001019060200180831161120957829003601f168201915b50505050509080600101805461123b90613225565b80601f016020809104026020016040519081016040528092919081815260200182805461126790613225565b80156112b45780601f10611289576101008083540402835291602001916112b4565b820191906000526020600020905b81548152906001019060200180831161129757829003601f168201915b5050506003909301549192505063ffffffff8082169164010000000081049091169077ffffffffffffffffffffffffffffffffffffffffffffffff680100000000000000009091041685565b611308611d95565b6113126000611de8565b565b600154339073ffffffffffffffffffffffffffffffffffffffff16811461137f576040517f118cdaa700000000000000000000000000000000000000000000000000000000815273ffffffffffffffffffffffffffffffffffffffff82166004820152602401610e5b565b61138881611de8565b50565b600b54156113c5576040517f5daa87a000000000000000000000000000000000000000000000000000000000815260040160405180910390fd5b60046113d28a8c83613516565b5060056113e0888a83613516565b5060066113ee868883613516565b5060005b60ff81168411156114cc576007611463868660ff851681811061141757611417613278565b90506020028101906114299190613630565b8080601f016020809104026020016040519081016040528093929190818152602001838380828437600092019190915250611e1992505050565b81546001810183556000928352602090922090910180547fffffffffffffffffffffffff00000000000000000000000000000000000000001673ffffffffffffffffffffffffffffffffffffffff909216919091179055806114c481613498565b9150506113f2565b50600980546001810182556000919091527f6e1540171b6c0c960b71a7020d9f60077f6af931a8bbf590da0223dacf75c7af0180547fffffffffffffffffffffffff00000000000000000000000000000000000000001673ffffffffffffffffffffffffffffffffffffffff841617905543600b5561154a81611de8565b50505050505050505050565b611561338383611eea565b5050565b61156d611d95565b611578826001613695565b63ffffffff1660098054905010156115bc576040517fa9a25f6700000000000000000000000000000000000000000000000000000000815260040160405180910390fd5b600a600081546115cb906136b9565b90915550600a546000908152600860205260409020806115ec898b83613516565b50600181016115fc878983613516565b50600b5461160a90436136f1565b77ffffffffffffffffffffffffffffffffffffffffffffffff8316680100000000000000000263ffffffff9182166401000000000267ffffffff000000001691851691909117176003820155831561170957600281015415611674576116746002820160006128bd565b60005b60ff8116851115611707578160020161169e87878460ff1681811061141757611417613278565b81546001810183556000928352602090922090910180547fffffffffffffffffffffffff00000000000000000000000000000000000000001673ffffffffffffffffffffffffffffffffffffffff909216919091179055806116ff81613498565b915050611677565b505b61172733600a54600160405180602001604052806000815250611c5e565b505050505050505050565b600081815260086020526040812060030154600b54611c20916117649164010000000090910463ffffffff1690613704565b6106049190613704565b611776611d95565b600a5484116117b0576040517ea5a1f500000000000000000000000000000000000000000000000000000000815260040160405180910390fd5b60008481526008602052604090206002810154158015906117ce5750815b156117e1576117e16002820160006128bd565b60005b60ff8116841115610e71578160020161180b86868460ff1681811061141757611417613278565b81546001810183556000928352602090922090910180547fffffffffffffffffffffffff00000000000000000000000000000000000000001673ffffffffffffffffffffffffffffffffffffffff9092169190911790558061186c81613498565b9150506117e4565b600061187e611d95565b600980546001808201835560008381527f6e1540171b6c0c960b71a7020d9f60077f6af931a8bbf590da0223dacf75c7af90920180547fffffffffffffffffffffffff00000000000000000000000000000000000000001673ffffffffffffffffffffffffffffffffffffffff8716179055915490916118fd916136f1565b9050808373ffffffffffffffffffffffffffffffffffffffff167fbe12a6cdcfa8711b87484030475533b479a18855d1d39eb97f1f0f3fd6e111ff60405160405180910390a390505b919050565b6040517f033918d300000000000000000000000000000000000000000000000000000000815260609073__$fe36b6aafc30e06b7be5019ccbbd4b34d3$__9063033918d39061199e9060049081016137b2565b600060405180830381865af41580156119bb573d6000803e3d6000fd5b505050506040513d6000823e601f3d9081017fffffffffffffffffffffffffffffffffffffffffffffffffffffffffffffffe0168201604052611a0191908101906133c3565b905090565b3373ffffffffffffffffffffffffffffffffffffffff86168114801590611a60575073ffffffffffffffffffffffffffffffffffffffff80871660009081526003602090815260408083209385168352929052205460ff16155b15611ab7576040517fe237d92200000000000000000000000000000000000000000000000000000000815273ffffffffffffffffffffffffffffffffffffffff808316600483015287166024820152604401610e5b565b610e718686868686611fd2565b611acc611d95565b6001805473ffffffffffffffffffffffffffffffffffffffff83167fffffffffffffffffffffffff00000000000000000000000000000000000000009091168117909155611b2f60005473ffffffffffffffffffffffffffffffffffffffff1690565b73ffffffffffffffffffffffffffffffffffffffff167f38d16b8cac22d99fc7c124b9cd0de2d3fa1faef420bfe791d8c362d765e2270060405160405180910390a350565b73ffffffffffffffffffffffffffffffffffffffff83163314801590611bcb575073ffffffffffffffffffffffffffffffffffffffff8316600090815260036020908152604080832033845290915290205460ff16155b15611c20576040517fe237d92200000000000000000000000000000000000000000000000000000000815233600482015273ffffffffffffffffffffffffffffffffffffffff84166024820152604401610e5b565b611c2b8383836120ad565b505050565b6060610604826001611c598173ffffffffffffffffffffffffffffffffffffffff84163b6136f1565b61213c565b73ffffffffffffffffffffffffffffffffffffffff8416611cae576040517f57f447ce00000000000000000000000000000000000000000000000000000000815260006004820152602401610e5b565b60408051600180825260208201869052818301908152606082018590526080820190925290610e7160008784848761217d565b73ffffffffffffffffffffffffffffffffffffffff8416611d31576040517f57f447ce00000000000000000000000000000000000000000000000000000000815260006004820152602401610e5b565b73ffffffffffffffffffffffffffffffffffffffff8516611d81576040517f01a8351400000000000000000000000000000000000000000000000000000000815260006004820152602401610e5b565b611d8e858585858561217d565b5050505050565b60005473ffffffffffffffffffffffffffffffffffffffff163314611312576040517f118cdaa7000000000000000000000000000000000000000000000000000000008152336004820152602401610e5b565b600180547fffffffffffffffffffffffff0000000000000000000000000000000000000000169055611388816121dd565b60008082604051602001611e2d9190613885565b6040516020818303038152906040529050600081604051602001611e5191906138ab565b60405160208183030381529060405290508051602082016000f0925073ffffffffffffffffffffffffffffffffffffffff8316610c3e576040517f08c379a000000000000000000000000000000000000000000000000000000000815260206004820152601160248201527f4445504c4f594d454e545f4641494c45440000000000000000000000000000006044820152606401610e5b565b73ffffffffffffffffffffffffffffffffffffffff8216611f3a576040517fced3e10000000000000000000000000000000000000000000000000000000000815260006004820152602401610e5b565b73ffffffffffffffffffffffffffffffffffffffff83811660008181526003602090815260408083209487168084529482529182902080547fffffffffffffffffffffffffffffffffffffffffffffffffffffffffffffff001686151590811790915591519182527f17307eab39ab6107e8899845ad3d59bd9653f200f220920489ca2b5937696c31910160405180910390a3505050565b73ffffffffffffffffffffffffffffffffffffffff8416612022576040517f57f447ce00000000000000000000000000000000000000000000000000000000815260006004820152602401610e5b565b73ffffffffffffffffffffffffffffffffffffffff8516612072576040517f01a8351400000000000000000000000000000000000000000000000000000000815260006004820152602401610e5b565b604080516001808252602082018690528183019081526060820185905260808201909252906120a4878784848761217d565b50505050505050565b73ffffffffffffffffffffffffffffffffffffffff83166120fd576040517f01a8351400000000000000000000000000000000000000000000000000000000815260006004820152602401610e5b565b604080516001808252602082018590528183019081526060820184905260a08201909252600060808201818152919291611d8e9187918590859061217d565b60408051603f83017fffffffffffffffffffffffffffffffffffffffffffffffffffffffffffffffe0168101909152818152818360208301863c9392505050565b61218985858585612252565b73ffffffffffffffffffffffffffffffffffffffff841615611d8e57825133906001036121cf57602084810151908401516121c883898985858961253a565b5050610e71565b610e7181878787878761272c565b6000805473ffffffffffffffffffffffffffffffffffffffff8381167fffffffffffffffffffffffff0000000000000000000000000000000000000000831681178455604051919092169283917f8be0079c531659141344cd1fd0a4f28419497f9722a3daafe3b4186f6b6457e09190a35050565b805182511461229a57815181516040517f5b05999100000000000000000000000000000000000000000000000000000000815260048101929092526024820152604401610e5b565b3360005b835181101561240d5760208181028581018201519085019091015173ffffffffffffffffffffffffffffffffffffffff8816156123a257600082815260026020908152604080832073ffffffffffffffffffffffffffffffffffffffff8c1684529091529020548181101561236c576040517f03dee4c500000000000000000000000000000000000000000000000000000000815273ffffffffffffffffffffffffffffffffffffffff8a166004820152602481018290526044810183905260648101849052608401610e5b565b600083815260026020908152604080832073ffffffffffffffffffffffffffffffffffffffff8d16845290915290209082900390555b73ffffffffffffffffffffffffffffffffffffffff87161561240357600082815260026020908152604080832073ffffffffffffffffffffffffffffffffffffffff8b168452909152812080548392906123fd908490613704565b90915550505b505060010161229e565b5082516001036124b557602083015160009060208401519091508573ffffffffffffffffffffffffffffffffffffffff168773ffffffffffffffffffffffffffffffffffffffff168473ffffffffffffffffffffffffffffffffffffffff167fc3d58168c5ae7397731d063d5bbf3d657854427343f4c083240f7aacaa2d0f6285856040516124a6929190918252602082015260400190565b60405180910390a45050611d8e565b8373ffffffffffffffffffffffffffffffffffffffff168573ffffffffffffffffffffffffffffffffffffffff168273ffffffffffffffffffffffffffffffffffffffff167f4a39dc06d4c0dbc64b70af90fd698a233a518aa5d07e595d983b8c0526c8f7fb868660405161252b9291906138f0565b60405180910390a45050505050565b73ffffffffffffffffffffffffffffffffffffffff84163b15610e71576040517ff23a6e6100000000000000000000000000000000000000000000000000000000815273ffffffffffffffffffffffffffffffffffffffff85169063f23a6e61906125b19089908990889088908890600401613915565b6020604051808303816000875af192505050801561260a575060408051601f3d9081017fffffffffffffffffffffffffffffffffffffffffffffffffffffffffffffffe016820190925261260791810190613965565b60015b612699573d808015612638576040519150601f19603f3d011682016040523d82523d6000602084013e61263d565b606091505b508051600003612691576040517f57f447ce00000000000000000000000000000000000000000000000000000000815273ffffffffffffffffffffffffffffffffffffffff86166004820152602401610e5b565b805181602001fd5b7fffffffff0000000000000000000000000000000000000000000000000000000081167ff23a6e6100000000000000000000000000000000000000000000000000000000146120a4576040517f57f447ce00000000000000000000000000000000000000000000000000000000815273ffffffffffffffffffffffffffffffffffffffff86166004820152602401610e5b565b73ffffffffffffffffffffffffffffffffffffffff84163b15610e71576040517fbc197c8100000000000000000000000000000000000000000000000000000000815273ffffffffffffffffffffffffffffffffffffffff85169063bc197c81906127a39089908990889088908890600401613982565b6020604051808303816000875af19250505080156127fc575060408051601f3d9081017fffffffffffffffffffffffffffffffffffffffffffffffffffffffffffffffe01682019092526127f991810190613965565b60015b61282a573d808015612638576040519150601f19603f3d011682016040523d82523d6000602084013e61263d565b7fffffffff0000000000000000000000000000000000000000000000000000000081167fbc197c8100000000000000000000000000000000000000000000000000000000146120a4576040517f57f447ce00000000000000000000000000000000000000000000000000000000815273ffffffffffffffffffffffffffffffffffffffff86166004820152602401610e5b565b508054600082559060005260206000209081019061138891905b808211156128eb57600081556001016128d7565b5090565b803573ffffffffffffffffffffffffffffffffffffffff8116811461194657600080fd5b6000806040838503121561292657600080fd5b61292f836128ef565b946020939093013593505050565b7fffffffff000000000000000000000000000000000000000000000000000000008116811461138857600080fd5b60006020828403121561297d57600080fd5b81356109c18161293d565b60006020828403121561299a57600080fd5b5035919050565b60005b838110156129bc5781810151838201526020016129a4565b50506000910152565b600081518084526129dd8160208601602086016129a1565b601f017fffffffffffffffffffffffffffffffffffffffffffffffffffffffffffffffe0169290920160200192915050565b6020815260006109c160208301846129c5565b60008060408385031215612a3557600080fd5b50508035926020909101359150565b7f4e487b7100000000000000000000000000000000000000000000000000000000600052604160045260246000fd5b604051601f82017fffffffffffffffffffffffffffffffffffffffffffffffffffffffffffffffe016810167ffffffffffffffff81118282101715612aba57612aba612a44565b604052919050565b600067ffffffffffffffff821115612adc57612adc612a44565b5060051b60200190565b600082601f830112612af757600080fd5b81356020612b0c612b0783612ac2565b612a73565b8083825260208201915060208460051b870101935086841115612b2e57600080fd5b602086015b84811015612b4a5780358352918301918301612b33565b509695505050505050565b600067ffffffffffffffff821115612b6f57612b6f612a44565b50601f017fffffffffffffffffffffffffffffffffffffffffffffffffffffffffffffffe01660200190565b600082601f830112612bac57600080fd5b8135612bba612b0782612b55565b818152846020838601011115612bcf57600080fd5b816020850160208301376000918101602001919091529392505050565b600080600080600060a08688031215612c0457600080fd5b612c0d866128ef565b9450612c1b602087016128ef565b9350604086013567ffffffffffffffff80821115612c3857600080fd5b612c4489838a01612ae6565b94506060880135915080821115612c5a57600080fd5b612c6689838a01612ae6565b93506080880135915080821115612c7c57600080fd5b50612c8988828901612b9b565b9150509295509295909350565b606081526000612ca960608301866129c5565b8281036020840152612cbb81866129c5565b90508281036040840152612ccf81856129c5565b9695505050505050565b60008060408385031215612cec57600080fd5b823567ffffffffffffffff80821115612d0457600080fd5b818501915085601f830112612d1857600080fd5b81356020612d28612b0783612ac2565b82815260059290921b84018101918181019089841115612d4757600080fd5b948201945b83861015612d6c57612d5d866128ef565b82529482019490820190612d4c565b96505086013592505080821115612d8257600080fd5b50612d8f85828601612ae6565b9150509250929050565b60008151808452602080850194506020840160005b83811015612dca57815187529582019590820190600101612dae565b509495945050505050565b6020815260006109c16020830184612d99565b60a081526000612dfb60a08301886129c5565b8281036020840152612e0d81886129c5565b63ffffffff96871660408501529490951660608301525077ffffffffffffffffffffffffffffffffffffffffffffffff919091166080909101529392505050565b60008083601f840112612e6057600080fd5b50813567ffffffffffffffff811115612e7857600080fd5b602083019150836020828501011115612e9057600080fd5b9250929050565b60008083601f840112612ea957600080fd5b50813567ffffffffffffffff811115612ec157600080fd5b6020830191508360208260051b8501011115612e9057600080fd5b60008060008060008060008060008060c08b8d031215612efb57600080fd5b8a3567ffffffffffffffff80821115612f1357600080fd5b612f1f8e838f01612e4e565b909c509a5060208d0135915080821115612f3857600080fd5b612f448e838f01612e4e565b909a50985060408d0135915080821115612f5d57600080fd5b612f698e838f01612e4e565b909850965060608d0135915080821115612f8257600080fd5b50612f8f8d828e01612e97565b9095509350612fa2905060808c016128ef565b9150612fb060a08c016128ef565b90509295989b9194979a5092959850565b8035801515811461194657600080fd5b60008060408385031215612fe457600080fd5b612fed836128ef565b9150612ffb60208401612fc1565b90509250929050565b60008060008060008060008060a0898b03121561302057600080fd5b883567ffffffffffffffff8082111561303857600080fd5b6130448c838d01612e4e565b909a50985060208b013591508082111561305d57600080fd5b6130698c838d01612e4e565b909850965060408b013591508082111561308257600080fd5b5061308f8b828c01612e97565b909550935050606089013563ffffffff811681146130ac57600080fd5b9150608089013577ffffffffffffffffffffffffffffffffffffffffffffffff811681146130d957600080fd5b809150509295985092959890939650565b6000806000806060858703121561310057600080fd5b84359350602085013567ffffffffffffffff81111561311e57600080fd5b61312a87828801612e97565b909450925061313d905060408601612fc1565b905092959194509250565b60006020828403121561315a57600080fd5b6109c1826128ef565b6000806040838503121561317657600080fd5b61317f836128ef565b9150612ffb602084016128ef565b600080600080600060a086880312156131a557600080fd5b6131ae866128ef565b94506131bc602087016128ef565b93506040860135925060608601359150608086013567ffffffffffffffff8111156131e657600080fd5b612c8988828901612b9b565b60008060006060848603121561320757600080fd5b613210846128ef565b95602085013595506040909401359392505050565b600181811c9082168061323957607f821691505b602082108103613272577f4e487b7100000000000000000000000000000000000000000000000000000000600052602260045260246000fd5b50919050565b7f4e487b7100000000000000000000000000000000000000000000000000000000600052603260045260246000fd5b83815260006020606081840152845160c060608501526132cb6101208501826129c5565b9050818601517fffffffffffffffffffffffffffffffffffffffffffffffffffffffffffffffa08086840301608087015261330683836129c5565b604089015187820390920160a088015281518082529185019350600092508401905b8083101561335e57835173ffffffffffffffffffffffffffffffffffffffff168252928401926001929092019190840190613328565b50606088015163ffffffff90811660c088015260808901511660e087015260a088015177ffffffffffffffffffffffffffffffffffffffffffffffff8116610100880152868203604088015293506133b681886129c5565b9998505050505050505050565b6000602082840312156133d557600080fd5b815167ffffffffffffffff8111156133ec57600080fd5b8201601f810184136133fd57600080fd5b805161340b612b0782612b55565b81815285602083850101111561342057600080fd5b6134318260208301602086016129a1565b95945050505050565b6000835161344c8184602088016129a1565b8351908301906134608183602088016129a1565b01949350505050565b7f4e487b7100000000000000000000000000000000000000000000000000000000600052601160045260246000fd5b600060ff821660ff81036134ae576134ae613469565b60010192915050565b808202811582820484141761060457610604613469565b601f821115611c2b576000816000526020600020601f850160051c810160208610156134f75750805b601f850160051c820191505b81811015610e7157828155600101613503565b67ffffffffffffffff83111561352e5761352e612a44565b6135428361353c8354613225565b836134ce565b6000601f841160018114613594576000851561355e5750838201355b7fffffffffffffffffffffffffffffffffffffffffffffffffffffffffffffffff600387901b1c1916600186901b178355611d8e565b6000838152602090207fffffffffffffffffffffffffffffffffffffffffffffffffffffffffffffffe0861690835b828110156135e357868501358255602094850194600190920191016135c3565b508682101561361e577fffffffffffffffffffffffffffffffffffffffffffffffffffffffffffffffff60f88860031b161c19848701351681555b505060018560011b0183555050505050565b60008083357fffffffffffffffffffffffffffffffffffffffffffffffffffffffffffffffe184360301811261366557600080fd5b83018035915067ffffffffffffffff82111561368057600080fd5b602001915036819003821315612e9057600080fd5b63ffffffff8181168382160190808211156136b2576136b2613469565b5092915050565b60007fffffffffffffffffffffffffffffffffffffffffffffffffffffffffffffffff82036136ea576136ea613469565b5060010190565b8181038181111561060457610604613469565b8082018082111561060457610604613469565b6000815461372481613225565b8085526020600183811680156137415760018114613779576137a7565b7fffffffffffffffffffffffffffffffffffffffffffffffffffffffffffffff008516838901528284151560051b89010195506137a7565b866000528260002060005b8581101561379f5781548a8201860152908301908401613784565b890184019650505b505050505092915050565b60006020808352608060208401526137cd60a0840185613717565b60017fffffffffffffffffffffffffffffffffffffffffffffffffffffffffffffffe0808684030160408701526138078360018901613717565b9250808684030160608701526138208360028901613717565b8681039091016080870152600387018054808352600091825260208083209550909201915b8082101561387857845473ffffffffffffffffffffffffffffffffffffffff168352938301939185019190830190613845565b5090979650505050505050565b600081526000825161389e8160018501602087016129a1565b9190910160010192915050565b7f600b5981380380925939f30000000000000000000000000000000000000000008152600082516138e381600b8501602087016129a1565b91909101600b0192915050565b6040815260006139036040830185612d99565b82810360208401526134318185612d99565b600073ffffffffffffffffffffffffffffffffffffffff808816835280871660208401525084604083015283606083015260a0608083015261395a60a08301846129c5565b979650505050505050565b60006020828403121561397757600080fd5b81516109c18161293d565b600073ffffffffffffffffffffffffffffffffffffffff808816835280871660208401525060a060408301526139bb60a0830186612d99565b82810360608401526139cd8186612d99565b905082810360808401526139e181856129c5565b9897505050505050505056fea2646970667358221220c79606b64f1984e55caff231f8ae6d3d0b120a0f56049cb5a7b1ae3d5133102164736f6c63430008180033",
  "linkReferences": {
    "contracts/libraries/ContractMetadata.sol": {
      "ContractMetadata": [
        {
          "length": 20,
          "start": 6719
        }
      ]
    }
  },
  "deployedLinkReferences": {
    "contracts/libraries/ContractMetadata.sol": {
      "ContractMetadata": [
        {
          "length": 20,
          "start": 6518
        }
      ]
    }
  }
}