{
  "_format": "hh-sol-artifact-1",
  "contractName": "ContractMetadata",
  "sourceName": "contracts/libraries/ContractMetadata.sol",
  "abi": [
    {
      "inputs": [
        {
          "components": [
            {
              "internalType": "string",
              "name": "name",
              "type": "string"
            },
            {
              "internalType": "string",
              "name": "symbol",
              "type": "string"
            },
            {
              "internalType": "string",
              "name": "description",
              "type": "string"
            },
            {
              "internalType": "string",
              "name": "image",
              "type": "string"
            }
          ],
          "internalType": "struct ContractMetadata.Data",
          "name": "data",
          "type": "tuple"
        }
      ],
      "name": "uri",
      "outputs": [
        {
          "internalType": "string",
          "name": "",
          "type": "string"
        }
      ],
      "stateMutability": "pure",
      "type": "function"
    }
  ],
  "bytecode": "0x610ab9610053600b82828239805160001a607314610046577f4e487b7100000000000000000000000000000000000000000000000000000000600052600060045260246000fd5b30600052607381538281f3fe73000000000000000000000000000000000000000030146080604052600436106100355760003560e01c8063033918d31461003a575b600080fd5b610054600480360381019061004f9190610494565b61006a565b604051610061919061055c565b60405180910390f35b606060008260000151836020015184604001518560600151604051602001610095949392919061081a565b60405160208183030381529060405290506100af816100d6565b6040516020016100bf9190610912565b604051602081830303815290604052915050919050565b606060008251036100f857604051806020016040528060008152509050610243565b6000604051806060016040528060408152602001610a446040913990506000600360028551610127919061096d565b61013191906109d0565b600461013d9190610a01565b67ffffffffffffffff81111561015657610155610272565b5b6040519080825280601f01601f1916602001820160405280156101885781602001600182028036833780820191505090505b50905060018201602082018586518701602081018051600082525b828410156101fe576003840193508351603f8160121c168701518653600186019550603f81600c1c168701518653600186019550603f8160061c168701518653600186019550603f81168701518653600186019550506101a3565b80825260038a51066001811461021b576002811461022e57610236565b603d6001870353603d6002870353610236565b603d60018703535b5050505050505080925050505b919050565b6000604051905090565b600080fd5b600080fd5b600080fd5b6000601f19601f8301169050919050565b7f4e487b7100000000000000000000000000000000000000000000000000000000600052604160045260246000fd5b6102aa82610261565b810181811067ffffffffffffffff821117156102c9576102c8610272565b5b80604052505050565b60006102dc610248565b90506102e882826102a1565b919050565b600080fd5b600080fd5b600080fd5b600067ffffffffffffffff82111561031757610316610272565b5b61032082610261565b9050602081019050919050565b82818337600083830152505050565b600061034f61034a846102fc565b6102d2565b90508281526020810184848401111561036b5761036a6102f7565b5b61037684828561032d565b509392505050565b600082601f830112610393576103926102f2565b5b81356103a384826020860161033c565b91505092915050565b6000608082840312156103c2576103c161025c565b5b6103cc60806102d2565b9050600082013567ffffffffffffffff8111156103ec576103eb6102ed565b5b6103f88482850161037e565b600083015250602082013567ffffffffffffffff81111561041c5761041b6102ed565b5b6104288482850161037e565b602083015250604082013567ffffffffffffffff81111561044c5761044b6102ed565b5b6104588482850161037e565b604083015250606082013567ffffffffffffffff81111561047c5761047b6102ed565b5b6104888482850161037e565b60608301525092915050565b6000602082840312156104aa576104a9610252565b5b600082013567ffffffffffffffff8111156104c8576104c7610257565b5b6104d4848285016103ac565b91505092915050565b600081519050919050565b600082825260208201905092915050565b60005b838110156105175780820151818401526020810190506104fc565b60008484015250505050565b600061052e826104dd565b61053881856104e8565b93506105488185602086016104f9565b61055181610261565b840191505092915050565b600060208201905081810360008301526105768184610523565b905092915050565b600081905092915050565b7f7b00000000000000000000000000000000000000000000000000000000000000600082015250565b60006105bf60018361057e565b91506105ca82610589565b600182019050919050565b7f226e616d65223a20220000000000000000000000000000000000000000000000600082015250565b600061060b60098361057e565b9150610616826105d5565b600982019050919050565b600061062c826104dd565b610636818561057e565b93506106468185602086016104f9565b80840191505092915050565b7f222c000000000000000000000000000000000000000000000000000000000000600082015250565b600061068860028361057e565b915061069382610652565b600282019050919050565b7f2273796d626f6c223a2022000000000000000000000000000000000000000000600082015250565b60006106d4600b8361057e565b91506106df8261069e565b600b82019050919050565b7f226465736372697074696f6e223a202200000000000000000000000000000000600082015250565b600061072060108361057e565b915061072b826106ea565b601082019050919050565b7f22696d616765223a202200000000000000000000000000000000000000000000600082015250565b600061076c600a8361057e565b915061077782610736565b600a82019050919050565b7f2200000000000000000000000000000000000000000000000000000000000000600082015250565b60006107b860018361057e565b91506107c382610782565b600182019050919050565b7f7d00000000000000000000000000000000000000000000000000000000000000600082015250565b600061080460018361057e565b915061080f826107ce565b600182019050919050565b6000610825826105b2565b9150610830826105fe565b915061083c8287610621565b91506108478261067b565b9150610852826106c7565b915061085e8286610621565b91506108698261067b565b915061087482610713565b91506108808285610621565b915061088b8261067b565b91506108968261075f565b91506108a28284610621565b91506108ad826107ab565b91506108b8826107f7565b915081905095945050505050565b7f646174613a6170706c69636174696f6e2f6a736f6e3b6261736536342c000000600082015250565b60006108fc601d8361057e565b9150610907826108c6565b601d82019050919050565b600061091d826108ef565b91506109298284610621565b915081905092915050565b6000819050919050565b7f4e487b7100000000000000000000000000000000000000000000000000000000600052601160045260246000fd5b600061097882610934565b915061098383610934565b925082820190508082111561099b5761099a61093e565b5b92915050565b7f4e487b7100000000000000000000000000000000000000000000000000000000600052601260045260246000fd5b60006109db82610934565b91506109e683610934565b9250826109f6576109f56109a1565b5b828204905092915050565b6000610a0c82610934565b9150610a1783610934565b9250828202610a2581610934565b91508282048414831517610a3c57610a3b61093e565b5b509291505056fe4142434445464748494a4b4c4d4e4f505152535455565758595a6162636465666768696a6b6c6d6e6f707172737475767778797a303132333435363738392b2fa26469706673582212204cbab6936ccf848320887562bfef7a0a27cdf72c94f3362b510745cbe77e8a2b64736f6c63430008180033",
  "linkReferences": {},
  "deployedLinkReferences": {}
}