{
  "_format": "hh-sol-artifact-1",
  "contractName": "FactoryERC20Mints",
  "sourceName": "contracts/factories/FactoryERC20Mints.sol",
  "abi": [
    {
      "inputs": [
        {
          "internalType": "address",
          "name": "renderer",
          "type": "address"
        }
      ],
      "stateMutability": "nonpayable",
      "type": "constructor"
    },
    {
      "anonymous": false,
      "inputs": [
        {
          "indexed": true,
          "internalType": "address",
          "name": "ownerAddress",
          "type": "address"
        },
        {
          "indexed": false,
          "internalType": "address",
          "name": "contractAddress",
          "type": "address"
        }
      ],
      "name": "Created",
      "type": "event"
    },
    {
      "inputs": [
        {
          "internalType": "string",
          "name": "name",
          "type": "string"
        },
        {
          "internalType": "string",
          "name": "symbol",
          "type": "string"
        },
        {
          "internalType": "string",
          "name": "description",
          "type": "string"
        },
        {
          "internalType": "bytes[]",
          "name": "image",
          "type": "bytes[]"
        }
      ],
      "name": "create",
      "outputs": [
        {
          "internalType": "address",
          "name": "",
          "type": "address"
        }
      ],
      "stateMutability": "nonpayable",
      "type": "function"
    },
    {
      "inputs": [
        {
          "internalType": "address",
          "name": "creator",
          "type": "address"
        }
      ],
      "name": "getCreatorCollections",
      "outputs": [
        {
          "internalType": "address[]",
          "name": "",
          "type": "address[]"
        }
      ],
      "stateMutability": "view",
      "type": "function"
    },
    {
      "inputs": [],
      "name": "version",
      "outputs": [
        {
          "internalType": "uint256",
          "name": "",
          "type": "uint256"
        }
      ],
      "stateMutability": "pure",
      "type": "function"
    }
  ],
  "bytecode": "0x60a03461006a57601f61489938819003918201601f19168301916001600160401b0383118484101761006f5780849260209460405283398101031261006a57516001600160a01b038116810361006a57608052604051614813908161008682396080518161033b0152f35b600080fd5b634e487b7160e01b600052604160045260246000fdfe604060808152600436101561001357600080fd5b600090813560e01c806343215e0f1461015757806354fd4d501461011e576374311e121461004057600080fd5b34610116576020807ffffffffffffffffffffffffffffffffffffffffffffffffffffffffffffffffc36011261011a576004359273ffffffffffffffffffffffffffffffffffffffff9384811680910361011657815280825282812091835190818185549182815201908195855282852090855b81811061010057505050826100ca9103836105ec565b8451948186019282875251809352850193925b8281106100ea5785850386f35b83518716855293810193928101926001016100dd565b82548a16845292840192600192830192016100b4565b5080fd5b8280fd5b503461011657817ffffffffffffffffffffffffffffffffffffffffffffffffffffffffffffffffc360112610116576020905160018152f35b5034610116577ffffffffffffffffffffffffffffffffffffffffffffffffffffffffffffffffc9060808236011261011a5760043567ffffffffffffffff81116105e8576101a990369060040161065c565b60243567ffffffffffffffff81116105e4576101c990369060040161065c565b9260443567ffffffffffffffff81116105e0576101ea90369060040161065c565b9367ffffffffffffffff606435116105e0573660236064350112156105e05767ffffffffffffffff60643560040135116105e0576064356004013560051b90366024836064350101116105dc5784516140a98082019082821067ffffffffffffffff8311176105af579082916107358339039088f080156105a55773ffffffffffffffffffffffffffffffffffffffff1695863b156105a157926102eb88946102db6102cb97959489519889977f84252fb700000000000000000000000000000000000000000000000000000000895260c060048a015260c48901906106d6565b90858883030160248901526106d6565b90838683030160448701526106d6565b908382030160648401526064356004013581526020808201928201019160246064350191855b6064356004013581106104b25750505050819073ffffffffffffffffffffffffffffffffffffffff7f00000000000000000000000000000000000000000000000000000000000000001660848301523360a4830152038183875af180156104a857610460575b50338352826020528083208054906801000000000000000082101561043357600182018082558210156104065784602095918692522001827fffffffffffffffffffffffff000000000000000000000000000000000000000082541617905580518281527f587ece4cd19692c5be1a4184503d607d45542d2aca0698c0068f52e09ccb541c843392a251908152f35b6024857f4e487b710000000000000000000000000000000000000000000000000000000081526032600452fd5b6024857f4e487b710000000000000000000000000000000000000000000000000000000081526041600452fd5b67ffffffffffffffff819492941161047b5783529138610377565b6024827f4e487b710000000000000000000000000000000000000000000000000000000081526041600452fd5b82513d86823e3d90fd5b929550929093507fffffffffffffffffffffffffffffffffffffffffffffffffffffffffffffffe083820301845284357fffffffffffffffffffffffffffffffffffffffffffffffffffffffffffffffbd60643536030181121561059d57606435019067ffffffffffffffff60248301351161059d578960248301353603604484011361059a57602080927fffffffffffffffffffffffffffffffffffffffffffffffffffffffffffffffe0601f60248785968260019a0135865282820135604483018888013786838301358701015201350116010196019401910190889492869492610311565b80fd5b8980fd5b8780fd5b85513d89823e3d90fd5b60248a7f4e487b710000000000000000000000000000000000000000000000000000000081526041600452fd5b8680fd5b8580fd5b8480fd5b8380fd5b90601f7fffffffffffffffffffffffffffffffffffffffffffffffffffffffffffffffe0910116810190811067ffffffffffffffff82111761062d57604052565b7f4e487b7100000000000000000000000000000000000000000000000000000000600052604160045260246000fd5b81601f820112156106d15780359067ffffffffffffffff821161062d57604051926106af60207fffffffffffffffffffffffffffffffffffffffffffffffffffffffffffffffe0601f86011601856105ec565b828452602083830101116106d157816000926020809301838601378301015290565b600080fd5b919082519283825260005b8481106107205750507fffffffffffffffffffffffffffffffffffffffffffffffffffffffffffffffe0601f8460006020809697860101520116010190565b6020818301810151848301820152016106e156fe6080806040523461008257331561006c5760018060a01b0319806001541660015560005490339082161760005560405190339060018060a01b03167f8be0079c531659141344cd1fd0a4f28419497f9722a3daafe3b4186f6b6457e0600080a36140219081620000888239f35b631e4fbdf760e01b815260006004820152602490fd5b600080fdfe6080604052600436101561001257600080fd5b60003560e01c8062fdd58e146101e657806301ffc9a7146101e15780630e89341c146101dc5780631b2ef1ca146101d75780631ffbee64146101d25780632eb2c2d6146101cd5780634e1273f4146101c857806351cff8d9146101c357806354fd4d50146101be5780635d05125b146101b9578063715018a6146101b457806379ba5097146101af57806384252fb7146101aa57806387d81789146101a55780638c0e8349146101a05780638da5cb5b1461019b5780639507d39a14610196578063a22cb46514610191578063a38d93491461018c578063b564434114610187578063b6cb8dfe14610182578063c4a0d4651461017d578063c622969814610178578063e30c397814610173578063e8a3d4851461016e578063e985e9c514610169578063f242432a14610164578063f2fde38b1461015f5763f5298aca1461015a57600080fd5b611c00565b611b53565b611995565b6118fb565b61176e565b61171c565b611684565b6115c2565b6114ab565b611451565b6113a0565b61124d565b611193565b61107f565b611043565b610fb4565b610efd565b610e17565b610d6e565b610d32565b610cf3565b610cac565b610bd3565b6109c5565b61078b565b610612565b6104aa565b610340565b61029d565b6004359073ffffffffffffffffffffffffffffffffffffffff8216820361020e57565b600080fd5b6024359073ffffffffffffffffffffffffffffffffffffffff8216820361020e57565b6084359073ffffffffffffffffffffffffffffffffffffffff8216820361020e57565b60a4359073ffffffffffffffffffffffffffffffffffffffff8216820361020e57565b359073ffffffffffffffffffffffffffffffffffffffff8216820361020e57565b3461020e5760407ffffffffffffffffffffffffffffffffffffffffffffffffffffffffffffffffc36011261020e57602061030d6102d96101eb565b6024356000526002835260406000209073ffffffffffffffffffffffffffffffffffffffff16600052602052604060002090565b54604051908152f35b7fffffffff0000000000000000000000000000000000000000000000000000000081160361020e57565b3461020e5760207ffffffffffffffffffffffffffffffffffffffffffffffffffffffffffffffffc36011261020e5760207fffffffff0000000000000000000000000000000000000000000000000000000060043561039e81610316565b167fd9b67a26000000000000000000000000000000000000000000000000000000008114908115610406575b81156103dc575b506040519015158152f35b7f01ffc9a700000000000000000000000000000000000000000000000000000000915014386103d1565b7f0e89341c00000000000000000000000000000000000000000000000000000000811491506103ca565b60005b8381106104435750506000910152565b8181015183820152602001610433565b907fffffffffffffffffffffffffffffffffffffffffffffffffffffffffffffffe0601f60209361048f81518092818752878088019101610430565b0116010190565b9060206104a7928181520190610453565b90565b3461020e5760207ffffffffffffffffffffffffffffffffffffffffffffffffffffffffffffffffc36011261020e57600435600a5481116105e857600081610507610502610599946000526008602052604060002090565b6120d0565b9061056361054a61054a61052a610525606087015163ffffffff1690565b61074f565b905473ffffffffffffffffffffffffffffffffffffffff9160031b1c1690565b73ffffffffffffffffffffffffffffffffffffffff1690565b906040518095819482937fa2f31bf300000000000000000000000000000000000000000000000000000000845260048401612205565b03915afa80156105e3576105bc916000916105c0575b5060405191829182610496565b0390f35b6105dd91503d806000833e6105d58183610860565b8101906121a6565b386105af565b6122d1565b60046040517f9430a17e000000000000000000000000000000000000000000000000000000008152fd5b3461020e5760407ffffffffffffffffffffffffffffffffffffffffffffffffffffffffffffffffc36011261020e5760043560243590600a5481116105e85761068c61067f600361066d846000526008602052604060002090565b015460401c67ffffffffffffffff1690565b67ffffffffffffffff1690565b42116106f6576106f4916106e56106ad83600052600c602052604060002090565b6106dc61054a6106c185600185015461230c565b925473ffffffffffffffffffffffffffffffffffffffff1690565b30903390613152565b6106ed61231f565b913361321a565b005b60046040517f589ed34b000000000000000000000000000000000000000000000000000000008152fd5b7f4e487b7100000000000000000000000000000000000000000000000000000000600052603260045260246000fd5b6009548110156107865760096000527f6e1540171b6c0c960b71a7020d9f60077f6af931a8bbf590da0223dacf75c7af0190600090565b610720565b3461020e5760207ffffffffffffffffffffffffffffffffffffffffffffffffffffffffffffffffc36011261020e5760043560095481101561020e5773ffffffffffffffffffffffffffffffffffffffff60209160096000527f6e1540171b6c0c960b71a7020d9f60077f6af931a8bbf590da0223dacf75c7af015416604051908152f35b7f4e487b7100000000000000000000000000000000000000000000000000000000600052604160045260246000fd5b6020810190811067ffffffffffffffff82111761085b57604052565b610810565b90601f7fffffffffffffffffffffffffffffffffffffffffffffffffffffffffffffffe0910116810190811067ffffffffffffffff82111761085b57604052565b604051906040820182811067ffffffffffffffff82111761085b57604052565b67ffffffffffffffff811161085b5760051b60200190565b9080601f8301121561020e5760209082356108f3816108c1565b936109016040519586610860565b81855260208086019260051b82010192831161020e57602001905b82821061092a575050505090565b8135815290830190830161091c565b67ffffffffffffffff811161085b57601f017fffffffffffffffffffffffffffffffffffffffffffffffffffffffffffffffe01660200190565b92919261097f82610939565b9161098d6040519384610860565b82948184528183011161020e578281602093846000960137010152565b9080601f8301121561020e578160206104a793359101610973565b3461020e5760a07ffffffffffffffffffffffffffffffffffffffffffffffffffffffffffffffffc36011261020e576109fc6101eb565b610a04610213565b906044359167ffffffffffffffff9081841161020e57610a29600494369086016108d9565b9060643583811161020e57610a4190369087016108d9565b9260843590811161020e57610a5990369087016109aa565b9373ffffffffffffffffffffffffffffffffffffffff808216903382141580610b4c575b610af957831615610ac85715610a97576106f4955061387d565b6024866000604051917f01a83514000000000000000000000000000000000000000000000000000000008352820152fd5b6024876000604051917f57f447ce000000000000000000000000000000000000000000000000000000008352820152fd5b604080517fe237d92200000000000000000000000000000000000000000000000000000000815233818b0190815273ffffffffffffffffffffffffffffffffffffffff8616602082015290918291010390fd5b5081600052600360205260ff610b863360406000209073ffffffffffffffffffffffffffffffffffffffff16600052602052604060002090565b541615610a7d565b90815180825260208080930193019160005b828110610bae575050505090565b835185529381019392810192600101610ba0565b9060206104a7928181520190610b8e565b3461020e5760407ffffffffffffffffffffffffffffffffffffffffffffffffffffffffffffffffc36011261020e5760043567ffffffffffffffff80821161020e573660238301121561020e578160040135610c2e816108c1565b92610c3c6040519485610860565b8184526020916024602086019160051b8301019136831161020e57602401905b828210610c95578560243586811161020e576105bc91610c83610c899236906004016108d9565b90612346565b60405191829182610bc2565b838091610ca18461027c565b815201910190610c5c565b3461020e5760207ffffffffffffffffffffffffffffffffffffffffffffffffffffffffffffffffc36011261020e576106f4610ce66101eb565b610cee61326b565b612432565b3461020e5760007ffffffffffffffffffffffffffffffffffffffffffffffffffffffffffffffffc36011261020e576020604051650a015eb427b08152f35b3461020e5760007ffffffffffffffffffffffffffffffffffffffffffffffffffffffffffffffffc36011261020e576020600b54604051908152f35b3461020e576000807ffffffffffffffffffffffffffffffffffffffffffffffffffffffffffffffffc360112610e1457610da661326b565b8073ffffffffffffffffffffffffffffffffffffffff7fffffffffffffffffffffffff0000000000000000000000000000000000000000806001541660015582549081168355167f8be0079c531659141344cd1fd0a4f28419497f9722a3daafe3b4186f6b6457e08280a380f35b80fd5b3461020e5760007ffffffffffffffffffffffffffffffffffffffffffffffffffffffffffffffffc36011261020e573373ffffffffffffffffffffffffffffffffffffffff6001541603610e6e576106f4336132f3565b60246040517f118cdaa7000000000000000000000000000000000000000000000000000000008152336004820152fd5b9181601f8401121561020e5782359167ffffffffffffffff831161020e576020838186019501011161020e57565b9181601f8401121561020e5782359167ffffffffffffffff831161020e576020808501948460051b01011161020e57565b3461020e5760c07ffffffffffffffffffffffffffffffffffffffffffffffffffffffffffffffffc36011261020e5767ffffffffffffffff60043581811161020e57610f4d903690600401610e9e565b60243583811161020e57610f65903690600401610e9e565b9060443585811161020e57610f7e903690600401610e9e565b9060643596871161020e57610f9a6106f4973690600401610ecc565b949093610fa5610236565b96610fae610259565b98612c2a565b3461020e5760207ffffffffffffffffffffffffffffffffffffffffffffffffffffffffffffffffc36011261020e57600435600052600c6020526040600020600173ffffffffffffffffffffffffffffffffffffffff825416910154906105bc604051928392836020909392919373ffffffffffffffffffffffffffffffffffffffff60408201951681520152565b3461020e5760007ffffffffffffffffffffffffffffffffffffffffffffffffffffffffffffffffc36011261020e576020600a54604051908152f35b3461020e5760007ffffffffffffffffffffffffffffffffffffffffffffffffffffffffffffffffc36011261020e57602073ffffffffffffffffffffffffffffffffffffffff60005416604051908152f35b90815180825260208080930193019160005b8281106110f1575050505090565b835173ffffffffffffffffffffffffffffffffffffffff16855293810193928101926001016110e3565b95909361117360c09699989461116567ffffffffffffffff956111576fffffffffffffffffffffffffffffffff9960e08d5260e08d0190610453565b908b820360208d0152610453565b9089820360408b01526110d1565b9863ffffffff80921660608901521660808701521660a085015216910152565b3461020e5760207ffffffffffffffffffffffffffffffffffffffffffffffffffffffffffffffffc36011261020e576004356000526008602052604060002060038101546105bc63ffffffff92604051936111f9856111f28185611fb3565b0386610860565b611219600260405193611213856111f28160018501611fb3565b01612067565b936040519586958260801c9467ffffffffffffffff8460401c1694808560201c169416928861111b565b8015150361020e57565b3461020e5760407ffffffffffffffffffffffffffffffffffffffffffffffffffffffffffffffffc36011261020e576112846101eb565b60243561129081611243565b73ffffffffffffffffffffffffffffffffffffffff8216918215611350576112e59033600052600360205260406000209073ffffffffffffffffffffffffffffffffffffffff16600052602052604060002090565b7fffffffffffffffffffffffffffffffffffffffffffffffffffffffffffffff0081541660ff831515161790557f17307eab39ab6107e8899845ad3d59bd9653f200f220920489ca2b5937696c316040518061134b339482919091602081019215159052565b0390a3005b60246040517fced3e10000000000000000000000000000000000000000000000000000000000815260006004820152fd5b608435906fffffffffffffffffffffffffffffffff8216820361020e57565b3461020e5760e07ffffffffffffffffffffffffffffffffffffffffffffffffffffffffffffffffc36011261020e5767ffffffffffffffff60043581811161020e576113f0903690600401610e9e565b60243583811161020e57611408903690600401610e9e565b9360443590811161020e57611421903690600401610ecc565b6064359163ffffffff8316830361020e576106f49661143e611381565b94611447610259565b9660c43598612e04565b3461020e5760207ffffffffffffffffffffffffffffffffffffffffffffffffffffffffffffffffc36011261020e576004356000526008602052602067ffffffffffffffff60036040600020015460401c16604051908152f35b3461020e5760607ffffffffffffffffffffffffffffffffffffffffffffffffffffffffffffffffc36011261020e5760043560243567ffffffffffffffff811161020e576114fd903690600401610ecc565b91906044359161150c83611243565b61151461326b565b600a54811115611599576000526008602052600260406000200191825415159081611591575b50611583575b60005b60ff811690848210156106f45761157961157361156e61156761157e958988612a41565b3691610973565b613368565b85612bbf565b612a30565b611543565b61158c8261312e565b611540565b90503861153a565b60046040517ea5a1f5000000000000000000000000000000000000000000000000000000008152fd5b3461020e5760207ffffffffffffffffffffffffffffffffffffffffffffffffffffffffffffffffc36011261020e576115f96101eb565b61160161326b565b61160a81612aa1565b600954907fffffffffffffffffffffffffffffffffffffffffffffffffffffffffffffffff820191821161167f578160209273ffffffffffffffffffffffffffffffffffffffff60405193167fbe12a6cdcfa8711b87484030475533b479a18855d1d39eb97f1f0f3fd6e111ff600080a38152f35b6122dd565b3461020e5760207ffffffffffffffffffffffffffffffffffffffffffffffffffffffffffffffffc36011261020e57600435600a5481116105e857600052600c6020526040600020600173ffffffffffffffffffffffffffffffffffffffff825416910154906105bc604051928392836020909392919373ffffffffffffffffffffffffffffffffffffffff60408201951681520152565b3461020e5760007ffffffffffffffffffffffffffffffffffffffffffffffffffffffffffffffffc36011261020e57602073ffffffffffffffffffffffffffffffffffffffff60015416604051908152f35b3461020e576000807ffffffffffffffffffffffffffffffffffffffffffffffffffffffffffffffffc360112610e14576040517f033918d300000000000000000000000000000000000000000000000000000000815281816020806004830152608060248301526117e160a48301611dc4565b906118286118197fffffffffffffffffffffffffffffffffffffffffffffffffffffffffffffffdc9384868203016044870152611e97565b83858203016064860152611f25565b918383030160848401526020600754928381520191600785527fa66cc928b5edb82af9bd49922954155ab7b0942694bea4ce44661d9a8736c6889185905b8282106118c757505050508190038173__$fe36b6aafc30e06b7be5019ccbbd4b34d3$__5af49081156105e357826105bc93926118ac575b505060405191829182610496565b6118c092503d8091833e6105d58183610860565b388061189e565b835473ffffffffffffffffffffffffffffffffffffffff168552889650879550938401936001938401939190910190611866565b3461020e5760407ffffffffffffffffffffffffffffffffffffffffffffffffffffffffffffffffc36011261020e57602060ff6119896119396101eb565b73ffffffffffffffffffffffffffffffffffffffff611956610213565b91166000526003845260406000209073ffffffffffffffffffffffffffffffffffffffff16600052602052604060002090565b54166040519015158152f35b3461020e5760a07ffffffffffffffffffffffffffffffffffffffffffffffffffffffffffffffffc36011261020e576119cc6101eb565b6119d4610213565b60843567ffffffffffffffff811161020e576119f49036906004016109aa565b9073ffffffffffffffffffffffffffffffffffffffff808416903382141580611b11575b611ac457821615611a935715611a62576106f492611a5a6064356044359160405192600184526020840152604083019160018352606084015260808301604052565b92909161387d565b60246040517f01a8351400000000000000000000000000000000000000000000000000000000815260006004820152fd5b60246040517f57f447ce00000000000000000000000000000000000000000000000000000000815260006004820152fd5b6040517fe237d92200000000000000000000000000000000000000000000000000000000815233600482015273ffffffffffffffffffffffffffffffffffffffff86166024820152604490fd5b5081600052600360205260ff611b4b3360406000209073ffffffffffffffffffffffffffffffffffffffff16600052602052604060002090565b541615611a18565b3461020e5760207ffffffffffffffffffffffffffffffffffffffffffffffffffffffffffffffffc36011261020e57611b8a6101eb565b611b9261326b565b73ffffffffffffffffffffffffffffffffffffffff80911690817fffffffffffffffffffffffff00000000000000000000000000000000000000006001541617600155600054167f38d16b8cac22d99fc7c124b9cd0de2d3fa1faef420bfe791d8c362d765e22700600080a3005b3461020e5760607ffffffffffffffffffffffffffffffffffffffffffffffffffffffffffffffffc36011261020e57611c376101eb565b73ffffffffffffffffffffffffffffffffffffffff81163381141580611cf5575b611ca85715611a62576106f490611c936044356024359160405192600184526020840152604083019160018352606084015260808301604052565b916000604051611ca28161083f565b52613513565b6040517fe237d92200000000000000000000000000000000000000000000000000000000815233600482015273ffffffffffffffffffffffffffffffffffffffff83166024820152604490fd5b5080600052600360205260ff611d2f3360406000209073ffffffffffffffffffffffffffffffffffffffff16600052602052604060002090565b541615611c58565b611d6d91600052600260205260406000209073ffffffffffffffffffffffffffffffffffffffff16600052602052604060002090565b5490565b90600182811c92168015611dba575b6020831014611d8b57565b7f4e487b7100000000000000000000000000000000000000000000000000000000600052602260045260246000fd5b91607f1691611d80565b60045460009291611dd482611d71565b80825291602090600190818116908115611e535750600114611df7575b50505050565b9293945060046000527f8a35acfbc15ff81a39ae7d344fd709f28e8600b4aa8c65c6b64bfe7fe36bd19b926000935b858510611e40575050506020925001019038808080611df1565b8054858501840152938201938101611e26565b91505060209495507fffffffffffffffffffffffffffffffffffffffffffffffffffffffffffffff0091509291921683830152151560051b01019038808080611df1565b60055460009291611ea782611d71565b80825291602090600190818116908115611e535750600114611ec95750505050565b9293945060056000527f036b6384b5eca791c62761152d0c79bb0604c104a5fb6f4eb0703f3154bb3db0926000935b858510611f12575050506020925001019038808080611df1565b8054858501840152938201938101611ef8565b60065460009291611f3582611d71565b80825291602090600190818116908115611e535750600114611f575750505050565b9293945060066000527ff652222313e28459528d920b65115c16c04f3efc82aaedc97be59f3f377c0d3f926000935b858510611fa0575050506020925001019038808080611df1565b8054858501840152938201938101611f86565b805460009392611fc282611d71565b9182825260209360019160018116908160001461202a5750600114611fe9575b5050505050565b90939495506000929192528360002092846000945b83861061201657505050500101903880808080611fe2565b805485870183015294019385908201611ffe565b7fffffffffffffffffffffffffffffffffffffffffffffffffffffffffffffff00168685015250505090151560051b010191503880808080611fe2565b90604051918281549182825260209260208301916000526020600020936000905b8282106120a05750505061209e92500383610860565b565b855473ffffffffffffffffffffffffffffffffffffffff1684526001958601958895509381019390910190612088565b906040519160e083019267ffffffffffffffff918185108386111761085b5761209e9261219e600360c0938860405285986121387fffffffffffffffffffffffffffffffffffffffffffffffffffffffffffffff20886121308486611fb3565b030182610860565b86526040516121558161214e8160018601611fb3565b0382610860565b602087015261216660028201612067565b6040870152015463ffffffff8082166060870152602082901c166080860152918260401c1660a085019067ffffffffffffffff169052565b60801c910152565b60208183031261020e5780519067ffffffffffffffff821161020e570181601f8201121561020e5780516121d981610939565b926121e76040519485610860565b8184526020828401011161020e576104a79160208085019101610430565b6104a79181526040602082015261010060c0612280612231865160e06040870152610120860190610453565b61226b6020880151917fffffffffffffffffffffffffffffffffffffffffffffffffffffffffffffffc09283888303016060890152610453565b906040880151908683030160808701526110d1565b94606081015163ffffffff80911660a0860152608082015116828501526122b860a082015160e086019067ffffffffffffffff169052565b01516fffffffffffffffffffffffffffffffff16910152565b6040513d6000823e3d90fd5b7f4e487b7100000000000000000000000000000000000000000000000000000000600052601160045260246000fd5b8181029291811591840414171561167f57565b6040519061232c8261083f565b60008252565b80518210156107865760209160051b010190565b919091805183518082036123e857505080519061237b612365836108c1565b926123736040519485610860565b8084526108c1565b907fffffffffffffffffffffffffffffffffffffffffffffffffffffffffffffffe06020920136602085013760005b81518110156123e057806123cf60019260051b85808287010151918a01015190611d37565b6123d98287612332565b52016123aa565b509193505050565b6040517f5b05999100000000000000000000000000000000000000000000000000000000815260048101919091526024810191909152604490fd5b9081602091031261020e575190565b73ffffffffffffffffffffffffffffffffffffffff80911690811561251c576040517f70a0823100000000000000000000000000000000000000000000000000000000815230600482015290602082602481865afa9182156105e3576000926124eb575b5081156124e657816124d17f7fcf532c15f0a6db0bd6d0e038bea71d30d808c7d98cb3bf7268a95bf5081b65936124e193600054168661328c565b6040519081529081906020820190565b0390a2565b505050565b61250e91925060203d602011612515575b6125068183610860565b810190612423565b9038612496565b503d6124fc565b60046040517f56e7ec5f000000000000000000000000000000000000000000000000000000008152fd5b818110612551575050565b60008155600101612546565b90601f821161256a575050565b61209e9160046000527f8a35acfbc15ff81a39ae7d344fd709f28e8600b4aa8c65c6b64bfe7fe36bd19b906020601f840160051c830193106125b4575b601f0160051c0190612546565b90915081906125a7565b90601f82116125cb575050565b61209e9160056000527f036b6384b5eca791c62761152d0c79bb0604c104a5fb6f4eb0703f3154bb3db0906020601f840160051c830193106125b457601f0160051c0190612546565b90601f8211612621575050565b61209e9160066000527ff652222313e28459528d920b65115c16c04f3efc82aaedc97be59f3f377c0d3f906020601f840160051c830193106125b457601f0160051c0190612546565b9190601f811161267957505050565b61209e926000526020600020906020601f840160051c830193106125b457601f0160051c0190612546565b919067ffffffffffffffff811161085b576126c9816126c4600554611d71565b6125be565b6000601f8211600114612727578190612717939460009261271c575b50507fffffffffffffffffffffffffffffffffffffffffffffffffffffffffffffffff8260011b9260031b1c19161790565b600555565b0135905038806126e5565b60056000527fffffffffffffffffffffffffffffffffffffffffffffffffffffffffffffffe08216937f036b6384b5eca791c62761152d0c79bb0604c104a5fb6f4eb0703f3154bb3db091805b8681106127ca5750836001959610612792575b505050811b01600555565b7fffffffffffffffffffffffffffffffffffffffffffffffffffffffffffffffff60f88560031b161c19910135169055388080612787565b90926020600181928686013581550194019101612774565b919067ffffffffffffffff811161085b5761280781612802600654611d71565b612614565b6000601f8211600114612859578190612854939460009261271c5750507fffffffffffffffffffffffffffffffffffffffffffffffffffffffffffffffff8260011b9260031b1c19161790565b600655565b60066000527fffffffffffffffffffffffffffffffffffffffffffffffffffffffffffffffe08216937ff652222313e28459528d920b65115c16c04f3efc82aaedc97be59f3f377c0d3f91805b8681106128fc57508360019596106128c4575b505050811b01600655565b7fffffffffffffffffffffffffffffffffffffffffffffffffffffffffffffffff60f88560031b161c199101351690553880806128b9565b909260206001819286860135815501940191016128a6565b90929167ffffffffffffffff811161085b5761293a816129348454611d71565b8461266a565b6000601f821160011461298c57819061298893949560009261271c5750507fffffffffffffffffffffffffffffffffffffffffffffffffffffffffffffffff8260011b9260031b1c19161790565b9055565b7fffffffffffffffffffffffffffffffffffffffffffffffffffffffffffffffe08216946129bf84600052602060002090565b91805b878110612a185750836001959697106129e0575b505050811b019055565b7fffffffffffffffffffffffffffffffffffffffffffffffffffffffffffffffff60f88560031b161c199101351690553880806129d6565b909260206001819286860135815501940191016129c2565b60ff1660ff811461167f5760010190565b91908110156107865760051b810135907fffffffffffffffffffffffffffffffffffffffffffffffffffffffffffffffe18136030182121561020e57019081359167ffffffffffffffff831161020e57602001823603811361020e579190565b600954906801000000000000000082101561085b5760018201806009558210156107865761209e9160096000527f6e1540171b6c0c960b71a7020d9f60077f6af931a8bbf590da0223dacf75c7af019073ffffffffffffffffffffffffffffffffffffffff167fffffffffffffffffffffffff0000000000000000000000000000000000000000825416179055565b600754906801000000000000000082101561085b5760018201806007558210156107865761209e9160076000527fa66cc928b5edb82af9bd49922954155ab7b0942694bea4ce44661d9a8736c688019073ffffffffffffffffffffffffffffffffffffffff167fffffffffffffffffffffffff0000000000000000000000000000000000000000825416179055565b80546801000000000000000081101561085b57600181018083558110156107865773ffffffffffffffffffffffffffffffffffffffff9160005260206000200191167fffffffffffffffffffffffff0000000000000000000000000000000000000000825416179055565b9995969799600b54612dda5767ffffffffffffffff821161085b57612c5982612c54600454611d71565b61255d565b600090601f8311600114612d105782612cbe97969593612cb99593612cb19360009261271c5750507fffffffffffffffffffffffffffffffffffffffffffffffffffffffffffffffff8260011b9260031b1c19161790565b6004556126a4565b6127e2565b60005b60ff811684811015612cef5790611579612ce561156e611567612cea958989612a41565b612b30565b612cc1565b50509361209e939250612d029150612aa1565b612d0b43600b55565b6132f3565b60046000527f8a35acfbc15ff81a39ae7d344fd709f28e8600b4aa8c65c6b64bfe7fe36bd19b917fffffffffffffffffffffffffffffffffffffffffffffffffffffffffffffffe08416815b818110612dc25750926001928592612cbe9a999896612cb9989610612d8a575b505050811b016004556126a4565b7fffffffffffffffffffffffffffffffffffffffffffffffffffffffffffffffff60f88560031b161c19910135169055388080612d7c565b91936020600181928787013581550195019201612d5c565b60046040517f5daa87a0000000000000000000000000000000000000000000000000000000008152fd5b9598929197939896909496612e1761326b565b600954612e2f612e26836130cf565b63ffffffff1690565b116130a55773ffffffffffffffffffffffffffffffffffffffff85161561251c57612e9a612f9a93612e8e61302898612e71612e6c600a546130e4565b600a55565b612e87600a546000526008602052604060002090565b9a8b612914565b60019a60018a01612914565b6003870180547fffffffffffffffffffffffffffffffffffffffffffffffff00000000ffffffff164360201b67ffffffff000000001617815590612f5990612f28612ee761067f42613111565b84547fffffffffffffffffffffffffffffffff0000000000000000ffffffffffffffff1660409190911b6fffffffffffffffff000000000000000016178455565b829063ffffffff167fffffffffffffffffffffffffffffffffffffffffffffffffffffffff00000000825416179055565b906fffffffffffffffffffffffffffffffff7fffffffffffffffffffffffffffffffff0000000000000000000000000000000083549260801b169116179055565b612fc1612fa56108a1565b73ffffffffffffffffffffffffffffffffffffffff9093168352565b6020820152612fdc600a54600052600c602052604060002090565b90602060019173ffffffffffffffffffffffffffffffffffffffff8151167fffffffffffffffffffffffff00000000000000000000000000000000000000008554161784550151910155565b81613047575b5050505061209e600a5461304061231f565b90336131ce565b600201928354613097575b6000835b613061575b5061302e565b60ff811690838210156130915761157961308561156e61156761308b958888612a41565b87612bbf565b83613056565b5061305b565b6130a08461312e565b613052565b60046040517fa9a25f67000000000000000000000000000000000000000000000000000000008152fd5b90600163ffffffff8093160191821161167f57565b7fffffffffffffffffffffffffffffffffffffffffffffffffffffffffffffffff811461167f5760010190565b9062015180820180921161167f57565b9190820180921161167f57565b8054600082558061313d575050565b61209e91600052602060002090810190612546565b9290604051927f23b872dd00000000000000000000000000000000000000000000000000000000602085015273ffffffffffffffffffffffffffffffffffffffff809216602485015216604483015260648201526064815260a081019181831067ffffffffffffffff84111761085b5761209e92604052613471565b91909173ffffffffffffffffffffffffffffffffffffffff811615611a935761209e926040519060018252602082015260408101916001835260016060830152608082016040526136eb565b9092919273ffffffffffffffffffffffffffffffffffffffff821615611a935761209e9361326560405192600184526020840152604083019160018352606084015260808301604052565b916136eb565b73ffffffffffffffffffffffffffffffffffffffff600054163303610e6e57565b6040517fa9059cbb00000000000000000000000000000000000000000000000000000000602082015273ffffffffffffffffffffffffffffffffffffffff92909216602483015260448083019390935291815261209e916132ee606483610860565b613471565b7fffffffffffffffffffffffff000000000000000000000000000000000000000090816001541660015560005473ffffffffffffffffffffffffffffffffffffffff8092168093821617600055167f8be0079c531659141344cd1fd0a4f28419497f9722a3daafe3b4186f6b6457e0600080a3565b6040519061339e60218360208101936000855261338e8151809260208686019101610430565b8101036001810185520183610860565b6133ef602b60405180936133df60208301967f600b5981380380925939f3000000000000000000000000000000000000000000885251809285850190610430565b810103600b810184520182610860565b51906000f09073ffffffffffffffffffffffffffffffffffffffff82161561341357565b60646040517f08c379a000000000000000000000000000000000000000000000000000000000815260206004820152601160248201527f4445504c4f594d454e545f4641494c45440000000000000000000000000000006044820152fd5b60008073ffffffffffffffffffffffffffffffffffffffff6134a893169360208151910182865af16134a1613b9d565b9083613f4b565b80519081151591826134ef575b50506134be5750565b602490604051907f5274afe70000000000000000000000000000000000000000000000000000000082526004820152fd5b819250906020918101031261020e576020015161350b81611243565b1538806134b5565b92919080518251908181036123e857505060005b8151811015613630578060051b6020808285010151918501015173ffffffffffffffffffffffffffffffffffffffff8716613567575b5050600101613527565b6135a48761357f846000526002602052604060002090565b9073ffffffffffffffffffffffffffffffffffffffff16600052602052604060002090565b548181106135d3578761357f60019594936135cb9303936000526002602052604060002090565b55903861355d565b6040517f03dee4c500000000000000000000000000000000000000000000000000000000815273ffffffffffffffffffffffffffffffffffffffff8916600482015260248101919091526044810182905260648101839052608490fd5b509060009293916001815114841461369f5760209081015191810151604080519384529183015273ffffffffffffffffffffffffffffffffffffffff929092169133917fc3d58168c5ae7397731d063d5bbf3d657854427343f4c083240f7aacaa2d0f6291819081015b0390a4565b909173ffffffffffffffffffffffffffffffffffffffff7f4a39dc06d4c0dbc64b70af90fd698a233a518aa5d07e595d983b8c0526c8f7fb9161369a6040519283921695339583613aca565b9080518351908181036123e857505060005b815181101561376e578060019160051b84602080838701015192880101519173ffffffffffffffffffffffffffffffffffffffff8216613741575b505050016136fd565b6137649161357f61375c926000526002602052604060002090565b918254613121565b9055388481613738565b508051919392916001036138295760208181015183820151604080519283529282015273ffffffffffffffffffffffffffffffffffffffff86169160009133917fc3d58168c5ae7397731d063d5bbf3d657854427343f4c083240f7aacaa2d0f6291a45b73ffffffffffffffffffffffffffffffffffffffff84166137f35750505050565b805160010361381a5790602080613811959301519101519133613ead565b38808080611df1565b6138249333613bcd565b613811565b604051600073ffffffffffffffffffffffffffffffffffffffff8616917f4a39dc06d4c0dbc64b70af90fd698a233a518aa5d07e595d983b8c0526c8f7fb339180613875888883613aca565b0390a46137d2565b9491909181518451908181036123e857505060005b82518110156139b0578060051b90602080838601015192870101518573ffffffffffffffffffffffffffffffffffffffff93848b16613904575b60019482166138df575b50505001613892565b6138fa9161357f61375c926000526002602052604060002090565b90553885816138d6565b91929390506139218a61357f846000526002602052604060002090565b54838110613953579187918460019695940361394b8d61357f856000526002602052604060002090565b5594506138cc565b6040517f03dee4c500000000000000000000000000000000000000000000000000000000815273ffffffffffffffffffffffffffffffffffffffff8c16600482015260248101919091526044810184905260648101839052608490fd5b509491939290936001855114600014613a745760208581015183820151604080519283529282015273ffffffffffffffffffffffffffffffffffffffff838116929086169133917fc3d58168c5ae7397731d063d5bbf3d657854427343f4c083240f7aacaa2d0f6291a45b73ffffffffffffffffffffffffffffffffffffffff8116613a3d575050505050565b8451600103613a6357602080613a599601519201519233613efb565b3880808080611fe2565b613a6f94919233613d52565b613a59565b73ffffffffffffffffffffffffffffffffffffffff604051818316918516907f4a39dc06d4c0dbc64b70af90fd698a233a518aa5d07e595d983b8c0526c8f7fb339180613ac2888c83613aca565b0390a4613a1b565b9091613ae16104a793604084526040840190610b8e565b916020818403910152610b8e565b9081602091031261020e57516104a781610316565b92613b416104a7959373ffffffffffffffffffffffffffffffffffffffff613b4f941686526000602087015260a0604087015260a0860190610b8e565b908482036060860152610b8e565b916080818403910152610453565b93906104a79593613b4191613b4f9473ffffffffffffffffffffffffffffffffffffffff809216885216602087015260a0604087015260a0860190610b8e565b3d15613bc8573d90613bae82610939565b91613bbc6040519384610860565b82523d6000602084013e565b606090565b9293919093843b613bdf575050505050565b602091613c1b60405194859384937fbc197c81000000000000000000000000000000000000000000000000000000009889865260048601613b04565b0381600073ffffffffffffffffffffffffffffffffffffffff88165af160009181613d21575b50613ca65782613c4f613b9d565b8051919082613c9f576040517f57f447ce00000000000000000000000000000000000000000000000000000000815273ffffffffffffffffffffffffffffffffffffffff83166004820152602490fd5b9050602001fd5b7fffffffff000000000000000000000000000000000000000000000000000000001603613cd857503880808080611fe2565b6040517f57f447ce00000000000000000000000000000000000000000000000000000000815273ffffffffffffffffffffffffffffffffffffffff919091166004820152602490fd5b613d4491925060203d602011613d4b575b613d3c8183610860565b810190613aef565b9038613c41565b503d613d32565b939290949194853b613d67575b505050505050565b613da360209360405195869485947fbc197c8100000000000000000000000000000000000000000000000000000000998a875260048701613b5d565b0381600073ffffffffffffffffffffffffffffffffffffffff88165af160009181613e0a575b50613dd75782613c4f613b9d565b7fffffffff000000000000000000000000000000000000000000000000000000001603613cd85750388080808080613d5f565b613e2491925060203d602011613d4b57613d3c8183610860565b9038613dc9565b909260a09273ffffffffffffffffffffffffffffffffffffffff6104a7969516835260006020840152604083015260608201528160808201520190610453565b91926104a795949160a09473ffffffffffffffffffffffffffffffffffffffff8092168552166020840152604083015260608201528160808201520190610453565b9293919093843b613ebf575050505050565b602091613c1b60405194859384937ff23a6e61000000000000000000000000000000000000000000000000000000009889865260048601613e2b565b939290949194853b613f0f57505050505050565b613da360209360405195869485947ff23a6e6100000000000000000000000000000000000000000000000000000000998a875260048701613e6b565b90613f8a5750805115613f6057805190602001fd5b60046040517f1425ea42000000000000000000000000000000000000000000000000000000008152fd5b81511580613fe2575b613f9b575090565b60249073ffffffffffffffffffffffffffffffffffffffff604051917f9996b315000000000000000000000000000000000000000000000000000000008352166004820152fd5b50803b15613f9356fea26469706673582212208bf8ffde9e01f59d30b401899e866c16f8ad6b92966143810f01b79199dced4d64736f6c63430008180033a26469706673582212202885cc3fb2dac54d6a9f31c5310fcbdd8d26cedd50210839868c22c3ba4f8d0364736f6c63430008180033",
  "linkReferences": {
    "contracts/libraries/ContractMetadata.sol": {
      "ContractMetadata": [
        {
          "length": 20,
          "start": 8378
        }
      ]
    }
  },
  "deployedLinkReferences": {
    "contracts/libraries/ContractMetadata.sol": {
      "ContractMetadata": [
        {
          "length": 20,
          "start": 8244
        }
      ]
    }
  }
}