{
  "_format": "hh-sol-artifact-1",
  "contractName": "Renderer",
  "sourceName": "contracts/renderers/Renderer.sol",
  "abi": [
    {
      "inputs": [],
      "name": "name",
      "outputs": [
        {
          "internalType": "string",
          "name": "",
          "type": "string"
        }
      ],
      "stateMutability": "pure",
      "type": "function"
    },
    {
      "inputs": [
        {
          "internalType": "uint256",
          "name": "tokenId",
          "type": "uint256"
        },
        {
          "components": [
            {
              "internalType": "string",
              "name": "name",
              "type": "string"
            },
            {
              "internalType": "string",
              "name": "description",
              "type": "string"
            },
            {
              "internalType": "address[]",
              "name": "artifact",
              "type": "address[]"
            },
            {
              "internalType": "uint32",
              "name": "renderer",
              "type": "uint32"
            },
            {
              "internalType": "uint64",
              "name": "mintedAt",
              "type": "uint64"
            },
            {
              "internalType": "uint160",
              "name": "data",
              "type": "uint160"
            }
          ],
          "internalType": "struct Token",
          "name": "token",
          "type": "tuple"
        },
        {
          "internalType": "bytes",
          "name": "artifact",
          "type": "bytes"
        }
      ],
      "name": "uri",
      "outputs": [
        {
          "internalType": "string",
          "name": "",
          "type": "string"
        }
      ],
      "stateMutability": "pure",
      "type": "function"
    },
    {
      "inputs": [],
      "name": "version",
      "outputs": [
        {
          "internalType": "uint256",
          "name": "",
          "type": "uint256"
        }
      ],
      "stateMutability": "pure",
      "type": "function"
    }
  ],
  "bytecode": "0x608060405234801561001057600080fd5b50610932806100206000396000f3fe608060405234801561001057600080fd5b50600436106100415760003560e01c806306fdde0314610046578063236bd5021461009157806354fd4d50146100a4575b600080fd5b60408051808201909152600d81527f426173652052656e64657265720000000000000000000000000000000000000060208201525b6040516100889190610455565b60405180910390f35b61007b61009f3660046104d5565b6100b3565b60405160018152602001610088565b606060006100c085610130565b6100ca85806105da565b6100d760208801886105da565b876040516020016100ed96959493929190610646565b6040516020818303038152906040529050610107816101ee565b60405160200161011791906107e3565b6040516020818303038152906040529150509392505050565b6060600061013d8361034e565b600101905060008167ffffffffffffffff81111561015d5761015d6104a6565b6040519080825280601f01601f191660200182016040528015610187576020820181803683370190505b5090508181016020015b7fffffffffffffffffffffffffffffffffffffffffffffffffffffffffffffffff017f3031323334353637383961626364656600000000000000000000000000000000600a86061a8153600a850494508461019157509392505050565b6060815160000361020d57505060408051602081019091526000815290565b60006040518060600160405280604081526020016108bd604091399050600060038451600261023c9190610857565b610246919061086a565b6102519060046108a5565b67ffffffffffffffff811115610269576102696104a6565b6040519080825280601f01601f191660200182016040528015610293576020820181803683370190505b50905060018201602082018586518701602081018051600082525b82841015610309576003840193508351603f8160121c168701518653600186019550603f81600c1c168701518653600186019550603f8160061c168701518653600186019550603f81168701518653506001850194506102ae565b9052505085516003900660018114610328576002811461033b57610343565b603d6001830353603d6002830353610343565b603d60018303535b509195945050505050565b6000807a184f03e93ff9f4daa797ed6e38ed64bf6a1f0100000000000000008310610397577a184f03e93ff9f4daa797ed6e38ed64bf6a1f010000000000000000830492506040015b6d04ee2d6d415b85acef810000000083106103c3576d04ee2d6d415b85acef8100000000830492506020015b662386f26fc1000083106103e157662386f26fc10000830492506010015b6305f5e10083106103f9576305f5e100830492506008015b612710831061040d57612710830492506004015b6064831061041f576064830492506002015b600a831061042b576001015b92915050565b60005b8381101561044c578181015183820152602001610434565b50506000910152565b6020815260008251806020840152610474816040850160208701610431565b601f017fffffffffffffffffffffffffffffffffffffffffffffffffffffffffffffffe0169190910160400192915050565b7f4e487b7100000000000000000000000000000000000000000000000000000000600052604160045260246000fd5b6000806000606084860312156104ea57600080fd5b83359250602084013567ffffffffffffffff8082111561050957600080fd5b9085019060c0828803121561051d57600080fd5b9092506040850135908082111561053357600080fd5b818601915086601f83011261054757600080fd5b813581811115610559576105596104a6565b604051601f82017fffffffffffffffffffffffffffffffffffffffffffffffffffffffffffffffe0908116603f0116810190838211818310171561059f5761059f6104a6565b816040528281528960208487010111156105b857600080fd5b8260208601602083013760006020848301015280955050505050509250925092565b60008083357fffffffffffffffffffffffffffffffffffffffffffffffffffffffffffffffe184360301811261060f57600080fd5b83018035915067ffffffffffffffff82111561062a57600080fd5b60200191503681900382131561063f57600080fd5b9250929050565b7f7b0000000000000000000000000000000000000000000000000000000000000081527f226964223a2022000000000000000000000000000000000000000000000000006001820152600087516106a4816008850160208c01610431565b80830190507f222c0000000000000000000000000000000000000000000000000000000000008060088301527f226e616d65223a20220000000000000000000000000000000000000000000000600a8301528789601384013787820191508060138301527f226465736372697074696f6e223a2022000000000000000000000000000000006015830152858760258401376025918601918201527f22696d616765223a20220000000000000000000000000000000000000000000060278201528351610777816031840160208801610431565b6107d56107ac6031838501017f2200000000000000000000000000000000000000000000000000000000000000815260010190565b7f7d00000000000000000000000000000000000000000000000000000000000000815260010190565b9a9950505050505050505050565b7f646174613a6170706c69636174696f6e2f6a736f6e3b6261736536342c00000081526000825161081b81601d850160208701610431565b91909101601d0192915050565b7f4e487b7100000000000000000000000000000000000000000000000000000000600052601160045260246000fd5b8082018082111561042b5761042b610828565b6000826108a0577f4e487b7100000000000000000000000000000000000000000000000000000000600052601260045260246000fd5b500490565b808202811582820484141761042b5761042b61082856fe4142434445464748494a4b4c4d4e4f505152535455565758595a6162636465666768696a6b6c6d6e6f707172737475767778797a303132333435363738392b2fa26469706673582212205a5e90b4f0436fbbacb866125b7c33109b3cb640dfb184791beca01e28f2520364736f6c63430008180033",
  "linkReferences": {},
  "deployedLinkReferences": {}
}