{
  "_format": "hh-sol-artifact-1",
  "contractName": "Mint",
  "sourceName": "contracts/Mint.sol",
  "abi": [
    {
      "inputs": [
        {
          "internalType": "address",
          "name": "sender",
          "type": "address"
        },
        {
          "internalType": "uint256",
          "name": "balance",
          "type": "uint256"
        },
        {
          "internalType": "uint256",
          "name": "needed",
          "type": "uint256"
        },
        {
          "internalType": "uint256",
          "name": "tokenId",
          "type": "uint256"
        }
      ],
      "name": "ERC1155InsufficientBalance",
      "type": "error"
    },
    {
      "inputs": [
        {
          "internalType": "address",
          "name": "approver",
          "type": "address"
        }
      ],
      "name": "ERC1155InvalidApprover",
      "type": "error"
    },
    {
      "inputs": [
        {
          "internalType": "uint256",
          "name": "idsLength",
          "type": "uint256"
        },
        {
          "internalType": "uint256",
          "name": "valuesLength",
          "type": "uint256"
        }
      ],
      "name": "ERC1155InvalidArrayLength",
      "type": "error"
    },
    {
      "inputs": [
        {
          "internalType": "address",
          "name": "operator",
          "type": "address"
        }
      ],
      "name": "ERC1155InvalidOperator",
      "type": "error"
    },
    {
      "inputs": [
        {
          "internalType": "address",
          "name": "receiver",
          "type": "address"
        }
      ],
      "name": "ERC1155InvalidReceiver",
      "type": "error"
    },
    {
      "inputs": [
        {
          "internalType": "address",
          "name": "sender",
          "type": "address"
        }
      ],
      "name": "ERC1155InvalidSender",
      "type": "error"
    },
    {
      "inputs": [
        {
          "internalType": "address",
          "name": "operator",
          "type": "address"
        },
        {
          "internalType": "address",
          "name": "owner",
          "type": "address"
        }
      ],
      "name": "ERC1155MissingApprovalForAll",
      "type": "error"
    },
    {
      "inputs": [],
      "name": "Initialized",
      "type": "error"
    },
    {
      "inputs": [],
      "name": "MintClosed",
      "type": "error"
    },
    {
      "inputs": [],
      "name": "MintPriceNotMet",
      "type": "error"
    },
    {
      "inputs": [],
      "name": "NonExistentRenderer",
      "type": "error"
    },
    {
      "inputs": [],
      "name": "NonExistentToken",
      "type": "error"
    },
    {
      "inputs": [
        {
          "internalType": "address",
          "name": "owner",
          "type": "address"
        }
      ],
      "name": "OwnableInvalidOwner",
      "type": "error"
    },
    {
      "inputs": [
        {
          "internalType": "address",
          "name": "account",
          "type": "address"
        }
      ],
      "name": "OwnableUnauthorizedAccount",
      "type": "error"
    },
    {
      "inputs": [],
      "name": "TokenAlreadyMinted",
      "type": "error"
    },
    {
      "anonymous": false,
      "inputs": [
        {
          "indexed": true,
          "internalType": "address",
          "name": "account",
          "type": "address"
        },
        {
          "indexed": true,
          "internalType": "address",
          "name": "operator",
          "type": "address"
        },
        {
          "indexed": false,
          "internalType": "bool",
          "name": "approved",
          "type": "bool"
        }
      ],
      "name": "ApprovalForAll",
      "type": "event"
    },
    {
      "anonymous": false,
      "inputs": [
        {
          "indexed": true,
          "internalType": "uint256",
          "name": "tokenId",
          "type": "uint256"
        },
        {
          "indexed": false,
          "internalType": "uint256",
          "name": "unitPrice",
          "type": "uint256"
        },
        {
          "indexed": false,
          "internalType": "uint256",
          "name": "amount",
          "type": "uint256"
        },
        {
          "indexed": false,
          "internalType": "address",
          "name": "minter",
          "type": "address"
        }
      ],
      "name": "NewMint",
      "type": "event"
    },
    {
      "anonymous": false,
      "inputs": [
        {
          "indexed": true,
          "internalType": "address",
          "name": "renderer",
          "type": "address"
        },
        {
          "indexed": true,
          "internalType": "uint256",
          "name": "index",
          "type": "uint256"
        }
      ],
      "name": "NewRenderer",
      "type": "event"
    },
    {
      "anonymous": false,
      "inputs": [
        {
          "indexed": true,
          "internalType": "address",
          "name": "previousOwner",
          "type": "address"
        },
        {
          "indexed": true,
          "internalType": "address",
          "name": "newOwner",
          "type": "address"
        }
      ],
      "name": "OwnershipTransferStarted",
      "type": "event"
    },
    {
      "anonymous": false,
      "inputs": [
        {
          "indexed": true,
          "internalType": "address",
          "name": "previousOwner",
          "type": "address"
        },
        {
          "indexed": true,
          "internalType": "address",
          "name": "newOwner",
          "type": "address"
        }
      ],
      "name": "OwnershipTransferred",
      "type": "event"
    },
    {
      "anonymous": false,
      "inputs": [
        {
          "indexed": true,
          "internalType": "address",
          "name": "operator",
          "type": "address"
        },
        {
          "indexed": true,
          "internalType": "address",
          "name": "from",
          "type": "address"
        },
        {
          "indexed": true,
          "internalType": "address",
          "name": "to",
          "type": "address"
        },
        {
          "indexed": false,
          "internalType": "uint256[]",
          "name": "ids",
          "type": "uint256[]"
        },
        {
          "indexed": false,
          "internalType": "uint256[]",
          "name": "values",
          "type": "uint256[]"
        }
      ],
      "name": "TransferBatch",
      "type": "event"
    },
    {
      "anonymous": false,
      "inputs": [
        {
          "indexed": true,
          "internalType": "address",
          "name": "operator",
          "type": "address"
        },
        {
          "indexed": true,
          "internalType": "address",
          "name": "from",
          "type": "address"
        },
        {
          "indexed": true,
          "internalType": "address",
          "name": "to",
          "type": "address"
        },
        {
          "indexed": false,
          "internalType": "uint256",
          "name": "id",
          "type": "uint256"
        },
        {
          "indexed": false,
          "internalType": "uint256",
          "name": "value",
          "type": "uint256"
        }
      ],
      "name": "TransferSingle",
      "type": "event"
    },
    {
      "anonymous": false,
      "inputs": [
        {
          "indexed": false,
          "internalType": "string",
          "name": "value",
          "type": "string"
        },
        {
          "indexed": true,
          "internalType": "uint256",
          "name": "id",
          "type": "uint256"
        }
      ],
      "name": "URI",
      "type": "event"
    },
    {
      "anonymous": false,
      "inputs": [
        {
          "indexed": false,
          "internalType": "uint256",
          "name": "amount",
          "type": "uint256"
        }
      ],
      "name": "Withdrawal",
      "type": "event"
    },
    {
      "inputs": [],
      "name": "acceptOwnership",
      "outputs": [],
      "stateMutability": "nonpayable",
      "type": "function"
    },
    {
      "inputs": [
        {
          "internalType": "uint256",
          "name": "tokenId",
          "type": "uint256"
        }
      ],
      "name": "artifact",
      "outputs": [
        {
          "internalType": "bytes",
          "name": "content",
          "type": "bytes"
        }
      ],
      "stateMutability": "view",
      "type": "function"
    },
    {
      "inputs": [
        {
          "internalType": "address",
          "name": "account",
          "type": "address"
        },
        {
          "internalType": "uint256",
          "name": "id",
          "type": "uint256"
        }
      ],
      "name": "balanceOf",
      "outputs": [
        {
          "internalType": "uint256",
          "name": "",
          "type": "uint256"
        }
      ],
      "stateMutability": "view",
      "type": "function"
    },
    {
      "inputs": [
        {
          "internalType": "address[]",
          "name": "accounts",
          "type": "address[]"
        },
        {
          "internalType": "uint256[]",
          "name": "ids",
          "type": "uint256[]"
        }
      ],
      "name": "balanceOfBatch",
      "outputs": [
        {
          "internalType": "uint256[]",
          "name": "",
          "type": "uint256[]"
        }
      ],
      "stateMutability": "view",
      "type": "function"
    },
    {
      "inputs": [
        {
          "internalType": "address",
          "name": "account",
          "type": "address"
        },
        {
          "internalType": "uint256",
          "name": "tokenId",
          "type": "uint256"
        },
        {
          "internalType": "uint256",
          "name": "amount",
          "type": "uint256"
        }
      ],
      "name": "burn",
      "outputs": [],
      "stateMutability": "nonpayable",
      "type": "function"
    },
    {
      "inputs": [],
      "name": "contractURI",
      "outputs": [
        {
          "internalType": "string",
          "name": "",
          "type": "string"
        }
      ],
      "stateMutability": "view",
      "type": "function"
    },
    {
      "inputs": [
        {
          "internalType": "string",
          "name": "tokenName",
          "type": "string"
        },
        {
          "internalType": "string",
          "name": "tokenDescription",
          "type": "string"
        },
        {
          "internalType": "bytes[]",
          "name": "tokenArtifact",
          "type": "bytes[]"
        },
        {
          "internalType": "uint32",
          "name": "tokenRenderer",
          "type": "uint32"
        },
        {
          "internalType": "uint192",
          "name": "tokenData",
          "type": "uint192"
        }
      ],
      "name": "create",
      "outputs": [],
      "stateMutability": "nonpayable",
      "type": "function"
    },
    {
      "inputs": [
        {
          "internalType": "string",
          "name": "contractName",
          "type": "string"
        },
        {
          "internalType": "string",
          "name": "contractSymbol",
          "type": "string"
        },
        {
          "internalType": "string",
          "name": "contractDescription",
          "type": "string"
        },
        {
          "internalType": "bytes[]",
          "name": "contractImage",
          "type": "bytes[]"
        },
        {
          "internalType": "address",
          "name": "renderer",
          "type": "address"
        },
        {
          "internalType": "address",
          "name": "owner",
          "type": "address"
        }
      ],
      "name": "init",
      "outputs": [],
      "stateMutability": "nonpayable",
      "type": "function"
    },
    {
      "inputs": [],
      "name": "initBlock",
      "outputs": [
        {
          "internalType": "uint256",
          "name": "",
          "type": "uint256"
        }
      ],
      "stateMutability": "view",
      "type": "function"
    },
    {
      "inputs": [
        {
          "internalType": "address",
          "name": "account",
          "type": "address"
        },
        {
          "internalType": "address",
          "name": "operator",
          "type": "address"
        }
      ],
      "name": "isApprovedForAll",
      "outputs": [
        {
          "internalType": "bool",
          "name": "",
          "type": "bool"
        }
      ],
      "stateMutability": "view",
      "type": "function"
    },
    {
      "inputs": [],
      "name": "latestTokenId",
      "outputs": [
        {
          "internalType": "uint256",
          "name": "",
          "type": "uint256"
        }
      ],
      "stateMutability": "view",
      "type": "function"
    },
    {
      "inputs": [],
      "name": "metadata",
      "outputs": [
        {
          "internalType": "string",
          "name": "name",
          "type": "string"
        },
        {
          "internalType": "string",
          "name": "symbol",
          "type": "string"
        },
        {
          "internalType": "string",
          "name": "description",
          "type": "string"
        }
      ],
      "stateMutability": "view",
      "type": "function"
    },
    {
      "inputs": [
        {
          "internalType": "uint256",
          "name": "tokenId",
          "type": "uint256"
        },
        {
          "internalType": "uint256",
          "name": "amount",
          "type": "uint256"
        }
      ],
      "name": "mint",
      "outputs": [],
      "stateMutability": "payable",
      "type": "function"
    },
    {
      "inputs": [
        {
          "internalType": "uint256",
          "name": "tokenId",
          "type": "uint256"
        }
      ],
      "name": "mintOpenUntil",
      "outputs": [
        {
          "internalType": "uint256",
          "name": "",
          "type": "uint256"
        }
      ],
      "stateMutability": "view",
      "type": "function"
    },
    {
      "inputs": [],
      "name": "owner",
      "outputs": [
        {
          "internalType": "address",
          "name": "",
          "type": "address"
        }
      ],
      "stateMutability": "view",
      "type": "function"
    },
    {
      "inputs": [],
      "name": "pendingOwner",
      "outputs": [
        {
          "internalType": "address",
          "name": "",
          "type": "address"
        }
      ],
      "stateMutability": "view",
      "type": "function"
    },
    {
      "inputs": [
        {
          "internalType": "uint256",
          "name": "tokenId",
          "type": "uint256"
        },
        {
          "internalType": "bytes[]",
          "name": "tokenArtifact",
          "type": "bytes[]"
        },
        {
          "internalType": "bool",
          "name": "clear",
          "type": "bool"
        }
      ],
      "name": "prepareArtifact",
      "outputs": [],
      "stateMutability": "nonpayable",
      "type": "function"
    },
    {
      "inputs": [
        {
          "internalType": "address",
          "name": "renderer",
          "type": "address"
        }
      ],
      "name": "registerRenderer",
      "outputs": [
        {
          "internalType": "uint256",
          "name": "",
          "type": "uint256"
        }
      ],
      "stateMutability": "nonpayable",
      "type": "function"
    },
    {
      "inputs": [
        {
          "internalType": "uint256",
          "name": "",
          "type": "uint256"
        }
      ],
      "name": "renderers",
      "outputs": [
        {
          "internalType": "address",
          "name": "",
          "type": "address"
        }
      ],
      "stateMutability": "view",
      "type": "function"
    },
    {
      "inputs": [],
      "name": "renounceOwnership",
      "outputs": [],
      "stateMutability": "nonpayable",
      "type": "function"
    },
    {
      "inputs": [
        {
          "internalType": "address",
          "name": "from",
          "type": "address"
        },
        {
          "internalType": "address",
          "name": "to",
          "type": "address"
        },
        {
          "internalType": "uint256[]",
          "name": "ids",
          "type": "uint256[]"
        },
        {
          "internalType": "uint256[]",
          "name": "values",
          "type": "uint256[]"
        },
        {
          "internalType": "bytes",
          "name": "data",
          "type": "bytes"
        }
      ],
      "name": "safeBatchTransferFrom",
      "outputs": [],
      "stateMutability": "nonpayable",
      "type": "function"
    },
    {
      "inputs": [
        {
          "internalType": "address",
          "name": "from",
          "type": "address"
        },
        {
          "internalType": "address",
          "name": "to",
          "type": "address"
        },
        {
          "internalType": "uint256",
          "name": "id",
          "type": "uint256"
        },
        {
          "internalType": "uint256",
          "name": "value",
          "type": "uint256"
        },
        {
          "internalType": "bytes",
          "name": "data",
          "type": "bytes"
        }
      ],
      "name": "safeTransferFrom",
      "outputs": [],
      "stateMutability": "nonpayable",
      "type": "function"
    },
    {
      "inputs": [
        {
          "internalType": "address",
          "name": "operator",
          "type": "address"
        },
        {
          "internalType": "bool",
          "name": "approved",
          "type": "bool"
        }
      ],
      "name": "setApprovalForAll",
      "outputs": [],
      "stateMutability": "nonpayable",
      "type": "function"
    },
    {
      "inputs": [
        {
          "internalType": "bytes4",
          "name": "interfaceId",
          "type": "bytes4"
        }
      ],
      "name": "supportsInterface",
      "outputs": [
        {
          "internalType": "bool",
          "name": "",
          "type": "bool"
        }
      ],
      "stateMutability": "view",
      "type": "function"
    },
    {
      "inputs": [
        {
          "internalType": "uint256",
          "name": "",
          "type": "uint256"
        }
      ],
      "name": "tokens",
      "outputs": [
        {
          "internalType": "string",
          "name": "name",
          "type": "string"
        },
        {
          "internalType": "string",
          "name": "description",
          "type": "string"
        },
        {
          "internalType": "uint32",
          "name": "renderer",
          "type": "uint32"
        },
        {
          "internalType": "uint32",
          "name": "blocks",
          "type": "uint32"
        },
        {
          "internalType": "uint192",
          "name": "data",
          "type": "uint192"
        }
      ],
      "stateMutability": "view",
      "type": "function"
    },
    {
      "inputs": [
        {
          "internalType": "address",
          "name": "newOwner",
          "type": "address"
        }
      ],
      "name": "transferOwnership",
      "outputs": [],
      "stateMutability": "nonpayable",
      "type": "function"
    },
    {
      "inputs": [
        {
          "internalType": "uint256",
          "name": "tokenId",
          "type": "uint256"
        }
      ],
      "name": "uri",
      "outputs": [
        {
          "internalType": "string",
          "name": "",
          "type": "string"
        }
      ],
      "stateMutability": "view",
      "type": "function"
    },
    {
      "inputs": [],
      "name": "version",
      "outputs": [
        {
          "internalType": "uint256",
          "name": "",
          "type": "uint256"
        }
      ],
      "stateMutability": "view",
      "type": "function"
    },
    {
      "inputs": [],
      "name": "withdraw",
      "outputs": [],
      "stateMutability": "nonpayable",
      "type": "function"
    }
  ],
  "bytecode": "0x60806040523480156200001157600080fd5b5033806200003957604051631e4fbdf760e01b81526000600482015260240160405180910390fd5b62000044816200004b565b50620000b9565b600180546001600160a01b0319169055620000668162000069565b50565b600080546001600160a01b038381166001600160a01b0319831681178455604051919092169283917f8be0079c531659141344cd1fd0a4f28419497f9722a3daafe3b4186f6b6457e09190a35050565b613a5d80620000c96000396000f3fe6080604052600436106101c15760003560e01c806379ba5097116100f7578063b6cb8dfe11610095578063e985e9c511610064578063e985e9c51461051d578063f242432a14610573578063f2fde38b14610593578063f5298aca146105b357600080fd5b8063b6cb8dfe1461049d578063c4a0d465146104bd578063e30c3978146104dd578063e8a3d4851461050857600080fd5b80638da5cb5b116100d15780638da5cb5b14610412578063a22cb4651461043d578063a7da716d1461045d578063b56443411461047d57600080fd5b806379ba5097146103c757806384252fb7146103dc5780638c0e8349146103fc57600080fd5b8063392f37e9116101645780634f64b2be1161013e5780634f64b2be1461035657806354fd4d50146103875780635d05125b1461039c578063715018a6146103b257600080fd5b8063392f37e9146102f05780633ccfd60b146103145780634e1273f41461032957600080fd5b80631379ac1a116101a05780631379ac1a146102565780631b2ef1ca146102765780631ffbee641461028b5780632eb2c2d6146102d057600080fd5b8062fdd58e146101c657806301ffc9a7146101f95780630e89341c14610229575b600080fd5b3480156101d257600080fd5b506101e66101e136600461294d565b6105d3565b6040519081526020015b60405180910390f35b34801561020557600080fd5b506102196102143660046129a5565b61060a565b60405190151581526020016101f0565b34801561023557600080fd5b506102496102443660046129c2565b6106ed565b6040516101f09190612a49565b34801561026257600080fd5b506102496102713660046129c2565b6109fb565b610289610284366004612a5c565b610c78565b005b34801561029757600080fd5b506102ab6102a63660046129c2565b610db1565b60405173ffffffffffffffffffffffffffffffffffffffff90911681526020016101f0565b3480156102dc57600080fd5b506102896102eb366004612c26565b610de8565b3480156102fc57600080fd5b50610305610eb3565b6040516101f093929190612cd0565b34801561032057600080fd5b50610289611061565b34801561033557600080fd5b50610349610344366004612d13565b6110e6565b6040516101f09190612e0f565b34801561036257600080fd5b506103766103713660046129c2565b6111cc565b6040516101f0959493929190612e22565b34801561039357600080fd5b506101e6600181565b3480156103a857600080fd5b506101e6600b5481565b3480156103be57600080fd5b5061028961133a565b3480156103d357600080fd5b5061028961134e565b3480156103e857600080fd5b506102896103f7366004612f16565b6113c5565b34801561040857600080fd5b506101e6600a5481565b34801561041e57600080fd5b5060005473ffffffffffffffffffffffffffffffffffffffff166102ab565b34801561044957600080fd5b5061028961045836600461300b565b611590565b34801561046957600080fd5b5061028961047836600461303e565b61159f565b34801561048957600080fd5b506101e66104983660046129c2565b61176c565b3480156104a957600080fd5b506102896104b8366004613124565b6117a8565b3480156104c957600080fd5b506101e66104d8366004613182565b6118ae565b3480156104e957600080fd5b5060015473ffffffffffffffffffffffffffffffffffffffff166102ab565b34801561051457600080fd5b50610249611985565b34801561052957600080fd5b5061021961053836600461319d565b73ffffffffffffffffffffffffffffffffffffffff918216600090815260036020908152604080832093909416825291909152205460ff1690565b34801561057f57600080fd5b5061028961058e3660046131c7565b611a40565b34801561059f57600080fd5b506102896105ae366004613182565b611afe565b3480156105bf57600080fd5b506102896105ce36600461322c565b611bae565b600081815260026020908152604080832073ffffffffffffffffffffffffffffffffffffffff861684529091529020545b92915050565b60007fffffffff0000000000000000000000000000000000000000000000000000000082167fd9b67a2600000000000000000000000000000000000000000000000000000000148061069d57507fffffffff0000000000000000000000000000000000000000000000000000000082167f0e89341c00000000000000000000000000000000000000000000000000000000145b8061060457507f01ffc9a7000000000000000000000000000000000000000000000000000000007fffffffff00000000000000000000000000000000000000000000000000000000831614610604565b6060600a5482111561072b576040517f9430a17e00000000000000000000000000000000000000000000000000000000815260040160405180910390fd5b600082815260086020526040808220815160c081019092528054829082906107529061325f565b80601f016020809104026020016040519081016040528092919081815260200182805461077e9061325f565b80156107cb5780601f106107a0576101008083540402835291602001916107cb565b820191906000526020600020905b8154815290600101906020018083116107ae57829003601f168201915b505050505081526020016001820180546107e49061325f565b80601f01602080910402602001604051908101604052809291908181526020018280546108109061325f565b801561085d5780601f106108325761010080835404028352916020019161085d565b820191906000526020600020905b81548152906001019060200180831161084057829003601f168201915b50505050508152602001600282018054806020026020016040519081016040528092919081815260200182805480156108cc57602002820191906000526020600020905b815473ffffffffffffffffffffffffffffffffffffffff1681526001909101906020018083116108a1575b50505091835250506003919091015463ffffffff80821660208401526401000000008204811660408401526801000000000000000090910477ffffffffffffffffffffffffffffffffffffffffffffffff166060928301529082015160098054939450929116908110610941576109416132b2565b60009182526020909120015473ffffffffffffffffffffffffffffffffffffffff1663ff7878468483610973826109fb565b6040518463ffffffff1660e01b8152600401610991939291906132e1565b600060405180830381865afa1580156109ae573d6000803e3d6000fd5b505050506040513d6000823e601f3d9081017fffffffffffffffffffffffffffffffffffffffffffffffffffffffffffffffe01682016040526109f491908101906133fd565b9392505050565b60606000600860008481526020019081526020016000206040518060c0016040529081600082018054610a2d9061325f565b80601f0160208091040260200160405190810160405280929190818152602001828054610a599061325f565b8015610aa65780601f10610a7b57610100808354040283529160200191610aa6565b820191906000526020600020905b815481529060010190602001808311610a8957829003601f168201915b50505050508152602001600182018054610abf9061325f565b80601f0160208091040260200160405190810160405280929190818152602001828054610aeb9061325f565b8015610b385780601f10610b0d57610100808354040283529160200191610b38565b820191906000526020600020905b815481529060010190602001808311610b1b57829003601f168201915b5050505050815260200160028201805480602002602001604051908101604052809291908181526020018280548015610ba757602002820191906000526020600020905b815473ffffffffffffffffffffffffffffffffffffffff168152600190910190602001808311610b7c575b50505091835250506003919091015463ffffffff8082166020840152640100000000820416604083015268010000000000000000900477ffffffffffffffffffffffffffffffffffffffffffffffff16606090910152905060005b8160400151518160ff161015610c715782610c3c83604001518360ff1681518110610c2f57610c2f6132b2565b6020026020010151611c6a565b604051602001610c4d929190613474565b60405160208183030381529060405292508080610c69906134d2565b915050610c02565b5050919050565b600a54821115610cb4576040517f9430a17e00000000000000000000000000000000000000000000000000000000815260040160405180910390fd5b6000610cc24861ea606134f1565b90506000610cd083836134f1565b905034811115610d0c576040517ff31a165400000000000000000000000000000000000000000000000000000000815260040160405180910390fd5b43610d168561176c565b1015610d4e576040517f589ed34b00000000000000000000000000000000000000000000000000000000815260040160405180910390fd5b610d6933858560405180602001604052806000815250611c98565b60408051838152602081018590523381830152905185917f160ecdf0b6c0a56992b4f6fad717f85f3b0bba236ec571bf26ca5cf4fe61101e919081900360600190a250505050565b60098181548110610dc157600080fd5b60009182526020909120015473ffffffffffffffffffffffffffffffffffffffff16905081565b3373ffffffffffffffffffffffffffffffffffffffff86168114801590610e42575073ffffffffffffffffffffffffffffffffffffffff80871660009081526003602090815260408083209385168352929052205460ff16155b15610e9e576040517fe237d92200000000000000000000000000000000000000000000000000000000815273ffffffffffffffffffffffffffffffffffffffff8083166004830152871660248201526044015b60405180910390fd5b610eab8686868686611d1b565b505050505050565b600480548190610ec29061325f565b80601f0160208091040260200160405190810160405280929190818152602001828054610eee9061325f565b8015610f3b5780601f10610f1057610100808354040283529160200191610f3b565b820191906000526020600020905b815481529060010190602001808311610f1e57829003601f168201915b505050505090806001018054610f509061325f565b80601f0160208091040260200160405190810160405280929190818152602001828054610f7c9061325f565b8015610fc95780601f10610f9e57610100808354040283529160200191610fc9565b820191906000526020600020905b815481529060010190602001808311610fac57829003601f168201915b505050505090806002018054610fde9061325f565b80601f016020809104026020016040519081016040528092919081815260200182805461100a9061325f565b80156110575780601f1061102c57610100808354040283529160200191611057565b820191906000526020600020905b81548152906001019060200180831161103a57829003601f168201915b5050505050905083565b611069611dcf565b6000805460405173ffffffffffffffffffffffffffffffffffffffff909116914780156108fc02929091818181858888f193505050501580156110b0573d6000803e3d6000fd5b506040514781527f4e70a604b23a8edee2b1d0a656e9b9c00b73ad8bb1afc2c59381ee9f69197de79060200160405180910390a1565b6060815183511461113057815183516040517f5b05999100000000000000000000000000000000000000000000000000000000815260048101929092526024820152604401610e95565b6000835167ffffffffffffffff81111561114c5761114c612a7e565b604051908082528060200260200182016040528015611175578160200160208202803683370190505b50905060005b84518110156111c45760208082028601015161119f906020808402870101516105d3565b8282815181106111b1576111b16132b2565b602090810291909101015260010161117b565b509392505050565b6008602052600090815260409020805481906111e79061325f565b80601f01602080910402602001604051908101604052809291908181526020018280546112139061325f565b80156112605780601f1061123557610100808354040283529160200191611260565b820191906000526020600020905b81548152906001019060200180831161124357829003601f168201915b5050505050908060010180546112759061325f565b80601f01602080910402602001604051908101604052809291908181526020018280546112a19061325f565b80156112ee5780601f106112c3576101008083540402835291602001916112ee565b820191906000526020600020905b8154815290600101906020018083116112d157829003601f168201915b5050506003909301549192505063ffffffff8082169164010000000081049091169077ffffffffffffffffffffffffffffffffffffffffffffffff680100000000000000009091041685565b611342611dcf565b61134c6000611e22565b565b600154339073ffffffffffffffffffffffffffffffffffffffff1681146113b9576040517f118cdaa700000000000000000000000000000000000000000000000000000000815273ffffffffffffffffffffffffffffffffffffffff82166004820152602401610e95565b6113c281611e22565b50565b600b54156113ff576040517f5daa87a000000000000000000000000000000000000000000000000000000000815260040160405180910390fd5b600461140c8a8c83613550565b50600561141a888a83613550565b506006611428868883613550565b5060005b60ff811684111561150657600761149d868660ff8516818110611451576114516132b2565b9050602002810190611463919061366a565b8080601f016020809104026020016040519081016040528093929190818152602001838380828437600092019190915250611e5392505050565b81546001810183556000928352602090922090910180547fffffffffffffffffffffffff00000000000000000000000000000000000000001673ffffffffffffffffffffffffffffffffffffffff909216919091179055806114fe816134d2565b91505061142c565b50600980546001810182556000919091527f6e1540171b6c0c960b71a7020d9f60077f6af931a8bbf590da0223dacf75c7af0180547fffffffffffffffffffffffff00000000000000000000000000000000000000001673ffffffffffffffffffffffffffffffffffffffff841617905543600b5561158481611e22565b50505050505050505050565b61159b338383611f24565b5050565b6115a7611dcf565b6115b28260016136cf565b63ffffffff1660098054905010156115f6576040517fa9a25f6700000000000000000000000000000000000000000000000000000000815260040160405180910390fd5b600a60008154611605906136f3565b90915550600a54600090815260086020526040902080611626898b83613550565b5060018101611636878983613550565b50600b54611644904361372b565b77ffffffffffffffffffffffffffffffffffffffffffffffff8316680100000000000000000263ffffffff9182166401000000000267ffffffff0000000016918516919091171760038201558315611743576002810154156116ae576116ae6002820160006128f7565b60005b60ff811685111561174157816002016116d887878460ff16818110611451576114516132b2565b81546001810183556000928352602090922090910180547fffffffffffffffffffffffff00000000000000000000000000000000000000001673ffffffffffffffffffffffffffffffffffffffff90921691909117905580611739816134d2565b9150506116b1565b505b61176133600a54600160405180602001604052806000815250611c98565b505050505050505050565b600081815260086020526040812060030154600b54611c209161179e9164010000000090910463ffffffff169061373e565b610604919061373e565b6117b0611dcf565b600a5484116117ea576040517ea5a1f500000000000000000000000000000000000000000000000000000000815260040160405180910390fd5b60008481526008602052604090206002810154158015906118085750815b1561181b5761181b6002820160006128f7565b60005b60ff8116841115610eab578160020161184586868460ff16818110611451576114516132b2565b81546001810183556000928352602090922090910180547fffffffffffffffffffffffff00000000000000000000000000000000000000001673ffffffffffffffffffffffffffffffffffffffff909216919091179055806118a6816134d2565b91505061181e565b60006118b8611dcf565b600980546001808201835560008381527f6e1540171b6c0c960b71a7020d9f60077f6af931a8bbf590da0223dacf75c7af90920180547fffffffffffffffffffffffff00000000000000000000000000000000000000001673ffffffffffffffffffffffffffffffffffffffff8716179055915490916119379161372b565b9050808373ffffffffffffffffffffffffffffffffffffffff167fbe12a6cdcfa8711b87484030475533b479a18855d1d39eb97f1f0f3fd6e111ff60405160405180910390a390505b919050565b6040517f033918d300000000000000000000000000000000000000000000000000000000815260609073__$fe36b6aafc30e06b7be5019ccbbd4b34d3$__9063033918d3906119d89060049081016137ec565b600060405180830381865af41580156119f5573d6000803e3d6000fd5b505050506040513d6000823e601f3d9081017fffffffffffffffffffffffffffffffffffffffffffffffffffffffffffffffe0168201604052611a3b91908101906133fd565b905090565b3373ffffffffffffffffffffffffffffffffffffffff86168114801590611a9a575073ffffffffffffffffffffffffffffffffffffffff80871660009081526003602090815260408083209385168352929052205460ff16155b15611af1576040517fe237d92200000000000000000000000000000000000000000000000000000000815273ffffffffffffffffffffffffffffffffffffffff808316600483015287166024820152604401610e95565b610eab868686868661200c565b611b06611dcf565b6001805473ffffffffffffffffffffffffffffffffffffffff83167fffffffffffffffffffffffff00000000000000000000000000000000000000009091168117909155611b6960005473ffffffffffffffffffffffffffffffffffffffff1690565b73ffffffffffffffffffffffffffffffffffffffff167f38d16b8cac22d99fc7c124b9cd0de2d3fa1faef420bfe791d8c362d765e2270060405160405180910390a350565b73ffffffffffffffffffffffffffffffffffffffff83163314801590611c05575073ffffffffffffffffffffffffffffffffffffffff8316600090815260036020908152604080832033845290915290205460ff16155b15611c5a576040517fe237d92200000000000000000000000000000000000000000000000000000000815233600482015273ffffffffffffffffffffffffffffffffffffffff84166024820152604401610e95565b611c658383836120e7565b505050565b6060610604826001611c938173ffffffffffffffffffffffffffffffffffffffff84163b61372b565b612176565b73ffffffffffffffffffffffffffffffffffffffff8416611ce8576040517f57f447ce00000000000000000000000000000000000000000000000000000000815260006004820152602401610e95565b60408051600180825260208201869052818301908152606082018590526080820190925290610eab6000878484876121b7565b73ffffffffffffffffffffffffffffffffffffffff8416611d6b576040517f57f447ce00000000000000000000000000000000000000000000000000000000815260006004820152602401610e95565b73ffffffffffffffffffffffffffffffffffffffff8516611dbb576040517f01a8351400000000000000000000000000000000000000000000000000000000815260006004820152602401610e95565b611dc885858585856121b7565b5050505050565b60005473ffffffffffffffffffffffffffffffffffffffff16331461134c576040517f118cdaa7000000000000000000000000000000000000000000000000000000008152336004820152602401610e95565b600180547fffffffffffffffffffffffff00000000000000000000000000000000000000001690556113c281612217565b60008082604051602001611e6791906138bf565b6040516020818303038152906040529050600081604051602001611e8b91906138e5565b60405160208183030381529060405290508051602082016000f0925073ffffffffffffffffffffffffffffffffffffffff8316610c71576040517f08c379a000000000000000000000000000000000000000000000000000000000815260206004820152601160248201527f4445504c4f594d454e545f4641494c45440000000000000000000000000000006044820152606401610e95565b73ffffffffffffffffffffffffffffffffffffffff8216611f74576040517fced3e10000000000000000000000000000000000000000000000000000000000815260006004820152602401610e95565b73ffffffffffffffffffffffffffffffffffffffff83811660008181526003602090815260408083209487168084529482529182902080547fffffffffffffffffffffffffffffffffffffffffffffffffffffffffffffff001686151590811790915591519182527f17307eab39ab6107e8899845ad3d59bd9653f200f220920489ca2b5937696c31910160405180910390a3505050565b73ffffffffffffffffffffffffffffffffffffffff841661205c576040517f57f447ce00000000000000000000000000000000000000000000000000000000815260006004820152602401610e95565b73ffffffffffffffffffffffffffffffffffffffff85166120ac576040517f01a8351400000000000000000000000000000000000000000000000000000000815260006004820152602401610e95565b604080516001808252602082018690528183019081526060820185905260808201909252906120de87878484876121b7565b50505050505050565b73ffffffffffffffffffffffffffffffffffffffff8316612137576040517f01a8351400000000000000000000000000000000000000000000000000000000815260006004820152602401610e95565b604080516001808252602082018590528183019081526060820184905260a08201909252600060808201818152919291611dc8918791859085906121b7565b60408051603f83017fffffffffffffffffffffffffffffffffffffffffffffffffffffffffffffffe0168101909152818152818360208301863c9392505050565b6121c38585858561228c565b73ffffffffffffffffffffffffffffffffffffffff841615611dc857825133906001036122095760208481015190840151612202838989858589612574565b5050610eab565b610eab818787878787612766565b6000805473ffffffffffffffffffffffffffffffffffffffff8381167fffffffffffffffffffffffff0000000000000000000000000000000000000000831681178455604051919092169283917f8be0079c531659141344cd1fd0a4f28419497f9722a3daafe3b4186f6b6457e09190a35050565b80518251146122d457815181516040517f5b05999100000000000000000000000000000000000000000000000000000000815260048101929092526024820152604401610e95565b3360005b83518110156124475760208181028581018201519085019091015173ffffffffffffffffffffffffffffffffffffffff8816156123dc57600082815260026020908152604080832073ffffffffffffffffffffffffffffffffffffffff8c168452909152902054818110156123a6576040517f03dee4c500000000000000000000000000000000000000000000000000000000815273ffffffffffffffffffffffffffffffffffffffff8a166004820152602481018290526044810183905260648101849052608401610e95565b600083815260026020908152604080832073ffffffffffffffffffffffffffffffffffffffff8d16845290915290209082900390555b73ffffffffffffffffffffffffffffffffffffffff87161561243d57600082815260026020908152604080832073ffffffffffffffffffffffffffffffffffffffff8b1684529091528120805483929061243790849061373e565b90915550505b50506001016122d8565b5082516001036124ef57602083015160009060208401519091508573ffffffffffffffffffffffffffffffffffffffff168773ffffffffffffffffffffffffffffffffffffffff168473ffffffffffffffffffffffffffffffffffffffff167fc3d58168c5ae7397731d063d5bbf3d657854427343f4c083240f7aacaa2d0f6285856040516124e0929190918252602082015260400190565b60405180910390a45050611dc8565b8373ffffffffffffffffffffffffffffffffffffffff168573ffffffffffffffffffffffffffffffffffffffff168273ffffffffffffffffffffffffffffffffffffffff167f4a39dc06d4c0dbc64b70af90fd698a233a518aa5d07e595d983b8c0526c8f7fb868660405161256592919061392a565b60405180910390a45050505050565b73ffffffffffffffffffffffffffffffffffffffff84163b15610eab576040517ff23a6e6100000000000000000000000000000000000000000000000000000000815273ffffffffffffffffffffffffffffffffffffffff85169063f23a6e61906125eb908990899088908890889060040161394f565b6020604051808303816000875af1925050508015612644575060408051601f3d9081017fffffffffffffffffffffffffffffffffffffffffffffffffffffffffffffffe01682019092526126419181019061399f565b60015b6126d3573d808015612672576040519150601f19603f3d011682016040523d82523d6000602084013e612677565b606091505b5080516000036126cb576040517f57f447ce00000000000000000000000000000000000000000000000000000000815273ffffffffffffffffffffffffffffffffffffffff86166004820152602401610e95565b805181602001fd5b7fffffffff0000000000000000000000000000000000000000000000000000000081167ff23a6e6100000000000000000000000000000000000000000000000000000000146120de576040517f57f447ce00000000000000000000000000000000000000000000000000000000815273ffffffffffffffffffffffffffffffffffffffff86166004820152602401610e95565b73ffffffffffffffffffffffffffffffffffffffff84163b15610eab576040517fbc197c8100000000000000000000000000000000000000000000000000000000815273ffffffffffffffffffffffffffffffffffffffff85169063bc197c81906127dd90899089908890889088906004016139bc565b6020604051808303816000875af1925050508015612836575060408051601f3d9081017fffffffffffffffffffffffffffffffffffffffffffffffffffffffffffffffe01682019092526128339181019061399f565b60015b612864573d808015612672576040519150601f19603f3d011682016040523d82523d6000602084013e612677565b7fffffffff0000000000000000000000000000000000000000000000000000000081167fbc197c8100000000000000000000000000000000000000000000000000000000146120de576040517f57f447ce00000000000000000000000000000000000000000000000000000000815273ffffffffffffffffffffffffffffffffffffffff86166004820152602401610e95565b50805460008255906000526020600020908101906113c291905b808211156129255760008155600101612911565b5090565b803573ffffffffffffffffffffffffffffffffffffffff8116811461198057600080fd5b6000806040838503121561296057600080fd5b61296983612929565b946020939093013593505050565b7fffffffff00000000000000000000000000000000000000000000000000000000811681146113c257600080fd5b6000602082840312156129b757600080fd5b81356109f481612977565b6000602082840312156129d457600080fd5b5035919050565b60005b838110156129f65781810151838201526020016129de565b50506000910152565b60008151808452612a178160208601602086016129db565b601f017fffffffffffffffffffffffffffffffffffffffffffffffffffffffffffffffe0169290920160200192915050565b6020815260006109f460208301846129ff565b60008060408385031215612a6f57600080fd5b50508035926020909101359150565b7f4e487b7100000000000000000000000000000000000000000000000000000000600052604160045260246000fd5b604051601f82017fffffffffffffffffffffffffffffffffffffffffffffffffffffffffffffffe016810167ffffffffffffffff81118282101715612af457612af4612a7e565b604052919050565b600067ffffffffffffffff821115612b1657612b16612a7e565b5060051b60200190565b600082601f830112612b3157600080fd5b81356020612b46612b4183612afc565b612aad565b8083825260208201915060208460051b870101935086841115612b6857600080fd5b602086015b84811015612b845780358352918301918301612b6d565b509695505050505050565b600067ffffffffffffffff821115612ba957612ba9612a7e565b50601f017fffffffffffffffffffffffffffffffffffffffffffffffffffffffffffffffe01660200190565b600082601f830112612be657600080fd5b8135612bf4612b4182612b8f565b818152846020838601011115612c0957600080fd5b816020850160208301376000918101602001919091529392505050565b600080600080600060a08688031215612c3e57600080fd5b612c4786612929565b9450612c5560208701612929565b9350604086013567ffffffffffffffff80821115612c7257600080fd5b612c7e89838a01612b20565b94506060880135915080821115612c9457600080fd5b612ca089838a01612b20565b93506080880135915080821115612cb657600080fd5b50612cc388828901612bd5565b9150509295509295909350565b606081526000612ce360608301866129ff565b8281036020840152612cf581866129ff565b90508281036040840152612d0981856129ff565b9695505050505050565b60008060408385031215612d2657600080fd5b823567ffffffffffffffff80821115612d3e57600080fd5b818501915085601f830112612d5257600080fd5b81356020612d62612b4183612afc565b82815260059290921b84018101918181019089841115612d8157600080fd5b948201945b83861015612da657612d9786612929565b82529482019490820190612d86565b96505086013592505080821115612dbc57600080fd5b50612dc985828601612b20565b9150509250929050565b60008151808452602080850194506020840160005b83811015612e0457815187529582019590820190600101612de8565b509495945050505050565b6020815260006109f46020830184612dd3565b60a081526000612e3560a08301886129ff565b8281036020840152612e4781886129ff565b63ffffffff96871660408501529490951660608301525077ffffffffffffffffffffffffffffffffffffffffffffffff919091166080909101529392505050565b60008083601f840112612e9a57600080fd5b50813567ffffffffffffffff811115612eb257600080fd5b602083019150836020828501011115612eca57600080fd5b9250929050565b60008083601f840112612ee357600080fd5b50813567ffffffffffffffff811115612efb57600080fd5b6020830191508360208260051b8501011115612eca57600080fd5b60008060008060008060008060008060c08b8d031215612f3557600080fd5b8a3567ffffffffffffffff80821115612f4d57600080fd5b612f598e838f01612e88565b909c509a5060208d0135915080821115612f7257600080fd5b612f7e8e838f01612e88565b909a50985060408d0135915080821115612f9757600080fd5b612fa38e838f01612e88565b909850965060608d0135915080821115612fbc57600080fd5b50612fc98d828e01612ed1565b9095509350612fdc905060808c01612929565b9150612fea60a08c01612929565b90509295989b9194979a5092959850565b8035801515811461198057600080fd5b6000806040838503121561301e57600080fd5b61302783612929565b915061303560208401612ffb565b90509250929050565b60008060008060008060008060a0898b03121561305a57600080fd5b883567ffffffffffffffff8082111561307257600080fd5b61307e8c838d01612e88565b909a50985060208b013591508082111561309757600080fd5b6130a38c838d01612e88565b909850965060408b01359150808211156130bc57600080fd5b506130c98b828c01612ed1565b909550935050606089013563ffffffff811681146130e657600080fd5b9150608089013577ffffffffffffffffffffffffffffffffffffffffffffffff8116811461311357600080fd5b809150509295985092959890939650565b6000806000806060858703121561313a57600080fd5b84359350602085013567ffffffffffffffff81111561315857600080fd5b61316487828801612ed1565b9094509250613177905060408601612ffb565b905092959194509250565b60006020828403121561319457600080fd5b6109f482612929565b600080604083850312156131b057600080fd5b6131b983612929565b915061303560208401612929565b600080600080600060a086880312156131df57600080fd5b6131e886612929565b94506131f660208701612929565b93506040860135925060608601359150608086013567ffffffffffffffff81111561322057600080fd5b612cc388828901612bd5565b60008060006060848603121561324157600080fd5b61324a84612929565b95602085013595506040909401359392505050565b600181811c9082168061327357607f821691505b6020821081036132ac577f4e487b7100000000000000000000000000000000000000000000000000000000600052602260045260246000fd5b50919050565b7f4e487b7100000000000000000000000000000000000000000000000000000000600052603260045260246000fd5b83815260006020606081840152845160c060608501526133056101208501826129ff565b9050818601517fffffffffffffffffffffffffffffffffffffffffffffffffffffffffffffffa08086840301608087015261334083836129ff565b604089015187820390920160a088015281518082529185019350600092508401905b8083101561339857835173ffffffffffffffffffffffffffffffffffffffff168252928401926001929092019190840190613362565b50606088015163ffffffff90811660c088015260808901511660e087015260a088015177ffffffffffffffffffffffffffffffffffffffffffffffff8116610100880152868203604088015293506133f081886129ff565b9998505050505050505050565b60006020828403121561340f57600080fd5b815167ffffffffffffffff81111561342657600080fd5b8201601f8101841361343757600080fd5b8051613445612b4182612b8f565b81815285602083850101111561345a57600080fd5b61346b8260208301602086016129db565b95945050505050565b600083516134868184602088016129db565b83519083019061349a8183602088016129db565b01949350505050565b7f4e487b7100000000000000000000000000000000000000000000000000000000600052601160045260246000fd5b600060ff821660ff81036134e8576134e86134a3565b60010192915050565b8082028115828204841417610604576106046134a3565b601f821115611c65576000816000526020600020601f850160051c810160208610156135315750805b601f850160051c820191505b81811015610eab5782815560010161353d565b67ffffffffffffffff83111561356857613568612a7e565b61357c83613576835461325f565b83613508565b6000601f8411600181146135ce57600085156135985750838201355b7fffffffffffffffffffffffffffffffffffffffffffffffffffffffffffffffff600387901b1c1916600186901b178355611dc8565b6000838152602090207fffffffffffffffffffffffffffffffffffffffffffffffffffffffffffffffe0861690835b8281101561361d57868501358255602094850194600190920191016135fd565b5086821015613658577fffffffffffffffffffffffffffffffffffffffffffffffffffffffffffffffff60f88860031b161c19848701351681555b505060018560011b0183555050505050565b60008083357fffffffffffffffffffffffffffffffffffffffffffffffffffffffffffffffe184360301811261369f57600080fd5b83018035915067ffffffffffffffff8211156136ba57600080fd5b602001915036819003821315612eca57600080fd5b63ffffffff8181168382160190808211156136ec576136ec6134a3565b5092915050565b60007fffffffffffffffffffffffffffffffffffffffffffffffffffffffffffffffff8203613724576137246134a3565b5060010190565b81810381811115610604576106046134a3565b80820180821115610604576106046134a3565b6000815461375e8161325f565b80855260206001838116801561377b57600181146137b3576137e1565b7fffffffffffffffffffffffffffffffffffffffffffffffffffffffffffffff008516838901528284151560051b89010195506137e1565b866000528260002060005b858110156137d95781548a82018601529083019084016137be565b890184019650505b505050505092915050565b600060208083526080602084015261380760a0840185613751565b60017fffffffffffffffffffffffffffffffffffffffffffffffffffffffffffffffe0808684030160408701526138418360018901613751565b92508086840301606087015261385a8360028901613751565b8681039091016080870152600387018054808352600091825260208083209550909201915b808210156138b257845473ffffffffffffffffffffffffffffffffffffffff16835293830193918501919083019061387f565b5090979650505050505050565b60008152600082516138d88160018501602087016129db565b9190910160010192915050565b7f600b5981380380925939f300000000000000000000000000000000000000000081526000825161391d81600b8501602087016129db565b91909101600b0192915050565b60408152600061393d6040830185612dd3565b828103602084015261346b8185612dd3565b600073ffffffffffffffffffffffffffffffffffffffff808816835280871660208401525084604083015283606083015260a0608083015261399460a08301846129ff565b979650505050505050565b6000602082840312156139b157600080fd5b81516109f481612977565b600073ffffffffffffffffffffffffffffffffffffffff808816835280871660208401525060a060408301526139f560a0830186612dd3565b8281036060840152613a078186612dd3565b90508281036080840152613a1b81856129ff565b9897505050505050505056fea2646970667358221220b36b5750a04b1e4978c48bd1860c240f141a48524a79eb4875979eb0a7f4234a64736f6c63430008180033",
  "linkReferences": {
    "contracts/libraries/ContractMetadata.sol": {
      "ContractMetadata": [
        {
          "length": 20,
          "start": 6777
        }
      ]
    }
  },
  "deployedLinkReferences": {
    "contracts/libraries/ContractMetadata.sol": {
      "ContractMetadata": [
        {
          "length": 20,
          "start": 6576
        }
      ]
    }
  }
}