{
  "_format": "hh-sol-artifact-1",
  "contractName": "FactoryV1",
  "sourceName": "contracts/factories/FactoryV1.sol",
  "abi": [
    {
      "inputs": [],
      "stateMutability": "nonpayable",
      "type": "constructor"
    },
    {
      "inputs": [
        {
          "internalType": "address",
          "name": "target",
          "type": "address"
        }
      ],
      "name": "AddressEmptyCode",
      "type": "error"
    },
    {
      "inputs": [],
      "name": "ERC1167FailedCreateClone",
      "type": "error"
    },
    {
      "inputs": [
        {
          "internalType": "address",
          "name": "implementation",
          "type": "address"
        }
      ],
      "name": "ERC1967InvalidImplementation",
      "type": "error"
    },
    {
      "inputs": [],
      "name": "ERC1967NonPayable",
      "type": "error"
    },
    {
      "inputs": [],
      "name": "FailedInnerCall",
      "type": "error"
    },
    {
      "inputs": [],
      "name": "InvalidInitialization",
      "type": "error"
    },
    {
      "inputs": [],
      "name": "NotInitializing",
      "type": "error"
    },
    {
      "inputs": [
        {
          "internalType": "address",
          "name": "owner",
          "type": "address"
        }
      ],
      "name": "OwnableInvalidOwner",
      "type": "error"
    },
    {
      "inputs": [
        {
          "internalType": "address",
          "name": "account",
          "type": "address"
        }
      ],
      "name": "OwnableUnauthorizedAccount",
      "type": "error"
    },
    {
      "inputs": [],
      "name": "UUPSUnauthorizedCallContext",
      "type": "error"
    },
    {
      "inputs": [
        {
          "internalType": "bytes32",
          "name": "slot",
          "type": "bytes32"
        }
      ],
      "name": "UUPSUnsupportedProxiableUUID",
      "type": "error"
    },
    {
      "anonymous": false,
      "inputs": [
        {
          "indexed": true,
          "internalType": "address",
          "name": "ownerAddress",
          "type": "address"
        },
        {
          "indexed": false,
          "internalType": "address",
          "name": "contractAddress",
          "type": "address"
        }
      ],
      "name": "Created",
      "type": "event"
    },
    {
      "anonymous": false,
      "inputs": [
        {
          "indexed": false,
          "internalType": "uint64",
          "name": "version",
          "type": "uint64"
        }
      ],
      "name": "Initialized",
      "type": "event"
    },
    {
      "anonymous": false,
      "inputs": [
        {
          "indexed": true,
          "internalType": "address",
          "name": "previousOwner",
          "type": "address"
        },
        {
          "indexed": true,
          "internalType": "address",
          "name": "newOwner",
          "type": "address"
        }
      ],
      "name": "OwnershipTransferStarted",
      "type": "event"
    },
    {
      "anonymous": false,
      "inputs": [
        {
          "indexed": true,
          "internalType": "address",
          "name": "previousOwner",
          "type": "address"
        },
        {
          "indexed": true,
          "internalType": "address",
          "name": "newOwner",
          "type": "address"
        }
      ],
      "name": "OwnershipTransferred",
      "type": "event"
    },
    {
      "anonymous": false,
      "inputs": [
        {
          "indexed": true,
          "internalType": "address",
          "name": "implementation",
          "type": "address"
        }
      ],
      "name": "Upgraded",
      "type": "event"
    },
    {
      "inputs": [],
      "name": "UPGRADE_INTERFACE_VERSION",
      "outputs": [
        {
          "internalType": "string",
          "name": "",
          "type": "string"
        }
      ],
      "stateMutability": "view",
      "type": "function"
    },
    {
      "inputs": [],
      "name": "acceptOwnership",
      "outputs": [],
      "stateMutability": "nonpayable",
      "type": "function"
    },
    {
      "inputs": [
        {
          "internalType": "string",
          "name": "name",
          "type": "string"
        },
        {
          "internalType": "string",
          "name": "symbol",
          "type": "string"
        },
        {
          "internalType": "string",
          "name": "description",
          "type": "string"
        },
        {
          "internalType": "bytes[]",
          "name": "image",
          "type": "bytes[]"
        }
      ],
      "name": "clone",
      "outputs": [
        {
          "internalType": "address",
          "name": "",
          "type": "address"
        }
      ],
      "stateMutability": "nonpayable",
      "type": "function"
    },
    {
      "inputs": [
        {
          "internalType": "string",
          "name": "name",
          "type": "string"
        },
        {
          "internalType": "string",
          "name": "symbol",
          "type": "string"
        },
        {
          "internalType": "string",
          "name": "description",
          "type": "string"
        },
        {
          "internalType": "bytes[]",
          "name": "image",
          "type": "bytes[]"
        }
      ],
      "name": "create",
      "outputs": [
        {
          "internalType": "address",
          "name": "",
          "type": "address"
        }
      ],
      "stateMutability": "nonpayable",
      "type": "function"
    },
    {
      "inputs": [
        {
          "internalType": "address",
          "name": "creator",
          "type": "address"
        }
      ],
      "name": "getCreatorCollections",
      "outputs": [
        {
          "internalType": "address[]",
          "name": "",
          "type": "address[]"
        }
      ],
      "stateMutability": "view",
      "type": "function"
    },
    {
      "inputs": [
        {
          "internalType": "address",
          "name": "mint",
          "type": "address"
        },
        {
          "internalType": "address",
          "name": "renderer",
          "type": "address"
        }
      ],
      "name": "initialize",
      "outputs": [],
      "stateMutability": "nonpayable",
      "type": "function"
    },
    {
      "inputs": [],
      "name": "owner",
      "outputs": [
        {
          "internalType": "address",
          "name": "",
          "type": "address"
        }
      ],
      "stateMutability": "view",
      "type": "function"
    },
    {
      "inputs": [],
      "name": "pendingOwner",
      "outputs": [
        {
          "internalType": "address",
          "name": "",
          "type": "address"
        }
      ],
      "stateMutability": "view",
      "type": "function"
    },
    {
      "inputs": [],
      "name": "proxiableUUID",
      "outputs": [
        {
          "internalType": "bytes32",
          "name": "",
          "type": "bytes32"
        }
      ],
      "stateMutability": "view",
      "type": "function"
    },
    {
      "inputs": [],
      "name": "renounceOwnership",
      "outputs": [],
      "stateMutability": "nonpayable",
      "type": "function"
    },
    {
      "inputs": [
        {
          "internalType": "address",
          "name": "newOwner",
          "type": "address"
        }
      ],
      "name": "transferOwnership",
      "outputs": [],
      "stateMutability": "nonpayable",
      "type": "function"
    },
    {
      "inputs": [
        {
          "internalType": "address",
          "name": "newImplementation",
          "type": "address"
        },
        {
          "internalType": "bytes",
          "name": "data",
          "type": "bytes"
        }
      ],
      "name": "upgradeToAndCall",
      "outputs": [],
      "stateMutability": "payable",
      "type": "function"
    },
    {
      "inputs": [],
      "name": "version",
      "outputs": [
        {
          "internalType": "uint256",
          "name": "",
          "type": "uint256"
        }
      ],
      "stateMutability": "pure",
      "type": "function"
    }
  ],
  "bytecode": "0x60a06040523060805234801561001457600080fd5b5061001d610022565b6100d4565b7ff0c57e16840df040f15088dc2f81fe391c3923bec73e23a9662efc9c229c6a00805468010000000000000000900460ff16156100725760405163f92ee8a960e01b815260040160405180910390fd5b80546001600160401b03908116146100d15780546001600160401b0319166001600160401b0390811782556040519081527fc7f505b2f371ae2175ee4913f4499e1f2633a7b5936321eed1cdaeb6115181d29060200160405180910390a15b50565b6080516152cd6100fd60003960008181610a0f01528181610a380152610c5901526152cd6000f3fe6080604052600436106100d25760003560e01c806374311e121161007f5780638da5cb5b116100595780638da5cb5b14610204578063ad3cb1cc14610219578063e30c39781461026f578063f2fde38b1461028457600080fd5b806374311e12146101a257806379ba5097146101cf5780638d94d2bc146101e457600080fd5b806352d1902d116100b057806352d1902d1461015657806354fd4d5014610179578063715018a61461018d57600080fd5b806343215e0f146100d7578063485cc955146101215780634f1ef28614610143575b600080fd5b3480156100e357600080fd5b506100f76100f23660046112f6565b6102a4565b60405173ffffffffffffffffffffffffffffffffffffffff90911681526020015b60405180910390f35b34801561012d57600080fd5b5061014161013c3660046113fb565b61040d565b005b61014161015136600461142e565b6105eb565b34801561016257600080fd5b5061016b61060a565b604051908152602001610118565b34801561018557600080fd5b50600161016b565b34801561019957600080fd5b50610141610639565b3480156101ae57600080fd5b506101c26101bd366004611490565b61064d565b60405161011891906114ab565b3480156101db57600080fd5b506101416106dd565b3480156101f057600080fd5b506100f76101ff3660046112f6565b61075d565b34801561021057600080fd5b506100f76108bc565b34801561022557600080fd5b506102626040518060400160405280600581526020017f352e302e3000000000000000000000000000000000000000000000000000000081525081565b6040516101189190611573565b34801561027b57600080fd5b506100f76108fe565b34801561029057600080fd5b5061014161029f366004611490565b610927565b6000806040516102b390611206565b604051809103906000f0801580156102cf573d6000803e3d6000fd5b506001546040517f84252fb700000000000000000000000000000000000000000000000000000000815291925073ffffffffffffffffffffffffffffffffffffffff808416926384252fb792610337928c928c928c928c928c929091169033906004016115cf565b600060405180830381600087803b15801561035157600080fd5b505af1158015610365573d6000803e3d6000fd5b505033600081815260026020908152604080832080546001810182559084529282902090920180547fffffffffffffffffffffffff00000000000000000000000000000000000000001673ffffffffffffffffffffffffffffffffffffffff881690811790915591519182528594509192507f587ece4cd19692c5be1a4184503d607d45542d2aca0698c0068f52e09ccb541c910160405180910390a2979650505050505050565b7ff0c57e16840df040f15088dc2f81fe391c3923bec73e23a9662efc9c229c6a00805468010000000000000000810460ff16159067ffffffffffffffff166000811580156104585750825b905060008267ffffffffffffffff1660011480156104755750303b155b905081158015610483575080155b156104ba576040517ff92ee8a900000000000000000000000000000000000000000000000000000000815260040160405180910390fd5b84547fffffffffffffffffffffffffffffffffffffffffffffffff0000000000000000166001178555831561051b5784547fffffffffffffffffffffffffffffffffffffffffffffff00ffffffffffffffff16680100000000000000001785555b610524336109de565b61052c6109ef565b6000805473ffffffffffffffffffffffffffffffffffffffff808a167fffffffffffffffffffffffff000000000000000000000000000000000000000092831617909255600180549289169290911691909117905583156105e25784547fffffffffffffffffffffffffffffffffffffffffffffff00ffffffffffffffff168555604051600181527fc7f505b2f371ae2175ee4913f4499e1f2633a7b5936321eed1cdaeb6115181d29060200160405180910390a15b50505050505050565b6105f36109f7565b6105fc82610afb565b6106068282610b03565b5050565b6000610614610c41565b507f360894a13ba1a3210667c828492db98dca3e2076cc3735a920a3ca505d382bbc90565b610641610cb0565b61064b6000610d08565b565b73ffffffffffffffffffffffffffffffffffffffff81166000908152600260209081526040918290208054835181840281018401909452808452606093928301828280156106d157602002820191906000526020600020905b815473ffffffffffffffffffffffffffffffffffffffff1681526001909101906020018083116106a6575b50505050509050919050565b33806106e76108fe565b73ffffffffffffffffffffffffffffffffffffffff1614610751576040517f118cdaa700000000000000000000000000000000000000000000000000000000815273ffffffffffffffffffffffffffffffffffffffff821660048201526024015b60405180910390fd5b61075a81610d08565b50565b6000805481906107829073ffffffffffffffffffffffffffffffffffffffff16610d58565b6001546040517f84252fb700000000000000000000000000000000000000000000000000000000815291925073ffffffffffffffffffffffffffffffffffffffff808416926384252fb7926107e9928c928c928c928c928c929091169033906004016115cf565b600060405180830381600087803b15801561080357600080fd5b505af1158015610817573d6000803e3d6000fd5b505033600081815260026020908152604080832080546001810182559084529282902090920180547fffffffffffffffffffffffff00000000000000000000000000000000000000001673ffffffffffffffffffffffffffffffffffffffff881690811790915591519182529193507f587ece4cd19692c5be1a4184503d607d45542d2aca0698c0068f52e09ccb541c92500160405180910390a29695505050505050565b6000807f9016d09d72d40fdae2fd8ceac6b6234c7706214fd39c1cd1e609a0528c1993005b5473ffffffffffffffffffffffffffffffffffffffff1692915050565b6000807f237e158222e3e6968b72b9db0d8043aacf074ad9f650f0d1606b4d82ee432c006108e1565b61092f610cb0565b7f237e158222e3e6968b72b9db0d8043aacf074ad9f650f0d1606b4d82ee432c0080547fffffffffffffffffffffffff00000000000000000000000000000000000000001673ffffffffffffffffffffffffffffffffffffffff831690811782556109986108bc565b73ffffffffffffffffffffffffffffffffffffffff167f38d16b8cac22d99fc7c124b9cd0de2d3fa1faef420bfe791d8c362d765e2270060405160405180910390a35050565b6109e6610df0565b61075a81610e57565b61064b610df0565b3073ffffffffffffffffffffffffffffffffffffffff7f0000000000000000000000000000000000000000000000000000000000000000161480610ac457507f000000000000000000000000000000000000000000000000000000000000000073ffffffffffffffffffffffffffffffffffffffff16610aab7f360894a13ba1a3210667c828492db98dca3e2076cc3735a920a3ca505d382bbc5473ffffffffffffffffffffffffffffffffffffffff1690565b73ffffffffffffffffffffffffffffffffffffffff1614155b1561064b576040517fe07c8dba00000000000000000000000000000000000000000000000000000000815260040160405180910390fd5b61075a610cb0565b8173ffffffffffffffffffffffffffffffffffffffff166352d1902d6040518163ffffffff1660e01b8152600401602060405180830381865afa925050508015610b88575060408051601f3d9081017fffffffffffffffffffffffffffffffffffffffffffffffffffffffffffffffe0168201909252610b8591810190611722565b60015b610bd6576040517f4c9c8ce300000000000000000000000000000000000000000000000000000000815273ffffffffffffffffffffffffffffffffffffffff83166004820152602401610748565b7f360894a13ba1a3210667c828492db98dca3e2076cc3735a920a3ca505d382bbc8114610c32576040517faa1d49a400000000000000000000000000000000000000000000000000000000815260048101829052602401610748565b610c3c8383610eaf565b505050565b3073ffffffffffffffffffffffffffffffffffffffff7f0000000000000000000000000000000000000000000000000000000000000000161461064b576040517fe07c8dba00000000000000000000000000000000000000000000000000000000815260040160405180910390fd5b33610cb96108bc565b73ffffffffffffffffffffffffffffffffffffffff161461064b576040517f118cdaa7000000000000000000000000000000000000000000000000000000008152336004820152602401610748565b7f237e158222e3e6968b72b9db0d8043aacf074ad9f650f0d1606b4d82ee432c0080547fffffffffffffffffffffffff000000000000000000000000000000000000000016815561060682610f12565b6000763d602d80600a3d3981f3363d3d373d3d3d363d730000008260601b60e81c176000526e5af43d82803e903d91602b57fd5bf38260781b17602052603760096000f0905073ffffffffffffffffffffffffffffffffffffffff8116610deb576040517fc2f868f400000000000000000000000000000000000000000000000000000000815260040160405180910390fd5b919050565b7ff0c57e16840df040f15088dc2f81fe391c3923bec73e23a9662efc9c229c6a005468010000000000000000900460ff1661064b576040517fd7e6bcf800000000000000000000000000000000000000000000000000000000815260040160405180910390fd5b610e5f610df0565b73ffffffffffffffffffffffffffffffffffffffff8116610751576040517f1e4fbdf700000000000000000000000000000000000000000000000000000000815260006004820152602401610748565b610eb882610fa8565b60405173ffffffffffffffffffffffffffffffffffffffff8316907fbc7cd75a20ee27fd9adebab32041f755214dbc6bffa90cc0225b39da2e5c2d3b90600090a2805115610f0a57610c3c8282611077565b6106066110fa565b7f9016d09d72d40fdae2fd8ceac6b6234c7706214fd39c1cd1e609a0528c19930080547fffffffffffffffffffffffff0000000000000000000000000000000000000000811673ffffffffffffffffffffffffffffffffffffffff848116918217845560405192169182907f8be0079c531659141344cd1fd0a4f28419497f9722a3daafe3b4186f6b6457e090600090a3505050565b8073ffffffffffffffffffffffffffffffffffffffff163b600003611011576040517f4c9c8ce300000000000000000000000000000000000000000000000000000000815273ffffffffffffffffffffffffffffffffffffffff82166004820152602401610748565b7f360894a13ba1a3210667c828492db98dca3e2076cc3735a920a3ca505d382bbc80547fffffffffffffffffffffffff00000000000000000000000000000000000000001673ffffffffffffffffffffffffffffffffffffffff92909216919091179055565b60606000808473ffffffffffffffffffffffffffffffffffffffff16846040516110a1919061173b565b600060405180830381855af49150503d80600081146110dc576040519150601f19603f3d011682016040523d82523d6000602084013e6110e1565b606091505b50915091506110f1858383611132565b95945050505050565b341561064b576040517fb398979f00000000000000000000000000000000000000000000000000000000815260040160405180910390fd5b60608261114757611142826111c4565b6111bd565b815115801561116b575073ffffffffffffffffffffffffffffffffffffffff84163b155b156111ba576040517f9996b31500000000000000000000000000000000000000000000000000000000815273ffffffffffffffffffffffffffffffffffffffff85166004820152602401610748565b50805b9392505050565b8051156111d45780518082602001fd5b6040517f1425ea4200000000000000000000000000000000000000000000000000000000815260040160405180910390fd5b613b408061175883390190565b7f4e487b7100000000000000000000000000000000000000000000000000000000600052604160045260246000fd5b600067ffffffffffffffff8084111561125d5761125d611213565b604051601f85017fffffffffffffffffffffffffffffffffffffffffffffffffffffffffffffffe0908116603f011681019082821181831017156112a3576112a3611213565b816040528093508581528686860111156112bc57600080fd5b858560208301376000602087830101525050509392505050565b600082601f8301126112e757600080fd5b6111bd83833560208501611242565b60008060008060006080868803121561130e57600080fd5b853567ffffffffffffffff8082111561132657600080fd5b61133289838a016112d6565b9650602088013591508082111561134857600080fd5b61135489838a016112d6565b9550604088013591508082111561136a57600080fd5b61137689838a016112d6565b9450606088013591508082111561138c57600080fd5b818801915088601f8301126113a057600080fd5b8135818111156113af57600080fd5b8960208260051b85010111156113c457600080fd5b9699959850939650602001949392505050565b803573ffffffffffffffffffffffffffffffffffffffff81168114610deb57600080fd5b6000806040838503121561140e57600080fd5b611417836113d7565b9150611425602084016113d7565b90509250929050565b6000806040838503121561144157600080fd5b61144a836113d7565b9150602083013567ffffffffffffffff81111561146657600080fd5b8301601f8101851361147757600080fd5b61148685823560208401611242565b9150509250929050565b6000602082840312156114a257600080fd5b6111bd826113d7565b6020808252825182820181905260009190848201906040850190845b818110156114f957835173ffffffffffffffffffffffffffffffffffffffff16835292840192918401916001016114c7565b50909695505050505050565b60005b83811015611520578181015183820152602001611508565b50506000910152565b60008151808452611541816020860160208601611505565b601f017fffffffffffffffffffffffffffffffffffffffffffffffffffffffffffffffe0169290920160200192915050565b6020815260006111bd6020830184611529565b8183528181602085013750600060208284010152600060207fffffffffffffffffffffffffffffffffffffffffffffffffffffffffffffffe0601f840116840101905092915050565b60c0815260006115e260c083018a611529565b6020838203818501526115f5828b611529565b91508382036040850152611609828a611529565b84810360608601528781529150808201600588901b830182018960005b8a8110156116d1577fffffffffffffffffffffffffffffffffffffffffffffffffffffffffffffffe086840301845281357fffffffffffffffffffffffffffffffffffffffffffffffffffffffffffffffe18d360301811261168757600080fd5b8c01858101903567ffffffffffffffff8111156116a357600080fd5b8036038213156116b257600080fd5b6116bd858284611586565b958701959450505090840190600101611626565b505073ffffffffffffffffffffffffffffffffffffffff8816608087015293506116fa92505050565b73ffffffffffffffffffffffffffffffffffffffff831660a083015298975050505050505050565b60006020828403121561173457600080fd5b5051919050565b6000825161174d818460208701611505565b919091019291505056fe60806040523480156200001157600080fd5b5033806200003957604051631e4fbdf760e01b81526000600482015260240160405180910390fd5b62000044816200004b565b50620000b9565b600180546001600160a01b0319169055620000668162000069565b50565b600080546001600160a01b038381166001600160a01b0319831681178455604051919092169283917f8be0079c531659141344cd1fd0a4f28419497f9722a3daafe3b4186f6b6457e09190a35050565b613a7780620000c96000396000f3fe6080604052600436106101c15760003560e01c806379ba5097116100f7578063b6cb8dfe11610095578063e985e9c511610064578063e985e9c51461051d578063f242432a14610573578063f2fde38b14610593578063f5298aca146105b357600080fd5b8063b6cb8dfe1461049d578063c4a0d465146104bd578063e30c3978146104dd578063e8a3d4851461050857600080fd5b80638da5cb5b116100d15780638da5cb5b146104125780639ee7f5a91461043d578063a22cb4651461045d578063b56443411461047d57600080fd5b806379ba5097146103c757806384252fb7146103dc5780638c0e8349146103fc57600080fd5b8063392f37e9116101645780634f64b2be1161013e5780634f64b2be1461035657806354fd4d50146103875780635d05125b1461039c578063715018a6146103b257600080fd5b8063392f37e9146102f05780633ccfd60b146103145780634e1273f41461032957600080fd5b80631379ac1a116101a05780631379ac1a146102565780631b2ef1ca146102765780631ffbee641461028b5780632eb2c2d6146102d057600080fd5b8062fdd58e146101c657806301ffc9a7146101f95780630e89341c14610229575b600080fd5b3480156101d257600080fd5b506101e66101e136600461295d565b6105d3565b6040519081526020015b60405180910390f35b34801561020557600080fd5b506102196102143660046129b7565b61060a565b60405190151581526020016101f0565b34801561023557600080fd5b506102496102443660046129d4565b6106ed565b6040516101f09190612a5b565b34801561026257600080fd5b506102496102713660046129d4565b610a03565b610289610284366004612a6e565b610c88565b005b34801561029757600080fd5b506102ab6102a63660046129d4565b610dc1565b60405173ffffffffffffffffffffffffffffffffffffffff90911681526020016101f0565b3480156102dc57600080fd5b506102896102eb366004612c38565b610df8565b3480156102fc57600080fd5b50610305610ec3565b6040516101f093929190612ce6565b34801561032057600080fd5b50610289611071565b34801561033557600080fd5b50610349610344366004612d29565b6110f6565b6040516101f09190612e27565b34801561036257600080fd5b506103766103713660046129d4565b6111dc565b6040516101f0959493929190612e3a565b34801561039357600080fd5b506101e6600181565b3480156103a857600080fd5b506101e6600b5481565b3480156103be57600080fd5b50610289611350565b3480156103d357600080fd5b50610289611364565b3480156103e857600080fd5b506102896103f7366004612f31565b6113db565b34801561040857600080fd5b506101e6600a5481565b34801561041e57600080fd5b5060005473ffffffffffffffffffffffffffffffffffffffff166102ab565b34801561044957600080fd5b50610289610458366004613016565b6115a6565b34801561046957600080fd5b506102896104783660046130ef565b61176e565b34801561048957600080fd5b506101e66104983660046129d4565b61177d565b3480156104a957600080fd5b506102896104b8366004613124565b6117af565b3480156104c957600080fd5b506101e66104d8366004613182565b6118b5565b3480156104e957600080fd5b5060015473ffffffffffffffffffffffffffffffffffffffff166102ab565b34801561051457600080fd5b5061024961198c565b34801561052957600080fd5b5061021961053836600461319f565b73ffffffffffffffffffffffffffffffffffffffff918216600090815260036020908152604080832093909416825291909152205460ff1690565b34801561057f57600080fd5b5061028961058e3660046131d8565b611a47565b34801561059f57600080fd5b506102896105ae366004613182565b611b05565b3480156105bf57600080fd5b506102896105ce366004613241565b611bb5565b600081815260026020908152604080832073ffffffffffffffffffffffffffffffffffffffff861684529091529020545b92915050565b60007fffffffff0000000000000000000000000000000000000000000000000000000082167fd9b67a2600000000000000000000000000000000000000000000000000000000148061069d57507fffffffff0000000000000000000000000000000000000000000000000000000082167f0e89341c00000000000000000000000000000000000000000000000000000000145b8061060457507f01ffc9a7000000000000000000000000000000000000000000000000000000007fffffffff00000000000000000000000000000000000000000000000000000000831614610604565b6060600a5482111561072b576040517f9430a17e00000000000000000000000000000000000000000000000000000000815260040160405180910390fd5b600082815260086020526040808220815160c0810190925280548290829061075290613276565b80601f016020809104026020016040519081016040528092919081815260200182805461077e90613276565b80156107cb5780601f106107a0576101008083540402835291602001916107cb565b820191906000526020600020905b8154815290600101906020018083116107ae57829003601f168201915b505050505081526020016001820180546107e490613276565b80601f016020809104026020016040519081016040528092919081815260200182805461081090613276565b801561085d5780601f106108325761010080835404028352916020019161085d565b820191906000526020600020905b81548152906001019060200180831161084057829003601f168201915b50505050508152602001600282018054806020026020016040519081016040528092919081815260200182805480156108cc57602002820191906000526020600020905b815473ffffffffffffffffffffffffffffffffffffffff1681526001909101906020018083116108a1575b50505091835250506003919091015463ffffffff8082166020840152640100000000820467ffffffffffffffff1660408401526c0100000000000000000000000090910473ffffffffffffffffffffffffffffffffffffffff166060928301529082015160098054939450929116908110610949576109496132c9565b60009182526020909120015473ffffffffffffffffffffffffffffffffffffffff1663236bd502848361097b82610a03565b6040518463ffffffff1660e01b8152600401610999939291906132f8565b600060405180830381865afa1580156109b6573d6000803e3d6000fd5b505050506040513d6000823e601f3d9081017fffffffffffffffffffffffffffffffffffffffffffffffffffffffffffffffe01682016040526109fc9190810190613417565b9392505050565b60606000600860008481526020019081526020016000206040518060c0016040529081600082018054610a3590613276565b80601f0160208091040260200160405190810160405280929190818152602001828054610a6190613276565b8015610aae5780601f10610a8357610100808354040283529160200191610aae565b820191906000526020600020905b815481529060010190602001808311610a9157829003601f168201915b50505050508152602001600182018054610ac790613276565b80601f0160208091040260200160405190810160405280929190818152602001828054610af390613276565b8015610b405780601f10610b1557610100808354040283529160200191610b40565b820191906000526020600020905b815481529060010190602001808311610b2357829003601f168201915b5050505050815260200160028201805480602002602001604051908101604052809291908181526020018280548015610baf57602002820191906000526020600020905b815473ffffffffffffffffffffffffffffffffffffffff168152600190910190602001808311610b84575b50505091835250506003919091015463ffffffff81166020830152640100000000810467ffffffffffffffff1660408301526c01000000000000000000000000900473ffffffffffffffffffffffffffffffffffffffff16606090910152905060005b8160400151518160ff161015610c815782610c4c83604001518360ff1681518110610c3f57610c3f6132c9565b6020026020010151611c71565b604051602001610c5d92919061348e565b60405160208183030381529060405292508080610c79906134ec565b915050610c12565b5050919050565b600a54821115610cc4576040517f9430a17e00000000000000000000000000000000000000000000000000000000815260040160405180910390fd5b6000610cd24861ea6061350b565b90506000610ce0838361350b565b905034811115610d1c576040517ff31a165400000000000000000000000000000000000000000000000000000000815260040160405180910390fd5b42610d268561177d565b1015610d5e576040517f589ed34b00000000000000000000000000000000000000000000000000000000815260040160405180910390fd5b610d7933858560405180602001604052806000815250611c9f565b60408051838152602081018590523381830152905185917f160ecdf0b6c0a56992b4f6fad717f85f3b0bba236ec571bf26ca5cf4fe61101e919081900360600190a250505050565b60098181548110610dd157600080fd5b60009182526020909120015473ffffffffffffffffffffffffffffffffffffffff16905081565b3373ffffffffffffffffffffffffffffffffffffffff86168114801590610e52575073ffffffffffffffffffffffffffffffffffffffff80871660009081526003602090815260408083209385168352929052205460ff16155b15610eae576040517fe237d92200000000000000000000000000000000000000000000000000000000815273ffffffffffffffffffffffffffffffffffffffff8083166004830152871660248201526044015b60405180910390fd5b610ebb8686868686611d22565b505050505050565b600480548190610ed290613276565b80601f0160208091040260200160405190810160405280929190818152602001828054610efe90613276565b8015610f4b5780601f10610f2057610100808354040283529160200191610f4b565b820191906000526020600020905b815481529060010190602001808311610f2e57829003601f168201915b505050505090806001018054610f6090613276565b80601f0160208091040260200160405190810160405280929190818152602001828054610f8c90613276565b8015610fd95780601f10610fae57610100808354040283529160200191610fd9565b820191906000526020600020905b815481529060010190602001808311610fbc57829003601f168201915b505050505090806002018054610fee90613276565b80601f016020809104026020016040519081016040528092919081815260200182805461101a90613276565b80156110675780601f1061103c57610100808354040283529160200191611067565b820191906000526020600020905b81548152906001019060200180831161104a57829003601f168201915b5050505050905083565b611079611dd6565b6000805460405173ffffffffffffffffffffffffffffffffffffffff909116914780156108fc02929091818181858888f193505050501580156110c0573d6000803e3d6000fd5b506040514781527f4e70a604b23a8edee2b1d0a656e9b9c00b73ad8bb1afc2c59381ee9f69197de79060200160405180910390a1565b6060815183511461114057815183516040517f5b05999100000000000000000000000000000000000000000000000000000000815260048101929092526024820152604401610ea5565b6000835167ffffffffffffffff81111561115c5761115c612a90565b604051908082528060200260200182016040528015611185578160200160208202803683370190505b50905060005b84518110156111d4576020808202860101516111af906020808402870101516105d3565b8282815181106111c1576111c16132c9565b602090810291909101015260010161118b565b509392505050565b6008602052600090815260409020805481906111f790613276565b80601f016020809104026020016040519081016040528092919081815260200182805461122390613276565b80156112705780601f1061124557610100808354040283529160200191611270565b820191906000526020600020905b81548152906001019060200180831161125357829003601f168201915b50505050509080600101805461128590613276565b80601f01602080910402602001604051908101604052809291908181526020018280546112b190613276565b80156112fe5780601f106112d3576101008083540402835291602001916112fe565b820191906000526020600020905b8154815290600101906020018083116112e157829003601f168201915b5050506003909301549192505063ffffffff81169067ffffffffffffffff6401000000008204169073ffffffffffffffffffffffffffffffffffffffff6c010000000000000000000000009091041685565b611358611dd6565b6113626000611e29565b565b600154339073ffffffffffffffffffffffffffffffffffffffff1681146113cf576040517f118cdaa700000000000000000000000000000000000000000000000000000000815273ffffffffffffffffffffffffffffffffffffffff82166004820152602401610ea5565b6113d881611e29565b50565b600b5415611415576040517f5daa87a000000000000000000000000000000000000000000000000000000000815260040160405180910390fd5b60046114228a8c8361356a565b506005611430888a8361356a565b50600661143e86888361356a565b5060005b60ff811684111561151c5760076114b3868660ff8516818110611467576114676132c9565b90506020028101906114799190613684565b8080601f016020809104026020016040519081016040528093929190818152602001838380828437600092019190915250611e5a92505050565b81546001810183556000928352602090922090910180547fffffffffffffffffffffffff00000000000000000000000000000000000000001673ffffffffffffffffffffffffffffffffffffffff90921691909117905580611514816134ec565b915050611442565b50600980546001810182556000919091527f6e1540171b6c0c960b71a7020d9f60077f6af931a8bbf590da0223dacf75c7af0180547fffffffffffffffffffffffff00000000000000000000000000000000000000001673ffffffffffffffffffffffffffffffffffffffff841617905543600b5561159a81611e29565b50505050505050505050565b6115ae611dd6565b6115b98260016136e9565b63ffffffff1660098054905010156115fd576040517fa9a25f6700000000000000000000000000000000000000000000000000000000815260040160405180910390fd5b600a6000815461160c9061370d565b90915550600a5460009081526008602052604090208061162d898b8361356a565b506001810161163d87898361356a565b5073ffffffffffffffffffffffffffffffffffffffff82166c010000000000000000000000000267ffffffffffffffff4216640100000000026bffffffffffffffff000000001663ffffffff8516171760038201558315611745576002810154156116b0576116b06002820160006128fe565b60005b60ff811685111561174357816002016116da87878460ff16818110611467576114676132c9565b81546001810183556000928352602090922090910180547fffffffffffffffffffffffff00000000000000000000000000000000000000001673ffffffffffffffffffffffffffffffffffffffff9092169190911790558061173b816134ec565b9150506116b3565b505b61176333600a54600160405180602001604052806000815250611c9f565b505050505050505050565b611779338383611f2b565b5050565b600081815260086020526040812060030154610604906201518090640100000000900467ffffffffffffffff16613745565b6117b7611dd6565b600a5484116117f1576040517ea5a1f500000000000000000000000000000000000000000000000000000000815260040160405180910390fd5b600084815260086020526040902060028101541580159061180f5750815b15611822576118226002820160006128fe565b60005b60ff8116841115610ebb578160020161184c86868460ff16818110611467576114676132c9565b81546001810183556000928352602090922090910180547fffffffffffffffffffffffff00000000000000000000000000000000000000001673ffffffffffffffffffffffffffffffffffffffff909216919091179055806118ad816134ec565b915050611825565b60006118bf611dd6565b600980546001808201835560008381527f6e1540171b6c0c960b71a7020d9f60077f6af931a8bbf590da0223dacf75c7af90920180547fffffffffffffffffffffffff00000000000000000000000000000000000000001673ffffffffffffffffffffffffffffffffffffffff87161790559154909161193e91613758565b9050808373ffffffffffffffffffffffffffffffffffffffff167fbe12a6cdcfa8711b87484030475533b479a18855d1d39eb97f1f0f3fd6e111ff60405160405180910390a390505b919050565b6040517f033918d300000000000000000000000000000000000000000000000000000000815260609073__$fe36b6aafc30e06b7be5019ccbbd4b34d3$__9063033918d3906119df906004908101613806565b600060405180830381865af41580156119fc573d6000803e3d6000fd5b505050506040513d6000823e601f3d9081017fffffffffffffffffffffffffffffffffffffffffffffffffffffffffffffffe0168201604052611a429190810190613417565b905090565b3373ffffffffffffffffffffffffffffffffffffffff86168114801590611aa1575073ffffffffffffffffffffffffffffffffffffffff80871660009081526003602090815260408083209385168352929052205460ff16155b15611af8576040517fe237d92200000000000000000000000000000000000000000000000000000000815273ffffffffffffffffffffffffffffffffffffffff808316600483015287166024820152604401610ea5565b610ebb8686868686612013565b611b0d611dd6565b6001805473ffffffffffffffffffffffffffffffffffffffff83167fffffffffffffffffffffffff00000000000000000000000000000000000000009091168117909155611b7060005473ffffffffffffffffffffffffffffffffffffffff1690565b73ffffffffffffffffffffffffffffffffffffffff167f38d16b8cac22d99fc7c124b9cd0de2d3fa1faef420bfe791d8c362d765e2270060405160405180910390a350565b73ffffffffffffffffffffffffffffffffffffffff83163314801590611c0c575073ffffffffffffffffffffffffffffffffffffffff8316600090815260036020908152604080832033845290915290205460ff16155b15611c61576040517fe237d92200000000000000000000000000000000000000000000000000000000815233600482015273ffffffffffffffffffffffffffffffffffffffff84166024820152604401610ea5565b611c6c8383836120ee565b505050565b6060610604826001611c9a8173ffffffffffffffffffffffffffffffffffffffff84163b613758565b61217d565b73ffffffffffffffffffffffffffffffffffffffff8416611cef576040517f57f447ce00000000000000000000000000000000000000000000000000000000815260006004820152602401610ea5565b60408051600180825260208201869052818301908152606082018590526080820190925290610ebb6000878484876121be565b73ffffffffffffffffffffffffffffffffffffffff8416611d72576040517f57f447ce00000000000000000000000000000000000000000000000000000000815260006004820152602401610ea5565b73ffffffffffffffffffffffffffffffffffffffff8516611dc2576040517f01a8351400000000000000000000000000000000000000000000000000000000815260006004820152602401610ea5565b611dcf85858585856121be565b5050505050565b60005473ffffffffffffffffffffffffffffffffffffffff163314611362576040517f118cdaa7000000000000000000000000000000000000000000000000000000008152336004820152602401610ea5565b600180547fffffffffffffffffffffffff00000000000000000000000000000000000000001690556113d88161221e565b60008082604051602001611e6e91906138d9565b6040516020818303038152906040529050600081604051602001611e9291906138ff565b60405160208183030381529060405290508051602082016000f0925073ffffffffffffffffffffffffffffffffffffffff8316610c81576040517f08c379a000000000000000000000000000000000000000000000000000000000815260206004820152601160248201527f4445504c4f594d454e545f4641494c45440000000000000000000000000000006044820152606401610ea5565b73ffffffffffffffffffffffffffffffffffffffff8216611f7b576040517fced3e10000000000000000000000000000000000000000000000000000000000815260006004820152602401610ea5565b73ffffffffffffffffffffffffffffffffffffffff83811660008181526003602090815260408083209487168084529482529182902080547fffffffffffffffffffffffffffffffffffffffffffffffffffffffffffffff001686151590811790915591519182527f17307eab39ab6107e8899845ad3d59bd9653f200f220920489ca2b5937696c31910160405180910390a3505050565b73ffffffffffffffffffffffffffffffffffffffff8416612063576040517f57f447ce00000000000000000000000000000000000000000000000000000000815260006004820152602401610ea5565b73ffffffffffffffffffffffffffffffffffffffff85166120b3576040517f01a8351400000000000000000000000000000000000000000000000000000000815260006004820152602401610ea5565b604080516001808252602082018690528183019081526060820185905260808201909252906120e587878484876121be565b50505050505050565b73ffffffffffffffffffffffffffffffffffffffff831661213e576040517f01a8351400000000000000000000000000000000000000000000000000000000815260006004820152602401610ea5565b604080516001808252602082018590528183019081526060820184905260a08201909252600060808201818152919291611dcf918791859085906121be565b60408051603f83017fffffffffffffffffffffffffffffffffffffffffffffffffffffffffffffffe0168101909152818152818360208301863c9392505050565b6121ca85858585612293565b73ffffffffffffffffffffffffffffffffffffffff841615611dcf5782513390600103612210576020848101519084015161220983898985858961257b565b5050610ebb565b610ebb81878787878761276d565b6000805473ffffffffffffffffffffffffffffffffffffffff8381167fffffffffffffffffffffffff0000000000000000000000000000000000000000831681178455604051919092169283917f8be0079c531659141344cd1fd0a4f28419497f9722a3daafe3b4186f6b6457e09190a35050565b80518251146122db57815181516040517f5b05999100000000000000000000000000000000000000000000000000000000815260048101929092526024820152604401610ea5565b3360005b835181101561244e5760208181028581018201519085019091015173ffffffffffffffffffffffffffffffffffffffff8816156123e357600082815260026020908152604080832073ffffffffffffffffffffffffffffffffffffffff8c168452909152902054818110156123ad576040517f03dee4c500000000000000000000000000000000000000000000000000000000815273ffffffffffffffffffffffffffffffffffffffff8a166004820152602481018290526044810183905260648101849052608401610ea5565b600083815260026020908152604080832073ffffffffffffffffffffffffffffffffffffffff8d16845290915290209082900390555b73ffffffffffffffffffffffffffffffffffffffff87161561244457600082815260026020908152604080832073ffffffffffffffffffffffffffffffffffffffff8b1684529091528120805483929061243e908490613745565b90915550505b50506001016122df565b5082516001036124f657602083015160009060208401519091508573ffffffffffffffffffffffffffffffffffffffff168773ffffffffffffffffffffffffffffffffffffffff168473ffffffffffffffffffffffffffffffffffffffff167fc3d58168c5ae7397731d063d5bbf3d657854427343f4c083240f7aacaa2d0f6285856040516124e7929190918252602082015260400190565b60405180910390a45050611dcf565b8373ffffffffffffffffffffffffffffffffffffffff168573ffffffffffffffffffffffffffffffffffffffff168273ffffffffffffffffffffffffffffffffffffffff167f4a39dc06d4c0dbc64b70af90fd698a233a518aa5d07e595d983b8c0526c8f7fb868660405161256c929190613944565b60405180910390a45050505050565b73ffffffffffffffffffffffffffffffffffffffff84163b15610ebb576040517ff23a6e6100000000000000000000000000000000000000000000000000000000815273ffffffffffffffffffffffffffffffffffffffff85169063f23a6e61906125f29089908990889088908890600401613969565b6020604051808303816000875af192505050801561264b575060408051601f3d9081017fffffffffffffffffffffffffffffffffffffffffffffffffffffffffffffffe0168201909252612648918101906139b9565b60015b6126da573d808015612679576040519150601f19603f3d011682016040523d82523d6000602084013e61267e565b606091505b5080516000036126d2576040517f57f447ce00000000000000000000000000000000000000000000000000000000815273ffffffffffffffffffffffffffffffffffffffff86166004820152602401610ea5565b805181602001fd5b7fffffffff0000000000000000000000000000000000000000000000000000000081167ff23a6e6100000000000000000000000000000000000000000000000000000000146120e5576040517f57f447ce00000000000000000000000000000000000000000000000000000000815273ffffffffffffffffffffffffffffffffffffffff86166004820152602401610ea5565b73ffffffffffffffffffffffffffffffffffffffff84163b15610ebb576040517fbc197c8100000000000000000000000000000000000000000000000000000000815273ffffffffffffffffffffffffffffffffffffffff85169063bc197c81906127e490899089908890889088906004016139d6565b6020604051808303816000875af192505050801561283d575060408051601f3d9081017fffffffffffffffffffffffffffffffffffffffffffffffffffffffffffffffe016820190925261283a918101906139b9565b60015b61286b573d808015612679576040519150601f19603f3d011682016040523d82523d6000602084013e61267e565b7fffffffff0000000000000000000000000000000000000000000000000000000081167fbc197c8100000000000000000000000000000000000000000000000000000000146120e5576040517f57f447ce00000000000000000000000000000000000000000000000000000000815273ffffffffffffffffffffffffffffffffffffffff86166004820152602401610ea5565b50805460008255906000526020600020908101906113d891905b8082111561292c5760008155600101612918565b5090565b73ffffffffffffffffffffffffffffffffffffffff811681146113d857600080fd5b803561198781612930565b6000806040838503121561297057600080fd5b823561297b81612930565b946020939093013593505050565b7fffffffff00000000000000000000000000000000000000000000000000000000811681146113d857600080fd5b6000602082840312156129c957600080fd5b81356109fc81612989565b6000602082840312156129e657600080fd5b5035919050565b60005b83811015612a085781810151838201526020016129f0565b50506000910152565b60008151808452612a298160208601602086016129ed565b601f017fffffffffffffffffffffffffffffffffffffffffffffffffffffffffffffffe0169290920160200192915050565b6020815260006109fc6020830184612a11565b60008060408385031215612a8157600080fd5b50508035926020909101359150565b7f4e487b7100000000000000000000000000000000000000000000000000000000600052604160045260246000fd5b604051601f82017fffffffffffffffffffffffffffffffffffffffffffffffffffffffffffffffe016810167ffffffffffffffff81118282101715612b0657612b06612a90565b604052919050565b600067ffffffffffffffff821115612b2857612b28612a90565b5060051b60200190565b600082601f830112612b4357600080fd5b81356020612b58612b5383612b0e565b612abf565b8083825260208201915060208460051b870101935086841115612b7a57600080fd5b602086015b84811015612b965780358352918301918301612b7f565b509695505050505050565b600067ffffffffffffffff821115612bbb57612bbb612a90565b50601f017fffffffffffffffffffffffffffffffffffffffffffffffffffffffffffffffe01660200190565b600082601f830112612bf857600080fd5b8135612c06612b5382612ba1565b818152846020838601011115612c1b57600080fd5b816020850160208301376000918101602001919091529392505050565b600080600080600060a08688031215612c5057600080fd5b8535612c5b81612930565b94506020860135612c6b81612930565b9350604086013567ffffffffffffffff80821115612c8857600080fd5b612c9489838a01612b32565b94506060880135915080821115612caa57600080fd5b612cb689838a01612b32565b93506080880135915080821115612ccc57600080fd5b50612cd988828901612be7565b9150509295509295909350565b606081526000612cf96060830186612a11565b8281036020840152612d0b8186612a11565b90508281036040840152612d1f8185612a11565b9695505050505050565b60008060408385031215612d3c57600080fd5b823567ffffffffffffffff80821115612d5457600080fd5b818501915085601f830112612d6857600080fd5b81356020612d78612b5383612b0e565b82815260059290921b84018101918181019089841115612d9757600080fd5b948201945b83861015612dbe578535612daf81612930565b82529482019490820190612d9c565b96505086013592505080821115612dd457600080fd5b50612de185828601612b32565b9150509250929050565b60008151808452602080850194506020840160005b83811015612e1c57815187529582019590820190600101612e00565b509495945050505050565b6020815260006109fc6020830184612deb565b60a081526000612e4d60a0830188612a11565b8281036020840152612e5f8188612a11565b63ffffffff969096166040840152505067ffffffffffffffff92909216606083015273ffffffffffffffffffffffffffffffffffffffff1660809091015292915050565b60008083601f840112612eb557600080fd5b50813567ffffffffffffffff811115612ecd57600080fd5b602083019150836020828501011115612ee557600080fd5b9250929050565b60008083601f840112612efe57600080fd5b50813567ffffffffffffffff811115612f1657600080fd5b6020830191508360208260051b8501011115612ee557600080fd5b60008060008060008060008060008060c08b8d031215612f5057600080fd5b8a3567ffffffffffffffff80821115612f6857600080fd5b612f748e838f01612ea3565b909c509a5060208d0135915080821115612f8d57600080fd5b612f998e838f01612ea3565b909a50985060408d0135915080821115612fb257600080fd5b612fbe8e838f01612ea3565b909850965060608d0135915080821115612fd757600080fd5b50612fe48d828e01612eec565b9095509350612ff7905060808c01612952565b915061300560a08c01612952565b90509295989b9194979a5092959850565b60008060008060008060008060a0898b03121561303257600080fd5b883567ffffffffffffffff8082111561304a57600080fd5b6130568c838d01612ea3565b909a50985060208b013591508082111561306f57600080fd5b61307b8c838d01612ea3565b909850965060408b013591508082111561309457600080fd5b506130a18b828c01612eec565b909550935050606089013563ffffffff811681146130be57600080fd5b915060808901356130ce81612930565b809150509295985092959890939650565b8035801515811461198757600080fd5b6000806040838503121561310257600080fd5b823561310d81612930565b915061311b602084016130df565b90509250929050565b6000806000806060858703121561313a57600080fd5b84359350602085013567ffffffffffffffff81111561315857600080fd5b61316487828801612eec565b90945092506131779050604086016130df565b905092959194509250565b60006020828403121561319457600080fd5b81356109fc81612930565b600080604083850312156131b257600080fd5b82356131bd81612930565b915060208301356131cd81612930565b809150509250929050565b600080600080600060a086880312156131f057600080fd5b85356131fb81612930565b9450602086013561320b81612930565b93506040860135925060608601359150608086013567ffffffffffffffff81111561323557600080fd5b612cd988828901612be7565b60008060006060848603121561325657600080fd5b833561326181612930565b95602085013595506040909401359392505050565b600181811c9082168061328a57607f821691505b6020821081036132c3577f4e487b7100000000000000000000000000000000000000000000000000000000600052602260045260246000fd5b50919050565b7f4e487b7100000000000000000000000000000000000000000000000000000000600052603260045260246000fd5b83815260006020606081840152845160c0606085015261331c610120850182612a11565b9050818601517fffffffffffffffffffffffffffffffffffffffffffffffffffffffffffffffa0808684030160808701526133578383612a11565b604089015187820390920160a088015281518082529185019350600092508401905b808310156133af57835173ffffffffffffffffffffffffffffffffffffffff168252928401926001929092019190840190613379565b50606088015163ffffffff1660c0870152608088015167ffffffffffffffff1660e087015260a088015173ffffffffffffffffffffffffffffffffffffffff81166101008801528682036040880152935061340a8188612a11565b9998505050505050505050565b60006020828403121561342957600080fd5b815167ffffffffffffffff81111561344057600080fd5b8201601f8101841361345157600080fd5b805161345f612b5382612ba1565b81815285602083850101111561347457600080fd5b6134858260208301602086016129ed565b95945050505050565b600083516134a08184602088016129ed565b8351908301906134b48183602088016129ed565b01949350505050565b7f4e487b7100000000000000000000000000000000000000000000000000000000600052601160045260246000fd5b600060ff821660ff8103613502576135026134bd565b60010192915050565b8082028115828204841417610604576106046134bd565b601f821115611c6c576000816000526020600020601f850160051c8101602086101561354b5750805b601f850160051c820191505b81811015610ebb57828155600101613557565b67ffffffffffffffff83111561358257613582612a90565b613596836135908354613276565b83613522565b6000601f8411600181146135e857600085156135b25750838201355b7fffffffffffffffffffffffffffffffffffffffffffffffffffffffffffffffff600387901b1c1916600186901b178355611dcf565b6000838152602090207fffffffffffffffffffffffffffffffffffffffffffffffffffffffffffffffe0861690835b828110156136375786850135825560209485019460019092019101613617565b5086821015613672577fffffffffffffffffffffffffffffffffffffffffffffffffffffffffffffffff60f88860031b161c19848701351681555b505060018560011b0183555050505050565b60008083357fffffffffffffffffffffffffffffffffffffffffffffffffffffffffffffffe18436030181126136b957600080fd5b83018035915067ffffffffffffffff8211156136d457600080fd5b602001915036819003821315612ee557600080fd5b63ffffffff818116838216019080821115613706576137066134bd565b5092915050565b60007fffffffffffffffffffffffffffffffffffffffffffffffffffffffffffffffff820361373e5761373e6134bd565b5060010190565b80820180821115610604576106046134bd565b81810381811115610604576106046134bd565b6000815461377881613276565b80855260206001838116801561379557600181146137cd576137fb565b7fffffffffffffffffffffffffffffffffffffffffffffffffffffffffffffff008516838901528284151560051b89010195506137fb565b866000528260002060005b858110156137f35781548a82018601529083019084016137d8565b890184019650505b505050505092915050565b600060208083526080602084015261382160a084018561376b565b60017fffffffffffffffffffffffffffffffffffffffffffffffffffffffffffffffe08086840301604087015261385b836001890161376b565b925080868403016060870152613874836002890161376b565b8681039091016080870152600387018054808352600091825260208083209550909201915b808210156138cc57845473ffffffffffffffffffffffffffffffffffffffff168352938301939185019190830190613899565b5090979650505050505050565b60008152600082516138f28160018501602087016129ed565b9190910160010192915050565b7f600b5981380380925939f300000000000000000000000000000000000000000081526000825161393781600b8501602087016129ed565b91909101600b0192915050565b6040815260006139576040830185612deb565b82810360208401526134858185612deb565b600073ffffffffffffffffffffffffffffffffffffffff808816835280871660208401525084604083015283606083015260a060808301526139ae60a0830184612a11565b979650505050505050565b6000602082840312156139cb57600080fd5b81516109fc81612989565b600073ffffffffffffffffffffffffffffffffffffffff808816835280871660208401525060a06040830152613a0f60a0830186612deb565b8281036060840152613a218186612deb565b90508281036080840152613a358185612a11565b9897505050505050505056fea264697066735822122096a9e6cd3228b577a4960d1e27e2aae9125883a9cba4bbbff01d6c9f30df7caa64736f6c63430008180033a26469706673582212200b1707153156b6dcb0eb6e65412147489bd97c2ba659a1df3e49756b8cd30c1264736f6c63430008180033",
  "linkReferences": {
    "contracts/libraries/ContractMetadata.sol": {
      "ContractMetadata": [
        {
          "length": 20,
          "start": 13013
        }
      ]
    }
  },
  "deployedLinkReferences": {
    "contracts/libraries/ContractMetadata.sol": {
      "ContractMetadata": [
        {
          "length": 20,
          "start": 12760
        }
      ]
    }
  }
}