{
  "_format": "hh-sol-artifact-1",
  "contractName": "P5RendererV2",
  "sourceName": "contracts/renderers/P5RendererV2.sol",
  "abi": [
    {
      "inputs": [
        {
          "internalType": "uint256",
          "name": "",
          "type": "uint256"
        },
        {
          "components": [
            {
              "internalType": "string",
              "name": "name",
              "type": "string"
            },
            {
              "internalType": "string",
              "name": "description",
              "type": "string"
            },
            {
              "internalType": "address[]",
              "name": "artifact",
              "type": "address[]"
            },
            {
              "internalType": "uint32",
              "name": "renderer",
              "type": "uint32"
            },
            {
              "internalType": "uint32",
              "name": "mintedBlock",
              "type": "uint32"
            },
            {
              "internalType": "uint64",
              "name": "closeAt",
              "type": "uint64"
            },
            {
              "internalType": "uint128",
              "name": "data",
              "type": "uint128"
            }
          ],
          "internalType": "struct Token",
          "name": "token",
          "type": "tuple"
        }
      ],
      "name": "animationURI",
      "outputs": [
        {
          "internalType": "string",
          "name": "",
          "type": "string"
        }
      ],
      "stateMutability": "view",
      "type": "function"
    },
    {
      "inputs": [
        {
          "internalType": "uint256",
          "name": "",
          "type": "uint256"
        },
        {
          "components": [
            {
              "internalType": "string",
              "name": "name",
              "type": "string"
            },
            {
              "internalType": "string",
              "name": "description",
              "type": "string"
            },
            {
              "internalType": "address[]",
              "name": "artifact",
              "type": "address[]"
            },
            {
              "internalType": "uint32",
              "name": "renderer",
              "type": "uint32"
            },
            {
              "internalType": "uint32",
              "name": "mintedBlock",
              "type": "uint32"
            },
            {
              "internalType": "uint64",
              "name": "closeAt",
              "type": "uint64"
            },
            {
              "internalType": "uint128",
              "name": "data",
              "type": "uint128"
            }
          ],
          "internalType": "struct Token",
          "name": "token",
          "type": "tuple"
        }
      ],
      "name": "imageURI",
      "outputs": [
        {
          "internalType": "string",
          "name": "",
          "type": "string"
        }
      ],
      "stateMutability": "view",
      "type": "function"
    },
    {
      "inputs": [],
      "name": "name",
      "outputs": [
        {
          "internalType": "string",
          "name": "",
          "type": "string"
        }
      ],
      "stateMutability": "pure",
      "type": "function"
    },
    {
      "inputs": [
        {
          "internalType": "uint256",
          "name": "",
          "type": "uint256"
        },
        {
          "components": [
            {
              "internalType": "string",
              "name": "name",
              "type": "string"
            },
            {
              "internalType": "string",
              "name": "description",
              "type": "string"
            },
            {
              "internalType": "address[]",
              "name": "artifact",
              "type": "address[]"
            },
            {
              "internalType": "uint32",
              "name": "renderer",
              "type": "uint32"
            },
            {
              "internalType": "uint32",
              "name": "mintedBlock",
              "type": "uint32"
            },
            {
              "internalType": "uint64",
              "name": "closeAt",
              "type": "uint64"
            },
            {
              "internalType": "uint128",
              "name": "data",
              "type": "uint128"
            }
          ],
          "internalType": "struct Token",
          "name": "token",
          "type": "tuple"
        }
      ],
      "name": "scriptURI",
      "outputs": [
        {
          "internalType": "string",
          "name": "",
          "type": "string"
        }
      ],
      "stateMutability": "view",
      "type": "function"
    },
    {
      "inputs": [
        {
          "internalType": "uint256",
          "name": "tokenId",
          "type": "uint256"
        },
        {
          "components": [
            {
              "internalType": "string",
              "name": "name",
              "type": "string"
            },
            {
              "internalType": "string",
              "name": "description",
              "type": "string"
            },
            {
              "internalType": "address[]",
              "name": "artifact",
              "type": "address[]"
            },
            {
              "internalType": "uint32",
              "name": "renderer",
              "type": "uint32"
            },
            {
              "internalType": "uint32",
              "name": "mintedBlock",
              "type": "uint32"
            },
            {
              "internalType": "uint64",
              "name": "closeAt",
              "type": "uint64"
            },
            {
              "internalType": "uint128",
              "name": "data",
              "type": "uint128"
            }
          ],
          "internalType": "struct Token",
          "name": "token",
          "type": "tuple"
        }
      ],
      "name": "uri",
      "outputs": [
        {
          "internalType": "string",
          "name": "",
          "type": "string"
        }
      ],
      "stateMutability": "view",
      "type": "function"
    },
    {
      "inputs": [],
      "name": "version",
      "outputs": [
        {
          "internalType": "uint256",
          "name": "",
          "type": "uint256"
        }
      ],
      "stateMutability": "pure",
      "type": "function"
    }
  ],
  "bytecode": "0x608060405234801561001057600080fd5b506119ed806100206000396000f3fe608060405234801561001057600080fd5b50600436106100725760003560e01c8063a2f31bf311610050578063a2f31bf3146100e4578063a6669e66146100f7578063cf9bc65e1461010a57600080fd5b806306fdde031461007757806354fd4d50146100c257806360f4ae8d146100d1575b600080fd5b60408051808201909152600b81527f50352052656e646572657200000000000000000000000000000000000000000060208201525b6040516100b99190610ed4565b60405180910390f35b604051600281526020016100b9565b6100ac6100df366004610eee565b61011d565b6100ac6100f2366004610eee565b610203565b6100ac610105366004610eee565b61037f565b6100ac610118366004610eee565b610439565b6060600073__$e6323e164ca9fc3d326792c834c81a6dab$__631c6cf18f846040518263ffffffff1660e01b8152600401610158919061109d565b600060405180830381865af4158015610175573d6000803e3d6000fd5b505050506040513d6000823e601f3d9081017fffffffffffffffffffffffffffffffffffffffffffffffffffffffffffffffe01682016040526101bb91908101906112c6565b8060200190518101906101ce919061132f565b9150506101da8161053f565b6040516020016101ea91906113af565b6040516020818303038152906040529150505b92915050565b606060008073__$e6323e164ca9fc3d326792c834c81a6dab$__631c6cf18f856040518263ffffffff1660e01b815260040161023f919061109d565b600060405180830381865af415801561025c573d6000803e3d6000fd5b505050506040513d6000823e601f3d9081017fffffffffffffffffffffffffffffffffffffffffffffffffffffffffffffffe01682016040526102a291908101906112c6565b8060200190518101906102b5919061132f565b9150915060006102c48661069f565b6102ce86806113f4565b6102db60208901896113f4565b876103256102e98c806113f4565b8080601f0160208091040260200160405190810160405280939291908181526020018383808284376000920191909152508c925061075e915050565b60405160200161033b9796959493929190611459565b60405160208183030381529060405290506103558161053f565b6040516020016103659190611651565b604051602081830303815290604052935050505092915050565b6060600073__$e6323e164ca9fc3d326792c834c81a6dab$__631c6cf18f846040518263ffffffff1660e01b81526004016103ba919061109d565b600060405180830381865af41580156103d7573d6000803e3d6000fd5b505050506040513d6000823e601f3d9081017fffffffffffffffffffffffffffffffffffffffffffffffffffffffffffffffe016820160405261041d91908101906112c6565b806020019051810190610430919061132f565b50949350505050565b6060600073__$e6323e164ca9fc3d326792c834c81a6dab$__631c6cf18f846040518263ffffffff1660e01b8152600401610474919061109d565b600060405180830381865af4158015610491573d6000803e3d6000fd5b505050506040513d6000823e601f3d9081017fffffffffffffffffffffffffffffffffffffffffffffffffffffffffffffffe01682016040526104d791908101906112c6565b8060200190518101906104ea919061132f565b915061053790506104fb84806113f4565b8080601f01602080910402602001604051908101604052809392919081815260200183838082843760009201919091525085925061075e915050565b949350505050565b6060815160000361055e57505060408051602081019091526000815290565b6000604051806060016040528060408152602001611978604091399050600060038451600261058d91906116c5565b61059791906116d8565b6105a2906004611713565b67ffffffffffffffff8111156105ba576105ba611205565b6040519080825280601f01601f1916602001820160405280156105e4576020820181803683370190505b50905060018201602082018586518701602081018051600082525b8284101561065a576003840193508351603f8160121c168701518653600186019550603f81600c1c168701518653600186019550603f8160061c168701518653600186019550603f81168701518653506001850194506105ff565b9052505085516003900660018114610679576002811461068c57610694565b603d6001830353603d6002830353610694565b603d60018303535b509195945050505050565b606060006106ac83610d20565b600101905060008167ffffffffffffffff8111156106cc576106cc611205565b6040519080825280601f01601f1916602001820160405280156106f6576020820181803683370190505b5090508181016020015b7fffffffffffffffffffffffffffffffffffffffffffffffffffffffffffffffff017f3031323334353637383961626364656600000000000000000000000000000000600a86061a8153600a8504945084610700575b509392505050565b604080516002808252606082810190935260009190816020015b610780610e02565b8152602001906001900390816107785790505090506040518060400160405280600781526020017f3c7469746c653e00000000000000000000000000000000000000000000000000815250816000815181106107de576107de61172a565b60200260200101516080018190525083816000815181106108015761080161172a565b602002602001015160c001819052506040518060400160405280600881526020017f3c2f7469746c653e000000000000000000000000000000000000000000000000815250816000815181106108595761085961172a565b602002602001015160a001819052506040518060400160405280601281526020017f66756c6c53697a6543616e7661732e6373730000000000000000000000000000815250816001815181106108b1576108b161172a565b60200260200101516000018190525060405180606001604052806032815260200161194660329139816001815181106108ec576108ec61172a565b6020026020010151608001819052506040518060400160405280600281526020017f223e000000000000000000000000000000000000000000000000000000000000815250816001815181106109445761094461172a565b602002602001015160a00181905250738faa1aab9da8c75917c43fb24fddb513eddc32458160018151811061097b5761097b61172a565b60209081029190910181015173ffffffffffffffffffffffffffffffffffffffff9290921691015260408051600380825260808201909252600091816020015b6109c3610e02565b8152602001906001900390816109bb5790505090506040518060400160405280601381526020017f70352d76312e352e302e6d696e2e6a732e677a0000000000000000000000000081525081600081518110610a2157610a2161172a565b602002602001015160000181905250600381600081518110610a4557610a4561172a565b6020026020010151606001906004811115610a6257610a62611759565b90816004811115610a7557610a75611759565b81525050738faa1aab9da8c75917c43fb24fddb513eddc324581600081518110610aa157610aa161172a565b60200260200101516020019073ffffffffffffffffffffffffffffffffffffffff16908173ffffffffffffffffffffffffffffffffffffffff16815250506040518060400160405280601681526020017f67756e7a6970536372697074732d302e302e312e6a730000000000000000000081525081600181518110610b2857610b2861172a565b602002602001015160000181905250600281600181518110610b4c57610b4c61172a565b6020026020010151606001906004811115610b6957610b69611759565b90816004811115610b7c57610b7c611759565b81525050738faa1aab9da8c75917c43fb24fddb513eddc324581600181518110610ba857610ba861172a565b60200260200101516020019073ffffffffffffffffffffffffffffffffffffffff16908173ffffffffffffffffffffffffffffffffffffffff16815250508381600281518110610bfa57610bfa61172a565b602002602001015160c00181905250600181600281518110610c1e57610c1e61172a565b6020026020010151606001906004811115610c3b57610c3b611759565b90816004811115610c4e57610c4e611759565b9052506040805180820182528381526020810183905290517f2bee680700000000000000000000000000000000000000000000000000000000815273d7587f110e08f4d120a231ba97d3b577a81df02290632bee680790610cb39084906004016118e5565b600060405180830381865afa158015610cd0573d6000803e3d6000fd5b505050506040513d6000823e601f3d9081017fffffffffffffffffffffffffffffffffffffffffffffffffffffffffffffffe0168201604052610d1691908101906112c6565b9695505050505050565b6000807a184f03e93ff9f4daa797ed6e38ed64bf6a1f0100000000000000008310610d69577a184f03e93ff9f4daa797ed6e38ed64bf6a1f010000000000000000830492506040015b6d04ee2d6d415b85acef81000000008310610d95576d04ee2d6d415b85acef8100000000830492506020015b662386f26fc100008310610db357662386f26fc10000830492506010015b6305f5e1008310610dcb576305f5e100830492506008015b6127108310610ddf57612710830492506004015b60648310610df1576064830492506002015b600a83106101fd5760010192915050565b6040518060e0016040528060608152602001600073ffffffffffffffffffffffffffffffffffffffff1681526020016060815260200160006004811115610e4b57610e4b611759565b81526020016060815260200160608152602001606081525090565b60005b83811015610e81578181015183820152602001610e69565b50506000910152565b60008151808452610ea2816020860160208601610e66565b601f017fffffffffffffffffffffffffffffffffffffffffffffffffffffffffffffffe0169290920160200192915050565b602081526000610ee76020830184610e8a565b9392505050565b60008060408385031215610f0157600080fd5b82359150602083013567ffffffffffffffff811115610f1f57600080fd5b830160e08186031215610f3157600080fd5b809150509250929050565b60008083357fffffffffffffffffffffffffffffffffffffffffffffffffffffffffffffffe1843603018112610f7157600080fd5b830160208101925035905067ffffffffffffffff811115610f9157600080fd5b803603821315610fa057600080fd5b9250929050565b8183528181602085013750600060208284010152600060207fffffffffffffffffffffffffffffffffffffffffffffffffffffffffffffffe0601f840116840101905092915050565b818352600060208085019450826000805b8681101561104057823573ffffffffffffffffffffffffffffffffffffffff811680821461102d578384fd5b8952509683019691830191600101611001565b50959695505050505050565b803563ffffffff8116811461106057600080fd5b919050565b803567ffffffffffffffff8116811461106057600080fd5b80356fffffffffffffffffffffffffffffffff8116811461106057600080fd5b6020815260006110ad8384610f3c565b60e060208501526110c361010085018284610fa7565b9150506110d36020850185610f3c565b7fffffffffffffffffffffffffffffffffffffffffffffffffffffffffffffffe080868503016040870152611109848385610fa7565b9350604087013592507fffffffffffffffffffffffffffffffffffffffffffffffffffffffffffffffe187360301831261114257600080fd5b60209287019283019235915067ffffffffffffffff82111561116357600080fd5b8160051b360383131561117557600080fd5b858403016060860152611189838284610ff0565b925050506111996060850161104c565b63ffffffff81166080850152506111b26080850161104c565b63ffffffff811660a0850152506111cb60a08501611065565b67ffffffffffffffff811660c0850152506111e860c0850161107d565b6fffffffffffffffffffffffffffffffff811660e0850152610756565b7f4e487b7100000000000000000000000000000000000000000000000000000000600052604160045260246000fd5b600067ffffffffffffffff8084111561124f5761124f611205565b604051601f85017fffffffffffffffffffffffffffffffffffffffffffffffffffffffffffffffe0908116603f0116810190828211818310171561129557611295611205565b816040528093508581528686860111156112ae57600080fd5b6112bc866020830187610e66565b5050509392505050565b6000602082840312156112d857600080fd5b815167ffffffffffffffff8111156112ef57600080fd5b8201601f8101841361130057600080fd5b61053784825160208401611234565b600082601f83011261132057600080fd5b610ee783835160208501611234565b6000806040838503121561134257600080fd5b825167ffffffffffffffff8082111561135a57600080fd5b6113668683870161130f565b9350602085015191508082111561137c57600080fd5b506113898582860161130f565b9150509250929050565b600081516113a5818560208601610e66565b9290920192915050565b7f646174613a746578742f6a6176617363726970743b6261736536342c000000008152600082516113e781601c850160208701610e66565b91909101601c0192915050565b60008083357fffffffffffffffffffffffffffffffffffffffffffffffffffffffffffffffe184360301811261142957600080fd5b83018035915067ffffffffffffffff82111561144457600080fd5b602001915036819003821315610fa057600080fd5b7f7b0000000000000000000000000000000000000000000000000000000000000081527f226964223a2022000000000000000000000000000000000000000000000000006001820152600088516114b7816008850160208d01610e66565b80830190507f222c0000000000000000000000000000000000000000000000000000000000008060088301527f226e616d65223a20220000000000000000000000000000000000000000000000600a830152888a601384013788820191508060138301527f226465736372697074696f6e223a20220000000000000000000000000000000060158301528688602584013760259187019182015261164361161a6115f16115eb6115c2611599611593602788017f22696d616765223a2022000000000000000000000000000000000000000000008152600a0190565b8b611393565b7f222c000000000000000000000000000000000000000000000000000000000000815260020190565b7f22616e696d6174696f6e5f75726c223a20220000000000000000000000000000815260120190565b87611393565b7f2200000000000000000000000000000000000000000000000000000000000000815260010190565b7f7d00000000000000000000000000000000000000000000000000000000000000815260010190565b9a9950505050505050505050565b7f646174613a6170706c69636174696f6e2f6a736f6e3b6261736536342c00000081526000825161168981601d850160208701610e66565b91909101601d0192915050565b7f4e487b7100000000000000000000000000000000000000000000000000000000600052601160045260246000fd5b808201808211156101fd576101fd611696565b60008261170e577f4e487b7100000000000000000000000000000000000000000000000000000000600052601260045260246000fd5b500490565b80820281158282048414176101fd576101fd611696565b7f4e487b7100000000000000000000000000000000000000000000000000000000600052603260045260246000fd5b7f4e487b7100000000000000000000000000000000000000000000000000000000600052602160045260246000fd5b600581106117bf577f4e487b7100000000000000000000000000000000000000000000000000000000600052602160045260246000fd5b9052565b600082825180855260208086019550808260051b84010181860160005b848110156118d8577fffffffffffffffffffffffffffffffffffffffffffffffffffffffffffffffe0868403018952815160e0815181865261182482870182610e8a565b91505073ffffffffffffffffffffffffffffffffffffffff8683015116868601526040808301518683038288015261185c8382610e8a565b9250505060608083015161187282880182611788565b50506080808301518683038288015261188b8382610e8a565b9250505060a080830151868303828801526118a68382610e8a565b9250505060c080830151925085820381870152506118c48183610e8a565b9a86019a94505050908301906001016117e0565b5090979650505050505050565b60208152600082516040602084015261190160608401826117c3565b905060208401517fffffffffffffffffffffffffffffffffffffffffffffffffffffffffffffffe084830301604085015261193c82826117c3565b9594505050505056fe3c6c696e6b2072656c3d227374796c6573686565742220687265663d22646174613a746578742f6373733b6261736536342c4142434445464748494a4b4c4d4e4f505152535455565758595a6162636465666768696a6b6c6d6e6f707172737475767778797a303132333435363738392b2fa2646970667358221220c699d3bacf32388507d149b7694b5816371d1377ea48f2b5553d456c1a3b597564736f6c63430008180033",
  "linkReferences": {
    "contracts/libraries/ArtifactReader.sol": {
      "ArtifactReader": [
        {
          "length": 20,
          "start": 323
        },
        {
          "length": 20,
          "start": 554
        },
        {
          "length": 20,
          "start": 933
        },
        {
          "length": 20,
          "start": 1119
        }
      ]
    }
  },
  "deployedLinkReferences": {
    "contracts/libraries/ArtifactReader.sol": {
      "ArtifactReader": [
        {
          "length": 20,
          "start": 291
        },
        {
          "length": 20,
          "start": 522
        },
        {
          "length": 20,
          "start": 901
        },
        {
          "length": 20,
          "start": 1087
        }
      ]
    }
  }
}