{
  "_format": "hh-sol-artifact-1",
  "contractName": "P5Renderer",
  "sourceName": "contracts/renderers/P5Renderer.sol",
  "abi": [
    {
      "inputs": [],
      "name": "name",
      "outputs": [
        {
          "internalType": "string",
          "name": "",
          "type": "string"
        }
      ],
      "stateMutability": "pure",
      "type": "function"
    },
    {
      "inputs": [
        {
          "internalType": "uint256",
          "name": "tokenId",
          "type": "uint256"
        },
        {
          "components": [
            {
              "internalType": "string",
              "name": "name",
              "type": "string"
            },
            {
              "internalType": "string",
              "name": "description",
              "type": "string"
            },
            {
              "internalType": "address[]",
              "name": "artifact",
              "type": "address[]"
            },
            {
              "internalType": "uint32",
              "name": "renderer",
              "type": "uint32"
            },
            {
              "internalType": "uint32",
              "name": "blocks",
              "type": "uint32"
            },
            {
              "internalType": "uint192",
              "name": "data",
              "type": "uint192"
            }
          ],
          "internalType": "struct Token",
          "name": "token",
          "type": "tuple"
        },
        {
          "internalType": "bytes",
          "name": "artifact",
          "type": "bytes"
        }
      ],
      "name": "uri",
      "outputs": [
        {
          "internalType": "string",
          "name": "",
          "type": "string"
        }
      ],
      "stateMutability": "view",
      "type": "function"
    },
    {
      "inputs": [],
      "name": "version",
      "outputs": [
        {
          "internalType": "uint256",
          "name": "",
          "type": "uint256"
        }
      ],
      "stateMutability": "pure",
      "type": "function"
    }
  ],
  "bytecode": "0x608060405234801561001057600080fd5b50611469806100206000396000f3fe608060405234801561001057600080fd5b50600436106100415760003560e01c806306fdde031461004657806354fd4d5014610091578063ff787846146100a0575b600080fd5b60408051808201909152600b81527f50352052656e646572657200000000000000000000000000000000000000000060208201525b6040516100889190610b33565b60405180910390f35b60405160018152602001610088565b61007b6100ae366004610c0a565b6060600080838060200190518101906100c79190610d12565b9150915060006100d68761019d565b6100e08780610d76565b6100ed60208a018a610d76565b876100f78861025b565b6101406101048e80610d76565b8080601f0160208091040260200160405190810160405280939291908181526020018383808284376000920191909152508d92506103bb915050565b604051602001610157989796959493929190610dfe565b60405160208183030381529060405290506101718161025b565b604051602001610181919061107c565b60405160208183030381529060405293505050505b9392505050565b606060006101aa8361097f565b600101905060008167ffffffffffffffff8111156101ca576101ca610b46565b6040519080825280601f01601f1916602001820160405280156101f4576020820181803683370190505b5090508181016020015b7fffffffffffffffffffffffffffffffffffffffffffffffffffffffffffffffff017f3031323334353637383961626364656600000000000000000000000000000000600a86061a8153600a85049450846101fe57509392505050565b6060815160000361027a57505060408051602081019091526000815290565b60006040518060600160405280604081526020016113f460409139905060006003845160026102a991906110f0565b6102b39190611103565b6102be90600461113e565b67ffffffffffffffff8111156102d6576102d6610b46565b6040519080825280601f01601f191660200182016040528015610300576020820181803683370190505b50905060018201602082018586518701602081018051600082525b82841015610376576003840193508351603f8160121c168701518653600186019550603f81600c1c168701518653600186019550603f8160061c168701518653600186019550603f811687015186535060018501945061031b565b905250508551600390066001811461039557600281146103a8576103b0565b603d6001830353603d60028303536103b0565b603d60018303535b509195945050505050565b604080516002808252606082810190935260009190816020015b6103dd610a61565b8152602001906001900390816103d55790505090506040518060400160405280600781526020017f3c7469746c653e000000000000000000000000000000000000000000000000008152508160008151811061043b5761043b611155565b602002602001015160800181905250838160008151811061045e5761045e611155565b602002602001015160c001819052506040518060400160405280600881526020017f3c2f7469746c653e000000000000000000000000000000000000000000000000815250816000815181106104b6576104b6611155565b602002602001015160a001819052506040518060400160405280601281526020017f66756c6c53697a6543616e7661732e63737300000000000000000000000000008152508160018151811061050e5761050e611155565b6020026020010151600001819052506040518060600160405280603281526020016113c2603291398160018151811061054957610549611155565b6020026020010151608001819052506040518060400160405280600281526020017f223e000000000000000000000000000000000000000000000000000000000000815250816001815181106105a1576105a1611155565b602002602001015160a00181905250738faa1aab9da8c75917c43fb24fddb513eddc3245816001815181106105d8576105d8611155565b60209081029190910181015173ffffffffffffffffffffffffffffffffffffffff9290921691015260408051600380825260808201909252600091816020015b610620610a61565b8152602001906001900390816106185790505090506040518060400160405280601381526020017f70352d76312e352e302e6d696e2e6a732e677a000000000000000000000000008152508160008151811061067e5761067e611155565b6020026020010151600001819052506003816000815181106106a2576106a2611155565b60200260200101516060019060048111156106bf576106bf611184565b908160048111156106d2576106d2611184565b81525050738faa1aab9da8c75917c43fb24fddb513eddc3245816000815181106106fe576106fe611155565b60200260200101516020019073ffffffffffffffffffffffffffffffffffffffff16908173ffffffffffffffffffffffffffffffffffffffff16815250506040518060400160405280601681526020017f67756e7a6970536372697074732d302e302e312e6a73000000000000000000008152508160018151811061078557610785611155565b6020026020010151600001819052506002816001815181106107a9576107a9611155565b60200260200101516060019060048111156107c6576107c6611184565b908160048111156107d9576107d9611184565b81525050738faa1aab9da8c75917c43fb24fddb513eddc32458160018151811061080557610805611155565b60200260200101516020019073ffffffffffffffffffffffffffffffffffffffff16908173ffffffffffffffffffffffffffffffffffffffff1681525050838160028151811061085757610857611155565b602002602001015160c0018190525060018160028151811061087b5761087b611155565b602002602001015160600190600481111561089857610898611184565b908160048111156108ab576108ab611184565b9052506040805180820182528381526020810183905290517f2bee680700000000000000000000000000000000000000000000000000000000815273d7587f110e08f4d120a231ba97d3b577a81df02290632bee680790610910908490600401611310565b600060405180830381865afa15801561092d573d6000803e3d6000fd5b505050506040513d6000823e601f3d9081017fffffffffffffffffffffffffffffffffffffffffffffffffffffffffffffffe01682016040526109739190810190611370565b93505050505b92915050565b6000807a184f03e93ff9f4daa797ed6e38ed64bf6a1f01000000000000000083106109c8577a184f03e93ff9f4daa797ed6e38ed64bf6a1f010000000000000000830492506040015b6d04ee2d6d415b85acef810000000083106109f4576d04ee2d6d415b85acef8100000000830492506020015b662386f26fc100008310610a1257662386f26fc10000830492506010015b6305f5e1008310610a2a576305f5e100830492506008015b6127108310610a3e57612710830492506004015b60648310610a50576064830492506002015b600a83106109795760010192915050565b6040518060e0016040528060608152602001600073ffffffffffffffffffffffffffffffffffffffff1681526020016060815260200160006004811115610aaa57610aaa611184565b81526020016060815260200160608152602001606081525090565b60005b83811015610ae0578181015183820152602001610ac8565b50506000910152565b60008151808452610b01816020860160208601610ac5565b601f017fffffffffffffffffffffffffffffffffffffffffffffffffffffffffffffffe0169290920160200192915050565b6020815260006101966020830184610ae9565b7f4e487b7100000000000000000000000000000000000000000000000000000000600052604160045260246000fd5b604051601f82017fffffffffffffffffffffffffffffffffffffffffffffffffffffffffffffffe016810167ffffffffffffffff81118282101715610bbc57610bbc610b46565b604052919050565b600067ffffffffffffffff821115610bde57610bde610b46565b50601f017fffffffffffffffffffffffffffffffffffffffffffffffffffffffffffffffe01660200190565b600080600060608486031215610c1f57600080fd5b83359250602084013567ffffffffffffffff80821115610c3e57600080fd5b9085019060c08288031215610c5257600080fd5b90925060408501359080821115610c6857600080fd5b508401601f81018613610c7a57600080fd5b8035610c8d610c8882610bc4565b610b75565b818152876020838501011115610ca257600080fd5b816020840160208301376000602083830101528093505050509250925092565b6000610cd0610c8884610bc4565b9050828152838383011115610ce457600080fd5b610196836020830184610ac5565b600082601f830112610d0357600080fd5b61019683835160208501610cc2565b60008060408385031215610d2557600080fd5b825167ffffffffffffffff80821115610d3d57600080fd5b610d4986838701610cf2565b93506020850151915080821115610d5f57600080fd5b50610d6c85828601610cf2565b9150509250929050565b60008083357fffffffffffffffffffffffffffffffffffffffffffffffffffffffffffffffe1843603018112610dab57600080fd5b83018035915067ffffffffffffffff821115610dc657600080fd5b602001915036819003821315610ddb57600080fd5b9250929050565b60008151610df4818560208601610ac5565b9290920192915050565b7f7b0000000000000000000000000000000000000000000000000000000000000081527f226964223a202200000000000000000000000000000000000000000000000000600182015260008951610e5c816008850160208e01610ac5565b80830190507f222c0000000000000000000000000000000000000000000000000000000000008060088301527f226e616d65223a20220000000000000000000000000000000000000000000000600a830152898b60138401376013918a01918201527f226465736372697074696f6e223a202200000000000000000000000000000000601582015286886025830137600090870160250190815261106d61104461101b611015610fec610f6e610fe6610f9782610f68610f3f8b7f222c000000000000000000000000000000000000000000000000000000000000815260020190565b7f22696d616765223a2022000000000000000000000000000000000000000000008152600a0190565b8f610de2565b7f222c000000000000000000000000000000000000000000000000000000000000815260020190565b7f227363726970745f75726c223a2022646174613a746578742f6a61766173637281527f6970743b6261736536342c0000000000000000000000000000000000000000006020820152602b0190565b8b610de2565b7f22616e696d6174696f6e5f75726c223a20220000000000000000000000000000815260120190565b87610de2565b7f2200000000000000000000000000000000000000000000000000000000000000815260010190565b7f7d00000000000000000000000000000000000000000000000000000000000000815260010190565b9b9a5050505050505050505050565b7f646174613a6170706c69636174696f6e2f6a736f6e3b6261736536342c0000008152600082516110b481601d850160208701610ac5565b91909101601d0192915050565b7f4e487b7100000000000000000000000000000000000000000000000000000000600052601160045260246000fd5b80820180821115610979576109796110c1565b600082611139577f4e487b7100000000000000000000000000000000000000000000000000000000600052601260045260246000fd5b500490565b8082028115828204841417610979576109796110c1565b7f4e487b7100000000000000000000000000000000000000000000000000000000600052603260045260246000fd5b7f4e487b7100000000000000000000000000000000000000000000000000000000600052602160045260246000fd5b600581106111ea577f4e487b7100000000000000000000000000000000000000000000000000000000600052602160045260246000fd5b9052565b600082825180855260208086019550808260051b84010181860160005b84811015611303577fffffffffffffffffffffffffffffffffffffffffffffffffffffffffffffffe0868403018952815160e0815181865261124f82870182610ae9565b91505073ffffffffffffffffffffffffffffffffffffffff868301511686860152604080830151868303828801526112878382610ae9565b9250505060608083015161129d828801826111b3565b5050608080830151868303828801526112b68382610ae9565b9250505060a080830151868303828801526112d18382610ae9565b9250505060c080830151925085820381870152506112ef8183610ae9565b9a86019a945050509083019060010161120b565b5090979650505050505050565b60208152600082516040602084015261132c60608401826111ee565b905060208401517fffffffffffffffffffffffffffffffffffffffffffffffffffffffffffffffe084830301604085015261136782826111ee565b95945050505050565b60006020828403121561138257600080fd5b815167ffffffffffffffff81111561139957600080fd5b8201601f810184136113aa57600080fd5b6113b984825160208401610cc2565b94935050505056fe3c6c696e6b2072656c3d227374796c6573686565742220687265663d22646174613a746578742f6373733b6261736536342c4142434445464748494a4b4c4d4e4f505152535455565758595a6162636465666768696a6b6c6d6e6f707172737475767778797a303132333435363738392b2fa2646970667358221220cc4b63bcbf31b76707c6454ef3a7c4530a1f0bb546980378e5e3eb0cb8b82ad664736f6c63430008180033",
  "linkReferences": {},
  "deployedLinkReferences": {}
}