{
  "_format": "hh3-artifact-1",
  "contractName": "ToneRenderer",
  "sourceName": "contracts/renderers/ToneRenderer.sol",
  "abi": [
    {
      "inputs": [
        {
          "internalType": "uint256",
          "name": "",
          "type": "uint256"
        },
        {
          "components": [
            {
              "internalType": "string",
              "name": "name",
              "type": "string"
            },
            {
              "internalType": "string",
              "name": "description",
              "type": "string"
            },
            {
              "internalType": "address[]",
              "name": "artifact",
              "type": "address[]"
            },
            {
              "internalType": "uint32",
              "name": "renderer",
              "type": "uint32"
            },
            {
              "internalType": "uint32",
              "name": "mintedBlock",
              "type": "uint32"
            },
            {
              "internalType": "uint64",
              "name": "closeAt",
              "type": "uint64"
            },
            {
              "internalType": "uint128",
              "name": "data",
              "type": "uint128"
            }
          ],
          "internalType": "struct Token",
          "name": "token",
          "type": "tuple"
        }
      ],
      "name": "animationURI",
      "outputs": [
        {
          "internalType": "string",
          "name": "",
          "type": "string"
        }
      ],
      "stateMutability": "view",
      "type": "function"
    },
    {
      "inputs": [
        {
          "internalType": "uint256",
          "name": "",
          "type": "uint256"
        },
        {
          "components": [
            {
              "internalType": "string",
              "name": "name",
              "type": "string"
            },
            {
              "internalType": "string",
              "name": "description",
              "type": "string"
            },
            {
              "internalType": "address[]",
              "name": "artifact",
              "type": "address[]"
            },
            {
              "internalType": "uint32",
              "name": "renderer",
              "type": "uint32"
            },
            {
              "internalType": "uint32",
              "name": "mintedBlock",
              "type": "uint32"
            },
            {
              "internalType": "uint64",
              "name": "closeAt",
              "type": "uint64"
            },
            {
              "internalType": "uint128",
              "name": "data",
              "type": "uint128"
            }
          ],
          "internalType": "struct Token",
          "name": "token",
          "type": "tuple"
        }
      ],
      "name": "imageURI",
      "outputs": [
        {
          "internalType": "string",
          "name": "",
          "type": "string"
        }
      ],
      "stateMutability": "view",
      "type": "function"
    },
    {
      "inputs": [],
      "name": "name",
      "outputs": [
        {
          "internalType": "string",
          "name": "",
          "type": "string"
        }
      ],
      "stateMutability": "pure",
      "type": "function"
    },
    {
      "inputs": [
        {
          "internalType": "uint256",
          "name": "",
          "type": "uint256"
        },
        {
          "components": [
            {
              "internalType": "string",
              "name": "name",
              "type": "string"
            },
            {
              "internalType": "string",
              "name": "description",
              "type": "string"
            },
            {
              "internalType": "address[]",
              "name": "artifact",
              "type": "address[]"
            },
            {
              "internalType": "uint32",
              "name": "renderer",
              "type": "uint32"
            },
            {
              "internalType": "uint32",
              "name": "mintedBlock",
              "type": "uint32"
            },
            {
              "internalType": "uint64",
              "name": "closeAt",
              "type": "uint64"
            },
            {
              "internalType": "uint128",
              "name": "data",
              "type": "uint128"
            }
          ],
          "internalType": "struct Token",
          "name": "token",
          "type": "tuple"
        }
      ],
      "name": "scriptURI",
      "outputs": [
        {
          "internalType": "string",
          "name": "",
          "type": "string"
        }
      ],
      "stateMutability": "view",
      "type": "function"
    },
    {
      "inputs": [
        {
          "internalType": "uint256",
          "name": "tokenId",
          "type": "uint256"
        },
        {
          "components": [
            {
              "internalType": "string",
              "name": "name",
              "type": "string"
            },
            {
              "internalType": "string",
              "name": "description",
              "type": "string"
            },
            {
              "internalType": "address[]",
              "name": "artifact",
              "type": "address[]"
            },
            {
              "internalType": "uint32",
              "name": "renderer",
              "type": "uint32"
            },
            {
              "internalType": "uint32",
              "name": "mintedBlock",
              "type": "uint32"
            },
            {
              "internalType": "uint64",
              "name": "closeAt",
              "type": "uint64"
            },
            {
              "internalType": "uint128",
              "name": "data",
              "type": "uint128"
            }
          ],
          "internalType": "struct Token",
          "name": "token",
          "type": "tuple"
        }
      ],
      "name": "uri",
      "outputs": [
        {
          "internalType": "string",
          "name": "",
          "type": "string"
        }
      ],
      "stateMutability": "view",
      "type": "function"
    },
    {
      "inputs": [],
      "name": "version",
      "outputs": [
        {
          "internalType": "uint256",
          "name": "",
          "type": "uint256"
        }
      ],
      "stateMutability": "pure",
      "type": "function"
    }
  ],
  "bytecode": "0x608060405234801561000f575f80fd5b5061197c8061001d5f395ff3fe608060405234801561000f575f80fd5b506004361061006f575f3560e01c8063a2f31bf31161004d578063a2f31bf3146100e0578063a6669e66146100f3578063cf9bc65e14610106575f80fd5b806306fdde031461007357806354fd4d50146100be57806360f4ae8d146100cd575b5f80fd5b60408051808201909152600d81527f546f6e652052656e64657265720000000000000000000000000000000000000060208201525b6040516100b59190610e9d565b60405180910390f35b604051600181526020016100b5565b6100a86100db366004610eb6565b610119565b6100a86100ee366004610eb6565b6101fa565b6100a8610101366004610eb6565b61036f565b6100a8610114366004610eb6565b610424565b60605f73__$a9284ae03d530611f9e1d5674f24ff2225$__631c6cf18f846040518263ffffffff1660e01b81526004016101539190611054565b5f60405180830381865af415801561016d573d5f803e3d5ffd5b505050506040513d5f823e601f3d9081017fffffffffffffffffffffffffffffffffffffffffffffffffffffffffffffffe01682016040526101b29190810190611275565b8060200190518101906101c591906112d8565b9150506101d181610524565b6040516020016101e19190611353565b6040516020818303038152906040529150505b92915050565b60605f8073__$a9284ae03d530611f9e1d5674f24ff2225$__631c6cf18f856040518263ffffffff1660e01b81526004016102359190611054565b5f60405180830381865af415801561024f573d5f803e3d5ffd5b505050506040513d5f823e601f3d9081017fffffffffffffffffffffffffffffffffffffffffffffffffffffffffffffffe01682016040526102949190810190611275565b8060200190518101906102a791906112d8565b915091505f6102b58661067f565b6102bf8680611397565b6102cc6020890189611397565b876103156102da8c80611397565b8080601f0160208091040260200160405190810160405280939291908181526020018383808284375f920191909152508c925061073c915050565b60405160200161032b97969594939291906113f8565b604051602081830303815290604052905061034581610524565b60405160200161035591906115ef565b604051602081830303815290604052935050505092915050565b60605f73__$a9284ae03d530611f9e1d5674f24ff2225$__631c6cf18f846040518263ffffffff1660e01b81526004016103a99190611054565b5f60405180830381865af41580156103c3573d5f803e3d5ffd5b505050506040513d5f823e601f3d9081017fffffffffffffffffffffffffffffffffffffffffffffffffffffffffffffffe01682016040526104089190810190611275565b80602001905181019061041b91906112d8565b50949350505050565b60605f73__$a9284ae03d530611f9e1d5674f24ff2225$__631c6cf18f846040518263ffffffff1660e01b815260040161045e9190611054565b5f60405180830381865af4158015610478573d5f803e3d5ffd5b505050506040513d5f823e601f3d9081017fffffffffffffffffffffffffffffffffffffffffffffffffffffffffffffffe01682016040526104bd9190810190611275565b8060200190518101906104d091906112d8565b915061051c90506104e18480611397565b8080601f0160208091040260200160405190810160405280939291908181526020018383808284375f9201919091525085925061073c915050565b949350505050565b606081515f0361054157505060408051602081019091525f815290565b5f6040518060600160405280604081526020016119076040913990505f60038451600261056e9190611660565b6105789190611673565b6105839060046116ab565b67ffffffffffffffff81111561059b5761059b6111b8565b6040519080825280601f01601f1916602001820160405280156105c5576020820181803683370190505b509050600182016020820185865187016020810180515f82525b8284101561063a576003840193508351603f8160121c168701518653600186019550603f81600c1c168701518653600186019550603f8160061c168701518653600186019550603f81168701518653506001850194506105df565b9052505085516003900660018114610659576002811461066c57610674565b603d6001830353603d6002830353610674565b603d60018303535b509195945050505050565b60605f61068b83610cef565b60010190505f8167ffffffffffffffff8111156106aa576106aa6111b8565b6040519080825280601f01601f1916602001820160405280156106d4576020820181803683370190505b5090508181016020015b7fffffffffffffffffffffffffffffffffffffffffffffffffffffffffffffffff017f3031323334353637383961626364656600000000000000000000000000000000600a86061a8153600a85049450846106de575b509392505050565b60408051600280825260608281019093525f9190816020015b61075d610dd0565b8152602001906001900390816107555790505090506040518060400160405280600781526020017f3c7469746c653e00000000000000000000000000000000000000000000000000815250815f815181106107ba576107ba6116c2565b60200260200101516080018190525083815f815181106107dc576107dc6116c2565b602002602001015160c001819052506040518060400160405280600881526020017f3c2f7469746c653e000000000000000000000000000000000000000000000000815250815f81518110610833576108336116c2565b602002602001015160a001819052506040518060400160405280601281526020017f66756c6c53697a6543616e7661732e63737300000000000000000000000000008152508160018151811061088b5761088b6116c2565b60200260200101515f01819052506040518060600160405280603281526020016118d560329139816001815181106108c5576108c56116c2565b6020026020010151608001819052506040518060400160405280600281526020017f223e0000000000000000000000000000000000000000000000000000000000008152508160018151811061091d5761091d6116c2565b602002602001015160a00181905250738faa1aab9da8c75917c43fb24fddb513eddc324581600181518110610954576109546116c2565b60209081029190910181015173ffffffffffffffffffffffffffffffffffffffff92909216910152604080516003808252608082019092525f91816020015b61099b610dd0565b8152602001906001900390816109935790505090506040518060400160405280600a81526020017f546f6e652e6a732e677a00000000000000000000000000000000000000000000815250815f815181106109f8576109f86116c2565b60200260200101515f01819052506003815f81518110610a1a57610a1a6116c2565b6020026020010151606001906004811115610a3757610a376116ef565b90816004811115610a4a57610a4a6116ef565b81525050738faa1aab9da8c75917c43fb24fddb513eddc3245815f81518110610a7557610a756116c2565b60200260200101516020019073ffffffffffffffffffffffffffffffffffffffff16908173ffffffffffffffffffffffffffffffffffffffff16815250506040518060400160405280601681526020017f67756e7a6970536372697074732d302e302e312e6a730000000000000000000081525081600181518110610afc57610afc6116c2565b60200260200101515f0181905250600281600181518110610b1f57610b1f6116c2565b6020026020010151606001906004811115610b3c57610b3c6116ef565b90816004811115610b4f57610b4f6116ef565b81525050738faa1aab9da8c75917c43fb24fddb513eddc324581600181518110610b7b57610b7b6116c2565b60200260200101516020019073ffffffffffffffffffffffffffffffffffffffff16908173ffffffffffffffffffffffffffffffffffffffff16815250508381600281518110610bcd57610bcd6116c2565b602002602001015160c00181905250600181600281518110610bf157610bf16116c2565b6020026020010151606001906004811115610c0e57610c0e6116ef565b90816004811115610c2157610c216116ef565b9052506040805180820182528381526020810183905290517f2bee680700000000000000000000000000000000000000000000000000000000815273d7587f110e08f4d120a231ba97d3b577a81df02290632bee680790610c86908490600401611875565b5f60405180830381865afa158015610ca0573d5f803e3d5ffd5b505050506040513d5f823e601f3d9081017fffffffffffffffffffffffffffffffffffffffffffffffffffffffffffffffe0168201604052610ce59190810190611275565b9695505050505050565b5f807a184f03e93ff9f4daa797ed6e38ed64bf6a1f0100000000000000008310610d37577a184f03e93ff9f4daa797ed6e38ed64bf6a1f010000000000000000830492506040015b6d04ee2d6d415b85acef81000000008310610d63576d04ee2d6d415b85acef8100000000830492506020015b662386f26fc100008310610d8157662386f26fc10000830492506010015b6305f5e1008310610d99576305f5e100830492506008015b6127108310610dad57612710830492506004015b60648310610dbf576064830492506002015b600a83106101f45760010192915050565b6040518060e00160405280606081526020015f73ffffffffffffffffffffffffffffffffffffffff168152602001606081526020015f6004811115610e1757610e176116ef565b81526020016060815260200160608152602001606081525090565b5f5b83811015610e4c578181015183820152602001610e34565b50505f910152565b5f8151808452610e6b816020860160208601610e32565b601f017fffffffffffffffffffffffffffffffffffffffffffffffffffffffffffffffe0169290920160200192915050565b602081525f610eaf6020830184610e54565b9392505050565b5f8060408385031215610ec7575f80fd5b82359150602083013567ffffffffffffffff811115610ee4575f80fd5b830160e08186031215610ef5575f80fd5b809150509250929050565b5f8083357fffffffffffffffffffffffffffffffffffffffffffffffffffffffffffffffe1843603018112610f33575f80fd5b830160208101925035905067ffffffffffffffff811115610f52575f80fd5b803603821315610f60575f80fd5b9250929050565b81835281816020850137505f602082840101525f60207fffffffffffffffffffffffffffffffffffffffffffffffffffffffffffffffe0601f840116840101905092915050565b8183525f60208085019450825f5b85811015610ffb57813573ffffffffffffffffffffffffffffffffffffffff8116808214610fe8575f80fd5b8852509582019590820190600101610fbc565b509495945050505050565b803563ffffffff81168114611019575f80fd5b919050565b803567ffffffffffffffff81168114611019575f80fd5b80356fffffffffffffffffffffffffffffffff81168114611019575f80fd5b602081525f6110638384610f00565b60e0602085015261107961010085018284610f67565b9150506110896020850185610f00565b7fffffffffffffffffffffffffffffffffffffffffffffffffffffffffffffffe0808685030160408701526110bf848385610f67565b9350604087013592507fffffffffffffffffffffffffffffffffffffffffffffffffffffffffffffffe18736030183126110f7575f80fd5b60209287019283019235915067ffffffffffffffff821115611117575f80fd5b8160051b3603831315611128575f80fd5b85840301606086015261113c838284610fae565b9250505061114c60608501611006565b63ffffffff811660808501525061116560808501611006565b63ffffffff811660a08501525061117e60a0850161101e565b67ffffffffffffffff811660c08501525061119b60c08501611035565b6fffffffffffffffffffffffffffffffff811660e0850152610734565b7f4e487b71000000000000000000000000000000000000000000000000000000005f52604160045260245ffd5b5f67ffffffffffffffff808411156111ff576111ff6111b8565b604051601f85017fffffffffffffffffffffffffffffffffffffffffffffffffffffffffffffffe0908116603f01168101908282118183101715611245576112456111b8565b8160405280935085815286868601111561125d575f80fd5b61126b866020830187610e32565b5050509392505050565b5f60208284031215611285575f80fd5b815167ffffffffffffffff81111561129b575f80fd5b8201601f810184136112ab575f80fd5b61051c848251602084016111e5565b5f82601f8301126112c9575f80fd5b610eaf838351602085016111e5565b5f80604083850312156112e9575f80fd5b825167ffffffffffffffff80821115611300575f80fd5b61130c868387016112ba565b93506020850151915080821115611321575f80fd5b5061132e858286016112ba565b9150509250929050565b5f8151611349818560208601610e32565b9290920192915050565b7f646174613a746578742f6a6176617363726970743b6261736536342c0000000081525f825161138a81601c850160208701610e32565b91909101601c0192915050565b5f8083357fffffffffffffffffffffffffffffffffffffffffffffffffffffffffffffffe18436030181126113ca575f80fd5b83018035915067ffffffffffffffff8211156113e4575f80fd5b602001915036819003821315610f60575f80fd5b7f7b0000000000000000000000000000000000000000000000000000000000000081527f226964223a20220000000000000000000000000000000000000000000000000060018201525f8851611455816008850160208d01610e32565b80830190507f222c0000000000000000000000000000000000000000000000000000000000008060088301527f226e616d65223a20220000000000000000000000000000000000000000000000600a830152888a601384013788820191508060138301527f226465736372697074696f6e223a2022000000000000000000000000000000006015830152868860258401376025918701918201526115e16115b861158f611589611560611537611531602788017f22696d616765223a2022000000000000000000000000000000000000000000008152600a0190565b8b611338565b7f222c000000000000000000000000000000000000000000000000000000000000815260020190565b7f22616e696d6174696f6e5f75726c223a20220000000000000000000000000000815260120190565b87611338565b7f2200000000000000000000000000000000000000000000000000000000000000815260010190565b7f7d00000000000000000000000000000000000000000000000000000000000000815260010190565b9a9950505050505050505050565b7f646174613a6170706c69636174696f6e2f6a736f6e3b6261736536342c00000081525f825161162681601d850160208701610e32565b91909101601d0192915050565b7f4e487b71000000000000000000000000000000000000000000000000000000005f52601160045260245ffd5b808201808211156101f4576101f4611633565b5f826116a6577f4e487b71000000000000000000000000000000000000000000000000000000005f52601260045260245ffd5b500490565b80820281158282048414176101f4576101f4611633565b7f4e487b71000000000000000000000000000000000000000000000000000000005f52603260045260245ffd5b7f4e487b71000000000000000000000000000000000000000000000000000000005f52602160045260245ffd5b60058110611751577f4e487b71000000000000000000000000000000000000000000000000000000005f52602160045260245ffd5b9052565b5f82825180855260208086019550808260051b8401018186015f5b84811015611868577fffffffffffffffffffffffffffffffffffffffffffffffffffffffffffffffe0868403018952815160e081518186526117b482870182610e54565b91505073ffffffffffffffffffffffffffffffffffffffff868301511686860152604080830151868303828801526117ec8382610e54565b925050506060808301516118028288018261171c565b50506080808301518683038288015261181b8382610e54565b9250505060a080830151868303828801526118368382610e54565b9250505060c080830151925085820381870152506118548183610e54565b9a86019a9450505090830190600101611770565b5090979650505050505050565b602081525f8251604060208401526118906060840182611755565b905060208401517fffffffffffffffffffffffffffffffffffffffffffffffffffffffffffffffe08483030160408501526118cb8282611755565b9594505050505056fe3c6c696e6b2072656c3d227374796c6573686565742220687265663d22646174613a746578742f6373733b6261736536342c4142434445464748494a4b4c4d4e4f505152535455565758595a6162636465666768696a6b6c6d6e6f707172737475767778797a303132333435363738392b2fa2646970667358221220bf714e66c8408a5ee1bd2ada87ffdc98c089cec2676eaf35dd63a9f63b5cc14f64736f6c63430008180033",
  "linkReferences": {
    "project/contracts/libraries/ArtifactReader.sol": {
      "ArtifactReader": [
        {
          "length": 20,
          "start": 315
        },
        {
          "length": 20,
          "start": 541
        },
        {
          "length": 20,
          "start": 913
        },
        {
          "length": 20,
          "start": 1094
        }
      ]
    }
  },
  "deployedLinkReferences": {
    "project/contracts/libraries/ArtifactReader.sol": {
      "ArtifactReader": [
        {
          "length": 20,
          "start": 286
        },
        {
          "length": 20,
          "start": 512
        },
        {
          "length": 20,
          "start": 884
        },
        {
          "length": 20,
          "start": 1065
        }
      ]
    }
  },
  "immutableReferences": {},
  "inputSourceName": "project/contracts/renderers/ToneRenderer.sol",
  "buildInfoId": "solc-0_8_24-e4a0e25ca86bb84397ba3261b2457072892633c1"
}