{
  "scripty.sol/contracts/scripty/core/ScriptyCore.sol": {
    "ScriptyCore": {
      "abi": [
        {
          "inputs": [],
          "name": "BODY_OPEN_RAW",
          "outputs": [
            {
              "internalType": "bytes",
              "name": "",
              "type": "bytes"
            }
          ],
          "stateMutability": "view",
          "type": "function"
        },
        {
          "inputs": [],
          "name": "BODY_OPEN_URL_SAFE",
          "outputs": [
            {
              "internalType": "bytes",
              "name": "",
              "type": "bytes"
            }
          ],
          "stateMutability": "view",
          "type": "function"
        },
        {
          "inputs": [],
          "name": "BODY_RAW_BYTES",
          "outputs": [
            {
              "internalType": "uint256",
              "name": "",
              "type": "uint256"
            }
          ],
          "stateMutability": "view",
          "type": "function"
        },
        {
          "inputs": [],
          "name": "BODY_SAFE_BYTES",
          "outputs": [
            {
              "internalType": "uint256",
              "name": "",
              "type": "uint256"
            }
          ],
          "stateMutability": "view",
          "type": "function"
        },
        {
          "inputs": [],
          "name": "DATA_HTML_BASE64_URI_RAW",
          "outputs": [
            {
              "internalType": "bytes",
              "name": "",
              "type": "bytes"
            }
          ],
          "stateMutability": "view",
          "type": "function"
        },
        {
          "inputs": [],
          "name": "DATA_HTML_URL_SAFE",
          "outputs": [
            {
              "internalType": "bytes",
              "name": "",
              "type": "bytes"
            }
          ],
          "stateMutability": "view",
          "type": "function"
        },
        {
          "inputs": [],
          "name": "HEAD_CLOSE_RAW",
          "outputs": [
            {
              "internalType": "bytes",
              "name": "",
              "type": "bytes"
            }
          ],
          "stateMutability": "view",
          "type": "function"
        },
        {
          "inputs": [],
          "name": "HEAD_CLOSE_URL_SAFE",
          "outputs": [
            {
              "internalType": "bytes",
              "name": "",
              "type": "bytes"
            }
          ],
          "stateMutability": "view",
          "type": "function"
        },
        {
          "inputs": [],
          "name": "HEAD_OPEN_RAW",
          "outputs": [
            {
              "internalType": "bytes",
              "name": "",
              "type": "bytes"
            }
          ],
          "stateMutability": "view",
          "type": "function"
        },
        {
          "inputs": [],
          "name": "HEAD_OPEN_URL_SAFE",
          "outputs": [
            {
              "internalType": "bytes",
              "name": "",
              "type": "bytes"
            }
          ],
          "stateMutability": "view",
          "type": "function"
        },
        {
          "inputs": [],
          "name": "HEAD_RAW_BYTES",
          "outputs": [
            {
              "internalType": "uint256",
              "name": "",
              "type": "uint256"
            }
          ],
          "stateMutability": "view",
          "type": "function"
        },
        {
          "inputs": [],
          "name": "HEAD_URL_SAFE_BYTES",
          "outputs": [
            {
              "internalType": "uint256",
              "name": "",
              "type": "uint256"
            }
          ],
          "stateMutability": "view",
          "type": "function"
        },
        {
          "inputs": [],
          "name": "HTML_BASE64_DATA_URI_BYTES",
          "outputs": [
            {
              "internalType": "uint256",
              "name": "",
              "type": "uint256"
            }
          ],
          "stateMutability": "view",
          "type": "function"
        },
        {
          "inputs": [],
          "name": "HTML_BODY_CLOSED_RAW",
          "outputs": [
            {
              "internalType": "bytes",
              "name": "",
              "type": "bytes"
            }
          ],
          "stateMutability": "view",
          "type": "function"
        },
        {
          "inputs": [],
          "name": "HTML_BODY_CLOSED_URL_SAFE",
          "outputs": [
            {
              "internalType": "bytes",
              "name": "",
              "type": "bytes"
            }
          ],
          "stateMutability": "view",
          "type": "function"
        },
        {
          "inputs": [],
          "name": "HTML_OPEN_RAW",
          "outputs": [
            {
              "internalType": "bytes",
              "name": "",
              "type": "bytes"
            }
          ],
          "stateMutability": "view",
          "type": "function"
        },
        {
          "inputs": [],
          "name": "HTML_OPEN_URL_SAFE",
          "outputs": [
            {
              "internalType": "bytes",
              "name": "",
              "type": "bytes"
            }
          ],
          "stateMutability": "view",
          "type": "function"
        },
        {
          "inputs": [],
          "name": "HTML_RAW_BYTES",
          "outputs": [
            {
              "internalType": "uint256",
              "name": "",
              "type": "uint256"
            }
          ],
          "stateMutability": "view",
          "type": "function"
        },
        {
          "inputs": [],
          "name": "HTML_URL_SAFE_BYTES",
          "outputs": [
            {
              "internalType": "uint256",
              "name": "",
              "type": "uint256"
            }
          ],
          "stateMutability": "view",
          "type": "function"
        },
        {
          "inputs": [],
          "name": "RAW_BYTES",
          "outputs": [
            {
              "internalType": "uint256",
              "name": "",
              "type": "uint256"
            }
          ],
          "stateMutability": "view",
          "type": "function"
        },
        {
          "inputs": [],
          "name": "URLS_RAW_BYTES",
          "outputs": [
            {
              "internalType": "uint256",
              "name": "",
              "type": "uint256"
            }
          ],
          "stateMutability": "view",
          "type": "function"
        },
        {
          "inputs": [],
          "name": "URLS_SAFE_BYTES",
          "outputs": [
            {
              "internalType": "uint256",
              "name": "",
              "type": "uint256"
            }
          ],
          "stateMutability": "view",
          "type": "function"
        },
        {
          "inputs": [],
          "name": "URL_SAFE_BYTES",
          "outputs": [
            {
              "internalType": "uint256",
              "name": "",
              "type": "uint256"
            }
          ],
          "stateMutability": "view",
          "type": "function"
        },
        {
          "inputs": [
            {
              "components": [
                {
                  "internalType": "string",
                  "name": "name",
                  "type": "string"
                },
                {
                  "internalType": "address",
                  "name": "contractAddress",
                  "type": "address"
                },
                {
                  "internalType": "bytes",
                  "name": "contractData",
                  "type": "bytes"
                },
                {
                  "internalType": "enum HTMLTagType",
                  "name": "tagType",
                  "type": "uint8"
                },
                {
                  "internalType": "bytes",
                  "name": "tagOpen",
                  "type": "bytes"
                },
                {
                  "internalType": "bytes",
                  "name": "tagClose",
                  "type": "bytes"
                },
                {
                  "internalType": "bytes",
                  "name": "tagContent",
                  "type": "bytes"
                }
              ],
              "internalType": "struct HTMLTag",
              "name": "htmlTag",
              "type": "tuple"
            }
          ],
          "name": "fetchTagContent",
          "outputs": [
            {
              "internalType": "bytes",
              "name": "",
              "type": "bytes"
            }
          ],
          "stateMutability": "view",
          "type": "function"
        },
        {
          "inputs": [
            {
              "internalType": "uint256",
              "name": "value",
              "type": "uint256"
            }
          ],
          "name": "sizeForBase64Encoding",
          "outputs": [
            {
              "internalType": "uint256",
              "name": "",
              "type": "uint256"
            }
          ],
          "stateMutability": "pure",
          "type": "function"
        },
        {
          "inputs": [
            {
              "components": [
                {
                  "internalType": "string",
                  "name": "name",
                  "type": "string"
                },
                {
                  "internalType": "address",
                  "name": "contractAddress",
                  "type": "address"
                },
                {
                  "internalType": "bytes",
                  "name": "contractData",
                  "type": "bytes"
                },
                {
                  "internalType": "enum HTMLTagType",
                  "name": "tagType",
                  "type": "uint8"
                },
                {
                  "internalType": "bytes",
                  "name": "tagOpen",
                  "type": "bytes"
                },
                {
                  "internalType": "bytes",
                  "name": "tagClose",
                  "type": "bytes"
                },
                {
                  "internalType": "bytes",
                  "name": "tagContent",
                  "type": "bytes"
                }
              ],
              "internalType": "struct HTMLTag",
              "name": "htmlTag",
              "type": "tuple"
            }
          ],
          "name": "tagOpenCloseForHTMLTag",
          "outputs": [
            {
              "internalType": "bytes",
              "name": "",
              "type": "bytes"
            },
            {
              "internalType": "bytes",
              "name": "",
              "type": "bytes"
            }
          ],
          "stateMutability": "pure",
          "type": "function"
        },
        {
          "inputs": [
            {
              "components": [
                {
                  "internalType": "string",
                  "name": "name",
                  "type": "string"
                },
                {
                  "internalType": "address",
                  "name": "contractAddress",
                  "type": "address"
                },
                {
                  "internalType": "bytes",
                  "name": "contractData",
                  "type": "bytes"
                },
                {
                  "internalType": "enum HTMLTagType",
                  "name": "tagType",
                  "type": "uint8"
                },
                {
                  "internalType": "bytes",
                  "name": "tagOpen",
                  "type": "bytes"
                },
                {
                  "internalType": "bytes",
                  "name": "tagClose",
                  "type": "bytes"
                },
                {
                  "internalType": "bytes",
                  "name": "tagContent",
                  "type": "bytes"
                }
              ],
              "internalType": "struct HTMLTag",
              "name": "htmlTag",
              "type": "tuple"
            }
          ],
          "name": "tagOpenCloseForHTMLTagURLSafe",
          "outputs": [
            {
              "internalType": "bytes",
              "name": "",
              "type": "bytes"
            },
            {
              "internalType": "bytes",
              "name": "",
              "type": "bytes"
            }
          ],
          "stateMutability": "pure",
          "type": "function"
        }
      ],
      "evm": {
        "bytecode": {
          "linkReferences": {},
          "object": "608060405234801561001057600080fd5b50610ff5806100206000396000f3fe608060405234801561001057600080fd5b50600436106101b95760003560e01c8063bc689620116100f9578063ce5ad17911610097578063d9237f1411610071578063d9237f1414610496578063f051dcf8146104d2578063f49717ee146103ac578063f6130adc1461050e57600080fd5b8063ce5ad1791461041e578063d0c3efa814610210578063d61974f11461045a57600080fd5b8063bf35dd0b116100d3578063bf35dd0b146103ac578063c46b294d146103bc578063cd475f26146103f8578063cdea0cef1461040b57600080fd5b8063bc68962014610370578063be58b0a9146103ac578063bee84ae3146103b457600080fd5b806372617f8a1161016657806387598e521161014057806387598e52146103475780638c8c37961461034f578063afae76fa14610347578063b55ccc621461021057600080fd5b806372617f8a146102e25780637510ac24146103035780637f3693191461030b57600080fd5b80633d5be2c2116101975780633d5be2c21461022e57806343f2614f1461026a578063640bab41146102a657600080fd5b8063053f1eb0146101be57806333174f98146102105780633708be6514610226575b600080fd5b6101fa6040518060400160405280601a81526020017f253343253246626f647925334525334325324668746d6c25334500000000000081525081565b6040516102079190610a33565b60405180910390f35b610218600d81565b604051908152602001610207565b610218604581565b6101fa6040518060400160405280600781526020017f3c2f686561643e0000000000000000000000000000000000000000000000000081525081565b6101fa6040518060400160405280600a81526020017f253343686561642533450000000000000000000000000000000000000000000081525081565b6101fa6040518060400160405280600a81526020017f25334368746d6c2533450000000000000000000000000000000000000000000081525081565b6102186102f0366004610a4d565b6000600360028301046004029050919050565b610218601681565b6101fa6040518060400160405280600a81526020017f253343626f64792533450000000000000000000000000000000000000000000081525081565b610218602781565b61036261035d366004610be1565b61054a565b604051610207929190610d00565b6101fa6040518060400160405280600681526020017f3c68746d6c3e000000000000000000000000000000000000000000000000000081525081565b610218601781565b610218605a81565b6101fa6040518060400160405280600681526020017f3c686561643e000000000000000000000000000000000000000000000000000081525081565b610362610406366004610be1565b61074f565b6101fa610419366004610be1565b6108d2565b6101fa6040518060400160405280600681526020017f3c626f64793e000000000000000000000000000000000000000000000000000081525081565b6101fa6040518060400160405280601581526020017f646174612533417465787425324668746d6c253243000000000000000000000081525081565b6101fa6040518060400160405280600d81526020017f253343253246686561642533450000000000000000000000000000000000000081525081565b6101fa6040518060400160405280600e81526020017f3c2f626f64793e3c2f68746d6c3e00000000000000000000000000000000000081525081565b6101fa6040518060400160405280601681526020017f646174613a746578742f68746d6c3b6261736536342c0000000000000000000081525081565b60608060018360600151600481111561056557610565610d2e565b036105df576040518060400160405280600881526020017f3c7363726970743e0000000000000000000000000000000000000000000000008152506040518060400160405280600981526020017f3c2f7363726970743e000000000000000000000000000000000000000000000081525091509150915091565b6002836060015160048111156105f7576105f7610d2e565b0361065457604051806060016040528060298152602001610dcc602991396040518060400160405280600b81526020017f223e3c2f7363726970743e00000000000000000000000000000000000000000081525091509150915091565b60038360600151600481111561066c5761066c610d2e565b036106c957604051806080016040528060458152602001610e3e604591396040518060400160405280600b81526020017f223e3c2f7363726970743e00000000000000000000000000000000000000000081525091509150915091565b6004836060015160048111156106e1576106e1610d2e565b0361073e57604051806080016040528060448152602001610f7c604491396040518060400160405280600b81526020017f223e3c2f7363726970743e00000000000000000000000000000000000000000081525091509150915091565b5050608081015160a0909101519091565b60608060018360600151600481111561076a5761076a610d2e565b148061078b575060028360600151600481111561078957610789610d2e565b145b156107e857604051806080016040528060498152602001610df5604991396040518060400160405280601f81526020017f253235323225323533452532353343253235324673637269707425323533450081525091509150915091565b60038360600151600481111561080057610800610d2e565b0361085d576040518060a00160405280607d8152602001610e83607d91396040518060400160405280601f81526020017f253235323225323533452532353343253235324673637269707425323533450081525091509150915091565b60048360600151600481111561087557610875610d2e565b0361073e576040518060a00160405280607c8152602001610f00607c91396040518060400160405280601f81526020017f253235323225323533452532353343253235324673637269707425323533450081525091509150915091565b602081015160609073ffffffffffffffffffffffffffffffffffffffff16156109bd576020820151825160408085015190517f2647c23d00000000000000000000000000000000000000000000000000000000815273ffffffffffffffffffffffffffffffffffffffff90931692632647c23d92610954929091600401610d00565b600060405180830381865afa158015610971573d6000803e3d6000fd5b505050506040513d6000823e601f3d9081017fffffffffffffffffffffffffffffffffffffffffffffffffffffffffffffffe01682016040526109b79190810190610d5d565b92915050565b5060c0015190565b60005b838110156109e05781810151838201526020016109c8565b50506000910152565b60008151808452610a018160208601602086016109c5565b601f017fffffffffffffffffffffffffffffffffffffffffffffffffffffffffffffffe0169290920160200192915050565b602081526000610a4660208301846109e9565b9392505050565b600060208284031215610a5f57600080fd5b5035919050565b7f4e487b7100000000000000000000000000000000000000000000000000000000600052604160045260246000fd5b60405160e0810167ffffffffffffffff81118282101715610ab857610ab8610a66565b60405290565b604051601f82017fffffffffffffffffffffffffffffffffffffffffffffffffffffffffffffffe016810167ffffffffffffffff81118282101715610b0557610b05610a66565b604052919050565b600067ffffffffffffffff821115610b2757610b27610a66565b50601f017fffffffffffffffffffffffffffffffffffffffffffffffffffffffffffffffe01660200190565b600082601f830112610b6457600080fd5b8135610b77610b7282610b0d565b610abe565b818152846020838601011115610b8c57600080fd5b816020850160208301376000918101602001919091529392505050565b803573ffffffffffffffffffffffffffffffffffffffff81168114610bcd57600080fd5b919050565b803560058110610bcd57600080fd5b600060208284031215610bf357600080fd5b813567ffffffffffffffff80821115610c0b57600080fd5b9083019060e08286031215610c1f57600080fd5b610c27610a95565b823582811115610c3657600080fd5b610c4287828601610b53565b825250610c5160208401610ba9565b6020820152604083013582811115610c6857600080fd5b610c7487828601610b53565b604083015250610c8660608401610bd2565b6060820152608083013582811115610c9d57600080fd5b610ca987828601610b53565b60808301525060a083013582811115610cc157600080fd5b610ccd87828601610b53565b60a08301525060c083013582811115610ce557600080fd5b610cf187828601610b53565b60c08301525095945050505050565b604081526000610d1360408301856109e9565b8281036020840152610d2581856109e9565b95945050505050565b7f4e487b7100000000000000000000000000000000000000000000000000000000600052602160045260246000fd5b600060208284031215610d6f57600080fd5b815167ffffffffffffffff811115610d8657600080fd5b8201601f81018413610d9757600080fd5b8051610da5610b7282610b0d565b818152856020838501011115610dba57600080fd5b610d258260208301602086016109c556fe3c736372697074207372633d22646174613a746578742f6a6176617363726970743b6261736536342c25323533437363726970742532353230737263253235334425323532326461746125323533417465787425323532466a617661736372697074253235334262617365363425323532433c73637269707420747970653d22746578742f6a6176617363726970742b677a697022207372633d22646174613a746578742f6a6176617363726970743b6261736536342c2532353343736372697074253235323074797065253235334425323532327465787425323532466a6176617363726970742532353242677a697025323532322532353230737263253235334425323532326461746125323533417465787425323532466a617661736372697074253235334262617365363425323532432532353343736372697074253235323074797065253235334425323532327465787425323532466a6176617363726970742532353242706e6725323532322532353230737263253235334425323532326461746125323533417465787425323532466a617661736372697074253235334262617365363425323532433c73637269707420747970653d22746578742f6a6176617363726970742b706e6722207372633d22646174613a746578742f6a6176617363726970743b6261736536342ca2646970667358221220401bdc3930b78e563c2412c1e50e3659925f7fe235dd5136f239418634e01b3f64736f6c63430008180033",
          "opcodes": "PUSH1 0x80 PUSH1 0x40 MSTORE CALLVALUE DUP1 ISZERO PUSH2 0x10 JUMPI PUSH1 0x0 DUP1 REVERT JUMPDEST POP PUSH2 0xFF5 DUP1 PUSH2 0x20 PUSH1 0x0 CODECOPY PUSH1 0x0 RETURN INVALID PUSH1 0x80 PUSH1 0x40 MSTORE CALLVALUE DUP1 ISZERO PUSH2 0x10 JUMPI PUSH1 0x0 DUP1 REVERT JUMPDEST POP PUSH1 0x4 CALLDATASIZE LT PUSH2 0x1B9 JUMPI PUSH1 0x0 CALLDATALOAD PUSH1 0xE0 SHR DUP1 PUSH4 0xBC689620 GT PUSH2 0xF9 JUMPI DUP1 PUSH4 0xCE5AD179 GT PUSH2 0x97 JUMPI DUP1 PUSH4 0xD9237F14 GT PUSH2 0x71 JUMPI DUP1 PUSH4 0xD9237F14 EQ PUSH2 0x496 JUMPI DUP1 PUSH4 0xF051DCF8 EQ PUSH2 0x4D2 JUMPI DUP1 PUSH4 0xF49717EE EQ PUSH2 0x3AC JUMPI DUP1 PUSH4 0xF6130ADC EQ PUSH2 0x50E JUMPI PUSH1 0x0 DUP1 REVERT JUMPDEST DUP1 PUSH4 0xCE5AD179 EQ PUSH2 0x41E JUMPI DUP1 PUSH4 0xD0C3EFA8 EQ PUSH2 0x210 JUMPI DUP1 PUSH4 0xD61974F1 EQ PUSH2 0x45A JUMPI PUSH1 0x0 DUP1 REVERT JUMPDEST DUP1 PUSH4 0xBF35DD0B GT PUSH2 0xD3 JUMPI DUP1 PUSH4 0xBF35DD0B EQ PUSH2 0x3AC JUMPI DUP1 PUSH4 0xC46B294D EQ PUSH2 0x3BC JUMPI DUP1 PUSH4 0xCD475F26 EQ PUSH2 0x3F8 JUMPI DUP1 PUSH4 0xCDEA0CEF EQ PUSH2 0x40B JUMPI PUSH1 0x0 DUP1 REVERT JUMPDEST DUP1 PUSH4 0xBC689620 EQ PUSH2 0x370 JUMPI DUP1 PUSH4 0xBE58B0A9 EQ PUSH2 0x3AC JUMPI DUP1 PUSH4 0xBEE84AE3 EQ PUSH2 0x3B4 JUMPI PUSH1 0x0 DUP1 REVERT JUMPDEST DUP1 PUSH4 0x72617F8A GT PUSH2 0x166 JUMPI DUP1 PUSH4 0x87598E52 GT PUSH2 0x140 JUMPI DUP1 PUSH4 0x87598E52 EQ PUSH2 0x347 JUMPI DUP1 PUSH4 0x8C8C3796 EQ PUSH2 0x34F JUMPI DUP1 PUSH4 0xAFAE76FA EQ PUSH2 0x347 JUMPI DUP1 PUSH4 0xB55CCC62 EQ PUSH2 0x210 JUMPI PUSH1 0x0 DUP1 REVERT JUMPDEST DUP1 PUSH4 0x72617F8A EQ PUSH2 0x2E2 JUMPI DUP1 PUSH4 0x7510AC24 EQ PUSH2 0x303 JUMPI DUP1 PUSH4 0x7F369319 EQ PUSH2 0x30B JUMPI PUSH1 0x0 DUP1 REVERT JUMPDEST DUP1 PUSH4 0x3D5BE2C2 GT PUSH2 0x197 JUMPI DUP1 PUSH4 0x3D5BE2C2 EQ PUSH2 0x22E JUMPI DUP1 PUSH4 0x43F2614F EQ PUSH2 0x26A JUMPI DUP1 PUSH4 0x640BAB41 EQ PUSH2 0x2A6 JUMPI PUSH1 0x0 DUP1 REVERT JUMPDEST DUP1 PUSH4 0x53F1EB0 EQ PUSH2 0x1BE JUMPI DUP1 PUSH4 0x33174F98 EQ PUSH2 0x210 JUMPI DUP1 PUSH4 0x3708BE65 EQ PUSH2 0x226 JUMPI JUMPDEST PUSH1 0x0 DUP1 REVERT JUMPDEST PUSH2 0x1FA PUSH1 0x40 MLOAD DUP1 PUSH1 0x40 ADD PUSH1 0x40 MSTORE DUP1 PUSH1 0x1A DUP2 MSTORE PUSH1 0x20 ADD PUSH32 0x253343253246626F647925334525334325324668746D6C253345000000000000 DUP2 MSTORE POP DUP2 JUMP JUMPDEST PUSH1 0x40 MLOAD PUSH2 0x207 SWAP2 SWAP1 PUSH2 0xA33 JUMP JUMPDEST PUSH1 0x40 MLOAD DUP1 SWAP2 SUB SWAP1 RETURN JUMPDEST PUSH2 0x218 PUSH1 0xD DUP2 JUMP JUMPDEST PUSH1 0x40 MLOAD SWAP1 DUP2 MSTORE PUSH1 0x20 ADD PUSH2 0x207 JUMP JUMPDEST PUSH2 0x218 PUSH1 0x45 DUP2 JUMP JUMPDEST PUSH2 0x1FA PUSH1 0x40 MLOAD DUP1 PUSH1 0x40 ADD PUSH1 0x40 MSTORE DUP1 PUSH1 0x7 DUP2 MSTORE PUSH1 0x20 ADD PUSH32 0x3C2F686561643E00000000000000000000000000000000000000000000000000 DUP2 MSTORE POP DUP2 JUMP JUMPDEST PUSH2 0x1FA PUSH1 0x40 MLOAD DUP1 PUSH1 0x40 ADD PUSH1 0x40 MSTORE DUP1 PUSH1 0xA DUP2 MSTORE PUSH1 0x20 ADD PUSH32 0x2533436865616425334500000000000000000000000000000000000000000000 DUP2 MSTORE POP DUP2 JUMP JUMPDEST PUSH2 0x1FA PUSH1 0x40 MLOAD DUP1 PUSH1 0x40 ADD PUSH1 0x40 MSTORE DUP1 PUSH1 0xA DUP2 MSTORE PUSH1 0x20 ADD PUSH32 0x25334368746D6C25334500000000000000000000000000000000000000000000 DUP2 MSTORE POP DUP2 JUMP JUMPDEST PUSH2 0x218 PUSH2 0x2F0 CALLDATASIZE PUSH1 0x4 PUSH2 0xA4D JUMP JUMPDEST PUSH1 0x0 PUSH1 0x3 PUSH1 0x2 DUP4 ADD DIV PUSH1 0x4 MUL SWAP1 POP SWAP2 SWAP1 POP JUMP JUMPDEST PUSH2 0x218 PUSH1 0x16 DUP2 JUMP JUMPDEST PUSH2 0x1FA PUSH1 0x40 MLOAD DUP1 PUSH1 0x40 ADD PUSH1 0x40 MSTORE DUP1 PUSH1 0xA DUP2 MSTORE PUSH1 0x20 ADD PUSH32 0x253343626F647925334500000000000000000000000000000000000000000000 DUP2 MSTORE POP DUP2 JUMP JUMPDEST PUSH2 0x218 PUSH1 0x27 DUP2 JUMP JUMPDEST PUSH2 0x362 PUSH2 0x35D CALLDATASIZE PUSH1 0x4 PUSH2 0xBE1 JUMP JUMPDEST PUSH2 0x54A JUMP JUMPDEST PUSH1 0x40 MLOAD PUSH2 0x207 SWAP3 SWAP2 SWAP1 PUSH2 0xD00 JUMP JUMPDEST PUSH2 0x1FA PUSH1 0x40 MLOAD DUP1 PUSH1 0x40 ADD PUSH1 0x40 MSTORE DUP1 PUSH1 0x6 DUP2 MSTORE PUSH1 0x20 ADD PUSH32 0x3C68746D6C3E0000000000000000000000000000000000000000000000000000 DUP2 MSTORE POP DUP2 JUMP JUMPDEST PUSH2 0x218 PUSH1 0x17 DUP2 JUMP JUMPDEST PUSH2 0x218 PUSH1 0x5A DUP2 JUMP JUMPDEST PUSH2 0x1FA PUSH1 0x40 MLOAD DUP1 PUSH1 0x40 ADD PUSH1 0x40 MSTORE DUP1 PUSH1 0x6 DUP2 MSTORE PUSH1 0x20 ADD PUSH32 0x3C686561643E0000000000000000000000000000000000000000000000000000 DUP2 MSTORE POP DUP2 JUMP JUMPDEST PUSH2 0x362 PUSH2 0x406 CALLDATASIZE PUSH1 0x4 PUSH2 0xBE1 JUMP JUMPDEST PUSH2 0x74F JUMP JUMPDEST PUSH2 0x1FA PUSH2 0x419 CALLDATASIZE PUSH1 0x4 PUSH2 0xBE1 JUMP JUMPDEST PUSH2 0x8D2 JUMP JUMPDEST PUSH2 0x1FA PUSH1 0x40 MLOAD DUP1 PUSH1 0x40 ADD PUSH1 0x40 MSTORE DUP1 PUSH1 0x6 DUP2 MSTORE PUSH1 0x20 ADD PUSH32 0x3C626F64793E0000000000000000000000000000000000000000000000000000 DUP2 MSTORE POP DUP2 JUMP JUMPDEST PUSH2 0x1FA PUSH1 0x40 MLOAD DUP1 PUSH1 0x40 ADD PUSH1 0x40 MSTORE DUP1 PUSH1 0x15 DUP2 MSTORE PUSH1 0x20 ADD PUSH32 0x646174612533417465787425324668746D6C2532430000000000000000000000 DUP2 MSTORE POP DUP2 JUMP JUMPDEST PUSH2 0x1FA PUSH1 0x40 MLOAD DUP1 PUSH1 0x40 ADD PUSH1 0x40 MSTORE DUP1 PUSH1 0xD DUP2 MSTORE PUSH1 0x20 ADD PUSH32 0x2533432532466865616425334500000000000000000000000000000000000000 DUP2 MSTORE POP DUP2 JUMP JUMPDEST PUSH2 0x1FA PUSH1 0x40 MLOAD DUP1 PUSH1 0x40 ADD PUSH1 0x40 MSTORE DUP1 PUSH1 0xE DUP2 MSTORE PUSH1 0x20 ADD PUSH32 0x3C2F626F64793E3C2F68746D6C3E000000000000000000000000000000000000 DUP2 MSTORE POP DUP2 JUMP JUMPDEST PUSH2 0x1FA PUSH1 0x40 MLOAD DUP1 PUSH1 0x40 ADD PUSH1 0x40 MSTORE DUP1 PUSH1 0x16 DUP2 MSTORE PUSH1 0x20 ADD PUSH32 0x646174613A746578742F68746D6C3B6261736536342C00000000000000000000 DUP2 MSTORE POP DUP2 JUMP JUMPDEST PUSH1 0x60 DUP1 PUSH1 0x1 DUP4 PUSH1 0x60 ADD MLOAD PUSH1 0x4 DUP2 GT ISZERO PUSH2 0x565 JUMPI PUSH2 0x565 PUSH2 0xD2E JUMP JUMPDEST SUB PUSH2 0x5DF JUMPI PUSH1 0x40 MLOAD DUP1 PUSH1 0x40 ADD PUSH1 0x40 MSTORE DUP1 PUSH1 0x8 DUP2 MSTORE PUSH1 0x20 ADD PUSH32 0x3C7363726970743E000000000000000000000000000000000000000000000000 DUP2 MSTORE POP PUSH1 0x40 MLOAD DUP1 PUSH1 0x40 ADD PUSH1 0x40 MSTORE DUP1 PUSH1 0x9 DUP2 MSTORE PUSH1 0x20 ADD PUSH32 0x3C2F7363726970743E0000000000000000000000000000000000000000000000 DUP2 MSTORE POP SWAP2 POP SWAP2 POP SWAP2 POP SWAP2 JUMP JUMPDEST PUSH1 0x2 DUP4 PUSH1 0x60 ADD MLOAD PUSH1 0x4 DUP2 GT ISZERO PUSH2 0x5F7 JUMPI PUSH2 0x5F7 PUSH2 0xD2E JUMP JUMPDEST SUB PUSH2 0x654 JUMPI PUSH1 0x40 MLOAD DUP1 PUSH1 0x60 ADD PUSH1 0x40 MSTORE DUP1 PUSH1 0x29 DUP2 MSTORE PUSH1 0x20 ADD PUSH2 0xDCC PUSH1 0x29 SWAP2 CODECOPY PUSH1 0x40 MLOAD DUP1 PUSH1 0x40 ADD PUSH1 0x40 MSTORE DUP1 PUSH1 0xB DUP2 MSTORE PUSH1 0x20 ADD PUSH32 0x223E3C2F7363726970743E000000000000000000000000000000000000000000 DUP2 MSTORE POP SWAP2 POP SWAP2 POP SWAP2 POP SWAP2 JUMP JUMPDEST PUSH1 0x3 DUP4 PUSH1 0x60 ADD MLOAD PUSH1 0x4 DUP2 GT ISZERO PUSH2 0x66C JUMPI PUSH2 0x66C PUSH2 0xD2E JUMP JUMPDEST SUB PUSH2 0x6C9 JUMPI PUSH1 0x40 MLOAD DUP1 PUSH1 0x80 ADD PUSH1 0x40 MSTORE DUP1 PUSH1 0x45 DUP2 MSTORE PUSH1 0x20 ADD PUSH2 0xE3E PUSH1 0x45 SWAP2 CODECOPY PUSH1 0x40 MLOAD DUP1 PUSH1 0x40 ADD PUSH1 0x40 MSTORE DUP1 PUSH1 0xB DUP2 MSTORE PUSH1 0x20 ADD PUSH32 0x223E3C2F7363726970743E000000000000000000000000000000000000000000 DUP2 MSTORE POP SWAP2 POP SWAP2 POP SWAP2 POP SWAP2 JUMP JUMPDEST PUSH1 0x4 DUP4 PUSH1 0x60 ADD MLOAD PUSH1 0x4 DUP2 GT ISZERO PUSH2 0x6E1 JUMPI PUSH2 0x6E1 PUSH2 0xD2E JUMP JUMPDEST SUB PUSH2 0x73E JUMPI PUSH1 0x40 MLOAD DUP1 PUSH1 0x80 ADD PUSH1 0x40 MSTORE DUP1 PUSH1 0x44 DUP2 MSTORE PUSH1 0x20 ADD PUSH2 0xF7C PUSH1 0x44 SWAP2 CODECOPY PUSH1 0x40 MLOAD DUP1 PUSH1 0x40 ADD PUSH1 0x40 MSTORE DUP1 PUSH1 0xB DUP2 MSTORE PUSH1 0x20 ADD PUSH32 0x223E3C2F7363726970743E000000000000000000000000000000000000000000 DUP2 MSTORE POP SWAP2 POP SWAP2 POP SWAP2 POP SWAP2 JUMP JUMPDEST POP POP PUSH1 0x80 DUP2 ADD MLOAD PUSH1 0xA0 SWAP1 SWAP2 ADD MLOAD SWAP1 SWAP2 JUMP JUMPDEST PUSH1 0x60 DUP1 PUSH1 0x1 DUP4 PUSH1 0x60 ADD MLOAD PUSH1 0x4 DUP2 GT ISZERO PUSH2 0x76A JUMPI PUSH2 0x76A PUSH2 0xD2E JUMP JUMPDEST EQ DUP1 PUSH2 0x78B JUMPI POP PUSH1 0x2 DUP4 PUSH1 0x60 ADD MLOAD PUSH1 0x4 DUP2 GT ISZERO PUSH2 0x789 JUMPI PUSH2 0x789 PUSH2 0xD2E JUMP JUMPDEST EQ JUMPDEST ISZERO PUSH2 0x7E8 JUMPI PUSH1 0x40 MLOAD DUP1 PUSH1 0x80 ADD PUSH1 0x40 MSTORE DUP1 PUSH1 0x49 DUP2 MSTORE PUSH1 0x20 ADD PUSH2 0xDF5 PUSH1 0x49 SWAP2 CODECOPY PUSH1 0x40 MLOAD DUP1 PUSH1 0x40 ADD PUSH1 0x40 MSTORE DUP1 PUSH1 0x1F DUP2 MSTORE PUSH1 0x20 ADD PUSH32 0x2532353232253235334525323533432532353246736372697074253235334500 DUP2 MSTORE POP SWAP2 POP SWAP2 POP SWAP2 POP SWAP2 JUMP JUMPDEST PUSH1 0x3 DUP4 PUSH1 0x60 ADD MLOAD PUSH1 0x4 DUP2 GT ISZERO PUSH2 0x800 JUMPI PUSH2 0x800 PUSH2 0xD2E JUMP JUMPDEST SUB PUSH2 0x85D JUMPI PUSH1 0x40 MLOAD DUP1 PUSH1 0xA0 ADD PUSH1 0x40 MSTORE DUP1 PUSH1 0x7D DUP2 MSTORE PUSH1 0x20 ADD PUSH2 0xE83 PUSH1 0x7D SWAP2 CODECOPY PUSH1 0x40 MLOAD DUP1 PUSH1 0x40 ADD PUSH1 0x40 MSTORE DUP1 PUSH1 0x1F DUP2 MSTORE PUSH1 0x20 ADD PUSH32 0x2532353232253235334525323533432532353246736372697074253235334500 DUP2 MSTORE POP SWAP2 POP SWAP2 POP SWAP2 POP SWAP2 JUMP JUMPDEST PUSH1 0x4 DUP4 PUSH1 0x60 ADD MLOAD PUSH1 0x4 DUP2 GT ISZERO PUSH2 0x875 JUMPI PUSH2 0x875 PUSH2 0xD2E JUMP JUMPDEST SUB PUSH2 0x73E JUMPI PUSH1 0x40 MLOAD DUP1 PUSH1 0xA0 ADD PUSH1 0x40 MSTORE DUP1 PUSH1 0x7C DUP2 MSTORE PUSH1 0x20 ADD PUSH2 0xF00 PUSH1 0x7C SWAP2 CODECOPY PUSH1 0x40 MLOAD DUP1 PUSH1 0x40 ADD PUSH1 0x40 MSTORE DUP1 PUSH1 0x1F DUP2 MSTORE PUSH1 0x20 ADD PUSH32 0x2532353232253235334525323533432532353246736372697074253235334500 DUP2 MSTORE POP SWAP2 POP SWAP2 POP SWAP2 POP SWAP2 JUMP JUMPDEST PUSH1 0x20 DUP2 ADD MLOAD PUSH1 0x60 SWAP1 PUSH20 0xFFFFFFFFFFFFFFFFFFFFFFFFFFFFFFFFFFFFFFFF AND ISZERO PUSH2 0x9BD JUMPI PUSH1 0x20 DUP3 ADD MLOAD DUP3 MLOAD PUSH1 0x40 DUP1 DUP6 ADD MLOAD SWAP1 MLOAD PUSH32 0x2647C23D00000000000000000000000000000000000000000000000000000000 DUP2 MSTORE PUSH20 0xFFFFFFFFFFFFFFFFFFFFFFFFFFFFFFFFFFFFFFFF SWAP1 SWAP4 AND SWAP3 PUSH4 0x2647C23D SWAP3 PUSH2 0x954 SWAP3 SWAP1 SWAP2 PUSH1 0x4 ADD PUSH2 0xD00 JUMP JUMPDEST PUSH1 0x0 PUSH1 0x40 MLOAD DUP1 DUP4 SUB DUP2 DUP7 GAS STATICCALL ISZERO DUP1 ISZERO PUSH2 0x971 JUMPI RETURNDATASIZE PUSH1 0x0 DUP1 RETURNDATACOPY RETURNDATASIZE PUSH1 0x0 REVERT JUMPDEST POP POP POP POP PUSH1 0x40 MLOAD RETURNDATASIZE PUSH1 0x0 DUP3 RETURNDATACOPY PUSH1 0x1F RETURNDATASIZE SWAP1 DUP2 ADD PUSH32 0xFFFFFFFFFFFFFFFFFFFFFFFFFFFFFFFFFFFFFFFFFFFFFFFFFFFFFFFFFFFFFFE0 AND DUP3 ADD PUSH1 0x40 MSTORE PUSH2 0x9B7 SWAP2 SWAP1 DUP2 ADD SWAP1 PUSH2 0xD5D JUMP JUMPDEST SWAP3 SWAP2 POP POP JUMP JUMPDEST POP PUSH1 0xC0 ADD MLOAD SWAP1 JUMP JUMPDEST PUSH1 0x0 JUMPDEST DUP4 DUP2 LT ISZERO PUSH2 0x9E0 JUMPI DUP2 DUP2 ADD MLOAD DUP4 DUP3 ADD MSTORE PUSH1 0x20 ADD PUSH2 0x9C8 JUMP JUMPDEST POP POP PUSH1 0x0 SWAP2 ADD MSTORE JUMP JUMPDEST PUSH1 0x0 DUP2 MLOAD DUP1 DUP5 MSTORE PUSH2 0xA01 DUP2 PUSH1 0x20 DUP7 ADD PUSH1 0x20 DUP7 ADD PUSH2 0x9C5 JUMP JUMPDEST PUSH1 0x1F ADD PUSH32 0xFFFFFFFFFFFFFFFFFFFFFFFFFFFFFFFFFFFFFFFFFFFFFFFFFFFFFFFFFFFFFFE0 AND SWAP3 SWAP1 SWAP3 ADD PUSH1 0x20 ADD SWAP3 SWAP2 POP POP JUMP JUMPDEST PUSH1 0x20 DUP2 MSTORE PUSH1 0x0 PUSH2 0xA46 PUSH1 0x20 DUP4 ADD DUP5 PUSH2 0x9E9 JUMP JUMPDEST SWAP4 SWAP3 POP POP POP JUMP JUMPDEST PUSH1 0x0 PUSH1 0x20 DUP3 DUP5 SUB SLT ISZERO PUSH2 0xA5F JUMPI PUSH1 0x0 DUP1 REVERT JUMPDEST POP CALLDATALOAD SWAP2 SWAP1 POP JUMP JUMPDEST PUSH32 0x4E487B7100000000000000000000000000000000000000000000000000000000 PUSH1 0x0 MSTORE PUSH1 0x41 PUSH1 0x4 MSTORE PUSH1 0x24 PUSH1 0x0 REVERT JUMPDEST PUSH1 0x40 MLOAD PUSH1 0xE0 DUP2 ADD PUSH8 0xFFFFFFFFFFFFFFFF DUP2 GT DUP3 DUP3 LT OR ISZERO PUSH2 0xAB8 JUMPI PUSH2 0xAB8 PUSH2 0xA66 JUMP JUMPDEST PUSH1 0x40 MSTORE SWAP1 JUMP JUMPDEST PUSH1 0x40 MLOAD PUSH1 0x1F DUP3 ADD PUSH32 0xFFFFFFFFFFFFFFFFFFFFFFFFFFFFFFFFFFFFFFFFFFFFFFFFFFFFFFFFFFFFFFE0 AND DUP2 ADD PUSH8 0xFFFFFFFFFFFFFFFF DUP2 GT DUP3 DUP3 LT OR ISZERO PUSH2 0xB05 JUMPI PUSH2 0xB05 PUSH2 0xA66 JUMP JUMPDEST PUSH1 0x40 MSTORE SWAP2 SWAP1 POP JUMP JUMPDEST PUSH1 0x0 PUSH8 0xFFFFFFFFFFFFFFFF DUP3 GT ISZERO PUSH2 0xB27 JUMPI PUSH2 0xB27 PUSH2 0xA66 JUMP JUMPDEST POP PUSH1 0x1F ADD PUSH32 0xFFFFFFFFFFFFFFFFFFFFFFFFFFFFFFFFFFFFFFFFFFFFFFFFFFFFFFFFFFFFFFE0 AND PUSH1 0x20 ADD SWAP1 JUMP JUMPDEST PUSH1 0x0 DUP3 PUSH1 0x1F DUP4 ADD SLT PUSH2 0xB64 JUMPI PUSH1 0x0 DUP1 REVERT JUMPDEST DUP2 CALLDATALOAD PUSH2 0xB77 PUSH2 0xB72 DUP3 PUSH2 0xB0D JUMP JUMPDEST PUSH2 0xABE JUMP JUMPDEST DUP2 DUP2 MSTORE DUP5 PUSH1 0x20 DUP4 DUP7 ADD ADD GT ISZERO PUSH2 0xB8C JUMPI PUSH1 0x0 DUP1 REVERT JUMPDEST DUP2 PUSH1 0x20 DUP6 ADD PUSH1 0x20 DUP4 ADD CALLDATACOPY PUSH1 0x0 SWAP2 DUP2 ADD PUSH1 0x20 ADD SWAP2 SWAP1 SWAP2 MSTORE SWAP4 SWAP3 POP POP POP JUMP JUMPDEST DUP1 CALLDATALOAD PUSH20 0xFFFFFFFFFFFFFFFFFFFFFFFFFFFFFFFFFFFFFFFF DUP2 AND DUP2 EQ PUSH2 0xBCD JUMPI PUSH1 0x0 DUP1 REVERT JUMPDEST SWAP2 SWAP1 POP JUMP JUMPDEST DUP1 CALLDATALOAD PUSH1 0x5 DUP2 LT PUSH2 0xBCD JUMPI PUSH1 0x0 DUP1 REVERT JUMPDEST PUSH1 0x0 PUSH1 0x20 DUP3 DUP5 SUB SLT ISZERO PUSH2 0xBF3 JUMPI PUSH1 0x0 DUP1 REVERT JUMPDEST DUP2 CALLDATALOAD PUSH8 0xFFFFFFFFFFFFFFFF DUP1 DUP3 GT ISZERO PUSH2 0xC0B JUMPI PUSH1 0x0 DUP1 REVERT JUMPDEST SWAP1 DUP4 ADD SWAP1 PUSH1 0xE0 DUP3 DUP7 SUB SLT ISZERO PUSH2 0xC1F JUMPI PUSH1 0x0 DUP1 REVERT JUMPDEST PUSH2 0xC27 PUSH2 0xA95 JUMP JUMPDEST DUP3 CALLDATALOAD DUP3 DUP2 GT ISZERO PUSH2 0xC36 JUMPI PUSH1 0x0 DUP1 REVERT JUMPDEST PUSH2 0xC42 DUP8 DUP3 DUP7 ADD PUSH2 0xB53 JUMP JUMPDEST DUP3 MSTORE POP PUSH2 0xC51 PUSH1 0x20 DUP5 ADD PUSH2 0xBA9 JUMP JUMPDEST PUSH1 0x20 DUP3 ADD MSTORE PUSH1 0x40 DUP4 ADD CALLDATALOAD DUP3 DUP2 GT ISZERO PUSH2 0xC68 JUMPI PUSH1 0x0 DUP1 REVERT JUMPDEST PUSH2 0xC74 DUP8 DUP3 DUP7 ADD PUSH2 0xB53 JUMP JUMPDEST PUSH1 0x40 DUP4 ADD MSTORE POP PUSH2 0xC86 PUSH1 0x60 DUP5 ADD PUSH2 0xBD2 JUMP JUMPDEST PUSH1 0x60 DUP3 ADD MSTORE PUSH1 0x80 DUP4 ADD CALLDATALOAD DUP3 DUP2 GT ISZERO PUSH2 0xC9D JUMPI PUSH1 0x0 DUP1 REVERT JUMPDEST PUSH2 0xCA9 DUP8 DUP3 DUP7 ADD PUSH2 0xB53 JUMP JUMPDEST PUSH1 0x80 DUP4 ADD MSTORE POP PUSH1 0xA0 DUP4 ADD CALLDATALOAD DUP3 DUP2 GT ISZERO PUSH2 0xCC1 JUMPI PUSH1 0x0 DUP1 REVERT JUMPDEST PUSH2 0xCCD DUP8 DUP3 DUP7 ADD PUSH2 0xB53 JUMP JUMPDEST PUSH1 0xA0 DUP4 ADD MSTORE POP PUSH1 0xC0 DUP4 ADD CALLDATALOAD DUP3 DUP2 GT ISZERO PUSH2 0xCE5 JUMPI PUSH1 0x0 DUP1 REVERT JUMPDEST PUSH2 0xCF1 DUP8 DUP3 DUP7 ADD PUSH2 0xB53 JUMP JUMPDEST PUSH1 0xC0 DUP4 ADD MSTORE POP SWAP6 SWAP5 POP POP POP POP POP JUMP JUMPDEST PUSH1 0x40 DUP2 MSTORE PUSH1 0x0 PUSH2 0xD13 PUSH1 0x40 DUP4 ADD DUP6 PUSH2 0x9E9 JUMP JUMPDEST DUP3 DUP2 SUB PUSH1 0x20 DUP5 ADD MSTORE PUSH2 0xD25 DUP2 DUP6 PUSH2 0x9E9 JUMP JUMPDEST SWAP6 SWAP5 POP POP POP POP POP JUMP JUMPDEST PUSH32 0x4E487B7100000000000000000000000000000000000000000000000000000000 PUSH1 0x0 MSTORE PUSH1 0x21 PUSH1 0x4 MSTORE PUSH1 0x24 PUSH1 0x0 REVERT JUMPDEST PUSH1 0x0 PUSH1 0x20 DUP3 DUP5 SUB SLT ISZERO PUSH2 0xD6F JUMPI PUSH1 0x0 DUP1 REVERT JUMPDEST DUP2 MLOAD PUSH8 0xFFFFFFFFFFFFFFFF DUP2 GT ISZERO PUSH2 0xD86 JUMPI PUSH1 0x0 DUP1 REVERT JUMPDEST DUP3 ADD PUSH1 0x1F DUP2 ADD DUP5 SGT PUSH2 0xD97 JUMPI PUSH1 0x0 DUP1 REVERT JUMPDEST DUP1 MLOAD PUSH2 0xDA5 PUSH2 0xB72 DUP3 PUSH2 0xB0D JUMP JUMPDEST DUP2 DUP2 MSTORE DUP6 PUSH1 0x20 DUP4 DUP6 ADD ADD GT ISZERO PUSH2 0xDBA JUMPI PUSH1 0x0 DUP1 REVERT JUMPDEST PUSH2 0xD25 DUP3 PUSH1 0x20 DUP4 ADD PUSH1 0x20 DUP7 ADD PUSH2 0x9C5 JUMP INVALID EXTCODECOPY PUSH20 0x6372697074207372633D22646174613A74657874 0x2F PUSH11 0x6176617363726970743B62 PUSH2 0x7365 CALLDATASIZE CALLVALUE 0x2C 0x25 ORIGIN CALLDATALOAD CALLER NUMBER PUSH20 0x6372697074253235323073726325323533442532 CALLDATALOAD ORIGIN ORIGIN PUSH5 0x6174612532 CALLDATALOAD CALLER COINBASE PUSH21 0x65787425323532466A617661736372697074253235 CALLER TIMESTAMP PUSH3 0x617365 CALLDATASIZE CALLVALUE 0x25 ORIGIN CALLDATALOAD ORIGIN NUMBER EXTCODECOPY PUSH20 0x637269707420747970653D22746578742F6A6176 PUSH2 0x7363 PUSH19 0x6970742B677A697022207372633D2264617461 GASPRICE PUSH21 0x6578742F6A6176617363726970743B626173653634 0x2C 0x25 ORIGIN CALLDATALOAD CALLER NUMBER PUSH20 0x6372697074253235323074797065253235334425 ORIGIN CALLDATALOAD ORIGIN ORIGIN PUSH21 0x65787425323532466A617661736372697074253235 ORIGIN TIMESTAMP PUSH8 0x7A69702532353232 0x25 ORIGIN CALLDATALOAD ORIGIN ADDRESS PUSH20 0x7263253235334425323532326461746125323533 COINBASE PUSH21 0x65787425323532466A617661736372697074253235 CALLER TIMESTAMP PUSH3 0x617365 CALLDATASIZE CALLVALUE 0x25 ORIGIN CALLDATALOAD ORIGIN NUMBER 0x25 ORIGIN CALLDATALOAD CALLER NUMBER PUSH20 0x6372697074253235323074797065253235334425 ORIGIN CALLDATALOAD ORIGIN ORIGIN PUSH21 0x65787425323532466A617661736372697074253235 ORIGIN TIMESTAMP PUSH17 0x6E67253235323225323532307372632532 CALLDATALOAD CALLER PREVRANDAO 0x25 ORIGIN CALLDATALOAD ORIGIN ORIGIN PUSH5 0x6174612532 CALLDATALOAD CALLER COINBASE PUSH21 0x65787425323532466A617661736372697074253235 CALLER TIMESTAMP PUSH3 0x617365 CALLDATASIZE CALLVALUE 0x25 ORIGIN CALLDATALOAD ORIGIN NUMBER EXTCODECOPY PUSH20 0x637269707420747970653D22746578742F6A6176 PUSH2 0x7363 PUSH19 0x6970742B706E6722207372633D22646174613A PUSH21 0x6578742F6A6176617363726970743B626173653634 0x2C LOG2 PUSH5 0x6970667358 0x22 SLT KECCAK256 BLOCKHASH SHL 0xDC CODECOPY ADDRESS 0xB7 DUP15 JUMP EXTCODECOPY 0x24 SLT 0xC1 0xE5 0xE CALLDATASIZE MSIZE SWAP3 PUSH0 PUSH32 0xE235DD5136F239418634E01B3F64736F6C634300081800330000000000000000 "
        },
        "methodIdentifiers": {
          "BODY_OPEN_RAW()": "ce5ad179",
          "BODY_OPEN_URL_SAFE()": "7f369319",
          "BODY_RAW_BYTES()": "33174f98",
          "BODY_SAFE_BYTES()": "be58b0a9",
          "DATA_HTML_BASE64_URI_RAW()": "f6130adc",
          "DATA_HTML_URL_SAFE()": "d61974f1",
          "HEAD_CLOSE_RAW()": "3d5be2c2",
          "HEAD_CLOSE_URL_SAFE()": "d9237f14",
          "HEAD_OPEN_RAW()": "c46b294d",
          "HEAD_OPEN_URL_SAFE()": "43f2614f",
          "HEAD_RAW_BYTES()": "d0c3efa8",
          "HEAD_URL_SAFE_BYTES()": "bf35dd0b",
          "HTML_BASE64_DATA_URI_BYTES()": "7510ac24",
          "HTML_BODY_CLOSED_RAW()": "f051dcf8",
          "HTML_BODY_CLOSED_URL_SAFE()": "053f1eb0",
          "HTML_OPEN_RAW()": "bc689620",
          "HTML_OPEN_URL_SAFE()": "640bab41",
          "HTML_RAW_BYTES()": "b55ccc62",
          "HTML_URL_SAFE_BYTES()": "f49717ee",
          "RAW_BYTES()": "afae76fa",
          "URLS_RAW_BYTES()": "87598e52",
          "URLS_SAFE_BYTES()": "bee84ae3",
          "URL_SAFE_BYTES()": "3708be65",
          "fetchTagContent((string,address,bytes,uint8,bytes,bytes,bytes))": "cdea0cef",
          "sizeForBase64Encoding(uint256)": "72617f8a",
          "tagOpenCloseForHTMLTag((string,address,bytes,uint8,bytes,bytes,bytes))": "8c8c3796",
          "tagOpenCloseForHTMLTagURLSafe((string,address,bytes,uint8,bytes,bytes,bytes))": "cd475f26"
        }
      }
    }
  }
}