{
  "contracts/libraries/ArtifactReader.sol": {
    "ArtifactReader": {
      "abi": [
        {
          "inputs": [
            {
              "components": [
                {
                  "internalType": "string",
                  "name": "name",
                  "type": "string"
                },
                {
                  "internalType": "string",
                  "name": "description",
                  "type": "string"
                },
                {
                  "internalType": "address[]",
                  "name": "artifact",
                  "type": "address[]"
                },
                {
                  "internalType": "uint32",
                  "name": "renderer",
                  "type": "uint32"
                },
                {
                  "internalType": "uint32",
                  "name": "mintedBlock",
                  "type": "uint32"
                },
                {
                  "internalType": "uint64",
                  "name": "closeAt",
                  "type": "uint64"
                },
                {
                  "internalType": "uint128",
                  "name": "data",
                  "type": "uint128"
                }
              ],
              "internalType": "struct Token",
              "name": "token",
              "type": "tuple"
            }
          ],
          "name": "get",
          "outputs": [
            {
              "internalType": "bytes",
              "name": "content",
              "type": "bytes"
            }
          ],
          "stateMutability": "view",
          "type": "function"
        }
      ],
      "evm": {
        "bytecode": {
          "linkReferences": {},
          "object": "6105de61003a600b82828239805160001a60731461002d57634e487b7160e01b600052600060045260246000fd5b30600052607381538281f3fe73000000000000000000000000000000000000000030146080604052600436106100355760003560e01c80631c6cf18f1461003a575b600080fd5b61004d61004836600461037b565b610063565b60405161005a9190610498565b60405180910390f35b606060005b8260400151518160ff1610156100d757816100a284604001518360ff1681518110610095576100956104e9565b60200260200101516100dd565b6040516020016100b3929190610518565b604051602081830303815290604052915080806100cf90610576565b915050610068565b50919050565b606061010b8260016101068173ffffffffffffffffffffffffffffffffffffffff84163b610595565b610111565b92915050565b60408051603f83017fffffffffffffffffffffffffffffffffffffffffffffffffffffffffffffffe0168101909152818152818360208301863c9392505050565b7f4e487b7100000000000000000000000000000000000000000000000000000000600052604160045260246000fd5b60405160e0810167ffffffffffffffff811182821017156101a4576101a4610152565b60405290565b604051601f82017fffffffffffffffffffffffffffffffffffffffffffffffffffffffffffffffe016810167ffffffffffffffff811182821017156101f1576101f1610152565b604052919050565b600082601f83011261020a57600080fd5b813567ffffffffffffffff81111561022457610224610152565b61025560207fffffffffffffffffffffffffffffffffffffffffffffffffffffffffffffffe0601f840116016101aa565b81815284602083860101111561026a57600080fd5b816020850160208301376000918101602001919091529392505050565b600082601f83011261029857600080fd5b8135602067ffffffffffffffff8211156102b4576102b4610152565b8160051b6102c38282016101aa565b92835284810182019282810190878511156102dd57600080fd5b83870192505b8483101561031f57823573ffffffffffffffffffffffffffffffffffffffff811681146103105760008081fd5b825291830191908301906102e3565b979650505050505050565b803563ffffffff8116811461033e57600080fd5b919050565b803567ffffffffffffffff8116811461033e57600080fd5b80356fffffffffffffffffffffffffffffffff8116811461033e57600080fd5b60006020828403121561038d57600080fd5b813567ffffffffffffffff808211156103a557600080fd5b9083019060e082860312156103b957600080fd5b6103c1610181565b8235828111156103d057600080fd5b6103dc878286016101f9565b8252506020830135828111156103f157600080fd5b6103fd878286016101f9565b60208301525060408301358281111561041557600080fd5b61042187828601610287565b6040830152506104336060840161032a565b60608201526104446080840161032a565b608082015261045560a08401610343565b60a082015261046660c0840161035b565b60c082015295945050505050565b60005b8381101561048f578181015183820152602001610477565b50506000910152565b60208152600082518060208401526104b7816040850160208701610474565b601f017fffffffffffffffffffffffffffffffffffffffffffffffffffffffffffffffe0169190910160400192915050565b7f4e487b7100000000000000000000000000000000000000000000000000000000600052603260045260246000fd5b6000835161052a818460208801610474565b83519083019061053e818360208801610474565b01949350505050565b7f4e487b7100000000000000000000000000000000000000000000000000000000600052601160045260246000fd5b600060ff821660ff810361058c5761058c610547565b60010192915050565b8181038181111561010b5761010b61054756fea2646970667358221220105c4d971c90c712b3e48cea3d084e0404096bfd041ca7ff0c5c64bb77c4429b64736f6c63430008180033",
          "opcodes": "PUSH2 0x5DE PUSH2 0x3A PUSH1 0xB DUP3 DUP3 DUP3 CODECOPY DUP1 MLOAD PUSH1 0x0 BYTE PUSH1 0x73 EQ PUSH2 0x2D JUMPI PUSH4 0x4E487B71 PUSH1 0xE0 SHL PUSH1 0x0 MSTORE PUSH1 0x0 PUSH1 0x4 MSTORE PUSH1 0x24 PUSH1 0x0 REVERT JUMPDEST ADDRESS PUSH1 0x0 MSTORE PUSH1 0x73 DUP2 MSTORE8 DUP3 DUP2 RETURN INVALID PUSH20 0x0 ADDRESS EQ PUSH1 0x80 PUSH1 0x40 MSTORE PUSH1 0x4 CALLDATASIZE LT PUSH2 0x35 JUMPI PUSH1 0x0 CALLDATALOAD PUSH1 0xE0 SHR DUP1 PUSH4 0x1C6CF18F EQ PUSH2 0x3A JUMPI JUMPDEST PUSH1 0x0 DUP1 REVERT JUMPDEST PUSH2 0x4D PUSH2 0x48 CALLDATASIZE PUSH1 0x4 PUSH2 0x37B JUMP JUMPDEST PUSH2 0x63 JUMP JUMPDEST PUSH1 0x40 MLOAD PUSH2 0x5A SWAP2 SWAP1 PUSH2 0x498 JUMP JUMPDEST PUSH1 0x40 MLOAD DUP1 SWAP2 SUB SWAP1 RETURN JUMPDEST PUSH1 0x60 PUSH1 0x0 JUMPDEST DUP3 PUSH1 0x40 ADD MLOAD MLOAD DUP2 PUSH1 0xFF AND LT ISZERO PUSH2 0xD7 JUMPI DUP2 PUSH2 0xA2 DUP5 PUSH1 0x40 ADD MLOAD DUP4 PUSH1 0xFF AND DUP2 MLOAD DUP2 LT PUSH2 0x95 JUMPI PUSH2 0x95 PUSH2 0x4E9 JUMP JUMPDEST PUSH1 0x20 MUL PUSH1 0x20 ADD ADD MLOAD PUSH2 0xDD JUMP JUMPDEST PUSH1 0x40 MLOAD PUSH1 0x20 ADD PUSH2 0xB3 SWAP3 SWAP2 SWAP1 PUSH2 0x518 JUMP JUMPDEST PUSH1 0x40 MLOAD PUSH1 0x20 DUP2 DUP4 SUB SUB DUP2 MSTORE SWAP1 PUSH1 0x40 MSTORE SWAP2 POP DUP1 DUP1 PUSH2 0xCF SWAP1 PUSH2 0x576 JUMP JUMPDEST SWAP2 POP POP PUSH2 0x68 JUMP JUMPDEST POP SWAP2 SWAP1 POP JUMP JUMPDEST PUSH1 0x60 PUSH2 0x10B DUP3 PUSH1 0x1 PUSH2 0x106 DUP2 PUSH20 0xFFFFFFFFFFFFFFFFFFFFFFFFFFFFFFFFFFFFFFFF DUP5 AND EXTCODESIZE PUSH2 0x595 JUMP JUMPDEST PUSH2 0x111 JUMP JUMPDEST SWAP3 SWAP2 POP POP JUMP JUMPDEST PUSH1 0x40 DUP1 MLOAD PUSH1 0x3F DUP4 ADD PUSH32 0xFFFFFFFFFFFFFFFFFFFFFFFFFFFFFFFFFFFFFFFFFFFFFFFFFFFFFFFFFFFFFFE0 AND DUP2 ADD SWAP1 SWAP2 MSTORE DUP2 DUP2 MSTORE DUP2 DUP4 PUSH1 0x20 DUP4 ADD DUP7 EXTCODECOPY SWAP4 SWAP3 POP POP POP JUMP JUMPDEST PUSH32 0x4E487B7100000000000000000000000000000000000000000000000000000000 PUSH1 0x0 MSTORE PUSH1 0x41 PUSH1 0x4 MSTORE PUSH1 0x24 PUSH1 0x0 REVERT JUMPDEST PUSH1 0x40 MLOAD PUSH1 0xE0 DUP2 ADD PUSH8 0xFFFFFFFFFFFFFFFF DUP2 GT DUP3 DUP3 LT OR ISZERO PUSH2 0x1A4 JUMPI PUSH2 0x1A4 PUSH2 0x152 JUMP JUMPDEST PUSH1 0x40 MSTORE SWAP1 JUMP JUMPDEST PUSH1 0x40 MLOAD PUSH1 0x1F DUP3 ADD PUSH32 0xFFFFFFFFFFFFFFFFFFFFFFFFFFFFFFFFFFFFFFFFFFFFFFFFFFFFFFFFFFFFFFE0 AND DUP2 ADD PUSH8 0xFFFFFFFFFFFFFFFF DUP2 GT DUP3 DUP3 LT OR ISZERO PUSH2 0x1F1 JUMPI PUSH2 0x1F1 PUSH2 0x152 JUMP JUMPDEST PUSH1 0x40 MSTORE SWAP2 SWAP1 POP JUMP JUMPDEST PUSH1 0x0 DUP3 PUSH1 0x1F DUP4 ADD SLT PUSH2 0x20A JUMPI PUSH1 0x0 DUP1 REVERT JUMPDEST DUP2 CALLDATALOAD PUSH8 0xFFFFFFFFFFFFFFFF DUP2 GT ISZERO PUSH2 0x224 JUMPI PUSH2 0x224 PUSH2 0x152 JUMP JUMPDEST PUSH2 0x255 PUSH1 0x20 PUSH32 0xFFFFFFFFFFFFFFFFFFFFFFFFFFFFFFFFFFFFFFFFFFFFFFFFFFFFFFFFFFFFFFE0 PUSH1 0x1F DUP5 ADD AND ADD PUSH2 0x1AA JUMP JUMPDEST DUP2 DUP2 MSTORE DUP5 PUSH1 0x20 DUP4 DUP7 ADD ADD GT ISZERO PUSH2 0x26A JUMPI PUSH1 0x0 DUP1 REVERT JUMPDEST DUP2 PUSH1 0x20 DUP6 ADD PUSH1 0x20 DUP4 ADD CALLDATACOPY PUSH1 0x0 SWAP2 DUP2 ADD PUSH1 0x20 ADD SWAP2 SWAP1 SWAP2 MSTORE SWAP4 SWAP3 POP POP POP JUMP JUMPDEST PUSH1 0x0 DUP3 PUSH1 0x1F DUP4 ADD SLT PUSH2 0x298 JUMPI PUSH1 0x0 DUP1 REVERT JUMPDEST DUP2 CALLDATALOAD PUSH1 0x20 PUSH8 0xFFFFFFFFFFFFFFFF DUP3 GT ISZERO PUSH2 0x2B4 JUMPI PUSH2 0x2B4 PUSH2 0x152 JUMP JUMPDEST DUP2 PUSH1 0x5 SHL PUSH2 0x2C3 DUP3 DUP3 ADD PUSH2 0x1AA JUMP JUMPDEST SWAP3 DUP4 MSTORE DUP5 DUP2 ADD DUP3 ADD SWAP3 DUP3 DUP2 ADD SWAP1 DUP8 DUP6 GT ISZERO PUSH2 0x2DD JUMPI PUSH1 0x0 DUP1 REVERT JUMPDEST DUP4 DUP8 ADD SWAP3 POP JUMPDEST DUP5 DUP4 LT ISZERO PUSH2 0x31F JUMPI DUP3 CALLDATALOAD PUSH20 0xFFFFFFFFFFFFFFFFFFFFFFFFFFFFFFFFFFFFFFFF DUP2 AND DUP2 EQ PUSH2 0x310 JUMPI PUSH1 0x0 DUP1 DUP2 REVERT JUMPDEST DUP3 MSTORE SWAP2 DUP4 ADD SWAP2 SWAP1 DUP4 ADD SWAP1 PUSH2 0x2E3 JUMP JUMPDEST SWAP8 SWAP7 POP POP POP POP POP POP POP JUMP JUMPDEST DUP1 CALLDATALOAD PUSH4 0xFFFFFFFF DUP2 AND DUP2 EQ PUSH2 0x33E JUMPI PUSH1 0x0 DUP1 REVERT JUMPDEST SWAP2 SWAP1 POP JUMP JUMPDEST DUP1 CALLDATALOAD PUSH8 0xFFFFFFFFFFFFFFFF DUP2 AND DUP2 EQ PUSH2 0x33E JUMPI PUSH1 0x0 DUP1 REVERT JUMPDEST DUP1 CALLDATALOAD PUSH16 0xFFFFFFFFFFFFFFFFFFFFFFFFFFFFFFFF DUP2 AND DUP2 EQ PUSH2 0x33E JUMPI PUSH1 0x0 DUP1 REVERT JUMPDEST PUSH1 0x0 PUSH1 0x20 DUP3 DUP5 SUB SLT ISZERO PUSH2 0x38D JUMPI PUSH1 0x0 DUP1 REVERT JUMPDEST DUP2 CALLDATALOAD PUSH8 0xFFFFFFFFFFFFFFFF DUP1 DUP3 GT ISZERO PUSH2 0x3A5 JUMPI PUSH1 0x0 DUP1 REVERT JUMPDEST SWAP1 DUP4 ADD SWAP1 PUSH1 0xE0 DUP3 DUP7 SUB SLT ISZERO PUSH2 0x3B9 JUMPI PUSH1 0x0 DUP1 REVERT JUMPDEST PUSH2 0x3C1 PUSH2 0x181 JUMP JUMPDEST DUP3 CALLDATALOAD DUP3 DUP2 GT ISZERO PUSH2 0x3D0 JUMPI PUSH1 0x0 DUP1 REVERT JUMPDEST PUSH2 0x3DC DUP8 DUP3 DUP7 ADD PUSH2 0x1F9 JUMP JUMPDEST DUP3 MSTORE POP PUSH1 0x20 DUP4 ADD CALLDATALOAD DUP3 DUP2 GT ISZERO PUSH2 0x3F1 JUMPI PUSH1 0x0 DUP1 REVERT JUMPDEST PUSH2 0x3FD DUP8 DUP3 DUP7 ADD PUSH2 0x1F9 JUMP JUMPDEST PUSH1 0x20 DUP4 ADD MSTORE POP PUSH1 0x40 DUP4 ADD CALLDATALOAD DUP3 DUP2 GT ISZERO PUSH2 0x415 JUMPI PUSH1 0x0 DUP1 REVERT JUMPDEST PUSH2 0x421 DUP8 DUP3 DUP7 ADD PUSH2 0x287 JUMP JUMPDEST PUSH1 0x40 DUP4 ADD MSTORE POP PUSH2 0x433 PUSH1 0x60 DUP5 ADD PUSH2 0x32A JUMP JUMPDEST PUSH1 0x60 DUP3 ADD MSTORE PUSH2 0x444 PUSH1 0x80 DUP5 ADD PUSH2 0x32A JUMP JUMPDEST PUSH1 0x80 DUP3 ADD MSTORE PUSH2 0x455 PUSH1 0xA0 DUP5 ADD PUSH2 0x343 JUMP JUMPDEST PUSH1 0xA0 DUP3 ADD MSTORE PUSH2 0x466 PUSH1 0xC0 DUP5 ADD PUSH2 0x35B JUMP JUMPDEST PUSH1 0xC0 DUP3 ADD MSTORE SWAP6 SWAP5 POP POP POP POP POP JUMP JUMPDEST PUSH1 0x0 JUMPDEST DUP4 DUP2 LT ISZERO PUSH2 0x48F JUMPI DUP2 DUP2 ADD MLOAD DUP4 DUP3 ADD MSTORE PUSH1 0x20 ADD PUSH2 0x477 JUMP JUMPDEST POP POP PUSH1 0x0 SWAP2 ADD MSTORE JUMP JUMPDEST PUSH1 0x20 DUP2 MSTORE PUSH1 0x0 DUP3 MLOAD DUP1 PUSH1 0x20 DUP5 ADD MSTORE PUSH2 0x4B7 DUP2 PUSH1 0x40 DUP6 ADD PUSH1 0x20 DUP8 ADD PUSH2 0x474 JUMP JUMPDEST PUSH1 0x1F ADD PUSH32 0xFFFFFFFFFFFFFFFFFFFFFFFFFFFFFFFFFFFFFFFFFFFFFFFFFFFFFFFFFFFFFFE0 AND SWAP2 SWAP1 SWAP2 ADD PUSH1 0x40 ADD SWAP3 SWAP2 POP POP JUMP JUMPDEST PUSH32 0x4E487B7100000000000000000000000000000000000000000000000000000000 PUSH1 0x0 MSTORE PUSH1 0x32 PUSH1 0x4 MSTORE PUSH1 0x24 PUSH1 0x0 REVERT JUMPDEST PUSH1 0x0 DUP4 MLOAD PUSH2 0x52A DUP2 DUP5 PUSH1 0x20 DUP9 ADD PUSH2 0x474 JUMP JUMPDEST DUP4 MLOAD SWAP1 DUP4 ADD SWAP1 PUSH2 0x53E DUP2 DUP4 PUSH1 0x20 DUP9 ADD PUSH2 0x474 JUMP JUMPDEST ADD SWAP5 SWAP4 POP POP POP POP JUMP JUMPDEST PUSH32 0x4E487B7100000000000000000000000000000000000000000000000000000000 PUSH1 0x0 MSTORE PUSH1 0x11 PUSH1 0x4 MSTORE PUSH1 0x24 PUSH1 0x0 REVERT JUMPDEST PUSH1 0x0 PUSH1 0xFF DUP3 AND PUSH1 0xFF DUP2 SUB PUSH2 0x58C JUMPI PUSH2 0x58C PUSH2 0x547 JUMP JUMPDEST PUSH1 0x1 ADD SWAP3 SWAP2 POP POP JUMP JUMPDEST DUP2 DUP2 SUB DUP2 DUP2 GT ISZERO PUSH2 0x10B JUMPI PUSH2 0x10B PUSH2 0x547 JUMP INVALID LOG2 PUSH5 0x6970667358 0x22 SLT KECCAK256 LT TLOAD 0x4D SWAP8 SHR SWAP1 0xC7 SLT 0xB3 0xE4 DUP13 0xEA RETURNDATASIZE ADDMOD 0x4E DIV DIV MULMOD PUSH12 0xFD041CA7FF0C5C64BB77C442 SWAP12 PUSH5 0x736F6C6343 STOP ADDMOD XOR STOP CALLER "
        },
        "methodIdentifiers": {
          "get(Token)": "1c6cf18f"
        }
      }
    }
  }
}